{"contracts/BigBang_LendingService.sol":{"BigBang_LendingService":{"abi":[{"inputs":[{"internalType":"address","name":"_networkCoinPriceFeed","type":"address"},{"internalType":"uint8","name":"_ownerFeePercent","type":"uint8"},{"internalType":"uint256","name":"_voteFee","type":"uint256"},{"internalType":"uint8","name":"_lendingLimitationPercent","type":"uint8"},{"internalType":"uint256","name":"_lowestPrice","type":"uint256"},{"internalType":"uint256","name":"_highestPrice","type":"uint256"},{"internalType":"uint8","name":"_repaymentPeriod","type":"uint8"},{"internalType":"uint256","name":"_ownerShare","type":"uint256"}],"stateMutability":"nonpayable","type":"constructor"},{"anonymous":false,"inputs":[{"indexed":true,"internalType":"address","name":"from","type":"address"},{"indexed":true,"internalType":"address","name":"to","type":"address"},{"indexed":false,"internalType":"uint256","name":"tokens","type":"uint256"}],"name":"Borrowed","type":"event"},{"anonymous":false,"inputs":[{"indexed":true,"internalType":"address","name":"from","type":"address"},{"indexed":true,"internalType":"address","name":"to","type":"address"},{"indexed":false,"internalType":"uint256","name":"tokens","type":"uint256"}],"name":"Repaid","type":"event"},{"anonymous":false,"inputs":[{"indexed":true,"internalType":"bytes32","name":"role","type":"bytes32"},{"indexed":true,"internalType":"bytes32","name":"previousAdminRole","type":"bytes32"},{"indexed":true,"internalType":"bytes32","name":"newAdminRole","type":"bytes32"}],"name":"RoleAdminChanged","type":"event"},{"anonymous":false,"inputs":[{"indexed":true,"internalType":"bytes32","name":"role","type":"bytes32"},{"indexed":true,"internalType":"address","name":"account","type":"address"},{"indexed":true,"internalType":"address","name":"sender","type":"address"}],"name":"RoleGranted","type":"event"},{"anonymous":false,"inputs":[{"indexed":true,"internalType":"bytes32","name":"role","type":"bytes32"},{"indexed":true,"internalType":"address","name":"account","type":"address"},{"indexed":true,"internalType":"address","name":"sender","type":"address"}],"name":"RoleRevoked","type":"event"},{"stateMutability":"payable","type":"fallback"},{"inputs":[],"name":"DEFAULT_ADMIN_ROLE","outputs":[{"internalType":"bytes32","name":"","type":"bytes32"}],"stateMutability":"view","type":"function"},{"inputs":[{"internalType":"address","name":"_tokenAddr","type":"address"},{"internalType":"address","name":"_tokenPriceFeedAddr","type":"address"}],"name":"addToken","outputs":[],"stateMutability":"nonpayable","type":"function"},{"inputs":[{"internalType":"address","name":"_collateralTokenAddr","type":"address"},{"internalType":"uint256","name":"_collateralAmount","type":"uint256"}],"name":"borrowTokens","outputs":[],"stateMutability":"payable","type":"function"},{"inputs":[{"internalType":"address","name":"_collateralTokenAddr","type":"address"},{"internalType":"uint256","name":"_collateralAmount","type":"uint256"}],"name":"calculateEstimatedLoanAmount","outputs":[{"internalType":"uint256","name":"","type":"uint256"},{"internalType":"uint256","name":"","type":"uint256"}],"stateMutability":"view","type":"function"},{"inputs":[{"internalType":"address","name":"_borrowerAddr","type":"address"},{"internalType":"address","name":"_tokenAddr","type":"address"},{"internalType":"uint256","name":"_borrowAmount","type":"uint256"}],"name":"calculateUnlockableCollateral","outputs":[{"internalType":"uint256","name":"","type":"uint256"}],"stateMutability":"view","type":"function"},{"inputs":[{"internalType":"address","name":"_tokenAddr","type":"address"},{"internalType":"address","name":"_tokenPriceFeedAddr","type":"address"}],"name":"changeTokenPriceFeed","outputs":[],"stateMutability":"nonpayable","type":"function"},{"inputs":[{"internalType":"address","name":"_borrowerAddr","type":"address"},{"internalType":"address","name":"_tokenAddr","type":"address"}],"name":"checkLoanExistence","outputs":[{"internalType":"bool","name":"","type":"bool"}],"stateMutability":"view","type":"function"},{"inputs":[{"internalType":"address","name":"_tokenAddr","type":"address"}],"name":"checkTokenExistence","outputs":[{"internalType":"bool","name":"","type":"bool"}],"stateMutability":"view","type":"function"},{"inputs":[],"name":"estimateBigBangPrice","outputs":[{"internalType":"uint256","name":"","type":"uint256"}],"stateMutability":"view","type":"function"},{"inputs":[{"internalType":"address","name":"_tokenAddr","type":"address"}],"name":"fetchTokenLatestPrice","outputs":[{"internalType":"uint256","name":"","type":"uint256"}],"stateMutability":"view","type":"function"},{"inputs":[],"name":"getAssetsTotalValue","outputs":[{"internalType":"uint256","name":"","type":"uint256"}],"stateMutability":"view","type":"function"},{"inputs":[],"name":"getBusinessLogicData","outputs":[{"internalType":"address","name":"","type":"address"},{"internalType":"uint8","name":"","type":"uint8"},{"internalType":"uint256","name":"","type":"uint256"},{"internalType":"uint8","name":"","type":"uint8"},{"internalType":"uint256","name":"","type":"uint256"},{"internalType":"uint256","name":"","type":"uint256"},{"internalType":"uint8","name":"","type":"uint8"},{"internalType":"uint256","name":"","type":"uint256"}],"stateMutability":"view","type":"function"},{"inputs":[{"internalType":"address","name":"_tokenAddr","type":"address"}],"name":"getContractBalance","outputs":[{"internalType":"uint256","name":"","type":"uint256"}],"stateMutability":"view","type":"function"},{"inputs":[{"internalType":"address","name":"_borrowerAddr","type":"address"},{"internalType":"address","name":"_tokenAddr","type":"address"}],"name":"getLoanData","outputs":[{"internalType":"uint256","name":"","type":"uint256"},{"internalType":"uint256","name":"","type":"uint256"},{"internalType":"uint256","name":"","type":"uint256"}],"stateMutability":"view","type":"function"},{"inputs":[{"internalType":"address","name":"_tokenAddr","type":"address"},{"internalType":"uint256","name":"_collateralAmount","type":"uint256"}],"name":"getLoanPayableAmounts","outputs":[{"internalType":"uint256","name":"","type":"uint256"},{"internalType":"uint256","name":"","type":"uint256"},{"internalType":"uint256","name":"","type":"uint256"}],"stateMutability":"view","type":"function"},{"inputs":[{"internalType":"bytes32","name":"role","type":"bytes32"}],"name":"getRoleAdmin","outputs":[{"internalType":"bytes32","name":"","type":"bytes32"}],"stateMutability":"view","type":"function"},{"inputs":[{"internalType":"address","name":"_tokenAddr","type":"address"}],"name":"getTokenData","outputs":[{"internalType":"address","name":"","type":"address"},{"internalType":"address","name":"","type":"address"}],"stateMutability":"view","type":"function"},{"inputs":[],"name":"getTokensTotalCount","outputs":[{"internalType":"uint256","name":"","type":"uint256"}],"stateMutability":"view","type":"function"},{"inputs":[],"name":"getUsedBigBangsTotalAmount","outputs":[{"internalType":"uint256","name":"","type":"uint256"}],"stateMutability":"view","type":"function"},{"inputs":[],"name":"getUsersTotalCount","outputs":[{"internalType":"uint256","name":"","type":"uint256"}],"stateMutability":"view","type":"function"},{"inputs":[{"internalType":"bytes32","name":"role","type":"bytes32"},{"internalType":"address","name":"account","type":"address"}],"name":"grantRole","outputs":[],"stateMutability":"nonpayable","type":"function"},{"inputs":[{"internalType":"string","name":"_role","type":"string"},{"internalType":"address","name":"_account","type":"address"}],"name":"grantRole","outputs":[],"stateMutability":"nonpayable","type":"function"},{"inputs":[{"internalType":"bytes32","name":"role","type":"bytes32"},{"internalType":"address","name":"account","type":"address"}],"name":"hasRole","outputs":[{"internalType":"bool","name":"","type":"bool"}],"stateMutability":"view","type":"function"},{"inputs":[{"internalType":"address","name":"_borrowerAddr","type":"address"},{"internalType":"address","name":"_tokenAddr","type":"address"}],"name":"isLoanExpired","outputs":[{"internalType":"bool","name":"","type":"bool"}],"stateMutability":"view","type":"function"},{"inputs":[],"name":"owner","outputs":[{"internalType":"address","name":"","type":"address"}],"stateMutability":"view","type":"function"},{"inputs":[{"internalType":"address","name":"_tokenAddr","type":"address"}],"name":"removeToken","outputs":[],"stateMutability":"nonpayable","type":"function"},{"inputs":[{"internalType":"bytes32","name":"role","type":"bytes32"},{"internalType":"address","name":"account","type":"address"}],"name":"renounceRole","outputs":[],"stateMutability":"nonpayable","type":"function"},{"inputs":[{"internalType":"address","name":"_collateralTokenAddr","type":"address"},{"internalType":"uint256","name":"_borrowAmount","type":"uint256"}],"name":"repayLoan","outputs":[],"stateMutability":"nonpayable","type":"function"},{"inputs":[{"internalType":"string","name":"_role","type":"string"},{"internalType":"address","name":"_account","type":"address"}],"name":"revokeRole","outputs":[],"stateMutability":"nonpayable","type":"function"},{"inputs":[{"internalType":"bytes32","name":"role","type":"bytes32"},{"internalType":"address","name":"account","type":"address"}],"name":"revokeRole","outputs":[],"stateMutability":"nonpayable","type":"function"},{"inputs":[{"internalType":"address","name":"_networkCoinPriceFeed","type":"address"},{"internalType":"uint8","name":"_ownerFeePercent","type":"uint8"},{"internalType":"uint256","name":"_voteFee","type":"uint256"},{"internalType":"uint8","name":"_lendingLimitationPercent","type":"uint8"},{"internalType":"uint256","name":"_lowestPrice","type":"uint256"},{"internalType":"uint256","name":"_highestPrice","type":"uint256"},{"internalType":"uint8","name":"_repaymentPeriod","type":"uint8"},{"internalType":"uint256","name":"_ownerShare","type":"uint256"}],"name":"setBusinessLogicDatas","outputs":[],"stateMutability":"nonpayable","type":"function"},{"inputs":[{"internalType":"uint8","name":"_newLendingLimitationPercent","type":"uint8"}],"name":"setLendingLimitation","outputs":[{"internalType":"bool","name":"","type":"bool"}],"stateMutability":"nonpayable","type":"function"},{"inputs":[{"internalType":"address","name":"_tokenAddr","type":"address"}],"name":"setNativeToken","outputs":[],"stateMutability":"nonpayable","type":"function"},{"inputs":[{"internalType":"uint8","name":"_newRepaymentPeriod","type":"uint8"}],"name":"setRepaymentPeriod","outputs":[{"internalType":"bool","name":"","type":"bool"}],"stateMutability":"nonpayable","type":"function"},{"inputs":[{"internalType":"bytes4","name":"interfaceId","type":"bytes4"}],"name":"supportsInterface","outputs":[{"internalType":"bool","name":"","type":"bool"}],"stateMutability":"view","type":"function"},{"inputs":[{"internalType":"uint256","name":"_shareAmount","type":"uint256"}],"name":"withdrawOwnerShare","outputs":[],"stateMutability":"nonpayable","type":"function"},{"inputs":[{"internalType":"address","name":"_tokenAddr","type":"address"}],"name":"withdrawSmallAmounts","outputs":[],"stateMutability":"nonpayable","type":"function"},{"stateMutability":"payable","type":"receive"}],"evm":{"bytecode":{"linkReferences":{},"object":"60a06040523480156200001157600080fd5b50604051620045aa380380620045aa8339810160408190526200003491620007ec565b600180553360808190526200004c90600090620000c3565b620000807f46f3eccdd88dd62792ae8eed1be7b9b658477566c49fd85b0d08cf44261c9208608051620000c360201b60201c565b620000a36000805160206200458a833981519152608051620000c360201b60201c565b620000b588888888888888886200014c565b5050505050505050620009dd565b620000cf828262000564565b62000148576000828152602081815260408083206001600160a01b03851684529091529020805460ff19166001179055620001073390565b6001600160a01b0316816001600160a01b0316837f2f8788117e7eff1d82e926ec794901d17c78024a50270940304540a733656f0d60405160405180910390a45b5050565b6000805160206200458a83398151915262000167816200058f565b6001600160a01b038916620001d55760405162461bcd60e51b815260206004820152602960248201527f4e6574776f726b20636f696e20707269636520666565642061646472657373206044820152686973207a65726f202160b81b60648201526084015b60405180910390fd5b60648860ff1611158015620001ed575060008860ff16115b620002515760405162461bcd60e51b815260206004820152602d60248201527f4f776e6572206665652070657263656e74206d7573742062652062657477656560448201526c6e203120616e6420313030202160981b6064820152608401620001cc565b60008711620002af5760405162461bcd60e51b8152602060048201526024808201527f566f746520666565206d7573742062652067726561746572207468616e207a65604482015263726f202160e01b6064820152608401620001cc565b60008660ff16118015620002c7575060648660ff1611155b6200033b5760405162461bcd60e51b815260206004820152603660248201527f4c656e64696e67206c696d69746174696f6e2070657263656e74206d7573742060448201527f6265206265747765656e203120616e64203130302021000000000000000000006064820152608401620001cc565b6000851180156200034b57508385105b620003cd5760405162461bcd60e51b8152602060048201526044602482018190527f4c6f77657374207072696365206d757374206265206772656174657220746861908201527f6e207a65726f20616e64206c657373207468616e2068696768657374207072696064820152636365202160e01b608482015260a401620001cc565b601e8360ff1610158015620003e65750603c8360ff1611155b6200045a5760405162461bcd60e51b815260206004820152603460248201527f52657061796d656e7420706572696f64206d757374206265206265747765656e60448201527f20333020616e6420363020696e206461797320210000000000000000000000006064820152608401620001cc565b60008211620004bc5760405162461bcd60e51b815260206004820152602760248201527f4f776e6572207368617265206d7573742062652067726561746572207468616e604482015266207a65726f202160c81b6064820152608401620001cc565b5060408051610100810182526001600160a01b0399909916808a5260ff98891660208b01819052918a0188905295881660608a0181905260808a0186905260a08a018590529290971660c0890181905260e0909801819052600780546001600160a81b031916909517600160a01b909702969096179093556008939093556009805460ff199081169093179055600a55600b91909155600c8054909116909217909155600d55565b6000828152602081815260408083206001600160a01b038516845290915290205460ff165b92915050565b6200059b81336200059e565b50565b620005aa828262000564565b6200014857620005ba8162000602565b620005c783602062000615565b604051602001620005da929190620008a3565b60408051601f198184030181529082905262461bcd60e51b8252620001cc916004016200091c565b6060620005896001600160a01b03831660145b606060006200062683600262000967565b6200063390600262000981565b6001600160401b038111156200064d576200064d62000997565b6040519080825280601f01601f19166020018201604052801562000678576020820181803683370190505b509050600360fc1b81600081518110620006965762000696620009ad565b60200101906001600160f81b031916908160001a905350600f60fb1b81600181518110620006c857620006c8620009ad565b60200101906001600160f81b031916908160001a9053506000620006ee84600262000967565b620006fb90600162000981565b90505b60018111156200077d576f181899199a1a9b1b9c1cb0b131b232b360811b85600f1660108110620007335762000733620009ad565b1a60f81b8282815181106200074c576200074c620009ad565b60200101906001600160f81b031916908160001a90535060049490941c936200077581620009c3565b9050620006fe565b508315620007ce5760405162461bcd60e51b815260206004820181905260248201527f537472696e67733a20686578206c656e67746820696e73756666696369656e746044820152606401620001cc565b9392505050565b805160ff81168114620007e757600080fd5b919050565b600080600080600080600080610100898b0312156200080a57600080fd5b88516001600160a01b03811681146200082257600080fd5b97506200083260208a01620007d5565b9650604089015195506200084960608a01620007d5565b94506080890151935060a089015192506200086760c08a01620007d5565b915060e089015190509295985092959890939650565b60005b838110156200089a57818101518382015260200162000880565b50506000910152565b7f416363657373436f6e74726f6c3a206163636f756e7420000000000000000000815260008351620008dd8160178501602088016200087d565b7001034b99036b4b9b9b4b733903937b6329607d1b6017918401918201528351620009108160288401602088016200087d565b01602801949350505050565b60208152600082518060208401526200093d8160408501602087016200087d565b601f01601f19169190910160400192915050565b634e487b7160e01b600052601160045260246000fd5b808202811582820484141762000589576200058962000951565b8082018082111562000589576200058962000951565b634e487b7160e01b600052604160045260246000fd5b634e487b7160e01b600052603260045260246000fd5b600081620009d557620009d562000951565b506000190190565b608051613b8a62000a006000396000818161055d0152610cbe0152613b8a6000f3fe6080604052600436106102475760003560e01c8063731f21a01161013e578063a3e6bbc4116100bf578063d547741f11610079578063edc779e211610061578063edc779e2146107bf578063f6b700c5146107df578063fbd929241461081457005b8063d547741f1461077f578063e4d4d2ff1461079f57005b8063a7429fd9116100a7578063a7429fd9146106b6578063b6e1c62e146106cb578063c19ae2ed1461075f57005b8063a3e6bbc41461063a578063a52355ac146106a357005b806391d14854116101105780639c2b062d116100f85780639c2b062d146105fb578063a06e521414610610578063a217fddf1461062557005b806391d148541461059757806393a595f5146105db57005b8063731f21a0146104eb578063754e7fed1461050b57806376ba79a11461052b5780638da5cb5b1461054b57005b80633af6bbcc116101c8578063597fdaa11161019a578063666b768611610182578063666b7686146104965780636a0775c5146104b65780636da1e102146104cb57005b8063597fdaa1146104565780635fa7b5841461047657005b80633af6bbcc146103d657806343ab265f146103f657806345f31bba146104165780635476bd721461043657005b806318c694ee116102195780632f2ff15d116102015780632f2ff15d1461037e57806336568abe1461039e5780633ae0b734146103be57005b806318c694ee14610305578063248a9ca31461034057005b806301ffc9a71461025057806303e89911146102855780630c63cc7d146102a557806313ff7e9f146102c557005b3661024e57005b005b34801561025c57600080fd5b5061027061026b366004613613565b610834565b60405190151581526020015b60405180910390f35b34801561029157600080fd5b506102706102a036600461366c565b6108cd565b3480156102b157600080fd5b506102706102c03660046136b0565b610940565b3480156102d157600080fd5b506102e56102e03660046136cb565b610a16565b604080516001600160a01b0393841681529290911660208301520161027c565b34801561031157600080fd5b506103256103203660046136e6565b610aff565b6040805193845260208401929092529082015260600161027c565b34801561034c57600080fd5b5061037061035b366004613710565b60009081526020819052604090206001015490565b60405190815260200161027c565b34801561038a57600080fd5b5061024e610399366004613729565b610c05565b3480156103aa57600080fd5b5061024e6103b9366004613729565b610c2f565b3480156103ca57600080fd5b5060025460ff16610370565b3480156103e257600080fd5b5061024e6103f1366004613710565b610cbb565b34801561040257600080fd5b506103706104113660046136cb565b610eca565b34801561042257600080fd5b5061032561043136600461366c565b610fc7565b34801561044257600080fd5b5061024e61045136600461366c565b6110ce565b34801561046257600080fd5b5061024e61047136600461374c565b61128e565b34801561048257600080fd5b5061024e6104913660046136cb565b611723565b3480156104a257600080fd5b506102706104b13660046136b0565b611893565b3480156104c257600080fd5b50600354610370565b3480156104d757600080fd5b5061024e6104e63660046136cb565b611963565b3480156104f757600080fd5b5061024e6105063660046137dd565b611a13565b34801561051757600080fd5b5061024e61052636600461366c565b611af4565b34801561053757600080fd5b50610370610546366004613896565b611c70565b34801561055757600080fd5b5061057f7f000000000000000000000000000000000000000000000000000000000000000081565b6040516001600160a01b03909116815260200161027c565b3480156105a357600080fd5b506102706105b2366004613729565b6000918252602082815260408084206001600160a01b0393909316845291905290205460ff1690565b3480156105e757600080fd5b5061024e6105f63660046136e6565b611e59565b34801561060757600080fd5b50600454610370565b34801561061c57600080fd5b50600554610370565b34801561063157600080fd5b50610370600081565b34801561064657600080fd5b5061027061065536600461366c565b6001600160a01b039182166000908152600e60209081526040808320939094168252918252829020825160608101845281548152600182015492810192909252600201549101819052421190565b61024e6106b13660046136e6565b612566565b3480156106c257600080fd5b506103706129bb565b3480156106d757600080fd5b50610712600754600854600954600a54600b54600c54600d546001600160a01b03871697600160a01b90970460ff9081169795811695921691565b604080516001600160a01b03909916895260ff97881660208a01528801959095529285166060870152608086019190915260a08501529190911660c083015260e08201526101000161027c565b34801561076b57600080fd5b5061024e61077a3660046137dd565b612a1c565b34801561078b57600080fd5b5061024e61079a366004613729565b612af8565b3480156107ab57600080fd5b5061024e6107ba3660046136cb565b612b1d565b3480156107cb57600080fd5b506103706107da3660046136cb565b612efa565b3480156107eb57600080fd5b506107ff6107fa3660046136e6565b61307f565b6040805192835260208301919091520161027c565b34801561082057600080fd5b5061027061082f3660046136cb565b61316f565b60007fffffffff0000000000000000000000000000000000000000000000000000000082167f7965db0b0000000000000000000000000000000000000000000000000000000014806108c757507f01ffc9a7000000000000000000000000000000000000000000000000000000007fffffffff000000000000000000000000000000000000000000000000000000008316145b92915050565b6001600160a01b038083166000908152600e60209081526040808320938516835292815282822083516060810185528154815260018201549281018390526002909101549381019390935290919015801561092757508051155b156109365760009150506108c7565b5060019392505050565b60007f69cd0c85288bcffbe883a45101c678f53f42e27bebea35a677cc62da9fa7f39161096c816131fa565b601e8360ff16101580156109845750603c8360ff1611155b6109fb5760405162461bcd60e51b815260206004820152603460248201527f52657061796d656e7420706572696f64206d757374206265206265747765656e60448201527f20333020616e6420363020696e2064617973202100000000000000000000000060648201526084015b60405180910390fd5b600c805460ff851660ff199091161790556001915050919050565b600080826001600160a01b038116301480610a4b57506001600160a01b038082166000818152600f6020526040902054909116145b80610a6357506006546001600160a01b038281169116145b610aaf5760405162461bcd60e51b815260206004820152601f60248201527f5468697320746f6b656e20646f6573206e6f7420737570706f7274656420210060448201526064016109f2565b5050506001600160a01b039081166000908152600f602090815260409182902082516060810184528154851680825260018301548616938201939093526002909101549093169290910182905291565b60008080846001600160a01b038116301480610b3557506001600160a01b038082166000818152600f6020526040902054909116145b80610b4d57506006546001600160a01b038281169116145b610b995760405162461bcd60e51b815260206004820152601f60248201527f5468697320746f6b656e20646f6573206e6f7420737570706f7274656420210060448201526064016109f2565b600080610ba6888861307f565b90925090506000610bb983612710613207565b600754909150600090610be490606490610bde908790600160a01b900460ff16613213565b90613207565b90506000610bf2858361321f565b929b929a50929850909650505050505050565b600082815260208190526040902060010154610c20816131fa565b610c2a838361322b565b505050565b6001600160a01b0381163314610cad5760405162461bcd60e51b815260206004820152602f60248201527f416363657373436f6e74726f6c3a2063616e206f6e6c792072656e6f756e636560448201527f20726f6c657320666f722073656c66000000000000000000000000000000000060648201526084016109f2565b610cb782826132c9565b5050565b337f00000000000000000000000000000000000000000000000000000000000000006001600160a01b03168114610d345760405162461bcd60e51b815260206004820152601b60248201527f596f75206172656e277420636f6e7472616374206f776e65722021000000000060448201526064016109f2565b610d3c613348565b600d5415801590610d4f5750600d548211155b610dc15760405162461bcd60e51b815260206004820152602f60248201527f4f776e6572205769746864726177616c204572726f72203a20496e737566666960448201527f6369656e7420696e76656e746f7279000000000000000000000000000000000060648201526084016109f2565b60065460405163a9059cbb60e01b8152336004820152602481018490526001600160a01b039091169063a9059cbb906044016020604051808303816000875af1158015610e12573d6000803e3d6000fd5b505050506040513d601f19601f82011682018060405250810190610e3691906138d2565b610ea85760405162461bcd60e51b815260206004820152603c60248201527f4f776e6572205769746864726177616c204572726f72203a205472616e73666560448201527f7272696e672074686520746f6b656e20776173206661696c656420210000000060648201526084016109f2565b8160076006016000828254610ebd919061390a565b9091555050600180555050565b60006001600160a01b038216610f485760405162461bcd60e51b815260206004820152603660248201527f466574636820436f6e74726163742042616c616e6365204572726f72203a204960448201527f6e76616c696420746f6b656e206164647265737320210000000000000000000060648201526084016109f2565b306001600160a01b03831603610f5f575047919050565b6040516370a0823160e01b81523060048201526001600160a01b038316906370a0823190602401602060405180830381865afa158015610fa3573d6000803e3d6000fd5b505050506040513d601f19601f820116820180604052508101906108c7919061391d565b6001600160a01b038083166000908152600e602090815260408083209385168352928152828220835160608101855281548152600182015492810183905260029091015493810193909352909182918291869186919015158061102a5750805115155b6110765760405162461bcd60e51b815260206004820152601a60248201527f54686973206c6f616e20646f6573206e6f74206578697374202100000000000060448201526064016109f2565b505050506001600160a01b039384166000908152600e60209081526040808320959096168252938452849020845160608101865281548082526001830154958201869052600290920154950185905294929392915050565b7f2cb697566d4fae71a9e65e4dac853bf1e0e88a4957a11bb62814a78d165bb6bb6110f8816131fa565b6001600160a01b0383161580159061111857506001600160a01b03821615155b61118a5760405162461bcd60e51b815260206004820152603460248201527f546f6b656e206164647265737320616e6420707269636520666565642061646460448201527f726573732063616e6e6f74206265207a65726f2100000000000000000000000060648201526084016109f2565b6111938361316f565b156111e05760405162461bcd60e51b815260206004820152601860248201527f546f6b656e20616c726561647920737570706f7274656421000000000000000060448201526064016109f2565b604080516060810182526001600160a01b0380861680835260208084018281528784168587019081526000938452600f9092529482209351845490841673ffffffffffffffffffffffffffffffffffffffff1991821617855594516001850180549185169187169190911790555160029384018054919093169416939093179055805460ff169161127083613936565b91906101000a81548160ff021916908360ff16021790555050505050565b7f2cb697566d4fae71a9e65e4dac853bf1e0e88a4957a11bb62814a78d165bb6bb6112b8816131fa565b6001600160a01b0389166113345760405162461bcd60e51b815260206004820152602960248201527f4e6574776f726b20636f696e207072696365206665656420616464726573732060448201527f6973207a65726f2021000000000000000000000000000000000000000000000060648201526084016109f2565b60648860ff161115801561134b575060008860ff16115b6113bd5760405162461bcd60e51b815260206004820152602d60248201527f4f776e6572206665652070657263656e74206d7573742062652062657477656560448201527f6e203120616e642031303020210000000000000000000000000000000000000060648201526084016109f2565b600087116114325760405162461bcd60e51b8152602060048201526024808201527f566f746520666565206d7573742062652067726561746572207468616e207a6560448201527f726f20210000000000000000000000000000000000000000000000000000000060648201526084016109f2565b60008660ff16118015611449575060648660ff1611155b6114bb5760405162461bcd60e51b815260206004820152603660248201527f4c656e64696e67206c696d69746174696f6e2070657263656e74206d7573742060448201527f6265206265747765656e203120616e642031303020210000000000000000000060648201526084016109f2565b6000851180156114ca57508385105b6115635760405162461bcd60e51b8152602060048201526044602482018190527f4c6f77657374207072696365206d757374206265206772656174657220746861908201527f6e207a65726f20616e64206c657373207468616e20686967686573742070726960648201527f6365202100000000000000000000000000000000000000000000000000000000608482015260a4016109f2565b601e8360ff161015801561157b5750603c8360ff1611155b6115ed5760405162461bcd60e51b815260206004820152603460248201527f52657061796d656e7420706572696f64206d757374206265206265747765656e60448201527f20333020616e6420363020696e2064617973202100000000000000000000000060648201526084016109f2565b600082116116635760405162461bcd60e51b815260206004820152602760248201527f4f776e6572207368617265206d7573742062652067726561746572207468616e60448201527f207a65726f20210000000000000000000000000000000000000000000000000060648201526084016109f2565b5060408051610100810182526001600160a01b0399909916808a5260ff98891660208b01819052918a0188905295881660608a0181905260808a0186905260a08a018590529290971660c0890181905260e0909801819052600780547fffffffffffffffffffffff00000000000000000000000000000000000000000016909517600160a01b909702969096179093556008939093556009805460ff199081169093179055600a55600b91909155600c8054909116909217909155600d55565b7f2cb697566d4fae71a9e65e4dac853bf1e0e88a4957a11bb62814a78d165bb6bb61174d816131fa565b816001600160a01b03811630148061177f57506001600160a01b038082166000818152600f6020526040902054909116145b8061179757506006546001600160a01b038281169116145b6117e35760405162461bcd60e51b815260206004820152601f60248201527f5468697320746f6b656e20646f6573206e6f7420737570706f7274656420210060448201526064016109f2565b6001600160a01b0383166118395760405162461bcd60e51b815260206004820152601d60248201527f546f6b656e20616464726573732063616e6e6f74206265207a65726f2100000060448201526064016109f2565b6001600160a01b0383166000908152600f60205260408120805473ffffffffffffffffffffffffffffffffffffffff19908116825560018201805482169055600291820180549091169055805460ff169161127083613955565b60007f69cd0c85288bcffbe883a45101c678f53f42e27bebea35a677cc62da9fa7f3916118bf816131fa565b60008360ff161180156118d6575060648360ff1611155b6119485760405162461bcd60e51b815260206004820152603660248201527f4c656e64696e67206c696d69746174696f6e2070657263656e74206d7573742060448201527f6265206265747765656e203120616e642031303020210000000000000000000060648201526084016109f2565b6009805460ff851660ff199091161790556001915050919050565b7f2cb697566d4fae71a9e65e4dac853bf1e0e88a4957a11bb62814a78d165bb6bb61198d816131fa565b6001600160a01b0382166119e35760405162461bcd60e51b815260206004820152601960248201527f546f6b656e206164647265737320697320696e76616c6964210000000000000060448201526064016109f2565b506006805473ffffffffffffffffffffffffffffffffffffffff19166001600160a01b0392909216919091179055565b7f46f3eccdd88dd62792ae8eed1be7b9b658477566c49fd85b0d08cf44261c9208611a3d816131fa565b82516020840120611a7281846000918252602082815260408084206001600160a01b0393909316845291905290205460ff1690565b611ae45760405162461bcd60e51b815260206004820152602260248201527f526f6c65206e6f742061737369676e656420746f20746865206163636f756e7460448201527f202100000000000000000000000000000000000000000000000000000000000060648201526084016109f2565b611aee81846132c9565b50505050565b7f2cb697566d4fae71a9e65e4dac853bf1e0e88a4957a11bb62814a78d165bb6bb611b1e816131fa565b826001600160a01b038116301480611b5057506001600160a01b038082166000818152600f6020526040902054909116145b80611b6857506006546001600160a01b038281169116145b611bb45760405162461bcd60e51b815260206004820152601f60248201527f5468697320746f6b656e20646f6573206e6f7420737570706f7274656420210060448201526064016109f2565b6001600160a01b038316611c305760405162461bcd60e51b815260206004820152602260248201527f5072696365206665656420616464726573732063616e6e6f74206265207a657260448201527f6f2100000000000000000000000000000000000000000000000000000000000060648201526084016109f2565b50506001600160a01b039182166000908152600f60205260409020600201805473ffffffffffffffffffffffffffffffffffffffff191691909216179055565b6000826001600160a01b038116301480611ca457506001600160a01b038082166000818152600f6020526040902054909116145b80611cbc57506006546001600160a01b038281169116145b611d085760405162461bcd60e51b815260206004820152601f60248201527f5468697320746f6b656e20646f6573206e6f7420737570706f7274656420210060448201526064016109f2565b6001600160a01b038086166000908152600e6020908152604080832093881683529281529082902082516060810184528154815260018201549281018390526002909101549281019290925286918691151580611d655750805115155b611db15760405162461bcd60e51b815260206004820152601a60248201527f54686973206c6f616e20646f6573206e6f74206578697374202100000000000060448201526064016109f2565b6000611dbc88612efa565b6001600160a01b03808b166000908152600e60209081526040808320938d1683529290529081205491925090611df29083613213565b6001600160a01b03808c166000908152600e60209081526040808320938e1683529290529081206001015491925090611e2c908390613207565b90506000611e3a828b613213565b90506000611e488286613207565b9d9c50505050505050505050505050565b336000818152600e602090815260408083206001600160a01b0387168452825291829020825160608101845281548152600182015492810183905260029091015492810192909252849190151580611eb15750805115155b611efd5760405162461bcd60e51b815260206004820152601a60248201527f54686973206c6f616e20646f6573206e6f74206578697374202100000000000060448201526064016109f2565b611f05613348565b336000908152600e602090815260408083206001600160a01b0389168452909152902060010154841115611fc75760405162461bcd60e51b815260206004820152605460248201527f52657061796d656e74204572726f72203a2054686520696e70757420616d6f7560448201527f6e742069732067726561746572207468616e2074686520626f72726f7765642060648201527f616d6f756e7420666f722074686973206c6f616e000000000000000000000000608482015260a4016109f2565b6006546040516370a0823160e01b81523360048201526001600160a01b03909116906370a0823190602401602060405180830381865afa15801561200f573d6000803e3d6000fd5b505050506040513d601f19601f82011682018060405250810190612033919061391d565b8411156120a85760405162461bcd60e51b815260206004820152602d60248201527f52657061796d656e74204572726f72203a20496e73756666696369656e74207560448201527f7365722062616c616e636520210000000000000000000000000000000000000060648201526084016109f2565b60006120b5338787611c70565b9050306001600160a01b0387160361217757806120d130610eca565b116121445760405162461bcd60e51b815260206004820152603860248201527f52657061796d656e74204572726f72203a20496e73756666696369656e74204260448201527f4e422062616c616e636520696e20636f6e74726163742021000000000000000060648201526084016109f2565b604051339082156108fc029083906000818181858888f19350505050158015612171573d6000803e3d6000fd5b506122ef565b8061218187610eca565b116121f45760405162461bcd60e51b815260206004820152603a60248201527f52657061796d656e74204572726f72203a20496e73756666696369656e74205460448201527f6f6b656e2062616c616e636520696e20636f6e7472616374202100000000000060648201526084016109f2565b6001600160a01b038681166000908152600f60205260409081902060010154905163a9059cbb60e01b81523360048201526024810184905291169063a9059cbb906044016020604051808303816000875af1158015612257573d6000803e3d6000fd5b505050506040513d601f19601f8201168201806040525081019061227b91906138d2565b6122ef576040805162461bcd60e51b81526020600482015260248101919091527f52657061796d656e74204572726f72203a205472616e7366657272696e67207460448201527f686520636f6c6c61746572616c20746f6b656e20776173206661696c6564202160648201526084016109f2565b6006546040516323b872dd60e01b8152336004820152306024820152604481018790526001600160a01b03909116906323b872dd906064016020604051808303816000875af1158015612346573d6000803e3d6000fd5b505050506040513d601f19601f8201168201806040525081019061236a91906138d2565b6123dc5760405162461bcd60e51b815260206004820152603f60248201527f52657061796d656e74204572726f72203a205472616e7366657272696e67207460448201527f686520626f72726f77696e6720746f6b656e20776173206661696c656420210060648201526084016109f2565b336000908152600e602090815260408083206001600160a01b038a168452825291829020825160608101845281548152600182015492810183815260029092015493810193909352879161243190839061390a565b90525080518290829061244590839061390a565b905250600c5461245990429060ff166133a1565b6040808301918252336000908152600e60209081528282206001600160a01b038c168352815291902083518155908301516001820181905591516002909101551580156124a557508051155b156124dc57336000908152600e602090815260408083206001600160a01b038b168452909152812081815560018101829055600201555b85600560008282546124ee919061390a565b90915550612507905061250088612efa565b8390613213565b60046000828254612518919061390a565b9091555050604051868152309033907f0a3fbbea70e93f2daafa3102f5c9a1b8315e6d7a1e43e4bc020bc1162327470a9060200160405180910390a3505061255f60018055565b5050505050565b816001600160a01b03811630148061259857506001600160a01b038082166000818152600f6020526040902054909116145b806125b057506006546001600160a01b038281169116145b6125fc5760405162461bcd60e51b815260206004820152601f60248201527f5468697320746f6b656e20646f6573206e6f7420737570706f7274656420210060448201526064016109f2565b612604613348565b6000821161267a5760405162461bcd60e51b815260206004820152603d60248201527f4c656e64696e67204572726f72203a20436f6c6c61746572616c20616d6f756e60448201527f74206d7573742062652067726561746572207468616e207a65726f202100000060648201526084016109f2565b6000612686848461307f565b509050600081116126ff5760405162461bcd60e51b815260206004820152603b60248201527f4c656e64696e67204572726f72203a204c6f616e2076616c756520697320746f60448201527f6f206c6f77206261736564206f6e20636f6c6c61746572616c2021000000000060648201526084016109f2565b6040516323b872dd60e01b81523360048201523060248201526044810184905284906001600160a01b038216906323b872dd906064016020604051808303816000875af1158015612754573d6000803e3d6000fd5b505050506040513d601f19601f8201168201806040525081019061277891906138d2565b6127ea5760405162461bcd60e51b815260206004820152603e60248201527f4c656e64696e67204572726f72203a205472616e7366657272696e672074686560448201527f20636f6c6c61746572616c20746f6b656e20776173206661696c65642021000060648201526084016109f2565b60065460405163a9059cbb60e01b8152336004820152602481018490526001600160a01b039091169063a9059cbb906044016020604051808303816000875af115801561283b573d6000803e3d6000fd5b505050506040513d601f19601f8201168201806040525081019061285f91906138d2565b6128d15760405162461bcd60e51b815260206004820152603d60248201527f4c656e64696e67204572726f72203a205472616e7366657272696e672074686560448201527f20626f72726f77696e6720746f6b656e20776173206661696c6564202100000060648201526084016109f2565b6040805160608101825285815260208101849052600c5490918201906128fd9060ff1662015180613972565b61290c9062ffffff1642613999565b9052336000818152600e602090815260408083206001600160a01b038b168452825291829020845181558482015160018201559382015160029094019390935551848152909130917f3fc499aeb0bb1cb58b6de8b02b3f86f4e7394e9690bef0110e32ced8a5631045910160405180910390a383600460008282546129919190613999565b9250508190555081600560008282546129aa9190613999565b90915550506001805550610c2a9050565b60006129c660055490565b6000036129da575067016345785d8a000090565b60006129f06129e860055490565b600454610bde565b600a54909150811015612a05575050600a5490565b600b54811115612a17575050600b5490565b919050565b7f46f3eccdd88dd62792ae8eed1be7b9b658477566c49fd85b0d08cf44261c9208612a46816131fa565b82516020840120612a7b81846000918252602082815260408084206001600160a01b0393909316845291905290205460ff1690565b15612aee5760405162461bcd60e51b815260206004820152602660248201527f526f6c6520616c72656164792061737369676e656420746f207468652061636360448201527f6f756e742021000000000000000000000000000000000000000000000000000060648201526084016109f2565b611aee818461322b565b600082815260208190526040902060010154612b13816131fa565b610c2a83836132c9565b806001600160a01b038116301480612b4f57506001600160a01b038082166000818152600f6020526040902054909116145b80612b6757506006546001600160a01b038281169116145b612bb35760405162461bcd60e51b815260206004820152601f60248201527f5468697320746f6b656e20646f6573206e6f7420737570706f7274656420210060448201526064016109f2565b336000818152600e602090815260408083206001600160a01b0387168452825291829020825160608101845281548152600182015492810183905260029091015492810192909252849190151580612c0b5750805115155b612c575760405162461bcd60e51b815260206004820152601a60248201527f54686973206c6f616e20646f6573206e6f74206578697374202100000000000060448201526064016109f2565b612c5f613348565b336000908152600e602090815260408083206001600160a01b0389168452825291829020825160608101845281548152600182015492810183905260029091015492810192909252158015612cc75750805115801590612cc757508051670de0b6b3a7640000115b612d395760405162461bcd60e51b815260206004820152603860248201527f5769746864726177616c204572726f72203a20596f752063616e6e6f7420657860448201527f65637574652074686973207472616e73616374696f6e2021000000000000000060648201526084016109f2565b306001600160a01b03871603612d80578051604051339180156108fc02916000818181858888f19350505050158015612d76573d6000803e3d6000fd5b5060008152612ea8565b6001600160a01b038681166000908152600f602052604090819020600101548351915163a9059cbb60e01b815233600482015260248101929092529091169063a9059cbb906044016020604051808303816000875af1158015612de7573d6000803e3d6000fd5b505050506040513d601f19601f82011682018060405250810190612e0b91906138d2565b612ea35760405162461bcd60e51b815260206004820152604160248201527f5769746864726177616c204572726f72203a205472616e7366657272696e672060448201527f74686520636f6c6c61746572616c20546f6b656e20776173206661696c65642060648201527f2100000000000000000000000000000000000000000000000000000000000000608482015260a4016109f2565b600081525b6020810151158015612eb957508051155b15612ef057336000908152600e602090815260408083206001600160a01b038a168452909152812081815560018101829055600201555b5061255f60018055565b6006546000906001600160a01b0390811690831603612f815760405162461bcd60e51b815260206004820152602960248201527f4665746368205072696365204572726f72203a2057726f6e6720746f6b656e2060448201527f616464726573732021000000000000000000000000000000000000000000000060648201526084016109f2565b306001600160a01b038316036130245760075460408051633fabe5a360e21b815290516000926001600160a01b03169163feaf968c9160048083019260a09291908290030181865afa158015612fdb573d6000803e3d6000fd5b505050506040513d601f19601f82011682018060405250810190612fff91906139c6565b50505091505061301d6402540be4008261321390919063ffffffff16565b9392505050565b6001600160a01b038083166000908152600f6020526040808220600201548151633fabe5a360e21b815291519293169163feaf968c9160048082019260a0929091908290030181865afa158015612fdb573d6000803e3d6000fd5b600080836001600160a01b0381163014806130b457506001600160a01b038082166000818152600f6020526040902054909116145b806130cc57506006546001600160a01b038281169116145b6131185760405162461bcd60e51b815260206004820152601f60248201527f5468697320746f6b656e20646f6573206e6f7420737570706f7274656420210060448201526064016109f2565b600061312d8561312788612efa565b90613213565b60095490915060009061314b90606490610bde90859060ff16613213565b9050600061316161315a6129bb565b8390613207565b989297509195505050505050565b6006546000906001600160a01b038381169116148061319657506001600160a01b03821630145b156131a357506001919050565b6001600160a01b038281166000908152600f60205260409020541615806131e557506001600160a01b038281166000908152600f602052604090206002015416155b156131f257506000919050565b506001919050565b61320481336133ad565b50565b600061301d8284613a16565b600061301d8284613a38565b600061301d828461390a565b6000828152602081815260408083206001600160a01b038516845290915290205460ff16610cb7576000828152602081815260408083206001600160a01b03851684529091529020805460ff191660011790556132853390565b6001600160a01b0316816001600160a01b0316837f2f8788117e7eff1d82e926ec794901d17c78024a50270940304540a733656f0d60405160405180910390a45050565b6000828152602081815260408083206001600160a01b038516845290915290205460ff1615610cb7576000828152602081815260408083206001600160a01b0385168085529252808320805460ff1916905551339285917ff6391f5c32d9c69d2a47ea670b442974b53935d1edc7fd64eb21e047a839171b9190a45050565b60026001540361339a5760405162461bcd60e51b815260206004820152601f60248201527f5265656e7472616e637947756172643a207265656e7472616e742063616c6c0060448201526064016109f2565b6002600155565b600061301d8284613999565b6000828152602081815260408083206001600160a01b038516845290915290205460ff16610cb7576133de81613420565b6133e9836020613432565b6040516020016133fa929190613a73565b60408051601f198184030181529082905262461bcd60e51b82526109f291600401613af4565b60606108c76001600160a01b03831660145b60606000613441836002613a38565b61344c906002613999565b67ffffffffffffffff811115613464576134646137c7565b6040519080825280601f01601f19166020018201604052801561348e576020820181803683370190505b5090507f3000000000000000000000000000000000000000000000000000000000000000816000815181106134c5576134c5613b27565b60200101906001600160f81b031916908160001a9053507f78000000000000000000000000000000000000000000000000000000000000008160018151811061351057613510613b27565b60200101906001600160f81b031916908160001a9053506000613534846002613a38565b61353f906001613999565b90505b60018111156135c4577f303132333435363738396162636465660000000000000000000000000000000085600f166010811061358057613580613b27565b1a60f81b82828151811061359657613596613b27565b60200101906001600160f81b031916908160001a90535060049490941c936135bd81613b3d565b9050613542565b50831561301d5760405162461bcd60e51b815260206004820181905260248201527f537472696e67733a20686578206c656e67746820696e73756666696369656e7460448201526064016109f2565b60006020828403121561362557600080fd5b81357fffffffff000000000000000000000000000000000000000000000000000000008116811461301d57600080fd5b80356001600160a01b0381168114612a1757600080fd5b6000806040838503121561367f57600080fd5b61368883613655565b915061369660208401613655565b90509250929050565b803560ff81168114612a1757600080fd5b6000602082840312156136c257600080fd5b61301d8261369f565b6000602082840312156136dd57600080fd5b61301d82613655565b600080604083850312156136f957600080fd5b61370283613655565b946020939093013593505050565b60006020828403121561372257600080fd5b5035919050565b6000806040838503121561373c57600080fd5b8235915061369660208401613655565b600080600080600080600080610100898b03121561376957600080fd5b61377289613655565b975061378060208a0161369f565b96506040890135955061379560608a0161369f565b94506080890135935060a089013592506137b160c08a0161369f565b915060e089013590509295985092959890939650565b634e487b7160e01b600052604160045260246000fd5b600080604083850312156137f057600080fd5b823567ffffffffffffffff8082111561380857600080fd5b818501915085601f83011261381c57600080fd5b81358181111561382e5761382e6137c7565b604051601f8201601f19908116603f01168101908382118183101715613856576138566137c7565b8160405282815288602084870101111561386f57600080fd5b82602086016020830137600060208483010152809650505050505061369660208401613655565b6000806000606084860312156138ab57600080fd5b6138b484613655565b92506138c260208501613655565b9150604084013590509250925092565b6000602082840312156138e457600080fd5b8151801515811461301d57600080fd5b634e487b7160e01b600052601160045260246000fd5b818103818111156108c7576108c76138f4565b60006020828403121561392f57600080fd5b5051919050565b600060ff821660ff810361394c5761394c6138f4565b60010192915050565b600060ff821680613968576139686138f4565b6000190192915050565b62ffffff818116838216028082169190828114613991576139916138f4565b505092915050565b808201808211156108c7576108c76138f4565b805169ffffffffffffffffffff81168114612a1757600080fd5b600080600080600060a086880312156139de57600080fd5b6139e7866139ac565b9450602086015193506040860151925060608601519150613a0a608087016139ac565b90509295509295909350565b600082613a3357634e487b7160e01b600052601260045260246000fd5b500490565b80820281158282048414176108c7576108c76138f4565b60005b83811015613a6a578181015183820152602001613a52565b50506000910152565b7f416363657373436f6e74726f6c3a206163636f756e7420000000000000000000815260008351613aab816017850160208801613a4f565b7f206973206d697373696e6720726f6c65200000000000000000000000000000006017918401918201528351613ae8816028840160208801613a4f565b01602801949350505050565b6020815260008251806020840152613b13816040850160208701613a4f565b601f01601f19169190910160400192915050565b634e487b7160e01b600052603260045260246000fd5b600081613b4c57613b4c6138f4565b50600019019056fea2646970667358221220ad093a911eea390c2f3eff7c5a592498452429101626eeaf514e348f99e0fc4264736f6c634300081800332cb697566d4fae71a9e65e4dac853bf1e0e88a4957a11bb62814a78d165bb6bb","opcodes":"PUSH1 0xA0 PUSH1 0x40 MSTORE CALLVALUE DUP1 ISZERO PUSH3 0x11 JUMPI PUSH1 0x0 DUP1 REVERT JUMPDEST POP PUSH1 0x40 MLOAD PUSH3 0x45AA CODESIZE SUB DUP1 PUSH3 0x45AA DUP4 CODECOPY DUP2 ADD PUSH1 0x40 DUP2 SWAP1 MSTORE PUSH3 0x34 SWAP2 PUSH3 0x7EC JUMP JUMPDEST PUSH1 0x1 DUP1 SSTORE CALLER PUSH1 0x80 DUP2 SWAP1 MSTORE PUSH3 0x4C SWAP1 PUSH1 0x0 SWAP1 PUSH3 0xC3 JUMP JUMPDEST PUSH3 0x80 PUSH32 0x46F3ECCDD88DD62792AE8EED1BE7B9B658477566C49FD85B0D08CF44261C9208 PUSH1 0x80 MLOAD PUSH3 0xC3 PUSH1 0x20 SHL PUSH1 0x20 SHR JUMP JUMPDEST PUSH3 0xA3 PUSH1 0x0 DUP1 MLOAD PUSH1 0x20 PUSH3 0x458A DUP4 CODECOPY DUP2 MLOAD SWAP2 MSTORE PUSH1 0x80 MLOAD PUSH3 0xC3 PUSH1 0x20 SHL PUSH1 0x20 SHR JUMP JUMPDEST PUSH3 0xB5 DUP9 DUP9 DUP9 DUP9 DUP9 DUP9 DUP9 DUP9 PUSH3 0x14C JUMP JUMPDEST POP POP POP POP POP POP POP POP PUSH3 0x9DD JUMP JUMPDEST PUSH3 0xCF DUP3 DUP3 PUSH3 0x564 JUMP JUMPDEST PUSH3 0x148 JUMPI PUSH1 0x0 DUP3 DUP2 MSTORE PUSH1 0x20 DUP2 DUP2 MSTORE PUSH1 0x40 DUP1 DUP4 KECCAK256 PUSH1 0x1 PUSH1 0x1 PUSH1 0xA0 SHL SUB DUP6 AND DUP5 MSTORE SWAP1 SWAP2 MSTORE SWAP1 KECCAK256 DUP1 SLOAD PUSH1 0xFF NOT AND PUSH1 0x1 OR SWAP1 SSTORE PUSH3 0x107 CALLER SWAP1 JUMP JUMPDEST PUSH1 0x1 PUSH1 0x1 PUSH1 0xA0 SHL SUB AND DUP2 PUSH1 0x1 PUSH1 0x1 PUSH1 0xA0 SHL SUB AND DUP4 PUSH32 0x2F8788117E7EFF1D82E926EC794901D17C78024A50270940304540A733656F0D PUSH1 0x40 MLOAD PUSH1 0x40 MLOAD DUP1 SWAP2 SUB SWAP1 LOG4 JUMPDEST POP POP JUMP JUMPDEST PUSH1 0x0 DUP1 MLOAD PUSH1 0x20 PUSH3 0x458A DUP4 CODECOPY DUP2 MLOAD SWAP2 MSTORE PUSH3 0x167 DUP2 PUSH3 0x58F JUMP JUMPDEST PUSH1 0x1 PUSH1 0x1 PUSH1 0xA0 SHL SUB DUP10 AND PUSH3 0x1D5 JUMPI PUSH1 0x40 MLOAD PUSH3 0x461BCD PUSH1 0xE5 SHL DUP2 MSTORE PUSH1 0x20 PUSH1 0x4 DUP3 ADD MSTORE PUSH1 0x29 PUSH1 0x24 DUP3 ADD MSTORE PUSH32 0x4E6574776F726B20636F696E2070726963652066656564206164647265737320 PUSH1 0x44 DUP3 ADD MSTORE PUSH9 0x6973207A65726F2021 PUSH1 0xB8 SHL PUSH1 0x64 DUP3 ADD MSTORE PUSH1 0x84 ADD JUMPDEST PUSH1 0x40 MLOAD DUP1 SWAP2 SUB SWAP1 REVERT JUMPDEST PUSH1 0x64 DUP9 PUSH1 0xFF AND GT ISZERO DUP1 ISZERO PUSH3 0x1ED JUMPI POP PUSH1 0x0 DUP9 PUSH1 0xFF AND GT JUMPDEST PUSH3 0x251 JUMPI PUSH1 0x40 MLOAD PUSH3 0x461BCD PUSH1 0xE5 SHL DUP2 MSTORE PUSH1 0x20 PUSH1 0x4 DUP3 ADD MSTORE PUSH1 0x2D PUSH1 0x24 DUP3 ADD MSTORE PUSH32 0x4F776E6572206665652070657263656E74206D75737420626520626574776565 PUSH1 0x44 DUP3 ADD MSTORE PUSH13 0x6E203120616E64203130302021 PUSH1 0x98 SHL PUSH1 0x64 DUP3 ADD MSTORE PUSH1 0x84 ADD PUSH3 0x1CC JUMP JUMPDEST PUSH1 0x0 DUP8 GT PUSH3 0x2AF JUMPI PUSH1 0x40 MLOAD PUSH3 0x461BCD PUSH1 0xE5 SHL DUP2 MSTORE PUSH1 0x20 PUSH1 0x4 DUP3 ADD MSTORE PUSH1 0x24 DUP1 DUP3 ADD MSTORE PUSH32 0x566F746520666565206D7573742062652067726561746572207468616E207A65 PUSH1 0x44 DUP3 ADD MSTORE PUSH4 0x726F2021 PUSH1 0xE0 SHL PUSH1 0x64 DUP3 ADD MSTORE PUSH1 0x84 ADD PUSH3 0x1CC JUMP JUMPDEST PUSH1 0x0 DUP7 PUSH1 0xFF AND GT DUP1 ISZERO PUSH3 0x2C7 JUMPI POP PUSH1 0x64 DUP7 PUSH1 0xFF AND GT ISZERO JUMPDEST PUSH3 0x33B JUMPI PUSH1 0x40 MLOAD PUSH3 0x461BCD PUSH1 0xE5 SHL DUP2 MSTORE PUSH1 0x20 PUSH1 0x4 DUP3 ADD MSTORE PUSH1 0x36 PUSH1 0x24 DUP3 ADD MSTORE PUSH32 0x4C656E64696E67206C696D69746174696F6E2070657263656E74206D75737420 PUSH1 0x44 DUP3 ADD MSTORE PUSH32 0x6265206265747765656E203120616E6420313030202100000000000000000000 PUSH1 0x64 DUP3 ADD MSTORE PUSH1 0x84 ADD PUSH3 0x1CC JUMP JUMPDEST PUSH1 0x0 DUP6 GT DUP1 ISZERO PUSH3 0x34B JUMPI POP DUP4 DUP6 LT JUMPDEST PUSH3 0x3CD JUMPI PUSH1 0x40 MLOAD PUSH3 0x461BCD PUSH1 0xE5 SHL DUP2 MSTORE PUSH1 0x20 PUSH1 0x4 DUP3 ADD MSTORE PUSH1 0x44 PUSH1 0x24 DUP3 ADD DUP2 SWAP1 MSTORE PUSH32 0x4C6F77657374207072696365206D757374206265206772656174657220746861 SWAP1 DUP3 ADD MSTORE PUSH32 0x6E207A65726F20616E64206C657373207468616E206869676865737420707269 PUSH1 0x64 DUP3 ADD MSTORE PUSH4 0x63652021 PUSH1 0xE0 SHL PUSH1 0x84 DUP3 ADD MSTORE PUSH1 0xA4 ADD PUSH3 0x1CC JUMP JUMPDEST PUSH1 0x1E DUP4 PUSH1 0xFF AND LT ISZERO DUP1 ISZERO PUSH3 0x3E6 JUMPI POP PUSH1 0x3C DUP4 PUSH1 0xFF AND GT ISZERO JUMPDEST PUSH3 0x45A JUMPI PUSH1 0x40 MLOAD PUSH3 0x461BCD PUSH1 0xE5 SHL DUP2 MSTORE PUSH1 0x20 PUSH1 0x4 DUP3 ADD MSTORE PUSH1 0x34 PUSH1 0x24 DUP3 ADD MSTORE PUSH32 0x52657061796D656E7420706572696F64206D757374206265206265747765656E PUSH1 0x44 DUP3 ADD MSTORE PUSH32 0x20333020616E6420363020696E20646179732021000000000000000000000000 PUSH1 0x64 DUP3 ADD MSTORE PUSH1 0x84 ADD PUSH3 0x1CC JUMP JUMPDEST PUSH1 0x0 DUP3 GT PUSH3 0x4BC JUMPI PUSH1 0x40 MLOAD PUSH3 0x461BCD PUSH1 0xE5 SHL DUP2 MSTORE PUSH1 0x20 PUSH1 0x4 DUP3 ADD MSTORE PUSH1 0x27 PUSH1 0x24 DUP3 ADD MSTORE PUSH32 0x4F776E6572207368617265206D7573742062652067726561746572207468616E PUSH1 0x44 DUP3 ADD MSTORE PUSH7 0x207A65726F2021 PUSH1 0xC8 SHL PUSH1 0x64 DUP3 ADD MSTORE PUSH1 0x84 ADD PUSH3 0x1CC JUMP JUMPDEST POP PUSH1 0x40 DUP1 MLOAD PUSH2 0x100 DUP2 ADD DUP3 MSTORE PUSH1 0x1 PUSH1 0x1 PUSH1 0xA0 SHL SUB SWAP10 SWAP1 SWAP10 AND DUP1 DUP11 MSTORE PUSH1 0xFF SWAP9 DUP10 AND PUSH1 0x20 DUP12 ADD DUP2 SWAP1 MSTORE SWAP2 DUP11 ADD DUP9 SWAP1 MSTORE SWAP6 DUP9 AND PUSH1 0x60 DUP11 ADD DUP2 SWAP1 MSTORE PUSH1 0x80 DUP11 ADD DUP7 SWAP1 MSTORE PUSH1 0xA0 DUP11 ADD DUP6 SWAP1 MSTORE SWAP3 SWAP1 SWAP8 AND PUSH1 0xC0 DUP10 ADD DUP2 SWAP1 MSTORE PUSH1 0xE0 SWAP1 SWAP9 ADD DUP2 SWAP1 MSTORE PUSH1 0x7 DUP1 SLOAD PUSH1 0x1 PUSH1 0x1 PUSH1 0xA8 SHL SUB NOT AND SWAP1 SWAP6 OR PUSH1 0x1 PUSH1 0xA0 SHL SWAP1 SWAP8 MUL SWAP7 SWAP1 SWAP7 OR SWAP1 SWAP4 SSTORE PUSH1 0x8 SWAP4 SWAP1 SWAP4 SSTORE PUSH1 0x9 DUP1 SLOAD PUSH1 0xFF NOT SWAP1 DUP2 AND SWAP1 SWAP4 OR SWAP1 SSTORE PUSH1 0xA SSTORE PUSH1 0xB SWAP2 SWAP1 SWAP2 SSTORE PUSH1 0xC DUP1 SLOAD SWAP1 SWAP2 AND SWAP1 SWAP3 OR SWAP1 SWAP2 SSTORE PUSH1 0xD SSTORE JUMP JUMPDEST PUSH1 0x0 DUP3 DUP2 MSTORE PUSH1 0x20 DUP2 DUP2 MSTORE PUSH1 0x40 DUP1 DUP4 KECCAK256 PUSH1 0x1 PUSH1 0x1 PUSH1 0xA0 SHL SUB DUP6 AND DUP5 MSTORE SWAP1 SWAP2 MSTORE SWAP1 KECCAK256 SLOAD PUSH1 0xFF AND JUMPDEST SWAP3 SWAP2 POP POP JUMP JUMPDEST PUSH3 0x59B DUP2 CALLER PUSH3 0x59E JUMP JUMPDEST POP JUMP JUMPDEST PUSH3 0x5AA DUP3 DUP3 PUSH3 0x564 JUMP JUMPDEST PUSH3 0x148 JUMPI PUSH3 0x5BA DUP2 PUSH3 0x602 JUMP JUMPDEST PUSH3 0x5C7 DUP4 PUSH1 0x20 PUSH3 0x615 JUMP JUMPDEST PUSH1 0x40 MLOAD PUSH1 0x20 ADD PUSH3 0x5DA SWAP3 SWAP2 SWAP1 PUSH3 0x8A3 JUMP JUMPDEST PUSH1 0x40 DUP1 MLOAD PUSH1 0x1F NOT DUP2 DUP5 SUB ADD DUP2 MSTORE SWAP1 DUP3 SWAP1 MSTORE PUSH3 0x461BCD PUSH1 0xE5 SHL DUP3 MSTORE PUSH3 0x1CC SWAP2 PUSH1 0x4 ADD PUSH3 0x91C JUMP JUMPDEST PUSH1 0x60 PUSH3 0x589 PUSH1 0x1 PUSH1 0x1 PUSH1 0xA0 SHL SUB DUP4 AND PUSH1 0x14 JUMPDEST PUSH1 0x60 PUSH1 0x0 PUSH3 0x626 DUP4 PUSH1 0x2 PUSH3 0x967 JUMP JUMPDEST PUSH3 0x633 SWAP1 PUSH1 0x2 PUSH3 0x981 JUMP JUMPDEST PUSH1 0x1 PUSH1 0x1 PUSH1 0x40 SHL SUB DUP2 GT ISZERO PUSH3 0x64D JUMPI PUSH3 0x64D PUSH3 0x997 JUMP JUMPDEST PUSH1 0x40 MLOAD SWAP1 DUP1 DUP3 MSTORE DUP1 PUSH1 0x1F ADD PUSH1 0x1F NOT AND PUSH1 0x20 ADD DUP3 ADD PUSH1 0x40 MSTORE DUP1 ISZERO PUSH3 0x678 JUMPI PUSH1 0x20 DUP3 ADD DUP2 DUP1 CALLDATASIZE DUP4 CALLDATACOPY ADD SWAP1 POP JUMPDEST POP SWAP1 POP PUSH1 0x3 PUSH1 0xFC SHL DUP2 PUSH1 0x0 DUP2 MLOAD DUP2 LT PUSH3 0x696 JUMPI PUSH3 0x696 PUSH3 0x9AD JUMP JUMPDEST PUSH1 0x20 ADD ADD SWAP1 PUSH1 0x1 PUSH1 0x1 PUSH1 0xF8 SHL SUB NOT AND SWAP1 DUP2 PUSH1 0x0 BYTE SWAP1 MSTORE8 POP PUSH1 0xF PUSH1 0xFB SHL DUP2 PUSH1 0x1 DUP2 MLOAD DUP2 LT PUSH3 0x6C8 JUMPI PUSH3 0x6C8 PUSH3 0x9AD JUMP JUMPDEST PUSH1 0x20 ADD ADD SWAP1 PUSH1 0x1 PUSH1 0x1 PUSH1 0xF8 SHL SUB NOT AND SWAP1 DUP2 PUSH1 0x0 BYTE SWAP1 MSTORE8 POP PUSH1 0x0 PUSH3 0x6EE DUP5 PUSH1 0x2 PUSH3 0x967 JUMP JUMPDEST PUSH3 0x6FB SWAP1 PUSH1 0x1 PUSH3 0x981 JUMP JUMPDEST SWAP1 POP JUMPDEST PUSH1 0x1 DUP2 GT ISZERO PUSH3 0x77D JUMPI PUSH16 0x181899199A1A9B1B9C1CB0B131B232B3 PUSH1 0x81 SHL DUP6 PUSH1 0xF AND PUSH1 0x10 DUP2 LT PUSH3 0x733 JUMPI PUSH3 0x733 PUSH3 0x9AD JUMP JUMPDEST BYTE PUSH1 0xF8 SHL DUP3 DUP3 DUP2 MLOAD DUP2 LT PUSH3 0x74C JUMPI PUSH3 0x74C PUSH3 0x9AD JUMP JUMPDEST PUSH1 0x20 ADD ADD SWAP1 PUSH1 0x1 PUSH1 0x1 PUSH1 0xF8 SHL SUB NOT AND SWAP1 DUP2 PUSH1 0x0 BYTE SWAP1 MSTORE8 POP PUSH1 0x4 SWAP5 SWAP1 SWAP5 SHR SWAP4 PUSH3 0x775 DUP2 PUSH3 0x9C3 JUMP JUMPDEST SWAP1 POP PUSH3 0x6FE JUMP JUMPDEST POP DUP4 ISZERO PUSH3 0x7CE JUMPI PUSH1 0x40 MLOAD PUSH3 0x461BCD PUSH1 0xE5 SHL DUP2 MSTORE PUSH1 0x20 PUSH1 0x4 DUP3 ADD DUP2 SWAP1 MSTORE PUSH1 0x24 DUP3 ADD MSTORE PUSH32 0x537472696E67733A20686578206C656E67746820696E73756666696369656E74 PUSH1 0x44 DUP3 ADD MSTORE PUSH1 0x64 ADD PUSH3 0x1CC JUMP JUMPDEST SWAP4 SWAP3 POP POP POP JUMP JUMPDEST DUP1 MLOAD PUSH1 0xFF DUP2 AND DUP2 EQ PUSH3 0x7E7 JUMPI PUSH1 0x0 DUP1 REVERT JUMPDEST SWAP2 SWAP1 POP JUMP JUMPDEST PUSH1 0x0 DUP1 PUSH1 0x0 DUP1 PUSH1 0x0 DUP1 PUSH1 0x0 DUP1 PUSH2 0x100 DUP10 DUP12 SUB SLT ISZERO PUSH3 0x80A JUMPI PUSH1 0x0 DUP1 REVERT JUMPDEST DUP9 MLOAD PUSH1 0x1 PUSH1 0x1 PUSH1 0xA0 SHL SUB DUP2 AND DUP2 EQ PUSH3 0x822 JUMPI PUSH1 0x0 DUP1 REVERT JUMPDEST SWAP8 POP PUSH3 0x832 PUSH1 0x20 DUP11 ADD PUSH3 0x7D5 JUMP JUMPDEST SWAP7 POP PUSH1 0x40 DUP10 ADD MLOAD SWAP6 POP PUSH3 0x849 PUSH1 0x60 DUP11 ADD PUSH3 0x7D5 JUMP JUMPDEST SWAP5 POP PUSH1 0x80 DUP10 ADD MLOAD SWAP4 POP PUSH1 0xA0 DUP10 ADD MLOAD SWAP3 POP PUSH3 0x867 PUSH1 0xC0 DUP11 ADD PUSH3 0x7D5 JUMP JUMPDEST SWAP2 POP PUSH1 0xE0 DUP10 ADD MLOAD SWAP1 POP SWAP3 SWAP6 SWAP9 POP SWAP3 SWAP6 SWAP9 SWAP1 SWAP4 SWAP7 POP JUMP JUMPDEST PUSH1 0x0 JUMPDEST DUP4 DUP2 LT ISZERO PUSH3 0x89A JUMPI DUP2 DUP2 ADD MLOAD DUP4 DUP3 ADD MSTORE PUSH1 0x20 ADD PUSH3 0x880 JUMP JUMPDEST POP POP PUSH1 0x0 SWAP2 ADD MSTORE JUMP JUMPDEST PUSH32 0x416363657373436F6E74726F6C3A206163636F756E7420000000000000000000 DUP2 MSTORE PUSH1 0x0 DUP4 MLOAD PUSH3 0x8DD DUP2 PUSH1 0x17 DUP6 ADD PUSH1 0x20 DUP9 ADD PUSH3 0x87D JUMP JUMPDEST PUSH17 0x1034B99036B4B9B9B4B733903937B6329 PUSH1 0x7D SHL PUSH1 0x17 SWAP2 DUP5 ADD SWAP2 DUP3 ADD MSTORE DUP4 MLOAD PUSH3 0x910 DUP2 PUSH1 0x28 DUP5 ADD PUSH1 0x20 DUP9 ADD PUSH3 0x87D JUMP JUMPDEST ADD PUSH1 0x28 ADD SWAP5 SWAP4 POP POP POP POP JUMP JUMPDEST PUSH1 0x20 DUP2 MSTORE PUSH1 0x0 DUP3 MLOAD DUP1 PUSH1 0x20 DUP5 ADD MSTORE PUSH3 0x93D DUP2 PUSH1 0x40 DUP6 ADD PUSH1 0x20 DUP8 ADD PUSH3 0x87D JUMP JUMPDEST PUSH1 0x1F ADD PUSH1 0x1F NOT AND SWAP2 SWAP1 SWAP2 ADD PUSH1 0x40 ADD SWAP3 SWAP2 POP POP JUMP JUMPDEST PUSH4 0x4E487B71 PUSH1 0xE0 SHL PUSH1 0x0 MSTORE PUSH1 0x11 PUSH1 0x4 MSTORE PUSH1 0x24 PUSH1 0x0 REVERT JUMPDEST DUP1 DUP3 MUL DUP2 ISZERO DUP3 DUP3 DIV DUP5 EQ OR PUSH3 0x589 JUMPI PUSH3 0x589 PUSH3 0x951 JUMP JUMPDEST DUP1 DUP3 ADD DUP1 DUP3 GT ISZERO PUSH3 0x589 JUMPI PUSH3 0x589 PUSH3 0x951 JUMP JUMPDEST PUSH4 0x4E487B71 PUSH1 0xE0 SHL PUSH1 0x0 MSTORE PUSH1 0x41 PUSH1 0x4 MSTORE PUSH1 0x24 PUSH1 0x0 REVERT JUMPDEST PUSH4 0x4E487B71 PUSH1 0xE0 SHL PUSH1 0x0 MSTORE PUSH1 0x32 PUSH1 0x4 MSTORE PUSH1 0x24 PUSH1 0x0 REVERT JUMPDEST PUSH1 0x0 DUP2 PUSH3 0x9D5 JUMPI PUSH3 0x9D5 PUSH3 0x951 JUMP JUMPDEST POP PUSH1 0x0 NOT ADD SWAP1 JUMP JUMPDEST PUSH1 0x80 MLOAD PUSH2 0x3B8A PUSH3 0xA00 PUSH1 0x0 CODECOPY PUSH1 0x0 DUP2 DUP2 PUSH2 0x55D ADD MSTORE PUSH2 0xCBE ADD MSTORE PUSH2 0x3B8A PUSH1 0x0 RETURN INVALID PUSH1 0x80 PUSH1 0x40 MSTORE PUSH1 0x4 CALLDATASIZE LT PUSH2 0x247 JUMPI PUSH1 0x0 CALLDATALOAD PUSH1 0xE0 SHR DUP1 PUSH4 0x731F21A0 GT PUSH2 0x13E JUMPI DUP1 PUSH4 0xA3E6BBC4 GT PUSH2 0xBF JUMPI DUP1 PUSH4 0xD547741F GT PUSH2 0x79 JUMPI DUP1 PUSH4 0xEDC779E2 GT PUSH2 0x61 JUMPI DUP1 PUSH4 0xEDC779E2 EQ PUSH2 0x7BF JUMPI DUP1 PUSH4 0xF6B700C5 EQ PUSH2 0x7DF JUMPI DUP1 PUSH4 0xFBD92924 EQ PUSH2 0x814 JUMPI STOP JUMPDEST DUP1 PUSH4 0xD547741F EQ PUSH2 0x77F JUMPI DUP1 PUSH4 0xE4D4D2FF EQ PUSH2 0x79F JUMPI STOP JUMPDEST DUP1 PUSH4 0xA7429FD9 GT PUSH2 0xA7 JUMPI DUP1 PUSH4 0xA7429FD9 EQ PUSH2 0x6B6 JUMPI DUP1 PUSH4 0xB6E1C62E EQ PUSH2 0x6CB JUMPI DUP1 PUSH4 0xC19AE2ED EQ PUSH2 0x75F JUMPI STOP JUMPDEST DUP1 PUSH4 0xA3E6BBC4 EQ PUSH2 0x63A JUMPI DUP1 PUSH4 0xA52355AC EQ PUSH2 0x6A3 JUMPI STOP JUMPDEST DUP1 PUSH4 0x91D14854 GT PUSH2 0x110 JUMPI DUP1 PUSH4 0x9C2B062D GT PUSH2 0xF8 JUMPI DUP1 PUSH4 0x9C2B062D EQ PUSH2 0x5FB JUMPI DUP1 PUSH4 0xA06E5214 EQ PUSH2 0x610 JUMPI DUP1 PUSH4 0xA217FDDF EQ PUSH2 0x625 JUMPI STOP JUMPDEST DUP1 PUSH4 0x91D14854 EQ PUSH2 0x597 JUMPI DUP1 PUSH4 0x93A595F5 EQ PUSH2 0x5DB JUMPI STOP JUMPDEST DUP1 PUSH4 0x731F21A0 EQ PUSH2 0x4EB JUMPI DUP1 PUSH4 0x754E7FED EQ PUSH2 0x50B JUMPI DUP1 PUSH4 0x76BA79A1 EQ PUSH2 0x52B JUMPI DUP1 PUSH4 0x8DA5CB5B EQ PUSH2 0x54B JUMPI STOP JUMPDEST DUP1 PUSH4 0x3AF6BBCC GT PUSH2 0x1C8 JUMPI DUP1 PUSH4 0x597FDAA1 GT PUSH2 0x19A JUMPI DUP1 PUSH4 0x666B7686 GT PUSH2 0x182 JUMPI DUP1 PUSH4 0x666B7686 EQ PUSH2 0x496 JUMPI DUP1 PUSH4 0x6A0775C5 EQ PUSH2 0x4B6 JUMPI DUP1 PUSH4 0x6DA1E102 EQ PUSH2 0x4CB JUMPI STOP JUMPDEST DUP1 PUSH4 0x597FDAA1 EQ PUSH2 0x456 JUMPI DUP1 PUSH4 0x5FA7B584 EQ PUSH2 0x476 JUMPI STOP JUMPDEST DUP1 PUSH4 0x3AF6BBCC EQ PUSH2 0x3D6 JUMPI DUP1 PUSH4 0x43AB265F EQ PUSH2 0x3F6 JUMPI DUP1 PUSH4 0x45F31BBA EQ PUSH2 0x416 JUMPI DUP1 PUSH4 0x5476BD72 EQ PUSH2 0x436 JUMPI STOP JUMPDEST DUP1 PUSH4 0x18C694EE GT PUSH2 0x219 JUMPI DUP1 PUSH4 0x2F2FF15D GT PUSH2 0x201 JUMPI DUP1 PUSH4 0x2F2FF15D EQ PUSH2 0x37E JUMPI DUP1 PUSH4 0x36568ABE EQ PUSH2 0x39E JUMPI DUP1 PUSH4 0x3AE0B734 EQ PUSH2 0x3BE JUMPI STOP JUMPDEST DUP1 PUSH4 0x18C694EE EQ PUSH2 0x305 JUMPI DUP1 PUSH4 0x248A9CA3 EQ PUSH2 0x340 JUMPI STOP JUMPDEST DUP1 PUSH4 0x1FFC9A7 EQ PUSH2 0x250 JUMPI DUP1 PUSH4 0x3E89911 EQ PUSH2 0x285 JUMPI DUP1 PUSH4 0xC63CC7D EQ PUSH2 0x2A5 JUMPI DUP1 PUSH4 0x13FF7E9F EQ PUSH2 0x2C5 JUMPI STOP JUMPDEST CALLDATASIZE PUSH2 0x24E JUMPI STOP JUMPDEST STOP JUMPDEST CALLVALUE DUP1 ISZERO PUSH2 0x25C JUMPI PUSH1 0x0 DUP1 REVERT JUMPDEST POP PUSH2 0x270 PUSH2 0x26B CALLDATASIZE PUSH1 0x4 PUSH2 0x3613 JUMP JUMPDEST PUSH2 0x834 JUMP JUMPDEST PUSH1 0x40 MLOAD SWAP1 ISZERO ISZERO DUP2 MSTORE PUSH1 0x20 ADD JUMPDEST PUSH1 0x40 MLOAD DUP1 SWAP2 SUB SWAP1 RETURN JUMPDEST CALLVALUE DUP1 ISZERO PUSH2 0x291 JUMPI PUSH1 0x0 DUP1 REVERT JUMPDEST POP PUSH2 0x270 PUSH2 0x2A0 CALLDATASIZE PUSH1 0x4 PUSH2 0x366C JUMP JUMPDEST PUSH2 0x8CD JUMP JUMPDEST CALLVALUE DUP1 ISZERO PUSH2 0x2B1 JUMPI PUSH1 0x0 DUP1 REVERT JUMPDEST POP PUSH2 0x270 PUSH2 0x2C0 CALLDATASIZE PUSH1 0x4 PUSH2 0x36B0 JUMP JUMPDEST PUSH2 0x940 JUMP JUMPDEST CALLVALUE DUP1 ISZERO PUSH2 0x2D1 JUMPI PUSH1 0x0 DUP1 REVERT JUMPDEST POP PUSH2 0x2E5 PUSH2 0x2E0 CALLDATASIZE PUSH1 0x4 PUSH2 0x36CB JUMP JUMPDEST PUSH2 0xA16 JUMP JUMPDEST PUSH1 0x40 DUP1 MLOAD PUSH1 0x1 PUSH1 0x1 PUSH1 0xA0 SHL SUB SWAP4 DUP5 AND DUP2 MSTORE SWAP3 SWAP1 SWAP2 AND PUSH1 0x20 DUP4 ADD MSTORE ADD PUSH2 0x27C JUMP JUMPDEST CALLVALUE DUP1 ISZERO PUSH2 0x311 JUMPI PUSH1 0x0 DUP1 REVERT JUMPDEST POP PUSH2 0x325 PUSH2 0x320 CALLDATASIZE PUSH1 0x4 PUSH2 0x36E6 JUMP JUMPDEST PUSH2 0xAFF JUMP JUMPDEST PUSH1 0x40 DUP1 MLOAD SWAP4 DUP5 MSTORE PUSH1 0x20 DUP5 ADD SWAP3 SWAP1 SWAP3 MSTORE SWAP1 DUP3 ADD MSTORE PUSH1 0x60 ADD PUSH2 0x27C JUMP JUMPDEST CALLVALUE DUP1 ISZERO PUSH2 0x34C JUMPI PUSH1 0x0 DUP1 REVERT JUMPDEST POP PUSH2 0x370 PUSH2 0x35B CALLDATASIZE PUSH1 0x4 PUSH2 0x3710 JUMP JUMPDEST PUSH1 0x0 SWAP1 DUP2 MSTORE PUSH1 0x20 DUP2 SWAP1 MSTORE PUSH1 0x40 SWAP1 KECCAK256 PUSH1 0x1 ADD SLOAD SWAP1 JUMP JUMPDEST PUSH1 0x40 MLOAD SWAP1 DUP2 MSTORE PUSH1 0x20 ADD PUSH2 0x27C JUMP JUMPDEST CALLVALUE DUP1 ISZERO PUSH2 0x38A JUMPI PUSH1 0x0 DUP1 REVERT JUMPDEST POP PUSH2 0x24E PUSH2 0x399 CALLDATASIZE PUSH1 0x4 PUSH2 0x3729 JUMP JUMPDEST PUSH2 0xC05 JUMP JUMPDEST CALLVALUE DUP1 ISZERO PUSH2 0x3AA JUMPI PUSH1 0x0 DUP1 REVERT JUMPDEST POP PUSH2 0x24E PUSH2 0x3B9 CALLDATASIZE PUSH1 0x4 PUSH2 0x3729 JUMP JUMPDEST PUSH2 0xC2F JUMP JUMPDEST CALLVALUE DUP1 ISZERO PUSH2 0x3CA JUMPI PUSH1 0x0 DUP1 REVERT JUMPDEST POP PUSH1 0x2 SLOAD PUSH1 0xFF AND PUSH2 0x370 JUMP JUMPDEST CALLVALUE DUP1 ISZERO PUSH2 0x3E2 JUMPI PUSH1 0x0 DUP1 REVERT JUMPDEST POP PUSH2 0x24E PUSH2 0x3F1 CALLDATASIZE PUSH1 0x4 PUSH2 0x3710 JUMP JUMPDEST PUSH2 0xCBB JUMP JUMPDEST CALLVALUE DUP1 ISZERO PUSH2 0x402 JUMPI PUSH1 0x0 DUP1 REVERT JUMPDEST POP PUSH2 0x370 PUSH2 0x411 CALLDATASIZE PUSH1 0x4 PUSH2 0x36CB JUMP JUMPDEST PUSH2 0xECA JUMP JUMPDEST CALLVALUE DUP1 ISZERO PUSH2 0x422 JUMPI PUSH1 0x0 DUP1 REVERT JUMPDEST POP PUSH2 0x325 PUSH2 0x431 CALLDATASIZE PUSH1 0x4 PUSH2 0x366C JUMP JUMPDEST PUSH2 0xFC7 JUMP JUMPDEST CALLVALUE DUP1 ISZERO PUSH2 0x442 JUMPI PUSH1 0x0 DUP1 REVERT JUMPDEST POP PUSH2 0x24E PUSH2 0x451 CALLDATASIZE PUSH1 0x4 PUSH2 0x366C JUMP JUMPDEST PUSH2 0x10CE JUMP JUMPDEST CALLVALUE DUP1 ISZERO PUSH2 0x462 JUMPI PUSH1 0x0 DUP1 REVERT JUMPDEST POP PUSH2 0x24E PUSH2 0x471 CALLDATASIZE PUSH1 0x4 PUSH2 0x374C JUMP JUMPDEST PUSH2 0x128E JUMP JUMPDEST CALLVALUE DUP1 ISZERO PUSH2 0x482 JUMPI PUSH1 0x0 DUP1 REVERT JUMPDEST POP PUSH2 0x24E PUSH2 0x491 CALLDATASIZE PUSH1 0x4 PUSH2 0x36CB JUMP JUMPDEST PUSH2 0x1723 JUMP JUMPDEST CALLVALUE DUP1 ISZERO PUSH2 0x4A2 JUMPI PUSH1 0x0 DUP1 REVERT JUMPDEST POP PUSH2 0x270 PUSH2 0x4B1 CALLDATASIZE PUSH1 0x4 PUSH2 0x36B0 JUMP JUMPDEST PUSH2 0x1893 JUMP JUMPDEST CALLVALUE DUP1 ISZERO PUSH2 0x4C2 JUMPI PUSH1 0x0 DUP1 REVERT JUMPDEST POP PUSH1 0x3 SLOAD PUSH2 0x370 JUMP JUMPDEST CALLVALUE DUP1 ISZERO PUSH2 0x4D7 JUMPI PUSH1 0x0 DUP1 REVERT JUMPDEST POP PUSH2 0x24E PUSH2 0x4E6 CALLDATASIZE PUSH1 0x4 PUSH2 0x36CB JUMP JUMPDEST PUSH2 0x1963 JUMP JUMPDEST CALLVALUE DUP1 ISZERO PUSH2 0x4F7 JUMPI PUSH1 0x0 DUP1 REVERT JUMPDEST POP PUSH2 0x24E PUSH2 0x506 CALLDATASIZE PUSH1 0x4 PUSH2 0x37DD JUMP JUMPDEST PUSH2 0x1A13 JUMP JUMPDEST CALLVALUE DUP1 ISZERO PUSH2 0x517 JUMPI PUSH1 0x0 DUP1 REVERT JUMPDEST POP PUSH2 0x24E PUSH2 0x526 CALLDATASIZE PUSH1 0x4 PUSH2 0x366C JUMP JUMPDEST PUSH2 0x1AF4 JUMP JUMPDEST CALLVALUE DUP1 ISZERO PUSH2 0x537 JUMPI PUSH1 0x0 DUP1 REVERT JUMPDEST POP PUSH2 0x370 PUSH2 0x546 CALLDATASIZE PUSH1 0x4 PUSH2 0x3896 JUMP JUMPDEST PUSH2 0x1C70 JUMP JUMPDEST CALLVALUE DUP1 ISZERO PUSH2 0x557 JUMPI PUSH1 0x0 DUP1 REVERT JUMPDEST POP PUSH2 0x57F PUSH32 0x0 DUP2 JUMP JUMPDEST PUSH1 0x40 MLOAD PUSH1 0x1 PUSH1 0x1 PUSH1 0xA0 SHL SUB SWAP1 SWAP2 AND DUP2 MSTORE PUSH1 0x20 ADD PUSH2 0x27C JUMP JUMPDEST CALLVALUE DUP1 ISZERO PUSH2 0x5A3 JUMPI PUSH1 0x0 DUP1 REVERT JUMPDEST POP PUSH2 0x270 PUSH2 0x5B2 CALLDATASIZE PUSH1 0x4 PUSH2 0x3729 JUMP JUMPDEST PUSH1 0x0 SWAP2 DUP3 MSTORE PUSH1 0x20 DUP3 DUP2 MSTORE PUSH1 0x40 DUP1 DUP5 KECCAK256 PUSH1 0x1 PUSH1 0x1 PUSH1 0xA0 SHL SUB SWAP4 SWAP1 SWAP4 AND DUP5 MSTORE SWAP2 SWAP1 MSTORE SWAP1 KECCAK256 SLOAD PUSH1 0xFF AND SWAP1 JUMP JUMPDEST CALLVALUE DUP1 ISZERO PUSH2 0x5E7 JUMPI PUSH1 0x0 DUP1 REVERT JUMPDEST POP PUSH2 0x24E PUSH2 0x5F6 CALLDATASIZE PUSH1 0x4 PUSH2 0x36E6 JUMP JUMPDEST PUSH2 0x1E59 JUMP JUMPDEST CALLVALUE DUP1 ISZERO PUSH2 0x607 JUMPI PUSH1 0x0 DUP1 REVERT JUMPDEST POP PUSH1 0x4 SLOAD PUSH2 0x370 JUMP JUMPDEST CALLVALUE DUP1 ISZERO PUSH2 0x61C JUMPI PUSH1 0x0 DUP1 REVERT JUMPDEST POP PUSH1 0x5 SLOAD PUSH2 0x370 JUMP JUMPDEST CALLVALUE DUP1 ISZERO PUSH2 0x631 JUMPI PUSH1 0x0 DUP1 REVERT JUMPDEST POP PUSH2 0x370 PUSH1 0x0 DUP2 JUMP JUMPDEST CALLVALUE DUP1 ISZERO PUSH2 0x646 JUMPI PUSH1 0x0 DUP1 REVERT JUMPDEST POP PUSH2 0x270 PUSH2 0x655 CALLDATASIZE PUSH1 0x4 PUSH2 0x366C JUMP JUMPDEST PUSH1 0x1 PUSH1 0x1 PUSH1 0xA0 SHL SUB SWAP2 DUP3 AND PUSH1 0x0 SWAP1 DUP2 MSTORE PUSH1 0xE PUSH1 0x20 SWAP1 DUP2 MSTORE PUSH1 0x40 DUP1 DUP4 KECCAK256 SWAP4 SWAP1 SWAP5 AND DUP3 MSTORE SWAP2 DUP3 MSTORE DUP3 SWAP1 KECCAK256 DUP3 MLOAD PUSH1 0x60 DUP2 ADD DUP5 MSTORE DUP2 SLOAD DUP2 MSTORE PUSH1 0x1 DUP3 ADD SLOAD SWAP3 DUP2 ADD SWAP3 SWAP1 SWAP3 MSTORE PUSH1 0x2 ADD SLOAD SWAP2 ADD DUP2 SWAP1 MSTORE TIMESTAMP GT SWAP1 JUMP JUMPDEST PUSH2 0x24E PUSH2 0x6B1 CALLDATASIZE PUSH1 0x4 PUSH2 0x36E6 JUMP JUMPDEST PUSH2 0x2566 JUMP JUMPDEST CALLVALUE DUP1 ISZERO PUSH2 0x6C2 JUMPI PUSH1 0x0 DUP1 REVERT JUMPDEST POP PUSH2 0x370 PUSH2 0x29BB JUMP JUMPDEST CALLVALUE DUP1 ISZERO PUSH2 0x6D7 JUMPI PUSH1 0x0 DUP1 REVERT JUMPDEST POP PUSH2 0x712 PUSH1 0x7 SLOAD PUSH1 0x8 SLOAD PUSH1 0x9 SLOAD PUSH1 0xA SLOAD PUSH1 0xB SLOAD PUSH1 0xC SLOAD PUSH1 0xD SLOAD PUSH1 0x1 PUSH1 0x1 PUSH1 0xA0 SHL SUB DUP8 AND SWAP8 PUSH1 0x1 PUSH1 0xA0 SHL SWAP1 SWAP8 DIV PUSH1 0xFF SWAP1 DUP2 AND SWAP8 SWAP6 DUP2 AND SWAP6 SWAP3 AND SWAP2 JUMP JUMPDEST PUSH1 0x40 DUP1 MLOAD PUSH1 0x1 PUSH1 0x1 PUSH1 0xA0 SHL SUB SWAP1 SWAP10 AND DUP10 MSTORE PUSH1 0xFF SWAP8 DUP9 AND PUSH1 0x20 DUP11 ADD MSTORE DUP9 ADD SWAP6 SWAP1 SWAP6 MSTORE SWAP3 DUP6 AND PUSH1 0x60 DUP8 ADD MSTORE PUSH1 0x80 DUP7 ADD SWAP2 SWAP1 SWAP2 MSTORE PUSH1 0xA0 DUP6 ADD MSTORE SWAP2 SWAP1 SWAP2 AND PUSH1 0xC0 DUP4 ADD MSTORE PUSH1 0xE0 DUP3 ADD MSTORE PUSH2 0x100 ADD PUSH2 0x27C JUMP JUMPDEST CALLVALUE DUP1 ISZERO PUSH2 0x76B JUMPI PUSH1 0x0 DUP1 REVERT JUMPDEST POP PUSH2 0x24E PUSH2 0x77A CALLDATASIZE PUSH1 0x4 PUSH2 0x37DD JUMP JUMPDEST PUSH2 0x2A1C JUMP JUMPDEST CALLVALUE DUP1 ISZERO PUSH2 0x78B JUMPI PUSH1 0x0 DUP1 REVERT JUMPDEST POP PUSH2 0x24E PUSH2 0x79A CALLDATASIZE PUSH1 0x4 PUSH2 0x3729 JUMP JUMPDEST PUSH2 0x2AF8 JUMP JUMPDEST CALLVALUE DUP1 ISZERO PUSH2 0x7AB JUMPI PUSH1 0x0 DUP1 REVERT JUMPDEST POP PUSH2 0x24E PUSH2 0x7BA CALLDATASIZE PUSH1 0x4 PUSH2 0x36CB JUMP JUMPDEST PUSH2 0x2B1D JUMP JUMPDEST CALLVALUE DUP1 ISZERO PUSH2 0x7CB JUMPI PUSH1 0x0 DUP1 REVERT JUMPDEST POP PUSH2 0x370 PUSH2 0x7DA CALLDATASIZE PUSH1 0x4 PUSH2 0x36CB JUMP JUMPDEST PUSH2 0x2EFA JUMP JUMPDEST CALLVALUE DUP1 ISZERO PUSH2 0x7EB JUMPI PUSH1 0x0 DUP1 REVERT JUMPDEST POP PUSH2 0x7FF PUSH2 0x7FA CALLDATASIZE PUSH1 0x4 PUSH2 0x36E6 JUMP JUMPDEST PUSH2 0x307F JUMP JUMPDEST PUSH1 0x40 DUP1 MLOAD SWAP3 DUP4 MSTORE PUSH1 0x20 DUP4 ADD SWAP2 SWAP1 SWAP2 MSTORE ADD PUSH2 0x27C JUMP JUMPDEST CALLVALUE DUP1 ISZERO PUSH2 0x820 JUMPI PUSH1 0x0 DUP1 REVERT JUMPDEST POP PUSH2 0x270 PUSH2 0x82F CALLDATASIZE PUSH1 0x4 PUSH2 0x36CB JUMP JUMPDEST PUSH2 0x316F JUMP JUMPDEST PUSH1 0x0 PUSH32 0xFFFFFFFF00000000000000000000000000000000000000000000000000000000 DUP3 AND PUSH32 0x7965DB0B00000000000000000000000000000000000000000000000000000000 EQ DUP1 PUSH2 0x8C7 JUMPI POP PUSH32 0x1FFC9A700000000000000000000000000000000000000000000000000000000 PUSH32 0xFFFFFFFF00000000000000000000000000000000000000000000000000000000 DUP4 AND EQ JUMPDEST SWAP3 SWAP2 POP POP JUMP JUMPDEST PUSH1 0x1 PUSH1 0x1 PUSH1 0xA0 SHL SUB DUP1 DUP4 AND PUSH1 0x0 SWAP1 DUP2 MSTORE PUSH1 0xE PUSH1 0x20 SWAP1 DUP2 MSTORE PUSH1 0x40 DUP1 DUP4 KECCAK256 SWAP4 DUP6 AND DUP4 MSTORE SWAP3 DUP2 MSTORE DUP3 DUP3 KECCAK256 DUP4 MLOAD PUSH1 0x60 DUP2 ADD DUP6 MSTORE DUP2 SLOAD DUP2 MSTORE PUSH1 0x1 DUP3 ADD SLOAD SWAP3 DUP2 ADD DUP4 SWAP1 MSTORE PUSH1 0x2 SWAP1 SWAP2 ADD SLOAD SWAP4 DUP2 ADD SWAP4 SWAP1 SWAP4 MSTORE SWAP1 SWAP2 SWAP1 ISZERO DUP1 ISZERO PUSH2 0x927 JUMPI POP DUP1 MLOAD ISZERO JUMPDEST ISZERO PUSH2 0x936 JUMPI PUSH1 0x0 SWAP2 POP POP PUSH2 0x8C7 JUMP JUMPDEST POP PUSH1 0x1 SWAP4 SWAP3 POP POP POP JUMP JUMPDEST PUSH1 0x0 PUSH32 0x69CD0C85288BCFFBE883A45101C678F53F42E27BEBEA35A677CC62DA9FA7F391 PUSH2 0x96C DUP2 PUSH2 0x31FA JUMP JUMPDEST PUSH1 0x1E DUP4 PUSH1 0xFF AND LT ISZERO DUP1 ISZERO PUSH2 0x984 JUMPI POP PUSH1 0x3C DUP4 PUSH1 0xFF AND GT ISZERO JUMPDEST PUSH2 0x9FB JUMPI PUSH1 0x40 MLOAD PUSH3 0x461BCD PUSH1 0xE5 SHL DUP2 MSTORE PUSH1 0x20 PUSH1 0x4 DUP3 ADD MSTORE PUSH1 0x34 PUSH1 0x24 DUP3 ADD MSTORE PUSH32 0x52657061796D656E7420706572696F64206D757374206265206265747765656E PUSH1 0x44 DUP3 ADD MSTORE PUSH32 0x20333020616E6420363020696E20646179732021000000000000000000000000 PUSH1 0x64 DUP3 ADD MSTORE PUSH1 0x84 ADD JUMPDEST PUSH1 0x40 MLOAD DUP1 SWAP2 SUB SWAP1 REVERT JUMPDEST PUSH1 0xC DUP1 SLOAD PUSH1 0xFF DUP6 AND PUSH1 0xFF NOT SWAP1 SWAP2 AND OR SWAP1 SSTORE PUSH1 0x1 SWAP2 POP POP SWAP2 SWAP1 POP JUMP JUMPDEST PUSH1 0x0 DUP1 DUP3 PUSH1 0x1 PUSH1 0x1 PUSH1 0xA0 SHL SUB DUP2 AND ADDRESS EQ DUP1 PUSH2 0xA4B JUMPI POP PUSH1 0x1 PUSH1 0x1 PUSH1 0xA0 SHL SUB DUP1 DUP3 AND PUSH1 0x0 DUP2 DUP2 MSTORE PUSH1 0xF PUSH1 0x20 MSTORE PUSH1 0x40 SWAP1 KECCAK256 SLOAD SWAP1 SWAP2 AND EQ JUMPDEST DUP1 PUSH2 0xA63 JUMPI POP PUSH1 0x6 SLOAD PUSH1 0x1 PUSH1 0x1 PUSH1 0xA0 SHL SUB DUP3 DUP2 AND SWAP2 AND EQ JUMPDEST PUSH2 0xAAF JUMPI PUSH1 0x40 MLOAD PUSH3 0x461BCD PUSH1 0xE5 SHL DUP2 MSTORE PUSH1 0x20 PUSH1 0x4 DUP3 ADD MSTORE PUSH1 0x1F PUSH1 0x24 DUP3 ADD MSTORE PUSH32 0x5468697320746F6B656E20646F6573206E6F7420737570706F72746564202100 PUSH1 0x44 DUP3 ADD MSTORE PUSH1 0x64 ADD PUSH2 0x9F2 JUMP JUMPDEST POP POP POP PUSH1 0x1 PUSH1 0x1 PUSH1 0xA0 SHL SUB SWAP1 DUP2 AND PUSH1 0x0 SWAP1 DUP2 MSTORE PUSH1 0xF PUSH1 0x20 SWAP1 DUP2 MSTORE PUSH1 0x40 SWAP2 DUP3 SWAP1 KECCAK256 DUP3 MLOAD PUSH1 0x60 DUP2 ADD DUP5 MSTORE DUP2 SLOAD DUP6 AND DUP1 DUP3 MSTORE PUSH1 0x1 DUP4 ADD SLOAD DUP7 AND SWAP4 DUP3 ADD SWAP4 SWAP1 SWAP4 MSTORE PUSH1 0x2 SWAP1 SWAP2 ADD SLOAD SWAP1 SWAP4 AND SWAP3 SWAP1 SWAP2 ADD DUP3 SWAP1 MSTORE SWAP2 JUMP JUMPDEST PUSH1 0x0 DUP1 DUP1 DUP5 PUSH1 0x1 PUSH1 0x1 PUSH1 0xA0 SHL SUB DUP2 AND ADDRESS EQ DUP1 PUSH2 0xB35 JUMPI POP PUSH1 0x1 PUSH1 0x1 PUSH1 0xA0 SHL SUB DUP1 DUP3 AND PUSH1 0x0 DUP2 DUP2 MSTORE PUSH1 0xF PUSH1 0x20 MSTORE PUSH1 0x40 SWAP1 KECCAK256 SLOAD SWAP1 SWAP2 AND EQ JUMPDEST DUP1 PUSH2 0xB4D JUMPI POP PUSH1 0x6 SLOAD PUSH1 0x1 PUSH1 0x1 PUSH1 0xA0 SHL SUB DUP3 DUP2 AND SWAP2 AND EQ JUMPDEST PUSH2 0xB99 JUMPI PUSH1 0x40 MLOAD PUSH3 0x461BCD PUSH1 0xE5 SHL DUP2 MSTORE PUSH1 0x20 PUSH1 0x4 DUP3 ADD MSTORE PUSH1 0x1F PUSH1 0x24 DUP3 ADD MSTORE PUSH32 0x5468697320746F6B656E20646F6573206E6F7420737570706F72746564202100 PUSH1 0x44 DUP3 ADD MSTORE PUSH1 0x64 ADD PUSH2 0x9F2 JUMP JUMPDEST PUSH1 0x0 DUP1 PUSH2 0xBA6 DUP9 DUP9 PUSH2 0x307F JUMP JUMPDEST SWAP1 SWAP3 POP SWAP1 POP PUSH1 0x0 PUSH2 0xBB9 DUP4 PUSH2 0x2710 PUSH2 0x3207 JUMP JUMPDEST PUSH1 0x7 SLOAD SWAP1 SWAP2 POP PUSH1 0x0 SWAP1 PUSH2 0xBE4 SWAP1 PUSH1 0x64 SWAP1 PUSH2 0xBDE SWAP1 DUP8 SWAP1 PUSH1 0x1 PUSH1 0xA0 SHL SWAP1 DIV PUSH1 0xFF AND PUSH2 0x3213 JUMP JUMPDEST SWAP1 PUSH2 0x3207 JUMP JUMPDEST SWAP1 POP PUSH1 0x0 PUSH2 0xBF2 DUP6 DUP4 PUSH2 0x321F JUMP JUMPDEST SWAP3 SWAP12 SWAP3 SWAP11 POP SWAP3 SWAP9 POP SWAP1 SWAP7 POP POP POP POP POP POP POP JUMP JUMPDEST PUSH1 0x0 DUP3 DUP2 MSTORE PUSH1 0x20 DUP2 SWAP1 MSTORE PUSH1 0x40 SWAP1 KECCAK256 PUSH1 0x1 ADD SLOAD PUSH2 0xC20 DUP2 PUSH2 0x31FA JUMP JUMPDEST PUSH2 0xC2A DUP4 DUP4 PUSH2 0x322B JUMP JUMPDEST POP POP POP JUMP JUMPDEST PUSH1 0x1 PUSH1 0x1 PUSH1 0xA0 SHL SUB DUP2 AND CALLER EQ PUSH2 0xCAD JUMPI PUSH1 0x40 MLOAD PUSH3 0x461BCD PUSH1 0xE5 SHL DUP2 MSTORE PUSH1 0x20 PUSH1 0x4 DUP3 ADD MSTORE PUSH1 0x2F PUSH1 0x24 DUP3 ADD MSTORE PUSH32 0x416363657373436F6E74726F6C3A2063616E206F6E6C792072656E6F756E6365 PUSH1 0x44 DUP3 ADD MSTORE PUSH32 0x20726F6C657320666F722073656C660000000000000000000000000000000000 PUSH1 0x64 DUP3 ADD MSTORE PUSH1 0x84 ADD PUSH2 0x9F2 JUMP JUMPDEST PUSH2 0xCB7 DUP3 DUP3 PUSH2 0x32C9 JUMP JUMPDEST POP POP JUMP JUMPDEST CALLER PUSH32 0x0 PUSH1 0x1 PUSH1 0x1 PUSH1 0xA0 SHL SUB AND DUP2 EQ PUSH2 0xD34 JUMPI PUSH1 0x40 MLOAD PUSH3 0x461BCD PUSH1 0xE5 SHL DUP2 MSTORE PUSH1 0x20 PUSH1 0x4 DUP3 ADD MSTORE PUSH1 0x1B PUSH1 0x24 DUP3 ADD MSTORE PUSH32 0x596F75206172656E277420636F6E7472616374206F776E657220210000000000 PUSH1 0x44 DUP3 ADD MSTORE PUSH1 0x64 ADD PUSH2 0x9F2 JUMP JUMPDEST PUSH2 0xD3C PUSH2 0x3348 JUMP JUMPDEST PUSH1 0xD SLOAD ISZERO DUP1 ISZERO SWAP1 PUSH2 0xD4F JUMPI POP PUSH1 0xD SLOAD DUP3 GT ISZERO JUMPDEST PUSH2 0xDC1 JUMPI PUSH1 0x40 MLOAD PUSH3 0x461BCD PUSH1 0xE5 SHL DUP2 MSTORE PUSH1 0x20 PUSH1 0x4 DUP3 ADD MSTORE PUSH1 0x2F PUSH1 0x24 DUP3 ADD MSTORE PUSH32 0x4F776E6572205769746864726177616C204572726F72203A20496E7375666669 PUSH1 0x44 DUP3 ADD MSTORE PUSH32 0x6369656E7420696E76656E746F72790000000000000000000000000000000000 PUSH1 0x64 DUP3 ADD MSTORE PUSH1 0x84 ADD PUSH2 0x9F2 JUMP JUMPDEST PUSH1 0x6 SLOAD PUSH1 0x40 MLOAD PUSH4 0xA9059CBB PUSH1 0xE0 SHL DUP2 MSTORE CALLER PUSH1 0x4 DUP3 ADD MSTORE PUSH1 0x24 DUP2 ADD DUP5 SWAP1 MSTORE PUSH1 0x1 PUSH1 0x1 PUSH1 0xA0 SHL SUB SWAP1 SWAP2 AND SWAP1 PUSH4 0xA9059CBB SWAP1 PUSH1 0x44 ADD PUSH1 0x20 PUSH1 0x40 MLOAD DUP1 DUP4 SUB DUP2 PUSH1 0x0 DUP8 GAS CALL ISZERO DUP1 ISZERO PUSH2 0xE12 JUMPI RETURNDATASIZE PUSH1 0x0 DUP1 RETURNDATACOPY RETURNDATASIZE PUSH1 0x0 REVERT JUMPDEST POP POP POP POP PUSH1 0x40 MLOAD RETURNDATASIZE PUSH1 0x1F NOT PUSH1 0x1F DUP3 ADD AND DUP3 ADD DUP1 PUSH1 0x40 MSTORE POP DUP2 ADD SWAP1 PUSH2 0xE36 SWAP2 SWAP1 PUSH2 0x38D2 JUMP JUMPDEST PUSH2 0xEA8 JUMPI PUSH1 0x40 MLOAD PUSH3 0x461BCD PUSH1 0xE5 SHL DUP2 MSTORE PUSH1 0x20 PUSH1 0x4 DUP3 ADD MSTORE PUSH1 0x3C PUSH1 0x24 DUP3 ADD MSTORE PUSH32 0x4F776E6572205769746864726177616C204572726F72203A205472616E736665 PUSH1 0x44 DUP3 ADD MSTORE PUSH32 0x7272696E672074686520746F6B656E20776173206661696C6564202100000000 PUSH1 0x64 DUP3 ADD MSTORE PUSH1 0x84 ADD PUSH2 0x9F2 JUMP JUMPDEST DUP2 PUSH1 0x7 PUSH1 0x6 ADD PUSH1 0x0 DUP3 DUP3 SLOAD PUSH2 0xEBD SWAP2 SWAP1 PUSH2 0x390A JUMP JUMPDEST SWAP1 SWAP2 SSTORE POP POP PUSH1 0x1 DUP1 SSTORE POP POP JUMP JUMPDEST PUSH1 0x0 PUSH1 0x1 PUSH1 0x1 PUSH1 0xA0 SHL SUB DUP3 AND PUSH2 0xF48 JUMPI PUSH1 0x40 MLOAD PUSH3 0x461BCD PUSH1 0xE5 SHL DUP2 MSTORE PUSH1 0x20 PUSH1 0x4 DUP3 ADD MSTORE PUSH1 0x36 PUSH1 0x24 DUP3 ADD MSTORE PUSH32 0x466574636820436F6E74726163742042616C616E6365204572726F72203A2049 PUSH1 0x44 DUP3 ADD MSTORE PUSH32 0x6E76616C696420746F6B656E2061646472657373202100000000000000000000 PUSH1 0x64 DUP3 ADD MSTORE PUSH1 0x84 ADD PUSH2 0x9F2 JUMP JUMPDEST ADDRESS PUSH1 0x1 PUSH1 0x1 PUSH1 0xA0 SHL SUB DUP4 AND SUB PUSH2 0xF5F JUMPI POP SELFBALANCE SWAP2 SWAP1 POP JUMP JUMPDEST PUSH1 0x40 MLOAD PUSH4 0x70A08231 PUSH1 0xE0 SHL DUP2 MSTORE ADDRESS PUSH1 0x4 DUP3 ADD MSTORE PUSH1 0x1 PUSH1 0x1 PUSH1 0xA0 SHL SUB DUP4 AND SWAP1 PUSH4 0x70A08231 SWAP1 PUSH1 0x24 ADD PUSH1 0x20 PUSH1 0x40 MLOAD DUP1 DUP4 SUB DUP2 DUP7 GAS STATICCALL ISZERO DUP1 ISZERO PUSH2 0xFA3 JUMPI RETURNDATASIZE PUSH1 0x0 DUP1 RETURNDATACOPY RETURNDATASIZE PUSH1 0x0 REVERT JUMPDEST POP POP POP POP PUSH1 0x40 MLOAD RETURNDATASIZE PUSH1 0x1F NOT PUSH1 0x1F DUP3 ADD AND DUP3 ADD DUP1 PUSH1 0x40 MSTORE POP DUP2 ADD SWAP1 PUSH2 0x8C7 SWAP2 SWAP1 PUSH2 0x391D JUMP JUMPDEST PUSH1 0x1 PUSH1 0x1 PUSH1 0xA0 SHL SUB DUP1 DUP4 AND PUSH1 0x0 SWAP1 DUP2 MSTORE PUSH1 0xE PUSH1 0x20 SWAP1 DUP2 MSTORE PUSH1 0x40 DUP1 DUP4 KECCAK256 SWAP4 DUP6 AND DUP4 MSTORE SWAP3 DUP2 MSTORE DUP3 DUP3 KECCAK256 DUP4 MLOAD PUSH1 0x60 DUP2 ADD DUP6 MSTORE DUP2 SLOAD DUP2 MSTORE PUSH1 0x1 DUP3 ADD SLOAD SWAP3 DUP2 ADD DUP4 SWAP1 MSTORE PUSH1 0x2 SWAP1 SWAP2 ADD SLOAD SWAP4 DUP2 ADD SWAP4 SWAP1 SWAP4 MSTORE SWAP1 SWAP2 DUP3 SWAP2 DUP3 SWAP2 DUP7 SWAP2 DUP7 SWAP2 SWAP1 ISZERO ISZERO DUP1 PUSH2 0x102A JUMPI POP DUP1 MLOAD ISZERO ISZERO JUMPDEST PUSH2 0x1076 JUMPI PUSH1 0x40 MLOAD PUSH3 0x461BCD PUSH1 0xE5 SHL DUP2 MSTORE PUSH1 0x20 PUSH1 0x4 DUP3 ADD MSTORE PUSH1 0x1A PUSH1 0x24 DUP3 ADD MSTORE PUSH32 0x54686973206C6F616E20646F6573206E6F742065786973742021000000000000 PUSH1 0x44 DUP3 ADD MSTORE PUSH1 0x64 ADD PUSH2 0x9F2 JUMP JUMPDEST POP POP POP POP PUSH1 0x1 PUSH1 0x1 PUSH1 0xA0 SHL SUB SWAP4 DUP5 AND PUSH1 0x0 SWAP1 DUP2 MSTORE PUSH1 0xE PUSH1 0x20 SWAP1 DUP2 MSTORE PUSH1 0x40 DUP1 DUP4 KECCAK256 SWAP6 SWAP1 SWAP7 AND DUP3 MSTORE SWAP4 DUP5 MSTORE DUP5 SWAP1 KECCAK256 DUP5 MLOAD PUSH1 0x60 DUP2 ADD DUP7 MSTORE DUP2 SLOAD DUP1 DUP3 MSTORE PUSH1 0x1 DUP4 ADD SLOAD SWAP6 DUP3 ADD DUP7 SWAP1 MSTORE PUSH1 0x2 SWAP1 SWAP3 ADD SLOAD SWAP6 ADD DUP6 SWAP1 MSTORE SWAP5 SWAP3 SWAP4 SWAP3 SWAP2 POP POP JUMP JUMPDEST PUSH32 0x2CB697566D4FAE71A9E65E4DAC853BF1E0E88A4957A11BB62814A78D165BB6BB PUSH2 0x10F8 DUP2 PUSH2 0x31FA JUMP JUMPDEST PUSH1 0x1 PUSH1 0x1 PUSH1 0xA0 SHL SUB DUP4 AND ISZERO DUP1 ISZERO SWAP1 PUSH2 0x1118 JUMPI POP PUSH1 0x1 PUSH1 0x1 PUSH1 0xA0 SHL SUB DUP3 AND ISZERO ISZERO JUMPDEST PUSH2 0x118A JUMPI PUSH1 0x40 MLOAD PUSH3 0x461BCD PUSH1 0xE5 SHL DUP2 MSTORE PUSH1 0x20 PUSH1 0x4 DUP3 ADD MSTORE PUSH1 0x34 PUSH1 0x24 DUP3 ADD MSTORE PUSH32 0x546F6B656E206164647265737320616E64207072696365206665656420616464 PUSH1 0x44 DUP3 ADD MSTORE PUSH32 0x726573732063616E6E6F74206265207A65726F21000000000000000000000000 PUSH1 0x64 DUP3 ADD MSTORE PUSH1 0x84 ADD PUSH2 0x9F2 JUMP JUMPDEST PUSH2 0x1193 DUP4 PUSH2 0x316F JUMP JUMPDEST ISZERO PUSH2 0x11E0 JUMPI PUSH1 0x40 MLOAD PUSH3 0x461BCD PUSH1 0xE5 SHL DUP2 MSTORE PUSH1 0x20 PUSH1 0x4 DUP3 ADD MSTORE PUSH1 0x18 PUSH1 0x24 DUP3 ADD MSTORE PUSH32 0x546F6B656E20616C726561647920737570706F72746564210000000000000000 PUSH1 0x44 DUP3 ADD MSTORE PUSH1 0x64 ADD PUSH2 0x9F2 JUMP JUMPDEST PUSH1 0x40 DUP1 MLOAD PUSH1 0x60 DUP2 ADD DUP3 MSTORE PUSH1 0x1 PUSH1 0x1 PUSH1 0xA0 SHL SUB DUP1 DUP7 AND DUP1 DUP4 MSTORE PUSH1 0x20 DUP1 DUP5 ADD DUP3 DUP2 MSTORE DUP8 DUP5 AND DUP6 DUP8 ADD SWAP1 DUP2 MSTORE PUSH1 0x0 SWAP4 DUP5 MSTORE PUSH1 0xF SWAP1 SWAP3 MSTORE SWAP5 DUP3 KECCAK256 SWAP4 MLOAD DUP5 SLOAD SWAP1 DUP5 AND PUSH20 0xFFFFFFFFFFFFFFFFFFFFFFFFFFFFFFFFFFFFFFFF NOT SWAP2 DUP3 AND OR DUP6 SSTORE SWAP5 MLOAD PUSH1 0x1 DUP6 ADD DUP1 SLOAD SWAP2 DUP6 AND SWAP2 DUP8 AND SWAP2 SWAP1 SWAP2 OR SWAP1 SSTORE MLOAD PUSH1 0x2 SWAP4 DUP5 ADD DUP1 SLOAD SWAP2 SWAP1 SWAP4 AND SWAP5 AND SWAP4 SWAP1 SWAP4 OR SWAP1 SSTORE DUP1 SLOAD PUSH1 0xFF AND SWAP2 PUSH2 0x1270 DUP4 PUSH2 0x3936 JUMP JUMPDEST SWAP2 SWAP1 PUSH2 0x100 EXP DUP2 SLOAD DUP2 PUSH1 0xFF MUL NOT AND SWAP1 DUP4 PUSH1 0xFF AND MUL OR SWAP1 SSTORE POP POP POP POP POP JUMP JUMPDEST PUSH32 0x2CB697566D4FAE71A9E65E4DAC853BF1E0E88A4957A11BB62814A78D165BB6BB PUSH2 0x12B8 DUP2 PUSH2 0x31FA JUMP JUMPDEST PUSH1 0x1 PUSH1 0x1 PUSH1 0xA0 SHL SUB DUP10 AND PUSH2 0x1334 JUMPI PUSH1 0x40 MLOAD PUSH3 0x461BCD PUSH1 0xE5 SHL DUP2 MSTORE PUSH1 0x20 PUSH1 0x4 DUP3 ADD MSTORE PUSH1 0x29 PUSH1 0x24 DUP3 ADD MSTORE PUSH32 0x4E6574776F726B20636F696E2070726963652066656564206164647265737320 PUSH1 0x44 DUP3 ADD MSTORE PUSH32 0x6973207A65726F20210000000000000000000000000000000000000000000000 PUSH1 0x64 DUP3 ADD MSTORE PUSH1 0x84 ADD PUSH2 0x9F2 JUMP JUMPDEST PUSH1 0x64 DUP9 PUSH1 0xFF AND GT ISZERO DUP1 ISZERO PUSH2 0x134B JUMPI POP PUSH1 0x0 DUP9 PUSH1 0xFF AND GT JUMPDEST PUSH2 0x13BD JUMPI PUSH1 0x40 MLOAD PUSH3 0x461BCD PUSH1 0xE5 SHL DUP2 MSTORE PUSH1 0x20 PUSH1 0x4 DUP3 ADD MSTORE PUSH1 0x2D PUSH1 0x24 DUP3 ADD MSTORE PUSH32 0x4F776E6572206665652070657263656E74206D75737420626520626574776565 PUSH1 0x44 DUP3 ADD MSTORE PUSH32 0x6E203120616E6420313030202100000000000000000000000000000000000000 PUSH1 0x64 DUP3 ADD MSTORE PUSH1 0x84 ADD PUSH2 0x9F2 JUMP JUMPDEST PUSH1 0x0 DUP8 GT PUSH2 0x1432 JUMPI PUSH1 0x40 MLOAD PUSH3 0x461BCD PUSH1 0xE5 SHL DUP2 MSTORE PUSH1 0x20 PUSH1 0x4 DUP3 ADD MSTORE PUSH1 0x24 DUP1 DUP3 ADD MSTORE PUSH32 0x566F746520666565206D7573742062652067726561746572207468616E207A65 PUSH1 0x44 DUP3 ADD MSTORE PUSH32 0x726F202100000000000000000000000000000000000000000000000000000000 PUSH1 0x64 DUP3 ADD MSTORE PUSH1 0x84 ADD PUSH2 0x9F2 JUMP JUMPDEST PUSH1 0x0 DUP7 PUSH1 0xFF AND GT DUP1 ISZERO PUSH2 0x1449 JUMPI POP PUSH1 0x64 DUP7 PUSH1 0xFF AND GT ISZERO JUMPDEST PUSH2 0x14BB JUMPI PUSH1 0x40 MLOAD PUSH3 0x461BCD PUSH1 0xE5 SHL DUP2 MSTORE PUSH1 0x20 PUSH1 0x4 DUP3 ADD MSTORE PUSH1 0x36 PUSH1 0x24 DUP3 ADD MSTORE PUSH32 0x4C656E64696E67206C696D69746174696F6E2070657263656E74206D75737420 PUSH1 0x44 DUP3 ADD MSTORE PUSH32 0x6265206265747765656E203120616E6420313030202100000000000000000000 PUSH1 0x64 DUP3 ADD MSTORE PUSH1 0x84 ADD PUSH2 0x9F2 JUMP JUMPDEST PUSH1 0x0 DUP6 GT DUP1 ISZERO PUSH2 0x14CA JUMPI POP DUP4 DUP6 LT JUMPDEST PUSH2 0x1563 JUMPI PUSH1 0x40 MLOAD PUSH3 0x461BCD PUSH1 0xE5 SHL DUP2 MSTORE PUSH1 0x20 PUSH1 0x4 DUP3 ADD MSTORE PUSH1 0x44 PUSH1 0x24 DUP3 ADD DUP2 SWAP1 MSTORE PUSH32 0x4C6F77657374207072696365206D757374206265206772656174657220746861 SWAP1 DUP3 ADD MSTORE PUSH32 0x6E207A65726F20616E64206C657373207468616E206869676865737420707269 PUSH1 0x64 DUP3 ADD MSTORE PUSH32 0x6365202100000000000000000000000000000000000000000000000000000000 PUSH1 0x84 DUP3 ADD MSTORE PUSH1 0xA4 ADD PUSH2 0x9F2 JUMP JUMPDEST PUSH1 0x1E DUP4 PUSH1 0xFF AND LT ISZERO DUP1 ISZERO PUSH2 0x157B JUMPI POP PUSH1 0x3C DUP4 PUSH1 0xFF AND GT ISZERO JUMPDEST PUSH2 0x15ED JUMPI PUSH1 0x40 MLOAD PUSH3 0x461BCD PUSH1 0xE5 SHL DUP2 MSTORE PUSH1 0x20 PUSH1 0x4 DUP3 ADD MSTORE PUSH1 0x34 PUSH1 0x24 DUP3 ADD MSTORE PUSH32 0x52657061796D656E7420706572696F64206D757374206265206265747765656E PUSH1 0x44 DUP3 ADD MSTORE PUSH32 0x20333020616E6420363020696E20646179732021000000000000000000000000 PUSH1 0x64 DUP3 ADD MSTORE PUSH1 0x84 ADD PUSH2 0x9F2 JUMP JUMPDEST PUSH1 0x0 DUP3 GT PUSH2 0x1663 JUMPI PUSH1 0x40 MLOAD PUSH3 0x461BCD PUSH1 0xE5 SHL DUP2 MSTORE PUSH1 0x20 PUSH1 0x4 DUP3 ADD MSTORE PUSH1 0x27 PUSH1 0x24 DUP3 ADD MSTORE PUSH32 0x4F776E6572207368617265206D7573742062652067726561746572207468616E PUSH1 0x44 DUP3 ADD MSTORE PUSH32 0x207A65726F202100000000000000000000000000000000000000000000000000 PUSH1 0x64 DUP3 ADD MSTORE PUSH1 0x84 ADD PUSH2 0x9F2 JUMP JUMPDEST POP PUSH1 0x40 DUP1 MLOAD PUSH2 0x100 DUP2 ADD DUP3 MSTORE PUSH1 0x1 PUSH1 0x1 PUSH1 0xA0 SHL SUB SWAP10 SWAP1 SWAP10 AND DUP1 DUP11 MSTORE PUSH1 0xFF SWAP9 DUP10 AND PUSH1 0x20 DUP12 ADD DUP2 SWAP1 MSTORE SWAP2 DUP11 ADD DUP9 SWAP1 MSTORE SWAP6 DUP9 AND PUSH1 0x60 DUP11 ADD DUP2 SWAP1 MSTORE PUSH1 0x80 DUP11 ADD DUP7 SWAP1 MSTORE PUSH1 0xA0 DUP11 ADD DUP6 SWAP1 MSTORE SWAP3 SWAP1 SWAP8 AND PUSH1 0xC0 DUP10 ADD DUP2 SWAP1 MSTORE PUSH1 0xE0 SWAP1 SWAP9 ADD DUP2 SWAP1 MSTORE PUSH1 0x7 DUP1 SLOAD PUSH32 0xFFFFFFFFFFFFFFFFFFFFFF000000000000000000000000000000000000000000 AND SWAP1 SWAP6 OR PUSH1 0x1 PUSH1 0xA0 SHL SWAP1 SWAP8 MUL SWAP7 SWAP1 SWAP7 OR SWAP1 SWAP4 SSTORE PUSH1 0x8 SWAP4 SWAP1 SWAP4 SSTORE PUSH1 0x9 DUP1 SLOAD PUSH1 0xFF NOT SWAP1 DUP2 AND SWAP1 SWAP4 OR SWAP1 SSTORE PUSH1 0xA SSTORE PUSH1 0xB SWAP2 SWAP1 SWAP2 SSTORE PUSH1 0xC DUP1 SLOAD SWAP1 SWAP2 AND SWAP1 SWAP3 OR SWAP1 SWAP2 SSTORE PUSH1 0xD SSTORE JUMP JUMPDEST PUSH32 0x2CB697566D4FAE71A9E65E4DAC853BF1E0E88A4957A11BB62814A78D165BB6BB PUSH2 0x174D DUP2 PUSH2 0x31FA JUMP JUMPDEST DUP2 PUSH1 0x1 PUSH1 0x1 PUSH1 0xA0 SHL SUB DUP2 AND ADDRESS EQ DUP1 PUSH2 0x177F JUMPI POP PUSH1 0x1 PUSH1 0x1 PUSH1 0xA0 SHL SUB DUP1 DUP3 AND PUSH1 0x0 DUP2 DUP2 MSTORE PUSH1 0xF PUSH1 0x20 MSTORE PUSH1 0x40 SWAP1 KECCAK256 SLOAD SWAP1 SWAP2 AND EQ JUMPDEST DUP1 PUSH2 0x1797 JUMPI POP PUSH1 0x6 SLOAD PUSH1 0x1 PUSH1 0x1 PUSH1 0xA0 SHL SUB DUP3 DUP2 AND SWAP2 AND EQ JUMPDEST PUSH2 0x17E3 JUMPI PUSH1 0x40 MLOAD PUSH3 0x461BCD PUSH1 0xE5 SHL DUP2 MSTORE PUSH1 0x20 PUSH1 0x4 DUP3 ADD MSTORE PUSH1 0x1F PUSH1 0x24 DUP3 ADD MSTORE PUSH32 0x5468697320746F6B656E20646F6573206E6F7420737570706F72746564202100 PUSH1 0x44 DUP3 ADD MSTORE PUSH1 0x64 ADD PUSH2 0x9F2 JUMP JUMPDEST PUSH1 0x1 PUSH1 0x1 PUSH1 0xA0 SHL SUB DUP4 AND PUSH2 0x1839 JUMPI PUSH1 0x40 MLOAD PUSH3 0x461BCD PUSH1 0xE5 SHL DUP2 MSTORE PUSH1 0x20 PUSH1 0x4 DUP3 ADD MSTORE PUSH1 0x1D PUSH1 0x24 DUP3 ADD MSTORE PUSH32 0x546F6B656E20616464726573732063616E6E6F74206265207A65726F21000000 PUSH1 0x44 DUP3 ADD MSTORE PUSH1 0x64 ADD PUSH2 0x9F2 JUMP JUMPDEST PUSH1 0x1 PUSH1 0x1 PUSH1 0xA0 SHL SUB DUP4 AND PUSH1 0x0 SWAP1 DUP2 MSTORE PUSH1 0xF PUSH1 0x20 MSTORE PUSH1 0x40 DUP2 KECCAK256 DUP1 SLOAD PUSH20 0xFFFFFFFFFFFFFFFFFFFFFFFFFFFFFFFFFFFFFFFF NOT SWAP1 DUP2 AND DUP3 SSTORE PUSH1 0x1 DUP3 ADD DUP1 SLOAD DUP3 AND SWAP1 SSTORE PUSH1 0x2 SWAP2 DUP3 ADD DUP1 SLOAD SWAP1 SWAP2 AND SWAP1 SSTORE DUP1 SLOAD PUSH1 0xFF AND SWAP2 PUSH2 0x1270 DUP4 PUSH2 0x3955 JUMP JUMPDEST PUSH1 0x0 PUSH32 0x69CD0C85288BCFFBE883A45101C678F53F42E27BEBEA35A677CC62DA9FA7F391 PUSH2 0x18BF DUP2 PUSH2 0x31FA JUMP JUMPDEST PUSH1 0x0 DUP4 PUSH1 0xFF AND GT DUP1 ISZERO PUSH2 0x18D6 JUMPI POP PUSH1 0x64 DUP4 PUSH1 0xFF AND GT ISZERO JUMPDEST PUSH2 0x1948 JUMPI PUSH1 0x40 MLOAD PUSH3 0x461BCD PUSH1 0xE5 SHL DUP2 MSTORE PUSH1 0x20 PUSH1 0x4 DUP3 ADD MSTORE PUSH1 0x36 PUSH1 0x24 DUP3 ADD MSTORE PUSH32 0x4C656E64696E67206C696D69746174696F6E2070657263656E74206D75737420 PUSH1 0x44 DUP3 ADD MSTORE PUSH32 0x6265206265747765656E203120616E6420313030202100000000000000000000 PUSH1 0x64 DUP3 ADD MSTORE PUSH1 0x84 ADD PUSH2 0x9F2 JUMP JUMPDEST PUSH1 0x9 DUP1 SLOAD PUSH1 0xFF DUP6 AND PUSH1 0xFF NOT SWAP1 SWAP2 AND OR SWAP1 SSTORE PUSH1 0x1 SWAP2 POP POP SWAP2 SWAP1 POP JUMP JUMPDEST PUSH32 0x2CB697566D4FAE71A9E65E4DAC853BF1E0E88A4957A11BB62814A78D165BB6BB PUSH2 0x198D DUP2 PUSH2 0x31FA JUMP JUMPDEST PUSH1 0x1 PUSH1 0x1 PUSH1 0xA0 SHL SUB DUP3 AND PUSH2 0x19E3 JUMPI PUSH1 0x40 MLOAD PUSH3 0x461BCD PUSH1 0xE5 SHL DUP2 MSTORE PUSH1 0x20 PUSH1 0x4 DUP3 ADD MSTORE PUSH1 0x19 PUSH1 0x24 DUP3 ADD MSTORE PUSH32 0x546F6B656E206164647265737320697320696E76616C69642100000000000000 PUSH1 0x44 DUP3 ADD MSTORE PUSH1 0x64 ADD PUSH2 0x9F2 JUMP JUMPDEST POP PUSH1 0x6 DUP1 SLOAD PUSH20 0xFFFFFFFFFFFFFFFFFFFFFFFFFFFFFFFFFFFFFFFF NOT AND PUSH1 0x1 PUSH1 0x1 PUSH1 0xA0 SHL SUB SWAP3 SWAP1 SWAP3 AND SWAP2 SWAP1 SWAP2 OR SWAP1 SSTORE JUMP JUMPDEST PUSH32 0x46F3ECCDD88DD62792AE8EED1BE7B9B658477566C49FD85B0D08CF44261C9208 PUSH2 0x1A3D DUP2 PUSH2 0x31FA JUMP JUMPDEST DUP3 MLOAD PUSH1 0x20 DUP5 ADD KECCAK256 PUSH2 0x1A72 DUP2 DUP5 PUSH1 0x0 SWAP2 DUP3 MSTORE PUSH1 0x20 DUP3 DUP2 MSTORE PUSH1 0x40 DUP1 DUP5 KECCAK256 PUSH1 0x1 PUSH1 0x1 PUSH1 0xA0 SHL SUB SWAP4 SWAP1 SWAP4 AND DUP5 MSTORE SWAP2 SWAP1 MSTORE SWAP1 KECCAK256 SLOAD PUSH1 0xFF AND SWAP1 JUMP JUMPDEST PUSH2 0x1AE4 JUMPI PUSH1 0x40 MLOAD PUSH3 0x461BCD PUSH1 0xE5 SHL DUP2 MSTORE PUSH1 0x20 PUSH1 0x4 DUP3 ADD MSTORE PUSH1 0x22 PUSH1 0x24 DUP3 ADD MSTORE PUSH32 0x526F6C65206E6F742061737369676E656420746F20746865206163636F756E74 PUSH1 0x44 DUP3 ADD MSTORE PUSH32 0x2021000000000000000000000000000000000000000000000000000000000000 PUSH1 0x64 DUP3 ADD MSTORE PUSH1 0x84 ADD PUSH2 0x9F2 JUMP JUMPDEST PUSH2 0x1AEE DUP2 DUP5 PUSH2 0x32C9 JUMP JUMPDEST POP POP POP POP JUMP JUMPDEST PUSH32 0x2CB697566D4FAE71A9E65E4DAC853BF1E0E88A4957A11BB62814A78D165BB6BB PUSH2 0x1B1E DUP2 PUSH2 0x31FA JUMP JUMPDEST DUP3 PUSH1 0x1 PUSH1 0x1 PUSH1 0xA0 SHL SUB DUP2 AND ADDRESS EQ DUP1 PUSH2 0x1B50 JUMPI POP PUSH1 0x1 PUSH1 0x1 PUSH1 0xA0 SHL SUB DUP1 DUP3 AND PUSH1 0x0 DUP2 DUP2 MSTORE PUSH1 0xF PUSH1 0x20 MSTORE PUSH1 0x40 SWAP1 KECCAK256 SLOAD SWAP1 SWAP2 AND EQ JUMPDEST DUP1 PUSH2 0x1B68 JUMPI POP PUSH1 0x6 SLOAD PUSH1 0x1 PUSH1 0x1 PUSH1 0xA0 SHL SUB DUP3 DUP2 AND SWAP2 AND EQ JUMPDEST PUSH2 0x1BB4 JUMPI PUSH1 0x40 MLOAD PUSH3 0x461BCD PUSH1 0xE5 SHL DUP2 MSTORE PUSH1 0x20 PUSH1 0x4 DUP3 ADD MSTORE PUSH1 0x1F PUSH1 0x24 DUP3 ADD MSTORE PUSH32 0x5468697320746F6B656E20646F6573206E6F7420737570706F72746564202100 PUSH1 0x44 DUP3 ADD MSTORE PUSH1 0x64 ADD PUSH2 0x9F2 JUMP JUMPDEST PUSH1 0x1 PUSH1 0x1 PUSH1 0xA0 SHL SUB DUP4 AND PUSH2 0x1C30 JUMPI PUSH1 0x40 MLOAD PUSH3 0x461BCD PUSH1 0xE5 SHL DUP2 MSTORE PUSH1 0x20 PUSH1 0x4 DUP3 ADD MSTORE PUSH1 0x22 PUSH1 0x24 DUP3 ADD MSTORE PUSH32 0x5072696365206665656420616464726573732063616E6E6F74206265207A6572 PUSH1 0x44 DUP3 ADD MSTORE PUSH32 0x6F21000000000000000000000000000000000000000000000000000000000000 PUSH1 0x64 DUP3 ADD MSTORE PUSH1 0x84 ADD PUSH2 0x9F2 JUMP JUMPDEST POP POP PUSH1 0x1 PUSH1 0x1 PUSH1 0xA0 SHL SUB SWAP2 DUP3 AND PUSH1 0x0 SWAP1 DUP2 MSTORE PUSH1 0xF PUSH1 0x20 MSTORE PUSH1 0x40 SWAP1 KECCAK256 PUSH1 0x2 ADD DUP1 SLOAD PUSH20 0xFFFFFFFFFFFFFFFFFFFFFFFFFFFFFFFFFFFFFFFF NOT AND SWAP2 SWAP1 SWAP3 AND OR SWAP1 SSTORE JUMP JUMPDEST PUSH1 0x0 DUP3 PUSH1 0x1 PUSH1 0x1 PUSH1 0xA0 SHL SUB DUP2 AND ADDRESS EQ DUP1 PUSH2 0x1CA4 JUMPI POP PUSH1 0x1 PUSH1 0x1 PUSH1 0xA0 SHL SUB DUP1 DUP3 AND PUSH1 0x0 DUP2 DUP2 MSTORE PUSH1 0xF PUSH1 0x20 MSTORE PUSH1 0x40 SWAP1 KECCAK256 SLOAD SWAP1 SWAP2 AND EQ JUMPDEST DUP1 PUSH2 0x1CBC JUMPI POP PUSH1 0x6 SLOAD PUSH1 0x1 PUSH1 0x1 PUSH1 0xA0 SHL SUB DUP3 DUP2 AND SWAP2 AND EQ JUMPDEST PUSH2 0x1D08 JUMPI PUSH1 0x40 MLOAD PUSH3 0x461BCD PUSH1 0xE5 SHL DUP2 MSTORE PUSH1 0x20 PUSH1 0x4 DUP3 ADD MSTORE PUSH1 0x1F PUSH1 0x24 DUP3 ADD MSTORE PUSH32 0x5468697320746F6B656E20646F6573206E6F7420737570706F72746564202100 PUSH1 0x44 DUP3 ADD MSTORE PUSH1 0x64 ADD PUSH2 0x9F2 JUMP JUMPDEST PUSH1 0x1 PUSH1 0x1 PUSH1 0xA0 SHL SUB DUP1 DUP7 AND PUSH1 0x0 SWAP1 DUP2 MSTORE PUSH1 0xE PUSH1 0x20 SWAP1 DUP2 MSTORE PUSH1 0x40 DUP1 DUP4 KECCAK256 SWAP4 DUP9 AND DUP4 MSTORE SWAP3 DUP2 MSTORE SWAP1 DUP3 SWAP1 KECCAK256 DUP3 MLOAD PUSH1 0x60 DUP2 ADD DUP5 MSTORE DUP2 SLOAD DUP2 MSTORE PUSH1 0x1 DUP3 ADD SLOAD SWAP3 DUP2 ADD DUP4 SWAP1 MSTORE PUSH1 0x2 SWAP1 SWAP2 ADD SLOAD SWAP3 DUP2 ADD SWAP3 SWAP1 SWAP3 MSTORE DUP7 SWAP2 DUP7 SWAP2 ISZERO ISZERO DUP1 PUSH2 0x1D65 JUMPI POP DUP1 MLOAD ISZERO ISZERO JUMPDEST PUSH2 0x1DB1 JUMPI PUSH1 0x40 MLOAD PUSH3 0x461BCD PUSH1 0xE5 SHL DUP2 MSTORE PUSH1 0x20 PUSH1 0x4 DUP3 ADD MSTORE PUSH1 0x1A PUSH1 0x24 DUP3 ADD MSTORE PUSH32 0x54686973206C6F616E20646F6573206E6F742065786973742021000000000000 PUSH1 0x44 DUP3 ADD MSTORE PUSH1 0x64 ADD PUSH2 0x9F2 JUMP JUMPDEST PUSH1 0x0 PUSH2 0x1DBC DUP9 PUSH2 0x2EFA JUMP JUMPDEST PUSH1 0x1 PUSH1 0x1 PUSH1 0xA0 SHL SUB DUP1 DUP12 AND PUSH1 0x0 SWAP1 DUP2 MSTORE PUSH1 0xE PUSH1 0x20 SWAP1 DUP2 MSTORE PUSH1 0x40 DUP1 DUP4 KECCAK256 SWAP4 DUP14 AND DUP4 MSTORE SWAP3 SWAP1 MSTORE SWAP1 DUP2 KECCAK256 SLOAD SWAP2 SWAP3 POP SWAP1 PUSH2 0x1DF2 SWAP1 DUP4 PUSH2 0x3213 JUMP JUMPDEST PUSH1 0x1 PUSH1 0x1 PUSH1 0xA0 SHL SUB DUP1 DUP13 AND PUSH1 0x0 SWAP1 DUP2 MSTORE PUSH1 0xE PUSH1 0x20 SWAP1 DUP2 MSTORE PUSH1 0x40 DUP1 DUP4 KECCAK256 SWAP4 DUP15 AND DUP4 MSTORE SWAP3 SWAP1 MSTORE SWAP1 DUP2 KECCAK256 PUSH1 0x1 ADD SLOAD SWAP2 SWAP3 POP SWAP1 PUSH2 0x1E2C SWAP1 DUP4 SWAP1 PUSH2 0x3207 JUMP JUMPDEST SWAP1 POP PUSH1 0x0 PUSH2 0x1E3A DUP3 DUP12 PUSH2 0x3213 JUMP JUMPDEST SWAP1 POP PUSH1 0x0 PUSH2 0x1E48 DUP3 DUP7 PUSH2 0x3207 JUMP JUMPDEST SWAP14 SWAP13 POP POP POP POP POP POP POP POP POP POP POP POP POP JUMP JUMPDEST CALLER PUSH1 0x0 DUP2 DUP2 MSTORE PUSH1 0xE PUSH1 0x20 SWAP1 DUP2 MSTORE PUSH1 0x40 DUP1 DUP4 KECCAK256 PUSH1 0x1 PUSH1 0x1 PUSH1 0xA0 SHL SUB DUP8 AND DUP5 MSTORE DUP3 MSTORE SWAP2 DUP3 SWAP1 KECCAK256 DUP3 MLOAD PUSH1 0x60 DUP2 ADD DUP5 MSTORE DUP2 SLOAD DUP2 MSTORE PUSH1 0x1 DUP3 ADD SLOAD SWAP3 DUP2 ADD DUP4 SWAP1 MSTORE PUSH1 0x2 SWAP1 SWAP2 ADD SLOAD SWAP3 DUP2 ADD SWAP3 SWAP1 SWAP3 MSTORE DUP5 SWAP2 SWAP1 ISZERO ISZERO DUP1 PUSH2 0x1EB1 JUMPI POP DUP1 MLOAD ISZERO ISZERO JUMPDEST PUSH2 0x1EFD JUMPI PUSH1 0x40 MLOAD PUSH3 0x461BCD PUSH1 0xE5 SHL DUP2 MSTORE PUSH1 0x20 PUSH1 0x4 DUP3 ADD MSTORE PUSH1 0x1A PUSH1 0x24 DUP3 ADD MSTORE PUSH32 0x54686973206C6F616E20646F6573206E6F742065786973742021000000000000 PUSH1 0x44 DUP3 ADD MSTORE PUSH1 0x64 ADD PUSH2 0x9F2 JUMP JUMPDEST PUSH2 0x1F05 PUSH2 0x3348 JUMP JUMPDEST CALLER PUSH1 0x0 SWAP1 DUP2 MSTORE PUSH1 0xE PUSH1 0x20 SWAP1 DUP2 MSTORE PUSH1 0x40 DUP1 DUP4 KECCAK256 PUSH1 0x1 PUSH1 0x1 PUSH1 0xA0 SHL SUB DUP10 AND DUP5 MSTORE SWAP1 SWAP2 MSTORE SWAP1 KECCAK256 PUSH1 0x1 ADD SLOAD DUP5 GT ISZERO PUSH2 0x1FC7 JUMPI PUSH1 0x40 MLOAD PUSH3 0x461BCD PUSH1 0xE5 SHL DUP2 MSTORE PUSH1 0x20 PUSH1 0x4 DUP3 ADD MSTORE PUSH1 0x54 PUSH1 0x24 DUP3 ADD MSTORE PUSH32 0x52657061796D656E74204572726F72203A2054686520696E70757420616D6F75 PUSH1 0x44 DUP3 ADD MSTORE PUSH32 0x6E742069732067726561746572207468616E2074686520626F72726F77656420 PUSH1 0x64 DUP3 ADD MSTORE PUSH32 0x616D6F756E7420666F722074686973206C6F616E000000000000000000000000 PUSH1 0x84 DUP3 ADD MSTORE PUSH1 0xA4 ADD PUSH2 0x9F2 JUMP JUMPDEST PUSH1 0x6 SLOAD PUSH1 0x40 MLOAD PUSH4 0x70A08231 PUSH1 0xE0 SHL DUP2 MSTORE CALLER PUSH1 0x4 DUP3 ADD MSTORE PUSH1 0x1 PUSH1 0x1 PUSH1 0xA0 SHL SUB SWAP1 SWAP2 AND SWAP1 PUSH4 0x70A08231 SWAP1 PUSH1 0x24 ADD PUSH1 0x20 PUSH1 0x40 MLOAD DUP1 DUP4 SUB DUP2 DUP7 GAS STATICCALL ISZERO DUP1 ISZERO PUSH2 0x200F JUMPI RETURNDATASIZE PUSH1 0x0 DUP1 RETURNDATACOPY RETURNDATASIZE PUSH1 0x0 REVERT JUMPDEST POP POP POP POP PUSH1 0x40 MLOAD RETURNDATASIZE PUSH1 0x1F NOT PUSH1 0x1F DUP3 ADD AND DUP3 ADD DUP1 PUSH1 0x40 MSTORE POP DUP2 ADD SWAP1 PUSH2 0x2033 SWAP2 SWAP1 PUSH2 0x391D JUMP JUMPDEST DUP5 GT ISZERO PUSH2 0x20A8 JUMPI PUSH1 0x40 MLOAD PUSH3 0x461BCD PUSH1 0xE5 SHL DUP2 MSTORE PUSH1 0x20 PUSH1 0x4 DUP3 ADD MSTORE PUSH1 0x2D PUSH1 0x24 DUP3 ADD MSTORE PUSH32 0x52657061796D656E74204572726F72203A20496E73756666696369656E742075 PUSH1 0x44 DUP3 ADD MSTORE PUSH32 0x7365722062616C616E6365202100000000000000000000000000000000000000 PUSH1 0x64 DUP3 ADD MSTORE PUSH1 0x84 ADD PUSH2 0x9F2 JUMP JUMPDEST PUSH1 0x0 PUSH2 0x20B5 CALLER DUP8 DUP8 PUSH2 0x1C70 JUMP JUMPDEST SWAP1 POP ADDRESS PUSH1 0x1 PUSH1 0x1 PUSH1 0xA0 SHL SUB DUP8 AND SUB PUSH2 0x2177 JUMPI DUP1 PUSH2 0x20D1 ADDRESS PUSH2 0xECA JUMP JUMPDEST GT PUSH2 0x2144 JUMPI PUSH1 0x40 MLOAD PUSH3 0x461BCD PUSH1 0xE5 SHL DUP2 MSTORE PUSH1 0x20 PUSH1 0x4 DUP3 ADD MSTORE PUSH1 0x38 PUSH1 0x24 DUP3 ADD MSTORE PUSH32 0x52657061796D656E74204572726F72203A20496E73756666696369656E742042 PUSH1 0x44 DUP3 ADD MSTORE PUSH32 0x4E422062616C616E636520696E20636F6E747261637420210000000000000000 PUSH1 0x64 DUP3 ADD MSTORE PUSH1 0x84 ADD PUSH2 0x9F2 JUMP JUMPDEST PUSH1 0x40 MLOAD CALLER SWAP1 DUP3 ISZERO PUSH2 0x8FC MUL SWAP1 DUP4 SWAP1 PUSH1 0x0 DUP2 DUP2 DUP2 DUP6 DUP9 DUP9 CALL SWAP4 POP POP POP POP ISZERO DUP1 ISZERO PUSH2 0x2171 JUMPI RETURNDATASIZE PUSH1 0x0 DUP1 RETURNDATACOPY RETURNDATASIZE PUSH1 0x0 REVERT JUMPDEST POP PUSH2 0x22EF JUMP JUMPDEST DUP1 PUSH2 0x2181 DUP8 PUSH2 0xECA JUMP JUMPDEST GT PUSH2 0x21F4 JUMPI PUSH1 0x40 MLOAD PUSH3 0x461BCD PUSH1 0xE5 SHL DUP2 MSTORE PUSH1 0x20 PUSH1 0x4 DUP3 ADD MSTORE PUSH1 0x3A PUSH1 0x24 DUP3 ADD MSTORE PUSH32 0x52657061796D656E74204572726F72203A20496E73756666696369656E742054 PUSH1 0x44 DUP3 ADD MSTORE PUSH32 0x6F6B656E2062616C616E636520696E20636F6E74726163742021000000000000 PUSH1 0x64 DUP3 ADD MSTORE PUSH1 0x84 ADD PUSH2 0x9F2 JUMP JUMPDEST PUSH1 0x1 PUSH1 0x1 PUSH1 0xA0 SHL SUB DUP7 DUP2 AND PUSH1 0x0 SWAP1 DUP2 MSTORE PUSH1 0xF PUSH1 0x20 MSTORE PUSH1 0x40 SWAP1 DUP2 SWAP1 KECCAK256 PUSH1 0x1 ADD SLOAD SWAP1 MLOAD PUSH4 0xA9059CBB PUSH1 0xE0 SHL DUP2 MSTORE CALLER PUSH1 0x4 DUP3 ADD MSTORE PUSH1 0x24 DUP2 ADD DUP5 SWAP1 MSTORE SWAP2 AND SWAP1 PUSH4 0xA9059CBB SWAP1 PUSH1 0x44 ADD PUSH1 0x20 PUSH1 0x40 MLOAD DUP1 DUP4 SUB DUP2 PUSH1 0x0 DUP8 GAS CALL ISZERO DUP1 ISZERO PUSH2 0x2257 JUMPI RETURNDATASIZE PUSH1 0x0 DUP1 RETURNDATACOPY RETURNDATASIZE PUSH1 0x0 REVERT JUMPDEST POP POP POP POP PUSH1 0x40 MLOAD RETURNDATASIZE PUSH1 0x1F NOT PUSH1 0x1F DUP3 ADD AND DUP3 ADD DUP1 PUSH1 0x40 MSTORE POP DUP2 ADD SWAP1 PUSH2 0x227B SWAP2 SWAP1 PUSH2 0x38D2 JUMP JUMPDEST PUSH2 0x22EF JUMPI PUSH1 0x40 DUP1 MLOAD PUSH3 0x461BCD PUSH1 0xE5 SHL DUP2 MSTORE PUSH1 0x20 PUSH1 0x4 DUP3 ADD MSTORE PUSH1 0x24 DUP2 ADD SWAP2 SWAP1 SWAP2 MSTORE PUSH32 0x52657061796D656E74204572726F72203A205472616E7366657272696E672074 PUSH1 0x44 DUP3 ADD MSTORE PUSH32 0x686520636F6C6C61746572616C20746F6B656E20776173206661696C65642021 PUSH1 0x64 DUP3 ADD MSTORE PUSH1 0x84 ADD PUSH2 0x9F2 JUMP JUMPDEST PUSH1 0x6 SLOAD PUSH1 0x40 MLOAD PUSH4 0x23B872DD PUSH1 0xE0 SHL DUP2 MSTORE CALLER PUSH1 0x4 DUP3 ADD MSTORE ADDRESS PUSH1 0x24 DUP3 ADD MSTORE PUSH1 0x44 DUP2 ADD DUP8 SWAP1 MSTORE PUSH1 0x1 PUSH1 0x1 PUSH1 0xA0 SHL SUB SWAP1 SWAP2 AND SWAP1 PUSH4 0x23B872DD SWAP1 PUSH1 0x64 ADD PUSH1 0x20 PUSH1 0x40 MLOAD DUP1 DUP4 SUB DUP2 PUSH1 0x0 DUP8 GAS CALL ISZERO DUP1 ISZERO PUSH2 0x2346 JUMPI RETURNDATASIZE PUSH1 0x0 DUP1 RETURNDATACOPY RETURNDATASIZE PUSH1 0x0 REVERT JUMPDEST POP POP POP POP PUSH1 0x40 MLOAD RETURNDATASIZE PUSH1 0x1F NOT PUSH1 0x1F DUP3 ADD AND DUP3 ADD DUP1 PUSH1 0x40 MSTORE POP DUP2 ADD SWAP1 PUSH2 0x236A SWAP2 SWAP1 PUSH2 0x38D2 JUMP JUMPDEST PUSH2 0x23DC JUMPI PUSH1 0x40 MLOAD PUSH3 0x461BCD PUSH1 0xE5 SHL DUP2 MSTORE PUSH1 0x20 PUSH1 0x4 DUP3 ADD MSTORE PUSH1 0x3F PUSH1 0x24 DUP3 ADD MSTORE PUSH32 0x52657061796D656E74204572726F72203A205472616E7366657272696E672074 PUSH1 0x44 DUP3 ADD MSTORE PUSH32 0x686520626F72726F77696E6720746F6B656E20776173206661696C6564202100 PUSH1 0x64 DUP3 ADD MSTORE PUSH1 0x84 ADD PUSH2 0x9F2 JUMP JUMPDEST CALLER PUSH1 0x0 SWAP1 DUP2 MSTORE PUSH1 0xE PUSH1 0x20 SWAP1 DUP2 MSTORE PUSH1 0x40 DUP1 DUP4 KECCAK256 PUSH1 0x1 PUSH1 0x1 PUSH1 0xA0 SHL SUB DUP11 AND DUP5 MSTORE DUP3 MSTORE SWAP2 DUP3 SWAP1 KECCAK256 DUP3 MLOAD PUSH1 0x60 DUP2 ADD DUP5 MSTORE DUP2 SLOAD DUP2 MSTORE PUSH1 0x1 DUP3 ADD SLOAD SWAP3 DUP2 ADD DUP4 DUP2 MSTORE PUSH1 0x2 SWAP1 SWAP3 ADD SLOAD SWAP4 DUP2 ADD SWAP4 SWAP1 SWAP4 MSTORE DUP8 SWAP2 PUSH2 0x2431 SWAP1 DUP4 SWAP1 PUSH2 0x390A JUMP JUMPDEST SWAP1 MSTORE POP DUP1 MLOAD DUP3 SWAP1 DUP3 SWAP1 PUSH2 0x2445 SWAP1 DUP4 SWAP1 PUSH2 0x390A JUMP JUMPDEST SWAP1 MSTORE POP PUSH1 0xC SLOAD PUSH2 0x2459 SWAP1 TIMESTAMP SWAP1 PUSH1 0xFF AND PUSH2 0x33A1 JUMP JUMPDEST PUSH1 0x40 DUP1 DUP4 ADD SWAP2 DUP3 MSTORE CALLER PUSH1 0x0 SWAP1 DUP2 MSTORE PUSH1 0xE PUSH1 0x20 SWAP1 DUP2 MSTORE DUP3 DUP3 KECCAK256 PUSH1 0x1 PUSH1 0x1 PUSH1 0xA0 SHL SUB DUP13 AND DUP4 MSTORE DUP2 MSTORE SWAP2 SWAP1 KECCAK256 DUP4 MLOAD DUP2 SSTORE SWAP1 DUP4 ADD MLOAD PUSH1 0x1 DUP3 ADD DUP2 SWAP1 SSTORE SWAP2 MLOAD PUSH1 0x2 SWAP1 SWAP2 ADD SSTORE ISZERO DUP1 ISZERO PUSH2 0x24A5 JUMPI POP DUP1 MLOAD ISZERO JUMPDEST ISZERO PUSH2 0x24DC JUMPI CALLER PUSH1 0x0 SWAP1 DUP2 MSTORE PUSH1 0xE PUSH1 0x20 SWAP1 DUP2 MSTORE PUSH1 0x40 DUP1 DUP4 KECCAK256 PUSH1 0x1 PUSH1 0x1 PUSH1 0xA0 SHL SUB DUP12 AND DUP5 MSTORE SWAP1 SWAP2 MSTORE DUP2 KECCAK256 DUP2 DUP2 SSTORE PUSH1 0x1 DUP2 ADD DUP3 SWAP1 SSTORE PUSH1 0x2 ADD SSTORE JUMPDEST DUP6 PUSH1 0x5 PUSH1 0x0 DUP3 DUP3 SLOAD PUSH2 0x24EE SWAP2 SWAP1 PUSH2 0x390A JUMP JUMPDEST SWAP1 SWAP2 SSTORE POP PUSH2 0x2507 SWAP1 POP PUSH2 0x2500 DUP9 PUSH2 0x2EFA JUMP JUMPDEST DUP4 SWAP1 PUSH2 0x3213 JUMP JUMPDEST PUSH1 0x4 PUSH1 0x0 DUP3 DUP3 SLOAD PUSH2 0x2518 SWAP2 SWAP1 PUSH2 0x390A JUMP JUMPDEST SWAP1 SWAP2 SSTORE POP POP PUSH1 0x40 MLOAD DUP7 DUP2 MSTORE ADDRESS SWAP1 CALLER SWAP1 PUSH32 0xA3FBBEA70E93F2DAAFA3102F5C9A1B8315E6D7A1E43E4BC020BC1162327470A SWAP1 PUSH1 0x20 ADD PUSH1 0x40 MLOAD DUP1 SWAP2 SUB SWAP1 LOG3 POP POP PUSH2 0x255F PUSH1 0x1 DUP1 SSTORE JUMP JUMPDEST POP POP POP POP POP JUMP JUMPDEST DUP2 PUSH1 0x1 PUSH1 0x1 PUSH1 0xA0 SHL SUB DUP2 AND ADDRESS EQ DUP1 PUSH2 0x2598 JUMPI POP PUSH1 0x1 PUSH1 0x1 PUSH1 0xA0 SHL SUB DUP1 DUP3 AND PUSH1 0x0 DUP2 DUP2 MSTORE PUSH1 0xF PUSH1 0x20 MSTORE PUSH1 0x40 SWAP1 KECCAK256 SLOAD SWAP1 SWAP2 AND EQ JUMPDEST DUP1 PUSH2 0x25B0 JUMPI POP PUSH1 0x6 SLOAD PUSH1 0x1 PUSH1 0x1 PUSH1 0xA0 SHL SUB DUP3 DUP2 AND SWAP2 AND EQ JUMPDEST PUSH2 0x25FC JUMPI PUSH1 0x40 MLOAD PUSH3 0x461BCD PUSH1 0xE5 SHL DUP2 MSTORE PUSH1 0x20 PUSH1 0x4 DUP3 ADD MSTORE PUSH1 0x1F PUSH1 0x24 DUP3 ADD MSTORE PUSH32 0x5468697320746F6B656E20646F6573206E6F7420737570706F72746564202100 PUSH1 0x44 DUP3 ADD MSTORE PUSH1 0x64 ADD PUSH2 0x9F2 JUMP JUMPDEST PUSH2 0x2604 PUSH2 0x3348 JUMP JUMPDEST PUSH1 0x0 DUP3 GT PUSH2 0x267A JUMPI PUSH1 0x40 MLOAD PUSH3 0x461BCD PUSH1 0xE5 SHL DUP2 MSTORE PUSH1 0x20 PUSH1 0x4 DUP3 ADD MSTORE PUSH1 0x3D PUSH1 0x24 DUP3 ADD MSTORE PUSH32 0x4C656E64696E67204572726F72203A20436F6C6C61746572616C20616D6F756E PUSH1 0x44 DUP3 ADD MSTORE PUSH32 0x74206D7573742062652067726561746572207468616E207A65726F2021000000 PUSH1 0x64 DUP3 ADD MSTORE PUSH1 0x84 ADD PUSH2 0x9F2 JUMP JUMPDEST PUSH1 0x0 PUSH2 0x2686 DUP5 DUP5 PUSH2 0x307F JUMP JUMPDEST POP SWAP1 POP PUSH1 0x0 DUP2 GT PUSH2 0x26FF JUMPI PUSH1 0x40 MLOAD PUSH3 0x461BCD PUSH1 0xE5 SHL DUP2 MSTORE PUSH1 0x20 PUSH1 0x4 DUP3 ADD MSTORE PUSH1 0x3B PUSH1 0x24 DUP3 ADD MSTORE PUSH32 0x4C656E64696E67204572726F72203A204C6F616E2076616C756520697320746F PUSH1 0x44 DUP3 ADD MSTORE PUSH32 0x6F206C6F77206261736564206F6E20636F6C6C61746572616C20210000000000 PUSH1 0x64 DUP3 ADD MSTORE PUSH1 0x84 ADD PUSH2 0x9F2 JUMP JUMPDEST PUSH1 0x40 MLOAD PUSH4 0x23B872DD PUSH1 0xE0 SHL DUP2 MSTORE CALLER PUSH1 0x4 DUP3 ADD MSTORE ADDRESS PUSH1 0x24 DUP3 ADD MSTORE PUSH1 0x44 DUP2 ADD DUP5 SWAP1 MSTORE DUP5 SWAP1 PUSH1 0x1 PUSH1 0x1 PUSH1 0xA0 SHL SUB DUP3 AND SWAP1 PUSH4 0x23B872DD SWAP1 PUSH1 0x64 ADD PUSH1 0x20 PUSH1 0x40 MLOAD DUP1 DUP4 SUB DUP2 PUSH1 0x0 DUP8 GAS CALL ISZERO DUP1 ISZERO PUSH2 0x2754 JUMPI RETURNDATASIZE PUSH1 0x0 DUP1 RETURNDATACOPY RETURNDATASIZE PUSH1 0x0 REVERT JUMPDEST POP POP POP POP PUSH1 0x40 MLOAD RETURNDATASIZE PUSH1 0x1F NOT PUSH1 0x1F DUP3 ADD AND DUP3 ADD DUP1 PUSH1 0x40 MSTORE POP DUP2 ADD SWAP1 PUSH2 0x2778 SWAP2 SWAP1 PUSH2 0x38D2 JUMP JUMPDEST PUSH2 0x27EA JUMPI PUSH1 0x40 MLOAD PUSH3 0x461BCD PUSH1 0xE5 SHL DUP2 MSTORE PUSH1 0x20 PUSH1 0x4 DUP3 ADD MSTORE PUSH1 0x3E PUSH1 0x24 DUP3 ADD MSTORE PUSH32 0x4C656E64696E67204572726F72203A205472616E7366657272696E6720746865 PUSH1 0x44 DUP3 ADD MSTORE PUSH32 0x20636F6C6C61746572616C20746F6B656E20776173206661696C656420210000 PUSH1 0x64 DUP3 ADD MSTORE PUSH1 0x84 ADD PUSH2 0x9F2 JUMP JUMPDEST PUSH1 0x6 SLOAD PUSH1 0x40 MLOAD PUSH4 0xA9059CBB PUSH1 0xE0 SHL DUP2 MSTORE CALLER PUSH1 0x4 DUP3 ADD MSTORE PUSH1 0x24 DUP2 ADD DUP5 SWAP1 MSTORE PUSH1 0x1 PUSH1 0x1 PUSH1 0xA0 SHL SUB SWAP1 SWAP2 AND SWAP1 PUSH4 0xA9059CBB SWAP1 PUSH1 0x44 ADD PUSH1 0x20 PUSH1 0x40 MLOAD DUP1 DUP4 SUB DUP2 PUSH1 0x0 DUP8 GAS CALL ISZERO DUP1 ISZERO PUSH2 0x283B JUMPI RETURNDATASIZE PUSH1 0x0 DUP1 RETURNDATACOPY RETURNDATASIZE PUSH1 0x0 REVERT JUMPDEST POP POP POP POP PUSH1 0x40 MLOAD RETURNDATASIZE PUSH1 0x1F NOT PUSH1 0x1F DUP3 ADD AND DUP3 ADD DUP1 PUSH1 0x40 MSTORE POP DUP2 ADD SWAP1 PUSH2 0x285F SWAP2 SWAP1 PUSH2 0x38D2 JUMP JUMPDEST PUSH2 0x28D1 JUMPI PUSH1 0x40 MLOAD PUSH3 0x461BCD PUSH1 0xE5 SHL DUP2 MSTORE PUSH1 0x20 PUSH1 0x4 DUP3 ADD MSTORE PUSH1 0x3D PUSH1 0x24 DUP3 ADD MSTORE PUSH32 0x4C656E64696E67204572726F72203A205472616E7366657272696E6720746865 PUSH1 0x44 DUP3 ADD MSTORE PUSH32 0x20626F72726F77696E6720746F6B656E20776173206661696C65642021000000 PUSH1 0x64 DUP3 ADD MSTORE PUSH1 0x84 ADD PUSH2 0x9F2 JUMP JUMPDEST PUSH1 0x40 DUP1 MLOAD PUSH1 0x60 DUP2 ADD DUP3 MSTORE DUP6 DUP2 MSTORE PUSH1 0x20 DUP2 ADD DUP5 SWAP1 MSTORE PUSH1 0xC SLOAD SWAP1 SWAP2 DUP3 ADD SWAP1 PUSH2 0x28FD SWAP1 PUSH1 0xFF AND PUSH3 0x15180 PUSH2 0x3972 JUMP JUMPDEST PUSH2 0x290C SWAP1 PUSH3 0xFFFFFF AND TIMESTAMP PUSH2 0x3999 JUMP JUMPDEST SWAP1 MSTORE CALLER PUSH1 0x0 DUP2 DUP2 MSTORE PUSH1 0xE PUSH1 0x20 SWAP1 DUP2 MSTORE PUSH1 0x40 DUP1 DUP4 KECCAK256 PUSH1 0x1 PUSH1 0x1 PUSH1 0xA0 SHL SUB DUP12 AND DUP5 MSTORE DUP3 MSTORE SWAP2 DUP3 SWAP1 KECCAK256 DUP5 MLOAD DUP2 SSTORE DUP5 DUP3 ADD MLOAD PUSH1 0x1 DUP3 ADD SSTORE SWAP4 DUP3 ADD MLOAD PUSH1 0x2 SWAP1 SWAP5 ADD SWAP4 SWAP1 SWAP4 SSTORE MLOAD DUP5 DUP2 MSTORE SWAP1 SWAP2 ADDRESS SWAP2 PUSH32 0x3FC499AEB0BB1CB58B6DE8B02B3F86F4E7394E9690BEF0110E32CED8A5631045 SWAP2 ADD PUSH1 0x40 MLOAD DUP1 SWAP2 SUB SWAP1 LOG3 DUP4 PUSH1 0x4 PUSH1 0x0 DUP3 DUP3 SLOAD PUSH2 0x2991 SWAP2 SWAP1 PUSH2 0x3999 JUMP JUMPDEST SWAP3 POP POP DUP2 SWAP1 SSTORE POP DUP2 PUSH1 0x5 PUSH1 0x0 DUP3 DUP3 SLOAD PUSH2 0x29AA SWAP2 SWAP1 PUSH2 0x3999 JUMP JUMPDEST SWAP1 SWAP2 SSTORE POP POP PUSH1 0x1 DUP1 SSTORE POP PUSH2 0xC2A SWAP1 POP JUMP JUMPDEST PUSH1 0x0 PUSH2 0x29C6 PUSH1 0x5 SLOAD SWAP1 JUMP JUMPDEST PUSH1 0x0 SUB PUSH2 0x29DA JUMPI POP PUSH8 0x16345785D8A0000 SWAP1 JUMP JUMPDEST PUSH1 0x0 PUSH2 0x29F0 PUSH2 0x29E8 PUSH1 0x5 SLOAD SWAP1 JUMP JUMPDEST PUSH1 0x4 SLOAD PUSH2 0xBDE JUMP JUMPDEST PUSH1 0xA SLOAD SWAP1 SWAP2 POP DUP2 LT ISZERO PUSH2 0x2A05 JUMPI POP POP PUSH1 0xA SLOAD SWAP1 JUMP JUMPDEST PUSH1 0xB SLOAD DUP2 GT ISZERO PUSH2 0x2A17 JUMPI POP POP PUSH1 0xB SLOAD SWAP1 JUMP JUMPDEST SWAP2 SWAP1 POP JUMP JUMPDEST PUSH32 0x46F3ECCDD88DD62792AE8EED1BE7B9B658477566C49FD85B0D08CF44261C9208 PUSH2 0x2A46 DUP2 PUSH2 0x31FA JUMP JUMPDEST DUP3 MLOAD PUSH1 0x20 DUP5 ADD KECCAK256 PUSH2 0x2A7B DUP2 DUP5 PUSH1 0x0 SWAP2 DUP3 MSTORE PUSH1 0x20 DUP3 DUP2 MSTORE PUSH1 0x40 DUP1 DUP5 KECCAK256 PUSH1 0x1 PUSH1 0x1 PUSH1 0xA0 SHL SUB SWAP4 SWAP1 SWAP4 AND DUP5 MSTORE SWAP2 SWAP1 MSTORE SWAP1 KECCAK256 SLOAD PUSH1 0xFF AND SWAP1 JUMP JUMPDEST ISZERO PUSH2 0x2AEE JUMPI PUSH1 0x40 MLOAD PUSH3 0x461BCD PUSH1 0xE5 SHL DUP2 MSTORE PUSH1 0x20 PUSH1 0x4 DUP3 ADD MSTORE PUSH1 0x26 PUSH1 0x24 DUP3 ADD MSTORE PUSH32 0x526F6C6520616C72656164792061737369676E656420746F2074686520616363 PUSH1 0x44 DUP3 ADD MSTORE PUSH32 0x6F756E7420210000000000000000000000000000000000000000000000000000 PUSH1 0x64 DUP3 ADD MSTORE PUSH1 0x84 ADD PUSH2 0x9F2 JUMP JUMPDEST PUSH2 0x1AEE DUP2 DUP5 PUSH2 0x322B JUMP JUMPDEST PUSH1 0x0 DUP3 DUP2 MSTORE PUSH1 0x20 DUP2 SWAP1 MSTORE PUSH1 0x40 SWAP1 KECCAK256 PUSH1 0x1 ADD SLOAD PUSH2 0x2B13 DUP2 PUSH2 0x31FA JUMP JUMPDEST PUSH2 0xC2A DUP4 DUP4 PUSH2 0x32C9 JUMP JUMPDEST DUP1 PUSH1 0x1 PUSH1 0x1 PUSH1 0xA0 SHL SUB DUP2 AND ADDRESS EQ DUP1 PUSH2 0x2B4F JUMPI POP PUSH1 0x1 PUSH1 0x1 PUSH1 0xA0 SHL SUB DUP1 DUP3 AND PUSH1 0x0 DUP2 DUP2 MSTORE PUSH1 0xF PUSH1 0x20 MSTORE PUSH1 0x40 SWAP1 KECCAK256 SLOAD SWAP1 SWAP2 AND EQ JUMPDEST DUP1 PUSH2 0x2B67 JUMPI POP PUSH1 0x6 SLOAD PUSH1 0x1 PUSH1 0x1 PUSH1 0xA0 SHL SUB DUP3 DUP2 AND SWAP2 AND EQ JUMPDEST PUSH2 0x2BB3 JUMPI PUSH1 0x40 MLOAD PUSH3 0x461BCD PUSH1 0xE5 SHL DUP2 MSTORE PUSH1 0x20 PUSH1 0x4 DUP3 ADD MSTORE PUSH1 0x1F PUSH1 0x24 DUP3 ADD MSTORE PUSH32 0x5468697320746F6B656E20646F6573206E6F7420737570706F72746564202100 PUSH1 0x44 DUP3 ADD MSTORE PUSH1 0x64 ADD PUSH2 0x9F2 JUMP JUMPDEST CALLER PUSH1 0x0 DUP2 DUP2 MSTORE PUSH1 0xE PUSH1 0x20 SWAP1 DUP2 MSTORE PUSH1 0x40 DUP1 DUP4 KECCAK256 PUSH1 0x1 PUSH1 0x1 PUSH1 0xA0 SHL SUB DUP8 AND DUP5 MSTORE DUP3 MSTORE SWAP2 DUP3 SWAP1 KECCAK256 DUP3 MLOAD PUSH1 0x60 DUP2 ADD DUP5 MSTORE DUP2 SLOAD DUP2 MSTORE PUSH1 0x1 DUP3 ADD SLOAD SWAP3 DUP2 ADD DUP4 SWAP1 MSTORE PUSH1 0x2 SWAP1 SWAP2 ADD SLOAD SWAP3 DUP2 ADD SWAP3 SWAP1 SWAP3 MSTORE DUP5 SWAP2 SWAP1 ISZERO ISZERO DUP1 PUSH2 0x2C0B JUMPI POP DUP1 MLOAD ISZERO ISZERO JUMPDEST PUSH2 0x2C57 JUMPI PUSH1 0x40 MLOAD PUSH3 0x461BCD PUSH1 0xE5 SHL DUP2 MSTORE PUSH1 0x20 PUSH1 0x4 DUP3 ADD MSTORE PUSH1 0x1A PUSH1 0x24 DUP3 ADD MSTORE PUSH32 0x54686973206C6F616E20646F6573206E6F742065786973742021000000000000 PUSH1 0x44 DUP3 ADD MSTORE PUSH1 0x64 ADD PUSH2 0x9F2 JUMP JUMPDEST PUSH2 0x2C5F PUSH2 0x3348 JUMP JUMPDEST CALLER PUSH1 0x0 SWAP1 DUP2 MSTORE PUSH1 0xE PUSH1 0x20 SWAP1 DUP2 MSTORE PUSH1 0x40 DUP1 DUP4 KECCAK256 PUSH1 0x1 PUSH1 0x1 PUSH1 0xA0 SHL SUB DUP10 AND DUP5 MSTORE DUP3 MSTORE SWAP2 DUP3 SWAP1 KECCAK256 DUP3 MLOAD PUSH1 0x60 DUP2 ADD DUP5 MSTORE DUP2 SLOAD DUP2 MSTORE PUSH1 0x1 DUP3 ADD SLOAD SWAP3 DUP2 ADD DUP4 SWAP1 MSTORE PUSH1 0x2 SWAP1 SWAP2 ADD SLOAD SWAP3 DUP2 ADD SWAP3 SWAP1 SWAP3 MSTORE ISZERO DUP1 ISZERO PUSH2 0x2CC7 JUMPI POP DUP1 MLOAD ISZERO DUP1 ISZERO SWAP1 PUSH2 0x2CC7 JUMPI POP DUP1 MLOAD PUSH8 0xDE0B6B3A7640000 GT JUMPDEST PUSH2 0x2D39 JUMPI PUSH1 0x40 MLOAD PUSH3 0x461BCD PUSH1 0xE5 SHL DUP2 MSTORE PUSH1 0x20 PUSH1 0x4 DUP3 ADD MSTORE PUSH1 0x38 PUSH1 0x24 DUP3 ADD MSTORE PUSH32 0x5769746864726177616C204572726F72203A20596F752063616E6E6F74206578 PUSH1 0x44 DUP3 ADD MSTORE PUSH32 0x65637574652074686973207472616E73616374696F6E20210000000000000000 PUSH1 0x64 DUP3 ADD MSTORE PUSH1 0x84 ADD PUSH2 0x9F2 JUMP JUMPDEST ADDRESS PUSH1 0x1 PUSH1 0x1 PUSH1 0xA0 SHL SUB DUP8 AND SUB PUSH2 0x2D80 JUMPI DUP1 MLOAD PUSH1 0x40 MLOAD CALLER SWAP2 DUP1 ISZERO PUSH2 0x8FC MUL SWAP2 PUSH1 0x0 DUP2 DUP2 DUP2 DUP6 DUP9 DUP9 CALL SWAP4 POP POP POP POP ISZERO DUP1 ISZERO PUSH2 0x2D76 JUMPI RETURNDATASIZE PUSH1 0x0 DUP1 RETURNDATACOPY RETURNDATASIZE PUSH1 0x0 REVERT JUMPDEST POP PUSH1 0x0 DUP2 MSTORE PUSH2 0x2EA8 JUMP JUMPDEST PUSH1 0x1 PUSH1 0x1 PUSH1 0xA0 SHL SUB DUP7 DUP2 AND PUSH1 0x0 SWAP1 DUP2 MSTORE PUSH1 0xF PUSH1 0x20 MSTORE PUSH1 0x40 SWAP1 DUP2 SWAP1 KECCAK256 PUSH1 0x1 ADD SLOAD DUP4 MLOAD SWAP2 MLOAD PUSH4 0xA9059CBB PUSH1 0xE0 SHL DUP2 MSTORE CALLER PUSH1 0x4 DUP3 ADD MSTORE PUSH1 0x24 DUP2 ADD SWAP3 SWAP1 SWAP3 MSTORE SWAP1 SWAP2 AND SWAP1 PUSH4 0xA9059CBB SWAP1 PUSH1 0x44 ADD PUSH1 0x20 PUSH1 0x40 MLOAD DUP1 DUP4 SUB DUP2 PUSH1 0x0 DUP8 GAS CALL ISZERO DUP1 ISZERO PUSH2 0x2DE7 JUMPI RETURNDATASIZE PUSH1 0x0 DUP1 RETURNDATACOPY RETURNDATASIZE PUSH1 0x0 REVERT JUMPDEST POP POP POP POP PUSH1 0x40 MLOAD RETURNDATASIZE PUSH1 0x1F NOT PUSH1 0x1F DUP3 ADD AND DUP3 ADD DUP1 PUSH1 0x40 MSTORE POP DUP2 ADD SWAP1 PUSH2 0x2E0B SWAP2 SWAP1 PUSH2 0x38D2 JUMP JUMPDEST PUSH2 0x2EA3 JUMPI PUSH1 0x40 MLOAD PUSH3 0x461BCD PUSH1 0xE5 SHL DUP2 MSTORE PUSH1 0x20 PUSH1 0x4 DUP3 ADD MSTORE PUSH1 0x41 PUSH1 0x24 DUP3 ADD MSTORE PUSH32 0x5769746864726177616C204572726F72203A205472616E7366657272696E6720 PUSH1 0x44 DUP3 ADD MSTORE PUSH32 0x74686520636F6C6C61746572616C20546F6B656E20776173206661696C656420 PUSH1 0x64 DUP3 ADD MSTORE PUSH32 0x2100000000000000000000000000000000000000000000000000000000000000 PUSH1 0x84 DUP3 ADD MSTORE PUSH1 0xA4 ADD PUSH2 0x9F2 JUMP JUMPDEST PUSH1 0x0 DUP2 MSTORE JUMPDEST PUSH1 0x20 DUP2 ADD MLOAD ISZERO DUP1 ISZERO PUSH2 0x2EB9 JUMPI POP DUP1 MLOAD ISZERO JUMPDEST ISZERO PUSH2 0x2EF0 JUMPI CALLER PUSH1 0x0 SWAP1 DUP2 MSTORE PUSH1 0xE PUSH1 0x20 SWAP1 DUP2 MSTORE PUSH1 0x40 DUP1 DUP4 KECCAK256 PUSH1 0x1 PUSH1 0x1 PUSH1 0xA0 SHL SUB DUP11 AND DUP5 MSTORE SWAP1 SWAP2 MSTORE DUP2 KECCAK256 DUP2 DUP2 SSTORE PUSH1 0x1 DUP2 ADD DUP3 SWAP1 SSTORE PUSH1 0x2 ADD SSTORE JUMPDEST POP PUSH2 0x255F PUSH1 0x1 DUP1 SSTORE JUMP JUMPDEST PUSH1 0x6 SLOAD PUSH1 0x0 SWAP1 PUSH1 0x1 PUSH1 0x1 PUSH1 0xA0 SHL SUB SWAP1 DUP2 AND SWAP1 DUP4 AND SUB PUSH2 0x2F81 JUMPI PUSH1 0x40 MLOAD PUSH3 0x461BCD PUSH1 0xE5 SHL DUP2 MSTORE PUSH1 0x20 PUSH1 0x4 DUP3 ADD MSTORE PUSH1 0x29 PUSH1 0x24 DUP3 ADD MSTORE PUSH32 0x4665746368205072696365204572726F72203A2057726F6E6720746F6B656E20 PUSH1 0x44 DUP3 ADD MSTORE PUSH32 0x6164647265737320210000000000000000000000000000000000000000000000 PUSH1 0x64 DUP3 ADD MSTORE PUSH1 0x84 ADD PUSH2 0x9F2 JUMP JUMPDEST ADDRESS PUSH1 0x1 PUSH1 0x1 PUSH1 0xA0 SHL SUB DUP4 AND SUB PUSH2 0x3024 JUMPI PUSH1 0x7 SLOAD PUSH1 0x40 DUP1 MLOAD PUSH4 0x3FABE5A3 PUSH1 0xE2 SHL DUP2 MSTORE SWAP1 MLOAD PUSH1 0x0 SWAP3 PUSH1 0x1 PUSH1 0x1 PUSH1 0xA0 SHL SUB AND SWAP2 PUSH4 0xFEAF968C SWAP2 PUSH1 0x4 DUP1 DUP4 ADD SWAP3 PUSH1 0xA0 SWAP3 SWAP2 SWAP1 DUP3 SWAP1 SUB ADD DUP2 DUP7 GAS STATICCALL ISZERO DUP1 ISZERO PUSH2 0x2FDB JUMPI RETURNDATASIZE PUSH1 0x0 DUP1 RETURNDATACOPY RETURNDATASIZE PUSH1 0x0 REVERT JUMPDEST POP POP POP POP PUSH1 0x40 MLOAD RETURNDATASIZE PUSH1 0x1F NOT PUSH1 0x1F DUP3 ADD AND DUP3 ADD DUP1 PUSH1 0x40 MSTORE POP DUP2 ADD SWAP1 PUSH2 0x2FFF SWAP2 SWAP1 PUSH2 0x39C6 JUMP JUMPDEST POP POP POP SWAP2 POP POP PUSH2 0x301D PUSH5 0x2540BE400 DUP3 PUSH2 0x3213 SWAP1 SWAP2 SWAP1 PUSH4 0xFFFFFFFF AND JUMP JUMPDEST SWAP4 SWAP3 POP POP POP JUMP JUMPDEST PUSH1 0x1 PUSH1 0x1 PUSH1 0xA0 SHL SUB DUP1 DUP4 AND PUSH1 0x0 SWAP1 DUP2 MSTORE PUSH1 0xF PUSH1 0x20 MSTORE PUSH1 0x40 DUP1 DUP3 KECCAK256 PUSH1 0x2 ADD SLOAD DUP2 MLOAD PUSH4 0x3FABE5A3 PUSH1 0xE2 SHL DUP2 MSTORE SWAP2 MLOAD SWAP3 SWAP4 AND SWAP2 PUSH4 0xFEAF968C SWAP2 PUSH1 0x4 DUP1 DUP3 ADD SWAP3 PUSH1 0xA0 SWAP3 SWAP1 SWAP2 SWAP1 DUP3 SWAP1 SUB ADD DUP2 DUP7 GAS STATICCALL ISZERO DUP1 ISZERO PUSH2 0x2FDB JUMPI RETURNDATASIZE PUSH1 0x0 DUP1 RETURNDATACOPY RETURNDATASIZE PUSH1 0x0 REVERT JUMPDEST PUSH1 0x0 DUP1 DUP4 PUSH1 0x1 PUSH1 0x1 PUSH1 0xA0 SHL SUB DUP2 AND ADDRESS EQ DUP1 PUSH2 0x30B4 JUMPI POP PUSH1 0x1 PUSH1 0x1 PUSH1 0xA0 SHL SUB DUP1 DUP3 AND PUSH1 0x0 DUP2 DUP2 MSTORE PUSH1 0xF PUSH1 0x20 MSTORE PUSH1 0x40 SWAP1 KECCAK256 SLOAD SWAP1 SWAP2 AND EQ JUMPDEST DUP1 PUSH2 0x30CC JUMPI POP PUSH1 0x6 SLOAD PUSH1 0x1 PUSH1 0x1 PUSH1 0xA0 SHL SUB DUP3 DUP2 AND SWAP2 AND EQ JUMPDEST PUSH2 0x3118 JUMPI PUSH1 0x40 MLOAD PUSH3 0x461BCD PUSH1 0xE5 SHL DUP2 MSTORE PUSH1 0x20 PUSH1 0x4 DUP3 ADD MSTORE PUSH1 0x1F PUSH1 0x24 DUP3 ADD MSTORE PUSH32 0x5468697320746F6B656E20646F6573206E6F7420737570706F72746564202100 PUSH1 0x44 DUP3 ADD MSTORE PUSH1 0x64 ADD PUSH2 0x9F2 JUMP JUMPDEST PUSH1 0x0 PUSH2 0x312D DUP6 PUSH2 0x3127 DUP9 PUSH2 0x2EFA JUMP JUMPDEST SWAP1 PUSH2 0x3213 JUMP JUMPDEST PUSH1 0x9 SLOAD SWAP1 SWAP2 POP PUSH1 0x0 SWAP1 PUSH2 0x314B SWAP1 PUSH1 0x64 SWAP1 PUSH2 0xBDE SWAP1 DUP6 SWAP1 PUSH1 0xFF AND PUSH2 0x3213 JUMP JUMPDEST SWAP1 POP PUSH1 0x0 PUSH2 0x3161 PUSH2 0x315A PUSH2 0x29BB JUMP JUMPDEST DUP4 SWAP1 PUSH2 0x3207 JUMP JUMPDEST SWAP9 SWAP3 SWAP8 POP SWAP2 SWAP6 POP POP POP POP POP POP JUMP JUMPDEST PUSH1 0x6 SLOAD PUSH1 0x0 SWAP1 PUSH1 0x1 PUSH1 0x1 PUSH1 0xA0 SHL SUB DUP4 DUP2 AND SWAP2 AND EQ DUP1 PUSH2 0x3196 JUMPI POP PUSH1 0x1 PUSH1 0x1 PUSH1 0xA0 SHL SUB DUP3 AND ADDRESS EQ JUMPDEST ISZERO PUSH2 0x31A3 JUMPI POP PUSH1 0x1 SWAP2 SWAP1 POP JUMP JUMPDEST PUSH1 0x1 PUSH1 0x1 PUSH1 0xA0 SHL SUB DUP3 DUP2 AND PUSH1 0x0 SWAP1 DUP2 MSTORE PUSH1 0xF PUSH1 0x20 MSTORE PUSH1 0x40 SWAP1 KECCAK256 SLOAD AND ISZERO DUP1 PUSH2 0x31E5 JUMPI POP PUSH1 0x1 PUSH1 0x1 PUSH1 0xA0 SHL SUB DUP3 DUP2 AND PUSH1 0x0 SWAP1 DUP2 MSTORE PUSH1 0xF PUSH1 0x20 MSTORE PUSH1 0x40 SWAP1 KECCAK256 PUSH1 0x2 ADD SLOAD AND ISZERO JUMPDEST ISZERO PUSH2 0x31F2 JUMPI POP PUSH1 0x0 SWAP2 SWAP1 POP JUMP JUMPDEST POP PUSH1 0x1 SWAP2 SWAP1 POP JUMP JUMPDEST PUSH2 0x3204 DUP2 CALLER PUSH2 0x33AD JUMP JUMPDEST POP JUMP JUMPDEST PUSH1 0x0 PUSH2 0x301D DUP3 DUP5 PUSH2 0x3A16 JUMP JUMPDEST PUSH1 0x0 PUSH2 0x301D DUP3 DUP5 PUSH2 0x3A38 JUMP JUMPDEST PUSH1 0x0 PUSH2 0x301D DUP3 DUP5 PUSH2 0x390A JUMP JUMPDEST PUSH1 0x0 DUP3 DUP2 MSTORE PUSH1 0x20 DUP2 DUP2 MSTORE PUSH1 0x40 DUP1 DUP4 KECCAK256 PUSH1 0x1 PUSH1 0x1 PUSH1 0xA0 SHL SUB DUP6 AND DUP5 MSTORE SWAP1 SWAP2 MSTORE SWAP1 KECCAK256 SLOAD PUSH1 0xFF AND PUSH2 0xCB7 JUMPI PUSH1 0x0 DUP3 DUP2 MSTORE PUSH1 0x20 DUP2 DUP2 MSTORE PUSH1 0x40 DUP1 DUP4 KECCAK256 PUSH1 0x1 PUSH1 0x1 PUSH1 0xA0 SHL SUB DUP6 AND DUP5 MSTORE SWAP1 SWAP2 MSTORE SWAP1 KECCAK256 DUP1 SLOAD PUSH1 0xFF NOT AND PUSH1 0x1 OR SWAP1 SSTORE PUSH2 0x3285 CALLER SWAP1 JUMP JUMPDEST PUSH1 0x1 PUSH1 0x1 PUSH1 0xA0 SHL SUB AND DUP2 PUSH1 0x1 PUSH1 0x1 PUSH1 0xA0 SHL SUB AND DUP4 PUSH32 0x2F8788117E7EFF1D82E926EC794901D17C78024A50270940304540A733656F0D PUSH1 0x40 MLOAD PUSH1 0x40 MLOAD DUP1 SWAP2 SUB SWAP1 LOG4 POP POP JUMP JUMPDEST PUSH1 0x0 DUP3 DUP2 MSTORE PUSH1 0x20 DUP2 DUP2 MSTORE PUSH1 0x40 DUP1 DUP4 KECCAK256 PUSH1 0x1 PUSH1 0x1 PUSH1 0xA0 SHL SUB DUP6 AND DUP5 MSTORE SWAP1 SWAP2 MSTORE SWAP1 KECCAK256 SLOAD PUSH1 0xFF AND ISZERO PUSH2 0xCB7 JUMPI PUSH1 0x0 DUP3 DUP2 MSTORE PUSH1 0x20 DUP2 DUP2 MSTORE PUSH1 0x40 DUP1 DUP4 KECCAK256 PUSH1 0x1 PUSH1 0x1 PUSH1 0xA0 SHL SUB DUP6 AND DUP1 DUP6 MSTORE SWAP3 MSTORE DUP1 DUP4 KECCAK256 DUP1 SLOAD PUSH1 0xFF NOT AND SWAP1 SSTORE MLOAD CALLER SWAP3 DUP6 SWAP2 PUSH32 0xF6391F5C32D9C69D2A47EA670B442974B53935D1EDC7FD64EB21E047A839171B SWAP2 SWAP1 LOG4 POP POP JUMP JUMPDEST PUSH1 0x2 PUSH1 0x1 SLOAD SUB PUSH2 0x339A JUMPI PUSH1 0x40 MLOAD PUSH3 0x461BCD PUSH1 0xE5 SHL DUP2 MSTORE PUSH1 0x20 PUSH1 0x4 DUP3 ADD MSTORE PUSH1 0x1F PUSH1 0x24 DUP3 ADD MSTORE PUSH32 0x5265656E7472616E637947756172643A207265656E7472616E742063616C6C00 PUSH1 0x44 DUP3 ADD MSTORE PUSH1 0x64 ADD PUSH2 0x9F2 JUMP JUMPDEST PUSH1 0x2 PUSH1 0x1 SSTORE JUMP JUMPDEST PUSH1 0x0 PUSH2 0x301D DUP3 DUP5 PUSH2 0x3999 JUMP JUMPDEST PUSH1 0x0 DUP3 DUP2 MSTORE PUSH1 0x20 DUP2 DUP2 MSTORE PUSH1 0x40 DUP1 DUP4 KECCAK256 PUSH1 0x1 PUSH1 0x1 PUSH1 0xA0 SHL SUB DUP6 AND DUP5 MSTORE SWAP1 SWAP2 MSTORE SWAP1 KECCAK256 SLOAD PUSH1 0xFF AND PUSH2 0xCB7 JUMPI PUSH2 0x33DE DUP2 PUSH2 0x3420 JUMP JUMPDEST PUSH2 0x33E9 DUP4 PUSH1 0x20 PUSH2 0x3432 JUMP JUMPDEST PUSH1 0x40 MLOAD PUSH1 0x20 ADD PUSH2 0x33FA SWAP3 SWAP2 SWAP1 PUSH2 0x3A73 JUMP JUMPDEST PUSH1 0x40 DUP1 MLOAD PUSH1 0x1F NOT DUP2 DUP5 SUB ADD DUP2 MSTORE SWAP1 DUP3 SWAP1 MSTORE PUSH3 0x461BCD PUSH1 0xE5 SHL DUP3 MSTORE PUSH2 0x9F2 SWAP2 PUSH1 0x4 ADD PUSH2 0x3AF4 JUMP JUMPDEST PUSH1 0x60 PUSH2 0x8C7 PUSH1 0x1 PUSH1 0x1 PUSH1 0xA0 SHL SUB DUP4 AND PUSH1 0x14 JUMPDEST PUSH1 0x60 PUSH1 0x0 PUSH2 0x3441 DUP4 PUSH1 0x2 PUSH2 0x3A38 JUMP JUMPDEST PUSH2 0x344C SWAP1 PUSH1 0x2 PUSH2 0x3999 JUMP JUMPDEST PUSH8 0xFFFFFFFFFFFFFFFF DUP2 GT ISZERO PUSH2 0x3464 JUMPI PUSH2 0x3464 PUSH2 0x37C7 JUMP JUMPDEST PUSH1 0x40 MLOAD SWAP1 DUP1 DUP3 MSTORE DUP1 PUSH1 0x1F ADD PUSH1 0x1F NOT AND PUSH1 0x20 ADD DUP3 ADD PUSH1 0x40 MSTORE DUP1 ISZERO PUSH2 0x348E JUMPI PUSH1 0x20 DUP3 ADD DUP2 DUP1 CALLDATASIZE DUP4 CALLDATACOPY ADD SWAP1 POP JUMPDEST POP SWAP1 POP PUSH32 0x3000000000000000000000000000000000000000000000000000000000000000 DUP2 PUSH1 0x0 DUP2 MLOAD DUP2 LT PUSH2 0x34C5 JUMPI PUSH2 0x34C5 PUSH2 0x3B27 JUMP JUMPDEST PUSH1 0x20 ADD ADD SWAP1 PUSH1 0x1 PUSH1 0x1 PUSH1 0xF8 SHL SUB NOT AND SWAP1 DUP2 PUSH1 0x0 BYTE SWAP1 MSTORE8 POP PUSH32 0x7800000000000000000000000000000000000000000000000000000000000000 DUP2 PUSH1 0x1 DUP2 MLOAD DUP2 LT PUSH2 0x3510 JUMPI PUSH2 0x3510 PUSH2 0x3B27 JUMP JUMPDEST PUSH1 0x20 ADD ADD SWAP1 PUSH1 0x1 PUSH1 0x1 PUSH1 0xF8 SHL SUB NOT AND SWAP1 DUP2 PUSH1 0x0 BYTE SWAP1 MSTORE8 POP PUSH1 0x0 PUSH2 0x3534 DUP5 PUSH1 0x2 PUSH2 0x3A38 JUMP JUMPDEST PUSH2 0x353F SWAP1 PUSH1 0x1 PUSH2 0x3999 JUMP JUMPDEST SWAP1 POP JUMPDEST PUSH1 0x1 DUP2 GT ISZERO PUSH2 0x35C4 JUMPI PUSH32 0x3031323334353637383961626364656600000000000000000000000000000000 DUP6 PUSH1 0xF AND PUSH1 0x10 DUP2 LT PUSH2 0x3580 JUMPI PUSH2 0x3580 PUSH2 0x3B27 JUMP JUMPDEST BYTE PUSH1 0xF8 SHL DUP3 DUP3 DUP2 MLOAD DUP2 LT PUSH2 0x3596 JUMPI PUSH2 0x3596 PUSH2 0x3B27 JUMP JUMPDEST PUSH1 0x20 ADD ADD SWAP1 PUSH1 0x1 PUSH1 0x1 PUSH1 0xF8 SHL SUB NOT AND SWAP1 DUP2 PUSH1 0x0 BYTE SWAP1 MSTORE8 POP PUSH1 0x4 SWAP5 SWAP1 SWAP5 SHR SWAP4 PUSH2 0x35BD DUP2 PUSH2 0x3B3D JUMP JUMPDEST SWAP1 POP PUSH2 0x3542 JUMP JUMPDEST POP DUP4 ISZERO PUSH2 0x301D JUMPI PUSH1 0x40 MLOAD PUSH3 0x461BCD PUSH1 0xE5 SHL DUP2 MSTORE PUSH1 0x20 PUSH1 0x4 DUP3 ADD DUP2 SWAP1 MSTORE PUSH1 0x24 DUP3 ADD MSTORE PUSH32 0x537472696E67733A20686578206C656E67746820696E73756666696369656E74 PUSH1 0x44 DUP3 ADD MSTORE PUSH1 0x64 ADD PUSH2 0x9F2 JUMP JUMPDEST PUSH1 0x0 PUSH1 0x20 DUP3 DUP5 SUB SLT ISZERO PUSH2 0x3625 JUMPI PUSH1 0x0 DUP1 REVERT JUMPDEST DUP2 CALLDATALOAD PUSH32 0xFFFFFFFF00000000000000000000000000000000000000000000000000000000 DUP2 AND DUP2 EQ PUSH2 0x301D JUMPI PUSH1 0x0 DUP1 REVERT JUMPDEST DUP1 CALLDATALOAD PUSH1 0x1 PUSH1 0x1 PUSH1 0xA0 SHL SUB DUP2 AND DUP2 EQ PUSH2 0x2A17 JUMPI PUSH1 0x0 DUP1 REVERT JUMPDEST PUSH1 0x0 DUP1 PUSH1 0x40 DUP4 DUP6 SUB SLT ISZERO PUSH2 0x367F JUMPI PUSH1 0x0 DUP1 REVERT JUMPDEST PUSH2 0x3688 DUP4 PUSH2 0x3655 JUMP JUMPDEST SWAP2 POP PUSH2 0x3696 PUSH1 0x20 DUP5 ADD PUSH2 0x3655 JUMP JUMPDEST SWAP1 POP SWAP3 POP SWAP3 SWAP1 POP JUMP JUMPDEST DUP1 CALLDATALOAD PUSH1 0xFF DUP2 AND DUP2 EQ PUSH2 0x2A17 JUMPI PUSH1 0x0 DUP1 REVERT JUMPDEST PUSH1 0x0 PUSH1 0x20 DUP3 DUP5 SUB SLT ISZERO PUSH2 0x36C2 JUMPI PUSH1 0x0 DUP1 REVERT JUMPDEST PUSH2 0x301D DUP3 PUSH2 0x369F JUMP JUMPDEST PUSH1 0x0 PUSH1 0x20 DUP3 DUP5 SUB SLT ISZERO PUSH2 0x36DD JUMPI PUSH1 0x0 DUP1 REVERT JUMPDEST PUSH2 0x301D DUP3 PUSH2 0x3655 JUMP JUMPDEST PUSH1 0x0 DUP1 PUSH1 0x40 DUP4 DUP6 SUB SLT ISZERO PUSH2 0x36F9 JUMPI PUSH1 0x0 DUP1 REVERT JUMPDEST PUSH2 0x3702 DUP4 PUSH2 0x3655 JUMP JUMPDEST SWAP5 PUSH1 0x20 SWAP4 SWAP1 SWAP4 ADD CALLDATALOAD SWAP4 POP POP POP JUMP JUMPDEST PUSH1 0x0 PUSH1 0x20 DUP3 DUP5 SUB SLT ISZERO PUSH2 0x3722 JUMPI PUSH1 0x0 DUP1 REVERT JUMPDEST POP CALLDATALOAD SWAP2 SWAP1 POP JUMP JUMPDEST PUSH1 0x0 DUP1 PUSH1 0x40 DUP4 DUP6 SUB SLT ISZERO PUSH2 0x373C JUMPI PUSH1 0x0 DUP1 REVERT JUMPDEST DUP3 CALLDATALOAD SWAP2 POP PUSH2 0x3696 PUSH1 0x20 DUP5 ADD PUSH2 0x3655 JUMP JUMPDEST PUSH1 0x0 DUP1 PUSH1 0x0 DUP1 PUSH1 0x0 DUP1 PUSH1 0x0 DUP1 PUSH2 0x100 DUP10 DUP12 SUB SLT ISZERO PUSH2 0x3769 JUMPI PUSH1 0x0 DUP1 REVERT JUMPDEST PUSH2 0x3772 DUP10 PUSH2 0x3655 JUMP JUMPDEST SWAP8 POP PUSH2 0x3780 PUSH1 0x20 DUP11 ADD PUSH2 0x369F JUMP JUMPDEST SWAP7 POP PUSH1 0x40 DUP10 ADD CALLDATALOAD SWAP6 POP PUSH2 0x3795 PUSH1 0x60 DUP11 ADD PUSH2 0x369F JUMP JUMPDEST SWAP5 POP PUSH1 0x80 DUP10 ADD CALLDATALOAD SWAP4 POP PUSH1 0xA0 DUP10 ADD CALLDATALOAD SWAP3 POP PUSH2 0x37B1 PUSH1 0xC0 DUP11 ADD PUSH2 0x369F JUMP JUMPDEST SWAP2 POP PUSH1 0xE0 DUP10 ADD CALLDATALOAD SWAP1 POP SWAP3 SWAP6 SWAP9 POP SWAP3 SWAP6 SWAP9 SWAP1 SWAP4 SWAP7 POP JUMP JUMPDEST PUSH4 0x4E487B71 PUSH1 0xE0 SHL PUSH1 0x0 MSTORE PUSH1 0x41 PUSH1 0x4 MSTORE PUSH1 0x24 PUSH1 0x0 REVERT JUMPDEST PUSH1 0x0 DUP1 PUSH1 0x40 DUP4 DUP6 SUB SLT ISZERO PUSH2 0x37F0 JUMPI PUSH1 0x0 DUP1 REVERT JUMPDEST DUP3 CALLDATALOAD PUSH8 0xFFFFFFFFFFFFFFFF DUP1 DUP3 GT ISZERO PUSH2 0x3808 JUMPI PUSH1 0x0 DUP1 REVERT JUMPDEST DUP2 DUP6 ADD SWAP2 POP DUP6 PUSH1 0x1F DUP4 ADD SLT PUSH2 0x381C JUMPI PUSH1 0x0 DUP1 REVERT JUMPDEST DUP2 CALLDATALOAD DUP2 DUP2 GT ISZERO PUSH2 0x382E JUMPI PUSH2 0x382E PUSH2 0x37C7 JUMP JUMPDEST PUSH1 0x40 MLOAD PUSH1 0x1F DUP3 ADD PUSH1 0x1F NOT SWAP1 DUP2 AND PUSH1 0x3F ADD AND DUP2 ADD SWAP1 DUP4 DUP3 GT DUP2 DUP4 LT OR ISZERO PUSH2 0x3856 JUMPI PUSH2 0x3856 PUSH2 0x37C7 JUMP JUMPDEST DUP2 PUSH1 0x40 MSTORE DUP3 DUP2 MSTORE DUP9 PUSH1 0x20 DUP5 DUP8 ADD ADD GT ISZERO PUSH2 0x386F JUMPI PUSH1 0x0 DUP1 REVERT JUMPDEST DUP3 PUSH1 0x20 DUP7 ADD PUSH1 0x20 DUP4 ADD CALLDATACOPY PUSH1 0x0 PUSH1 0x20 DUP5 DUP4 ADD ADD MSTORE DUP1 SWAP7 POP POP POP POP POP POP PUSH2 0x3696 PUSH1 0x20 DUP5 ADD PUSH2 0x3655 JUMP JUMPDEST PUSH1 0x0 DUP1 PUSH1 0x0 PUSH1 0x60 DUP5 DUP7 SUB SLT ISZERO PUSH2 0x38AB JUMPI PUSH1 0x0 DUP1 REVERT JUMPDEST PUSH2 0x38B4 DUP5 PUSH2 0x3655 JUMP JUMPDEST SWAP3 POP PUSH2 0x38C2 PUSH1 0x20 DUP6 ADD PUSH2 0x3655 JUMP JUMPDEST SWAP2 POP PUSH1 0x40 DUP5 ADD CALLDATALOAD SWAP1 POP SWAP3 POP SWAP3 POP SWAP3 JUMP JUMPDEST PUSH1 0x0 PUSH1 0x20 DUP3 DUP5 SUB SLT ISZERO PUSH2 0x38E4 JUMPI PUSH1 0x0 DUP1 REVERT JUMPDEST DUP2 MLOAD DUP1 ISZERO ISZERO DUP2 EQ PUSH2 0x301D JUMPI PUSH1 0x0 DUP1 REVERT JUMPDEST PUSH4 0x4E487B71 PUSH1 0xE0 SHL PUSH1 0x0 MSTORE PUSH1 0x11 PUSH1 0x4 MSTORE PUSH1 0x24 PUSH1 0x0 REVERT JUMPDEST DUP2 DUP2 SUB DUP2 DUP2 GT ISZERO PUSH2 0x8C7 JUMPI PUSH2 0x8C7 PUSH2 0x38F4 JUMP JUMPDEST PUSH1 0x0 PUSH1 0x20 DUP3 DUP5 SUB SLT ISZERO PUSH2 0x392F JUMPI PUSH1 0x0 DUP1 REVERT JUMPDEST POP MLOAD SWAP2 SWAP1 POP JUMP JUMPDEST PUSH1 0x0 PUSH1 0xFF DUP3 AND PUSH1 0xFF DUP2 SUB PUSH2 0x394C JUMPI PUSH2 0x394C PUSH2 0x38F4 JUMP JUMPDEST PUSH1 0x1 ADD SWAP3 SWAP2 POP POP JUMP JUMPDEST PUSH1 0x0 PUSH1 0xFF DUP3 AND DUP1 PUSH2 0x3968 JUMPI PUSH2 0x3968 PUSH2 0x38F4 JUMP JUMPDEST PUSH1 0x0 NOT ADD SWAP3 SWAP2 POP POP JUMP JUMPDEST PUSH3 0xFFFFFF DUP2 DUP2 AND DUP4 DUP3 AND MUL DUP1 DUP3 AND SWAP2 SWAP1 DUP3 DUP2 EQ PUSH2 0x3991 JUMPI PUSH2 0x3991 PUSH2 0x38F4 JUMP JUMPDEST POP POP SWAP3 SWAP2 POP POP JUMP JUMPDEST DUP1 DUP3 ADD DUP1 DUP3 GT ISZERO PUSH2 0x8C7 JUMPI PUSH2 0x8C7 PUSH2 0x38F4 JUMP JUMPDEST DUP1 MLOAD PUSH10 0xFFFFFFFFFFFFFFFFFFFF DUP2 AND DUP2 EQ PUSH2 0x2A17 JUMPI PUSH1 0x0 DUP1 REVERT JUMPDEST PUSH1 0x0 DUP1 PUSH1 0x0 DUP1 PUSH1 0x0 PUSH1 0xA0 DUP7 DUP9 SUB SLT ISZERO PUSH2 0x39DE JUMPI PUSH1 0x0 DUP1 REVERT JUMPDEST PUSH2 0x39E7 DUP7 PUSH2 0x39AC JUMP JUMPDEST SWAP5 POP PUSH1 0x20 DUP7 ADD MLOAD SWAP4 POP PUSH1 0x40 DUP7 ADD MLOAD SWAP3 POP PUSH1 0x60 DUP7 ADD MLOAD SWAP2 POP PUSH2 0x3A0A PUSH1 0x80 DUP8 ADD PUSH2 0x39AC JUMP JUMPDEST SWAP1 POP SWAP3 SWAP6 POP SWAP3 SWAP6 SWAP1 SWAP4 POP JUMP JUMPDEST PUSH1 0x0 DUP3 PUSH2 0x3A33 JUMPI PUSH4 0x4E487B71 PUSH1 0xE0 SHL PUSH1 0x0 MSTORE PUSH1 0x12 PUSH1 0x4 MSTORE PUSH1 0x24 PUSH1 0x0 REVERT JUMPDEST POP DIV SWAP1 JUMP JUMPDEST DUP1 DUP3 MUL DUP2 ISZERO DUP3 DUP3 DIV DUP5 EQ OR PUSH2 0x8C7 JUMPI PUSH2 0x8C7 PUSH2 0x38F4 JUMP JUMPDEST PUSH1 0x0 JUMPDEST DUP4 DUP2 LT ISZERO PUSH2 0x3A6A JUMPI DUP2 DUP2 ADD MLOAD DUP4 DUP3 ADD MSTORE PUSH1 0x20 ADD PUSH2 0x3A52 JUMP JUMPDEST POP POP PUSH1 0x0 SWAP2 ADD MSTORE JUMP JUMPDEST PUSH32 0x416363657373436F6E74726F6C3A206163636F756E7420000000000000000000 DUP2 MSTORE PUSH1 0x0 DUP4 MLOAD PUSH2 0x3AAB DUP2 PUSH1 0x17 DUP6 ADD PUSH1 0x20 DUP9 ADD PUSH2 0x3A4F JUMP JUMPDEST PUSH32 0x206973206D697373696E6720726F6C6520000000000000000000000000000000 PUSH1 0x17 SWAP2 DUP5 ADD SWAP2 DUP3 ADD MSTORE DUP4 MLOAD PUSH2 0x3AE8 DUP2 PUSH1 0x28 DUP5 ADD PUSH1 0x20 DUP9 ADD PUSH2 0x3A4F JUMP JUMPDEST ADD PUSH1 0x28 ADD SWAP5 SWAP4 POP POP POP POP JUMP JUMPDEST PUSH1 0x20 DUP2 MSTORE PUSH1 0x0 DUP3 MLOAD DUP1 PUSH1 0x20 DUP5 ADD MSTORE PUSH2 0x3B13 DUP2 PUSH1 0x40 DUP6 ADD PUSH1 0x20 DUP8 ADD PUSH2 0x3A4F JUMP JUMPDEST PUSH1 0x1F ADD PUSH1 0x1F NOT AND SWAP2 SWAP1 SWAP2 ADD PUSH1 0x40 ADD SWAP3 SWAP2 POP POP JUMP JUMPDEST PUSH4 0x4E487B71 PUSH1 0xE0 SHL PUSH1 0x0 MSTORE PUSH1 0x32 PUSH1 0x4 MSTORE PUSH1 0x24 PUSH1 0x0 REVERT JUMPDEST PUSH1 0x0 DUP2 PUSH2 0x3B4C JUMPI PUSH2 0x3B4C PUSH2 0x38F4 JUMP JUMPDEST POP PUSH1 0x0 NOT ADD SWAP1 JUMP INVALID LOG2 PUSH5 0x6970667358 0x22 SLT KECCAK256 0xAD MULMOD GASPRICE SWAP2 0x1E 0xEA CODECOPY 0xC 0x2F RETURNDATACOPY SELFDESTRUCT PUSH29 0x5A592498452429101626EEAF514E348F99E0FC4264736F6C6343000818 STOP CALLER 0x2C 0xB6 SWAP8 JUMP PUSH14 0x4FAE71A9E65E4DAC853BF1E0E88A BLOBHASH JUMPI LOG1 SHL 0xB6 0x28 EQ 0xA7 DUP14 AND JUMPDEST 0xB6 0xBB "},"methodIdentifiers":{"DEFAULT_ADMIN_ROLE()":"a217fddf","addToken(address,address)":"5476bd72","borrowTokens(address,uint256)":"a52355ac","calculateEstimatedLoanAmount(address,uint256)":"f6b700c5","calculateUnlockableCollateral(address,address,uint256)":"76ba79a1","changeTokenPriceFeed(address,address)":"754e7fed","checkLoanExistence(address,address)":"03e89911","checkTokenExistence(address)":"fbd92924","estimateBigBangPrice()":"a7429fd9","fetchTokenLatestPrice(address)":"edc779e2","getAssetsTotalValue()":"9c2b062d","getBusinessLogicData()":"b6e1c62e","getContractBalance(address)":"43ab265f","getLoanData(address,address)":"45f31bba","getLoanPayableAmounts(address,uint256)":"18c694ee","getRoleAdmin(bytes32)":"248a9ca3","getTokenData(address)":"13ff7e9f","getTokensTotalCount()":"3ae0b734","getUsedBigBangsTotalAmount()":"a06e5214","getUsersTotalCount()":"6a0775c5","grantRole(bytes32,address)":"2f2ff15d","grantRole(string,address)":"c19ae2ed","hasRole(bytes32,address)":"91d14854","isLoanExpired(address,address)":"a3e6bbc4","owner()":"8da5cb5b","removeToken(address)":"5fa7b584","renounceRole(bytes32,address)":"36568abe","repayLoan(address,uint256)":"93a595f5","revokeRole(bytes32,address)":"d547741f","revokeRole(string,address)":"731f21a0","setBusinessLogicDatas(address,uint8,uint256,uint8,uint256,uint256,uint8,uint256)":"597fdaa1","setLendingLimitation(uint8)":"666b7686","setNativeToken(address)":"6da1e102","setRepaymentPeriod(uint8)":"0c63cc7d","supportsInterface(bytes4)":"01ffc9a7","withdrawOwnerShare(uint256)":"3af6bbcc","withdrawSmallAmounts(address)":"e4d4d2ff"}}}}}