{"contracts/BigBang_LendingService.sol":{"BigBang_LendingService":{"abi":[{"inputs":[{"internalType":"address","name":"_networkCoinPriceFeed","type":"address"},{"internalType":"uint8","name":"_ownerFeePercent","type":"uint8"},{"internalType":"uint256","name":"_voteFee","type":"uint256"},{"internalType":"uint8","name":"_lendingLimitationPercent","type":"uint8"},{"internalType":"uint256","name":"_lowestPrice","type":"uint256"},{"internalType":"uint256","name":"_highestPrice","type":"uint256"},{"internalType":"uint8","name":"_repaymentPeriod","type":"uint8"},{"internalType":"uint256","name":"_ownerShare","type":"uint256"}],"stateMutability":"nonpayable","type":"constructor"},{"anonymous":false,"inputs":[{"indexed":true,"internalType":"address","name":"from","type":"address"},{"indexed":true,"internalType":"address","name":"to","type":"address"},{"indexed":false,"internalType":"uint256","name":"tokens","type":"uint256"}],"name":"Borrowed","type":"event"},{"anonymous":false,"inputs":[{"indexed":true,"internalType":"address","name":"_from","type":"address"},{"indexed":true,"internalType":"address","name":"_to","type":"address"},{"indexed":false,"internalType":"uint256","name":"tokens","type":"uint256"}],"name":"Repaid","type":"event"},{"anonymous":false,"inputs":[{"indexed":true,"internalType":"bytes32","name":"role","type":"bytes32"},{"indexed":true,"internalType":"bytes32","name":"previousAdminRole","type":"bytes32"},{"indexed":true,"internalType":"bytes32","name":"newAdminRole","type":"bytes32"}],"name":"RoleAdminChanged","type":"event"},{"anonymous":false,"inputs":[{"indexed":true,"internalType":"bytes32","name":"role","type":"bytes32"},{"indexed":true,"internalType":"address","name":"account","type":"address"},{"indexed":true,"internalType":"address","name":"sender","type":"address"}],"name":"RoleGranted","type":"event"},{"anonymous":false,"inputs":[{"indexed":true,"internalType":"bytes32","name":"role","type":"bytes32"},{"indexed":true,"internalType":"address","name":"account","type":"address"},{"indexed":true,"internalType":"address","name":"sender","type":"address"}],"name":"RoleRevoked","type":"event"},{"stateMutability":"payable","type":"fallback"},{"inputs":[],"name":"DEFAULT_ADMIN_ROLE","outputs":[{"internalType":"bytes32","name":"","type":"bytes32"}],"stateMutability":"view","type":"function"},{"inputs":[{"internalType":"address","name":"_tokenAddr","type":"address"},{"internalType":"address","name":"_priceFeedContractAddr","type":"address"}],"name":"addToken","outputs":[{"internalType":"bool","name":"","type":"bool"}],"stateMutability":"nonpayable","type":"function"},{"inputs":[{"internalType":"address","name":"_tokenAddr","type":"address"},{"internalType":"uint256","name":"_collateralAmount","type":"uint256"}],"name":"borrow","outputs":[{"internalType":"bool","name":"","type":"bool"}],"stateMutability":"payable","type":"function"},{"inputs":[{"internalType":"address","name":"_tokenAddr","type":"address"},{"internalType":"uint256","name":"_collateralAmount","type":"uint256"}],"name":"calculateBorrowAmount","outputs":[{"internalType":"uint256","name":"","type":"uint256"},{"internalType":"uint256","name":"","type":"uint256"}],"stateMutability":"view","type":"function"},{"inputs":[{"internalType":"address","name":"_borrowerAddr","type":"address"},{"internalType":"address","name":"_tokenAddr","type":"address"},{"internalType":"uint256","name":"_borrowAmount","type":"uint256"}],"name":"calculateRepaymentAmount","outputs":[{"internalType":"uint256","name":"","type":"uint256"}],"stateMutability":"view","type":"function"},{"inputs":[{"internalType":"address","name":"_newOwnerAddr","type":"address"}],"name":"changeOwner","outputs":[{"internalType":"bool","name":"","type":"bool"}],"stateMutability":"nonpayable","type":"function"},{"inputs":[],"name":"estimateBigBangPrice","outputs":[{"internalType":"uint256","name":"","type":"uint256"}],"stateMutability":"view","type":"function"},{"inputs":[],"name":"getAssetsTotalValue","outputs":[{"internalType":"uint256","name":"","type":"uint256"}],"stateMutability":"view","type":"function"},{"inputs":[{"internalType":"address","name":"_tokenAddr","type":"address"},{"internalType":"uint256","name":"_collateralAmount","type":"uint256"}],"name":"getBorrowAmounts","outputs":[{"internalType":"uint256","name":"","type":"uint256"},{"internalType":"uint256","name":"","type":"uint256"},{"internalType":"uint256","name":"","type":"uint256"}],"stateMutability":"view","type":"function"},{"inputs":[{"internalType":"address","name":"_userAddr","type":"address"},{"internalType":"address","name":"_tokenAddr","type":"address"}],"name":"getBorrowerBorrowedAmount","outputs":[{"internalType":"uint256","name":"","type":"uint256"}],"stateMutability":"view","type":"function"},{"inputs":[{"internalType":"address","name":"_userAddr","type":"address"},{"internalType":"address","name":"_tokenAddr","type":"address"}],"name":"getBorrowerCollateralBalance","outputs":[{"internalType":"uint256","name":"","type":"uint256"}],"stateMutability":"view","type":"function"},{"inputs":[{"internalType":"address","name":"_tokenAddr","type":"address"}],"name":"getContractBalance","outputs":[{"internalType":"uint256","name":"","type":"uint256"}],"stateMutability":"view","type":"function"},{"inputs":[],"name":"getHighestPrice","outputs":[{"internalType":"uint256","name":"","type":"uint256"}],"stateMutability":"view","type":"function"},{"inputs":[],"name":"getLendingLimitation","outputs":[{"internalType":"uint8","name":"","type":"uint8"}],"stateMutability":"view","type":"function"},{"inputs":[{"internalType":"address","name":"_borrowerAddr","type":"address"},{"internalType":"address","name":"_tokenAddr","type":"address"}],"name":"getLoanExpirationDate","outputs":[{"internalType":"uint256","name":"","type":"uint256"}],"stateMutability":"view","type":"function"},{"inputs":[],"name":"getLowestPrice","outputs":[{"internalType":"uint256","name":"","type":"uint256"}],"stateMutability":"view","type":"function"},{"inputs":[],"name":"getNetworkCoinPriceFeed","outputs":[{"internalType":"address","name":"","type":"address"}],"stateMutability":"view","type":"function"},{"inputs":[],"name":"getOwnerFeePercent","outputs":[{"internalType":"uint8","name":"","type":"uint8"}],"stateMutability":"view","type":"function"},{"inputs":[],"name":"getOwnerShare","outputs":[{"internalType":"uint256","name":"","type":"uint256"}],"stateMutability":"view","type":"function"},{"inputs":[],"name":"getRepaymentPeriod","outputs":[{"internalType":"uint8","name":"","type":"uint8"}],"stateMutability":"view","type":"function"},{"inputs":[{"internalType":"bytes32","name":"role","type":"bytes32"}],"name":"getRoleAdmin","outputs":[{"internalType":"bytes32","name":"","type":"bytes32"}],"stateMutability":"view","type":"function"},{"inputs":[{"internalType":"address","name":"_tokenAddr","type":"address"}],"name":"getTokenLatestPrice","outputs":[{"internalType":"uint256","name":"","type":"uint256"}],"stateMutability":"view","type":"function"},{"inputs":[],"name":"getTotalUsedBigBangs","outputs":[{"internalType":"uint256","name":"","type":"uint256"}],"stateMutability":"view","type":"function"},{"inputs":[{"internalType":"address","name":"_tokenAddr","type":"address"},{"internalType":"address","name":"_userAddr","type":"address"}],"name":"getUserBalance","outputs":[{"internalType":"uint256","name":"","type":"uint256"}],"stateMutability":"view","type":"function"},{"inputs":[],"name":"getUsersTotalCount","outputs":[{"internalType":"uint256","name":"","type":"uint256"}],"stateMutability":"view","type":"function"},{"inputs":[],"name":"getVoteFee","outputs":[{"internalType":"uint256","name":"","type":"uint256"}],"stateMutability":"view","type":"function"},{"inputs":[{"internalType":"bytes32","name":"role","type":"bytes32"},{"internalType":"address","name":"account","type":"address"}],"name":"grantRole","outputs":[],"stateMutability":"nonpayable","type":"function"},{"inputs":[{"internalType":"bytes32","name":"role","type":"bytes32"},{"internalType":"address","name":"account","type":"address"}],"name":"hasRole","outputs":[{"internalType":"bool","name":"","type":"bool"}],"stateMutability":"view","type":"function"},{"inputs":[],"name":"owner","outputs":[{"internalType":"address","name":"","type":"address"}],"stateMutability":"view","type":"function"},{"inputs":[{"internalType":"address","name":"_tokenAddr","type":"address"}],"name":"removeToken","outputs":[{"internalType":"bool","name":"","type":"bool"}],"stateMutability":"nonpayable","type":"function"},{"inputs":[{"internalType":"bytes32","name":"role","type":"bytes32"},{"internalType":"address","name":"account","type":"address"}],"name":"renounceRole","outputs":[],"stateMutability":"nonpayable","type":"function"},{"inputs":[{"internalType":"address","name":"_borrowerAddr","type":"address"},{"internalType":"address","name":"_tokenAddr","type":"address"},{"internalType":"uint256","name":"_borrowAmount","type":"uint256"}],"name":"repay","outputs":[{"internalType":"bool","name":"","type":"bool"}],"stateMutability":"nonpayable","type":"function"},{"inputs":[{"internalType":"bytes32","name":"role","type":"bytes32"},{"internalType":"address","name":"account","type":"address"}],"name":"revokeRole","outputs":[],"stateMutability":"nonpayable","type":"function"},{"inputs":[{"internalType":"address","name":"_networkCoinPriceFeed","type":"address"},{"internalType":"uint8","name":"_ownerFeePercent","type":"uint8"},{"internalType":"uint256","name":"_voteFee","type":"uint256"},{"internalType":"uint8","name":"_lendingLimitationPercent","type":"uint8"},{"internalType":"uint256","name":"_lowestPrice","type":"uint256"},{"internalType":"uint256","name":"_highestPrice","type":"uint256"},{"internalType":"uint8","name":"_repaymentPeriod","type":"uint8"},{"internalType":"uint256","name":"_ownerShare","type":"uint256"}],"name":"setBusinessLogicDatas","outputs":[{"internalType":"bool","name":"","type":"bool"}],"stateMutability":"nonpayable","type":"function"},{"inputs":[{"internalType":"uint8","name":"_newLendingLimitationPercent","type":"uint8"}],"name":"setLendingLimitation","outputs":[{"internalType":"bool","name":"","type":"bool"}],"stateMutability":"nonpayable","type":"function"},{"inputs":[{"internalType":"address","name":"_nativeTokenAddr","type":"address"}],"name":"setNativeTokenProvider","outputs":[],"stateMutability":"nonpayable","type":"function"},{"inputs":[{"internalType":"uint8","name":"_newRepaymentPeriod","type":"uint8"}],"name":"setRepaymentPeriod","outputs":[{"internalType":"bool","name":"","type":"bool"}],"stateMutability":"nonpayable","type":"function"},{"inputs":[{"internalType":"bytes4","name":"interfaceId","type":"bytes4"}],"name":"supportsInterface","outputs":[{"internalType":"bool","name":"","type":"bool"}],"stateMutability":"view","type":"function"},{"inputs":[{"internalType":"uint256","name":"_shareAmount","type":"uint256"}],"name":"withdrawOwnerShare","outputs":[{"internalType":"bool","name":"","type":"bool"}],"stateMutability":"nonpayable","type":"function"},{"inputs":[{"internalType":"address","name":"_tokenAddr","type":"address"}],"name":"withdrawSmallAmounts","outputs":[{"internalType":"bool","name":"","type":"bool"}],"stateMutability":"nonpayable","type":"function"},{"stateMutability":"payable","type":"receive"}],"evm":{"bytecode":{"linkReferences":{},"object":"60806040523480156200001157600080fd5b50604051620038bd380380620038bd8339810160408190526200003491620004bc565b600180546001600160a01b031916339081179091556200005790600090620000d9565b60015462000090907f46f3eccdd88dd62792ae8eed1be7b9b658477566c49fd85b0d08cf44261c9208906001600160a01b0316620000d9565b600154620000b8906000805160206200389d833981519152906001600160a01b0316620000d9565b620000ca888888888888888862000162565b505050505050505050620006ad565b620000e582826200022b565b6200015e576000828152602081815260408083206001600160a01b03851684529091529020805460ff191660011790556200011d3390565b6001600160a01b0316816001600160a01b0316837f2f8788117e7eff1d82e926ec794901d17c78024a50270940304540a733656f0d60405160405180910390a45b5050565b60006000805160206200389d8339815191526200017f8162000256565b505060408051610100810182526001600160a01b0399909916808a5260ff98891660208b01819052918a0188905295881660608a0181905260808a0186905260a08a018590529290971660c0890181905260e0909801819052600680546001600160a81b031916909517600160a01b909702969096179093556007939093556008805460ff199081169093179055600955600a91909155600b8054909116909217909155600c55600190565b6000828152602081815260408083206001600160a01b038516845290915290205460ff165b92915050565b62000262813362000265565b50565b6200027182826200022b565b6200015e576200028181620002d2565b6200028e836020620002e5565b604051602001620002a192919062000573565b60408051601f198184030181529082905262461bcd60e51b8252620002c991600401620005ec565b60405180910390fd5b6060620002506001600160a01b03831660145b60606000620002f683600262000637565b6200030390600262000651565b6001600160401b038111156200031d576200031d62000667565b6040519080825280601f01601f19166020018201604052801562000348576020820181803683370190505b509050600360fc1b816000815181106200036657620003666200067d565b60200101906001600160f81b031916908160001a905350600f60fb1b816001815181106200039857620003986200067d565b60200101906001600160f81b031916908160001a9053506000620003be84600262000637565b620003cb90600162000651565b90505b60018111156200044d576f181899199a1a9b1b9c1cb0b131b232b360811b85600f16601081106200040357620004036200067d565b1a60f81b8282815181106200041c576200041c6200067d565b60200101906001600160f81b031916908160001a90535060049490941c93620004458162000693565b9050620003ce565b5083156200049e5760405162461bcd60e51b815260206004820181905260248201527f537472696e67733a20686578206c656e67746820696e73756666696369656e746044820152606401620002c9565b9392505050565b805160ff81168114620004b757600080fd5b919050565b600080600080600080600080610100898b031215620004da57600080fd5b88516001600160a01b0381168114620004f257600080fd5b97506200050260208a01620004a5565b9650604089015195506200051960608a01620004a5565b94506080890151935060a089015192506200053760c08a01620004a5565b915060e089015190509295985092959890939650565b60005b838110156200056a57818101518382015260200162000550565b50506000910152565b7f416363657373436f6e74726f6c3a206163636f756e7420000000000000000000815260008351620005ad8160178501602088016200054d565b7001034b99036b4b9b9b4b733903937b6329607d1b6017918401918201528351620005e08160288401602088016200054d565b01602801949350505050565b60208152600082518060208401526200060d8160408501602087016200054d565b601f01601f19169190910160400192915050565b634e487b7160e01b600052601160045260246000fd5b808202811582820484141762000250576200025062000621565b8082018082111562000250576200025062000621565b634e487b7160e01b600052604160045260246000fd5b634e487b7160e01b600052603260045260246000fd5b600081620006a557620006a562000621565b506000190190565b6131e080620006bd6000396000f3fe60806040526004361061028f5760003560e01c80637c680b8511610156578063ab9af560116100bf578063ce6f2a7a11610079578063e365827311610061578063e36582731461074f578063e4d4d2ff1461078a578063fa41ac6c146107aa57005b8063ce6f2a7a1461071a578063d547741f1461072f57005b8063c0ed4a43116100a7578063c0ed4a43146106c7578063c768ca1e146106e7578063c9c1c4f41461070557005b8063ab9af56014610692578063bc6f1f1b146106b257005b80639c2b062d11610110578063a217fddf116100f8578063a217fddf14610648578063a6f9dae11461065d578063a7429fd91461067d57005b80639c2b062d146106135780639fd9d6711461062857005b80638da5cb5b1161013e5780638da5cb5b1461058257806391d14854146105ba578063977af228146105fe57005b80637c680b851461052d5780637f35fe631461056257005b806343ab265f116101f8578063601d0f3b116101b2578063666b76861161019a578063666b7686146104d85780636805d6ad146104f85780636a0775c51461051857005b8063601d0f3b146104a057806364c4bec0146104c057005b80635476bd72116101e05780635476bd7214610440578063597fdaa1146104605780635fa7b5841461048057005b806343ab265f1461040d5780634b8a35291461042d57005b806320b4f2d9116102495780632f2ff15d116102315780632f2ff15d146103ad57806336568abe146103cd5780633af6bbcc146103ed57005b806320b4f2d914610350578063248a9ca31461037d57005b80630413c198116102775780630413c198146102f05780630c63cc7d146103105780631da649cf1461033057005b8063019ddb8d1461029857806301ffc9a7146102c057005b3661029657005b005b3480156102a457600080fd5b506102ad6107c2565b6040519081526020015b60405180910390f35b3480156102cc57600080fd5b506102e06102db366004612d02565b61082e565b60405190151581526020016102b7565b3480156102fc57600080fd5b506102ad61030b366004612d5b565b6108c7565b34801561031c57600080fd5b506102e061032b366004612d87565b610a26565b34801561033c57600080fd5b506102e061034b366004612da2565b610a6c565b34801561035c57600080fd5b50600654600160a01b900460ff165b60405160ff90911681526020016102b7565b34801561038957600080fd5b506102ad610398366004612dde565b60009081526020819052604090206001015490565b3480156103b957600080fd5b506102966103c8366004612df7565b610fce565b3480156103d957600080fd5b506102966103e8366004612df7565b610ff8565b3480156103f957600080fd5b506102e0610408366004612dde565b611084565b34801561041957600080fd5b506102ad610428366004612d5b565b6111da565b6102e061043b366004612e23565b611345565b34801561044c57600080fd5b506102e061045b366004612e4d565b611991565b34801561046c57600080fd5b506102e061047b366004612e77565b611b12565b34801561048c57600080fd5b506102e061049b366004612d5b565b611c02565b3480156104ac57600080fd5b506102966104bb366004612d5b565b611d3a565b3480156104cc57600080fd5b50600b5460ff1661036b565b3480156104e457600080fd5b506102e06104f3366004612d87565b611df8565b34801561050457600080fd5b506102ad610513366004612e4d565b611e3f565b34801561052457600080fd5b506002546102ad565b34801561053957600080fd5b5061054d610548366004612e23565b611fb7565b604080519283526020830191909152016102b7565b34801561056e57600080fd5b506102ad61057d366004612da2565b612016565b34801561058e57600080fd5b506001546105a2906001600160a01b031681565b6040516001600160a01b0390911681526020016102b7565b3480156105c657600080fd5b506102e06105d5366004612df7565b6000918252602082815260408084206001600160a01b0393909316845291905290205460ff1690565b34801561060a57600080fd5b506009546102ad565b34801561061f57600080fd5b506003546102ad565b34801561063457600080fd5b506102ad610643366004612e4d565b6121ed565b34801561065457600080fd5b506102ad600081565b34801561066957600080fd5b506102e0610678366004612d5b565b6122a3565b34801561068957600080fd5b506102ad612334565b34801561069e57600080fd5b506102ad6106ad366004612e4d565b612395565b3480156106be57600080fd5b50600a546102ad565b3480156106d357600080fd5b506102ad6106e2366004612e4d565b61244b565b3480156106f357600080fd5b506006546001600160a01b03166105a2565b34801561071157600080fd5b506007546102ad565b34801561072657600080fd5b506004546102ad565b34801561073b57600080fd5b5061029661074a366004612df7565b6124fe565b34801561075b57600080fd5b5061076f61076a366004612e23565b612523565b604080519384526020840192909252908201526060016102b7565b34801561079657600080fd5b506102e06107a5366004612d5b565b612611565b3480156107b657600080fd5b5060085460ff1661036b565b60015460009033906001600160a01b031681146108265760405162461bcd60e51b815260206004820152601f60248201527f596f7520617265206e6f74206f776e6572206f6620636f6e747261637420210060448201526064015b60405180910390fd5b5050600c5490565b60007fffffffff0000000000000000000000000000000000000000000000000000000082167f7965db0b0000000000000000000000000000000000000000000000000000000014806108c157507f01ffc9a7000000000000000000000000000000000000000000000000000000007fffffffff000000000000000000000000000000000000000000000000000000008316145b92915050565b6005546000906001600160a01b03908116908316036109285760405162461bcd60e51b815260206004820152601560248201527f57726f6e6720746f6b656e206164647265737320210000000000000000000000604482015260640161081d565b306001600160a01b038316036109cb5760065460408051633fabe5a360e21b815290516000926001600160a01b03169163feaf968c9160048083019260a09291908290030181865afa158015610982573d6000803e3d6000fd5b505050506040513d601f19601f820116820180604052508101906109a69190612f0c565b5050509150506109c46402540be4008261294290919063ffffffff16565b9392505050565b6001600160a01b038083166000908152600e6020526040808220600201548151633fabe5a360e21b815291519293169163feaf968c9160048082019260a0929091908290030181865afa158015610982573d6000803e3d6000fd5b60007f69cd0c85288bcffbe883a45101c678f53f42e27bebea35a677cc62da9fa7f391610a528161294e565b600b805460ff191660ff8516179055600191505b50919050565b6000826001600160a01b038116301480610aa057506001600160a01b038082166000818152600e6020526040902054909116145b80610ab857506005546001600160a01b038281169116145b610af25760405162461bcd60e51b815260206004820152601f602482015260008051602061318b833981519152604482015260640161081d565b6001600160a01b038086166000908152600d6020908152604080832093881683529290522060010154831115610bb65760405162461bcd60e51b815260206004820152604260248201527f54686520696e70757420616d6f756e742069732067726561746572207468616e60448201527f2074686520626f72726f77656420616d6f756e7420666f722074686973206c6f60648201527f616e000000000000000000000000000000000000000000000000000000000000608482015260a40161081d565b6005546040516370a0823160e01b81523360048201526001600160a01b03909116906370a0823190602401602060405180830381865afa158015610bfe573d6000803e3d6000fd5b505050506040513d601f19601f82011682018060405250810190610c229190612f5c565b831115610c715760405162461bcd60e51b815260206004820152601660248201527f496e73756666696369656e742042616c616e6365202100000000000000000000604482015260640161081d565b6000610c7e868686612016565b9050306001600160a01b03861603610d405780610c9a306111da565b11610d0d5760405162461bcd60e51b815260206004820152602660248201527f496e73756666696369656e7420424e422062616c616e636520696e20636f6e7460448201527f7261637420210000000000000000000000000000000000000000000000000000606482015260840161081d565b604051339082156108fc029083906000818181858888f19350505050158015610d3a573d6000803e3d6000fd5b50610dc9565b6001600160a01b038581166000908152600e60205260409081902060010154905163a9059cbb60e01b81523360048201526024810184905291169063a9059cbb906044016020604051808303816000875af1158015610da3573d6000803e3d6000fd5b505050506040513d601f19601f82011682018060405250810190610dc79190612f75565b505b6005546040516323b872dd60e01b8152336004820152306024820152604481018690526001600160a01b03909116906323b872dd906064016020604051808303816000875af1158015610e20573d6000803e3d6000fd5b505050506040513d601f19601f82011682018060405250810190610e449190612f75565b50336000908152600d602090815260408083206001600160a01b03891684528252918290208251606081018452815481526001820154928101838152600290920154938101939093528691610e9a908390612fad565b905250805182908290610eae908390612fad565b905250600b54610ec290429060ff1661295b565b6040808301918252336000908152600d60209081528282206001600160a01b038b16835281529190208351815590830151600182018190559151600290910155158015610f0e57508051155b15610f49576001600160a01b038088166000908152600d60209081526040808320938a16835292905290812081815560018101829055600201555b8460046000828254610f5b9190612fad565b90915550610f749050610f6d876108c7565b8390612942565b60036000828254610f859190612fad565b9091555050604051858152309033907f0a3fbbea70e93f2daafa3102f5c9a1b8315e6d7a1e43e4bc020bc1162327470a9060200160405180910390a35060019695505050505050565b600082815260208190526040902060010154610fe98161294e565b610ff38383612967565b505050565b6001600160a01b03811633146110765760405162461bcd60e51b815260206004820152602f60248201527f416363657373436f6e74726f6c3a2063616e206f6e6c792072656e6f756e636560448201527f20726f6c657320666f722073656c660000000000000000000000000000000000606482015260840161081d565b6110808282612a05565b5050565b60015460009033906001600160a01b031681146110e35760405162461bcd60e51b815260206004820152601f60248201527f596f7520617265206e6f74206f776e6572206f6620636f6e7472616374202100604482015260640161081d565b600c54158015906110f65750600c548311155b6111425760405162461bcd60e51b815260206004820152601660248201527f496e73756666696369656e7420696e76656e746f727900000000000000000000604482015260640161081d565b60055460405163a9059cbb60e01b8152336004820152602481018590526001600160a01b039091169063a9059cbb906044016020604051808303816000875af1158015611193573d6000803e3d6000fd5b505050506040513d601f19601f820116820180604052508101906111b79190612f75565b50826006800160008282546111cc9190612fad565b909155506001949350505050565b6000816001600160a01b03811630148061120e57506001600160a01b038082166000818152600e6020526040902054909116145b8061122657506005546001600160a01b038281169116145b6112605760405162461bcd60e51b815260206004820152601f602482015260008051602061318b833981519152604482015260640161081d565b306001600160a01b038416036112795730319150610a66565b6005546001600160a01b0390811690841603611303576005546040516370a0823160e01b81523060048201526001600160a01b03909116906370a08231906024015b602060405180830381865afa1580156112d8573d6000803e3d6000fd5b505050506040513d601f19601f820116820180604052508101906112fc9190612f5c565b9150610a66565b6001600160a01b038381166000908152600e6020526040908190206001015490516370a0823160e01b81523060048201529116906370a08231906024016112bb565b6000826001600160a01b03811630148061137957506001600160a01b038082166000818152600e6020526040902054909116145b8061139157506005546001600160a01b038281169116145b6113cb5760405162461bcd60e51b815260206004820152601f602482015260008051602061318b833981519152604482015260640161081d565b6005546001600160a01b039081169085160361144f5760405162461bcd60e51b815260206004820152603060248201527f596f752063616e6e6f74207573696e67207468697320746f6b656e206173206360448201527f6f6c6c61746572616c20746f6b616e2e00000000000000000000000000000000606482015260840161081d565b600080600061145e8787612523565b6001600160a01b038a81166000908152600e6020526040908190206001015460055491516370a0823160e01b8152306004820152959850939650919450918216929116906370a0823190602401602060405180830381865afa1580156114c8573d6000803e3d6000fd5b505050506040513d601f19601f820116820180604052508101906114ec9190612f5c565b8311156115465760405162461bcd60e51b815260206004820152602260248201527f496e73756666696369656e742062616c616e636520696e20636f6e7472616374604482015261202160f01b606482015260840161081d565b306001600160a01b0389160361167557863410156115a65760405162461bcd60e51b815260206004820152601760248201527f496e73756666696369656e7420424e422073656e742021000000000000000000604482015260640161081d565b33313411156115f75760405162461bcd60e51b815260206004820152601660248201527f496e73756666696369656e742042616c616e6365202100000000000000000000604482015260640161081d565b60055460405163a9059cbb60e01b8152336004820152602481018590523498506001600160a01b039091169063a9059cbb906044016020604051808303816000875af115801561164b573d6000803e3d6000fd5b505050506040513d601f19601f8201168201806040525081019061166f9190612f75565b5061181b565b6040516370a0823160e01b81523360048201526001600160a01b038216906370a0823190602401602060405180830381865afa1580156116b9573d6000803e3d6000fd5b505050506040513d601f19601f820116820180604052508101906116dd9190612f5c565b87111561172c5760405162461bcd60e51b815260206004820152601660248201527f496e73756666696369656e742042616c616e6365202100000000000000000000604482015260640161081d565b6040516323b872dd60e01b8152336004820152306024820152604481018890526001600160a01b038216906323b872dd906064016020604051808303816000875af115801561177f573d6000803e3d6000fd5b505050506040513d601f19601f820116820180604052508101906117a39190612f75565b5060055460405163a9059cbb60e01b8152336004820152602481018590526001600160a01b039091169063a9059cbb906044016020604051808303816000875af11580156117f5573d6000803e3d6000fd5b505050506040513d601f19601f820116820180604052508101906118199190612f75565b505b336000908152600d602090815260408083206001600160a01b038c1684528252918290208251606081018452815481526001820154928101838152600290920154938101939093528591611870908390612fc0565b905250805188908290611884908390612fc0565b905250600b546118aa9061189e9060ff1662015180612fd3565b429062ffffff1661295b565b6040828101918252336000908152600d60209081528282206001600160a01b038e1683528152919020835181559083015160018201559051600290910155600654611900908690600160a01b900460ff16612942565b600c8054600090611912908490612fc0565b92505081905550836004600082825461192b9190612fc0565b9250508190555082600360008282546119449190612fc0565b9091555050604051848152339030907f3fc499aeb0bb1cb58b6de8b02b3f86f4e7394e9690bef0110e32ced8a56310459060200160405180910390a36001965050505050505b5092915050565b60007f2cb697566d4fae71a9e65e4dac853bf1e0e88a4957a11bb62814a78d165bb6bb6119bd8161294e565b6001600160a01b038085166000818152600e60205260409020549091169003611a4e5760405162461bcd60e51b815260206004820152602c60248201527f5468697320746f6b656e20697320616c726561647920616464656420746f207460448201527f686520636f6e74726163742e0000000000000000000000000000000000000000606482015260840161081d565b604080516060810182526001600160a01b0380871680835260208084018281528884168587019081526000938452600e909252949091209251835490831673ffffffffffffffffffffffffffffffffffffffff19918216178455935160018085018054928516928716929092179091559051600290930180549390921692909316919091179055805460ff600160a01b90910416906014611aee83612ffa565b91906101000a81548160ff021916908360ff16021790555050600191505092915050565b60007f2cb697566d4fae71a9e65e4dac853bf1e0e88a4957a11bb62814a78d165bb6bb611b3e8161294e565b505060408051610100810182526001600160a01b0399909916808a5260ff98891660208b01819052918a0188905295881660608a0181905260808a0186905260a08a018590529290971660c0890181905260e0909801819052600680547fffffffffffffffffffffff00000000000000000000000000000000000000000016909517600160a01b909702969096179093556007939093556008805460ff199081169093179055600955600a91909155600b8054909116909217909155600c55600190565b60007f2cb697566d4fae71a9e65e4dac853bf1e0e88a4957a11bb62814a78d165bb6bb611c2e8161294e565b826001600160a01b038116301480611c6057506001600160a01b038082166000818152600e6020526040902054909116145b80611c7857506005546001600160a01b038281169116145b611cb25760405162461bcd60e51b815260206004820152601f602482015260008051602061318b833981519152604482015260640161081d565b6001600160a01b0384166000908152600e60205260409020805473ffffffffffffffffffffffffffffffffffffffff19908116825560018083018054831690556002909201805490911690558054600160a01b900460ff16906014611d1683613019565b91906101000a81548160ff021916908360ff16021790555050600192505050919050565b7f2cb697566d4fae71a9e65e4dac853bf1e0e88a4957a11bb62814a78d165bb6bb611d648161294e565b6005546001600160a01b031615611dc85760405162461bcd60e51b815260206004820152602260248201527f546865206e617469766520746f6b656e2063757272656e746c79206164646564604482015261202160f01b606482015260840161081d565b506005805473ffffffffffffffffffffffffffffffffffffffff19166001600160a01b0392909216919091179055565b60007f69cd0c85288bcffbe883a45101c678f53f42e27bebea35a677cc62da9fa7f391611e248161294e565b6008805460ff851660ff199091161790556001915050919050565b6000826001600160a01b038116301480611e7357506001600160a01b038082166000818152600e6020526040902054909116145b80611e8b57506005546001600160a01b038281169116145b611ec55760405162461bcd60e51b815260206004820152601f602482015260008051602061318b833981519152604482015260640161081d565b306001600160a01b03851603611ee757826001600160a01b031631915061198a565b6005546001600160a01b0390811690851603611f73576005546040516370a0823160e01b81526001600160a01b038581166004830152909116906370a08231906024015b602060405180830381865afa158015611f48573d6000803e3d6000fd5b505050506040513d601f19601f82011682018060405250810190611f6c9190612f5c565b915061198a565b6001600160a01b038481166000908152600e6020526040908190206001015490516370a0823160e01b815285831660048201529116906370a0823190602401611f2b565b6000806000611fcf611fc8866108c7565b8590612942565b600854909150600090611ff390606490611fed90859060ff16612942565b90612a84565b90506000612009612002612334565b8390612a84565b9792965091945050505050565b6000826001600160a01b03811630148061204a57506001600160a01b038082166000818152600e6020526040902054909116145b8061206257506005546001600160a01b038281169116145b61209c5760405162461bcd60e51b815260206004820152601f602482015260008051602061318b833981519152604482015260640161081d565b6001600160a01b038086166000908152600d60209081526040808320938816835292815290829020825160608101845281548152600182015492810183905260029091015492810192909252869186911515806120f95750805115155b6121455760405162461bcd60e51b815260206004820152601a60248201527f54686973206c6f616e20646f6573206e6f742065786973742021000000000000604482015260640161081d565b6000612150886108c7565b6001600160a01b03808b166000908152600d60209081526040808320938d16835292905290812054919250906121869083612942565b6001600160a01b03808c166000908152600d60209081526040808320938e16835292905290812060010154919250906121c0908390612a84565b905060006121ce828b612942565b905060006121dc8286612a84565b9d9c50505050505050505050505050565b6000816001600160a01b03811630148061222157506001600160a01b038082166000818152600e6020526040902054909116145b8061223957506005546001600160a01b038281169116145b6122735760405162461bcd60e51b815260206004820152601f602482015260008051602061318b833981519152604482015260640161081d565b50506001600160a01b039182166000908152600d6020908152604080832093909416825291909152206001015490565b60015460009033906001600160a01b031681146123025760405162461bcd60e51b815260206004820152601f60248201527f596f7520617265206e6f74206f776e6572206f6620636f6e7472616374202100604482015260640161081d565b600180546001600160a01b03851673ffffffffffffffffffffffffffffffffffffffff19909116178155915050919050565b600061233f60045490565b600003612353575067016345785d8a000090565b600061236961236160045490565b600354611fed565b60095490915081101561237e57505060095490565b600a54811115612390575050600a5490565b919050565b6000816001600160a01b0381163014806123c957506001600160a01b038082166000818152600e6020526040902054909116145b806123e157506005546001600160a01b038281169116145b61241b5760405162461bcd60e51b815260206004820152601f602482015260008051602061318b833981519152604482015260640161081d565b50506001600160a01b039182166000908152600d6020908152604080832093909416825291909152206002015490565b6000816001600160a01b03811630148061247f57506001600160a01b038082166000818152600e6020526040902054909116145b8061249757506005546001600160a01b038281169116145b6124d15760405162461bcd60e51b815260206004820152601f602482015260008051602061318b833981519152604482015260640161081d565b50506001600160a01b039182166000908152600d6020908152604080832093909416825291909152205490565b6000828152602081905260409020600101546125198161294e565b610ff38383612a05565b60008080846001600160a01b03811630148061255957506001600160a01b038082166000818152600e6020526040902054909116145b8061257157506005546001600160a01b038281169116145b6125ab5760405162461bcd60e51b815260206004820152601f602482015260008051602061318b833981519152604482015260640161081d565b6000806125b88888611fb7565b909250905060006125cb83612710612a84565b6006549091506000906125f090606490611fed908790600160a01b900460ff16612942565b905060006125fe8583612a90565b929b929a50929850909650505050505050565b6000816001600160a01b03811630148061264557506001600160a01b038082166000818152600e6020526040902054909116145b8061265d57506005546001600160a01b038281169116145b6126975760405162461bcd60e51b815260206004820152601f602482015260008051602061318b833981519152604482015260640161081d565b336000818152600d602090815260408083206001600160a01b03881684528252918290208251606081018452815481526001820154928101839052600290910154928101929092528591901515806126ef5750805115155b61273b5760405162461bcd60e51b815260206004820152601a60248201527f54686973206c6f616e20646f6573206e6f742065786973742021000000000000604482015260640161081d565b336000908152600d602090815260408083206001600160a01b038a1684528252918290208251606081018452815481526001820154928101839052600290910154928101929092521580156127a357508051158015906127a357508051670de0b6b3a7640000115b6128155760405162461bcd60e51b815260206004820152602560248201527f596f752063616e6e6f7420657865637574652074686973207472616e7361637460448201527f696f6e2021000000000000000000000000000000000000000000000000000000606482015260840161081d565b306001600160a01b0388160361285c578051604051339180156108fc02916000818181858888f19350505050158015612852573d6000803e3d6000fd5b50600081526128ed565b6001600160a01b038781166000908152600e602052604090819020600101548351915163a9059cbb60e01b815233600482015260248101929092529091169063a9059cbb906044016020604051808303816000875af11580156128c3573d6000803e3d6000fd5b505050506040513d601f19601f820116820180604052508101906128e79190612f75565b50600081525b60208101511580156128fe57508051155b1561293557336000908152600d602090815260408083206001600160a01b038b168452909152812081815560018101829055600201555b5060019695505050505050565b60006109c48284613036565b6129588133612a9c565b50565b60006109c48284612fc0565b6000828152602081815260408083206001600160a01b038516845290915290205460ff16611080576000828152602081815260408083206001600160a01b03851684529091529020805460ff191660011790556129c13390565b6001600160a01b0316816001600160a01b0316837f2f8788117e7eff1d82e926ec794901d17c78024a50270940304540a733656f0d60405160405180910390a45050565b6000828152602081815260408083206001600160a01b038516845290915290205460ff1615611080576000828152602081815260408083206001600160a01b0385168085529252808320805460ff1916905551339285917ff6391f5c32d9c69d2a47ea670b442974b53935d1edc7fd64eb21e047a839171b9190a45050565b60006109c4828461304d565b60006109c48284612fad565b6000828152602081815260408083206001600160a01b038516845290915290205460ff1661108057612acd81612b0f565b612ad8836020612b21565b604051602001612ae9929190613093565b60408051601f198184030181529082905262461bcd60e51b825261081d91600401613114565b60606108c16001600160a01b03831660145b60606000612b30836002613036565b612b3b906002612fc0565b67ffffffffffffffff811115612b5357612b53613147565b6040519080825280601f01601f191660200182016040528015612b7d576020820181803683370190505b5090507f300000000000000000000000000000000000000000000000000000000000000081600081518110612bb457612bb461315d565b60200101906001600160f81b031916908160001a9053507f780000000000000000000000000000000000000000000000000000000000000081600181518110612bff57612bff61315d565b60200101906001600160f81b031916908160001a9053506000612c23846002613036565b612c2e906001612fc0565b90505b6001811115612cb3577f303132333435363738396162636465660000000000000000000000000000000085600f1660108110612c6f57612c6f61315d565b1a60f81b828281518110612c8557612c8561315d565b60200101906001600160f81b031916908160001a90535060049490941c93612cac81613173565b9050612c31565b5083156109c45760405162461bcd60e51b815260206004820181905260248201527f537472696e67733a20686578206c656e67746820696e73756666696369656e74604482015260640161081d565b600060208284031215612d1457600080fd5b81357fffffffff00000000000000000000000000000000000000000000000000000000811681146109c457600080fd5b80356001600160a01b038116811461239057600080fd5b600060208284031215612d6d57600080fd5b6109c482612d44565b803560ff8116811461239057600080fd5b600060208284031215612d9957600080fd5b6109c482612d76565b600080600060608486031215612db757600080fd5b612dc084612d44565b9250612dce60208501612d44565b9150604084013590509250925092565b600060208284031215612df057600080fd5b5035919050565b60008060408385031215612e0a57600080fd5b82359150612e1a60208401612d44565b90509250929050565b60008060408385031215612e3657600080fd5b612e3f83612d44565b946020939093013593505050565b60008060408385031215612e6057600080fd5b612e6983612d44565b9150612e1a60208401612d44565b600080600080600080600080610100898b031215612e9457600080fd5b612e9d89612d44565b9750612eab60208a01612d76565b965060408901359550612ec060608a01612d76565b94506080890135935060a08901359250612edc60c08a01612d76565b915060e089013590509295985092959890939650565b805169ffffffffffffffffffff8116811461239057600080fd5b600080600080600060a08688031215612f2457600080fd5b612f2d86612ef2565b9450602086015193506040860151925060608601519150612f5060808701612ef2565b90509295509295909350565b600060208284031215612f6e57600080fd5b5051919050565b600060208284031215612f8757600080fd5b815180151581146109c457600080fd5b634e487b7160e01b600052601160045260246000fd5b818103818111156108c1576108c1612f97565b808201808211156108c1576108c1612f97565b62ffffff818116838216028082169190828114612ff257612ff2612f97565b505092915050565b600060ff821660ff810361301057613010612f97565b60010192915050565b600060ff82168061302c5761302c612f97565b6000190192915050565b80820281158282048414176108c1576108c1612f97565b60008261306a57634e487b7160e01b600052601260045260246000fd5b500490565b60005b8381101561308a578181015183820152602001613072565b50506000910152565b7f416363657373436f6e74726f6c3a206163636f756e74200000000000000000008152600083516130cb81601785016020880161306f565b7f206973206d697373696e6720726f6c6520000000000000000000000000000000601791840191820152835161310881602884016020880161306f565b01602801949350505050565b602081526000825180602084015261313381604085016020870161306f565b601f01601f19169190910160400192915050565b634e487b7160e01b600052604160045260246000fd5b634e487b7160e01b600052603260045260246000fd5b60008161318257613182612f97565b50600019019056fe5468697320746f6b656e20646f6573206e6f7420737570706f72746564202100a264697066735822122008c199eacd56bcc04476b4135df08846e389690fe513fdcc4a0584ade7189afb64736f6c634300081800332cb697566d4fae71a9e65e4dac853bf1e0e88a4957a11bb62814a78d165bb6bb","opcodes":"PUSH1 0x80 PUSH1 0x40 MSTORE CALLVALUE DUP1 ISZERO PUSH3 0x11 JUMPI PUSH1 0x0 DUP1 REVERT JUMPDEST POP PUSH1 0x40 MLOAD PUSH3 0x38BD CODESIZE SUB DUP1 PUSH3 0x38BD DUP4 CODECOPY DUP2 ADD PUSH1 0x40 DUP2 SWAP1 MSTORE PUSH3 0x34 SWAP2 PUSH3 0x4BC JUMP JUMPDEST PUSH1 0x1 DUP1 SLOAD PUSH1 0x1 PUSH1 0x1 PUSH1 0xA0 SHL SUB NOT AND CALLER SWAP1 DUP2 OR SWAP1 SWAP2 SSTORE PUSH3 0x57 SWAP1 PUSH1 0x0 SWAP1 PUSH3 0xD9 JUMP JUMPDEST PUSH1 0x1 SLOAD PUSH3 0x90 SWAP1 PUSH32 0x46F3ECCDD88DD62792AE8EED1BE7B9B658477566C49FD85B0D08CF44261C9208 SWAP1 PUSH1 0x1 PUSH1 0x1 PUSH1 0xA0 SHL SUB AND PUSH3 0xD9 JUMP JUMPDEST PUSH1 0x1 SLOAD PUSH3 0xB8 SWAP1 PUSH1 0x0 DUP1 MLOAD PUSH1 0x20 PUSH3 0x389D DUP4 CODECOPY DUP2 MLOAD SWAP2 MSTORE SWAP1 PUSH1 0x1 PUSH1 0x1 PUSH1 0xA0 SHL SUB AND PUSH3 0xD9 JUMP JUMPDEST PUSH3 0xCA DUP9 DUP9 DUP9 DUP9 DUP9 DUP9 DUP9 DUP9 PUSH3 0x162 JUMP JUMPDEST POP POP POP POP POP POP POP POP POP PUSH3 0x6AD JUMP JUMPDEST PUSH3 0xE5 DUP3 DUP3 PUSH3 0x22B JUMP JUMPDEST PUSH3 0x15E JUMPI PUSH1 0x0 DUP3 DUP2 MSTORE PUSH1 0x20 DUP2 DUP2 MSTORE PUSH1 0x40 DUP1 DUP4 KECCAK256 PUSH1 0x1 PUSH1 0x1 PUSH1 0xA0 SHL SUB DUP6 AND DUP5 MSTORE SWAP1 SWAP2 MSTORE SWAP1 KECCAK256 DUP1 SLOAD PUSH1 0xFF NOT AND PUSH1 0x1 OR SWAP1 SSTORE PUSH3 0x11D CALLER SWAP1 JUMP JUMPDEST PUSH1 0x1 PUSH1 0x1 PUSH1 0xA0 SHL SUB AND DUP2 PUSH1 0x1 PUSH1 0x1 PUSH1 0xA0 SHL SUB AND DUP4 PUSH32 0x2F8788117E7EFF1D82E926EC794901D17C78024A50270940304540A733656F0D PUSH1 0x40 MLOAD PUSH1 0x40 MLOAD DUP1 SWAP2 SUB SWAP1 LOG4 JUMPDEST POP POP JUMP JUMPDEST PUSH1 0x0 PUSH1 0x0 DUP1 MLOAD PUSH1 0x20 PUSH3 0x389D DUP4 CODECOPY DUP2 MLOAD SWAP2 MSTORE PUSH3 0x17F DUP2 PUSH3 0x256 JUMP JUMPDEST POP POP PUSH1 0x40 DUP1 MLOAD PUSH2 0x100 DUP2 ADD DUP3 MSTORE PUSH1 0x1 PUSH1 0x1 PUSH1 0xA0 SHL SUB SWAP10 SWAP1 SWAP10 AND DUP1 DUP11 MSTORE PUSH1 0xFF SWAP9 DUP10 AND PUSH1 0x20 DUP12 ADD DUP2 SWAP1 MSTORE SWAP2 DUP11 ADD DUP9 SWAP1 MSTORE SWAP6 DUP9 AND PUSH1 0x60 DUP11 ADD DUP2 SWAP1 MSTORE PUSH1 0x80 DUP11 ADD DUP7 SWAP1 MSTORE PUSH1 0xA0 DUP11 ADD DUP6 SWAP1 MSTORE SWAP3 SWAP1 SWAP8 AND PUSH1 0xC0 DUP10 ADD DUP2 SWAP1 MSTORE PUSH1 0xE0 SWAP1 SWAP9 ADD DUP2 SWAP1 MSTORE PUSH1 0x6 DUP1 SLOAD PUSH1 0x1 PUSH1 0x1 PUSH1 0xA8 SHL SUB NOT AND SWAP1 SWAP6 OR PUSH1 0x1 PUSH1 0xA0 SHL SWAP1 SWAP8 MUL SWAP7 SWAP1 SWAP7 OR SWAP1 SWAP4 SSTORE PUSH1 0x7 SWAP4 SWAP1 SWAP4 SSTORE PUSH1 0x8 DUP1 SLOAD PUSH1 0xFF NOT SWAP1 DUP2 AND SWAP1 SWAP4 OR SWAP1 SSTORE PUSH1 0x9 SSTORE PUSH1 0xA SWAP2 SWAP1 SWAP2 SSTORE PUSH1 0xB DUP1 SLOAD SWAP1 SWAP2 AND SWAP1 SWAP3 OR SWAP1 SWAP2 SSTORE PUSH1 0xC SSTORE PUSH1 0x1 SWAP1 JUMP JUMPDEST PUSH1 0x0 DUP3 DUP2 MSTORE PUSH1 0x20 DUP2 DUP2 MSTORE PUSH1 0x40 DUP1 DUP4 KECCAK256 PUSH1 0x1 PUSH1 0x1 PUSH1 0xA0 SHL SUB DUP6 AND DUP5 MSTORE SWAP1 SWAP2 MSTORE SWAP1 KECCAK256 SLOAD PUSH1 0xFF AND JUMPDEST SWAP3 SWAP2 POP POP JUMP JUMPDEST PUSH3 0x262 DUP2 CALLER PUSH3 0x265 JUMP JUMPDEST POP JUMP JUMPDEST PUSH3 0x271 DUP3 DUP3 PUSH3 0x22B JUMP JUMPDEST PUSH3 0x15E JUMPI PUSH3 0x281 DUP2 PUSH3 0x2D2 JUMP JUMPDEST PUSH3 0x28E DUP4 PUSH1 0x20 PUSH3 0x2E5 JUMP JUMPDEST PUSH1 0x40 MLOAD PUSH1 0x20 ADD PUSH3 0x2A1 SWAP3 SWAP2 SWAP1 PUSH3 0x573 JUMP JUMPDEST PUSH1 0x40 DUP1 MLOAD PUSH1 0x1F NOT DUP2 DUP5 SUB ADD DUP2 MSTORE SWAP1 DUP3 SWAP1 MSTORE PUSH3 0x461BCD PUSH1 0xE5 SHL DUP3 MSTORE PUSH3 0x2C9 SWAP2 PUSH1 0x4 ADD PUSH3 0x5EC JUMP JUMPDEST PUSH1 0x40 MLOAD DUP1 SWAP2 SUB SWAP1 REVERT JUMPDEST PUSH1 0x60 PUSH3 0x250 PUSH1 0x1 PUSH1 0x1 PUSH1 0xA0 SHL SUB DUP4 AND PUSH1 0x14 JUMPDEST PUSH1 0x60 PUSH1 0x0 PUSH3 0x2F6 DUP4 PUSH1 0x2 PUSH3 0x637 JUMP JUMPDEST PUSH3 0x303 SWAP1 PUSH1 0x2 PUSH3 0x651 JUMP JUMPDEST PUSH1 0x1 PUSH1 0x1 PUSH1 0x40 SHL SUB DUP2 GT ISZERO PUSH3 0x31D JUMPI PUSH3 0x31D PUSH3 0x667 JUMP JUMPDEST PUSH1 0x40 MLOAD SWAP1 DUP1 DUP3 MSTORE DUP1 PUSH1 0x1F ADD PUSH1 0x1F NOT AND PUSH1 0x20 ADD DUP3 ADD PUSH1 0x40 MSTORE DUP1 ISZERO PUSH3 0x348 JUMPI PUSH1 0x20 DUP3 ADD DUP2 DUP1 CALLDATASIZE DUP4 CALLDATACOPY ADD SWAP1 POP JUMPDEST POP SWAP1 POP PUSH1 0x3 PUSH1 0xFC SHL DUP2 PUSH1 0x0 DUP2 MLOAD DUP2 LT PUSH3 0x366 JUMPI PUSH3 0x366 PUSH3 0x67D JUMP JUMPDEST PUSH1 0x20 ADD ADD SWAP1 PUSH1 0x1 PUSH1 0x1 PUSH1 0xF8 SHL SUB NOT AND SWAP1 DUP2 PUSH1 0x0 BYTE SWAP1 MSTORE8 POP PUSH1 0xF PUSH1 0xFB SHL DUP2 PUSH1 0x1 DUP2 MLOAD DUP2 LT PUSH3 0x398 JUMPI PUSH3 0x398 PUSH3 0x67D JUMP JUMPDEST PUSH1 0x20 ADD ADD SWAP1 PUSH1 0x1 PUSH1 0x1 PUSH1 0xF8 SHL SUB NOT AND SWAP1 DUP2 PUSH1 0x0 BYTE SWAP1 MSTORE8 POP PUSH1 0x0 PUSH3 0x3BE DUP5 PUSH1 0x2 PUSH3 0x637 JUMP JUMPDEST PUSH3 0x3CB SWAP1 PUSH1 0x1 PUSH3 0x651 JUMP JUMPDEST SWAP1 POP JUMPDEST PUSH1 0x1 DUP2 GT ISZERO PUSH3 0x44D JUMPI PUSH16 0x181899199A1A9B1B9C1CB0B131B232B3 PUSH1 0x81 SHL DUP6 PUSH1 0xF AND PUSH1 0x10 DUP2 LT PUSH3 0x403 JUMPI PUSH3 0x403 PUSH3 0x67D JUMP JUMPDEST BYTE PUSH1 0xF8 SHL DUP3 DUP3 DUP2 MLOAD DUP2 LT PUSH3 0x41C JUMPI PUSH3 0x41C PUSH3 0x67D JUMP JUMPDEST PUSH1 0x20 ADD ADD SWAP1 PUSH1 0x1 PUSH1 0x1 PUSH1 0xF8 SHL SUB NOT AND SWAP1 DUP2 PUSH1 0x0 BYTE SWAP1 MSTORE8 POP PUSH1 0x4 SWAP5 SWAP1 SWAP5 SHR SWAP4 PUSH3 0x445 DUP2 PUSH3 0x693 JUMP JUMPDEST SWAP1 POP PUSH3 0x3CE JUMP JUMPDEST POP DUP4 ISZERO PUSH3 0x49E JUMPI PUSH1 0x40 MLOAD PUSH3 0x461BCD PUSH1 0xE5 SHL DUP2 MSTORE PUSH1 0x20 PUSH1 0x4 DUP3 ADD DUP2 SWAP1 MSTORE PUSH1 0x24 DUP3 ADD MSTORE PUSH32 0x537472696E67733A20686578206C656E67746820696E73756666696369656E74 PUSH1 0x44 DUP3 ADD MSTORE PUSH1 0x64 ADD PUSH3 0x2C9 JUMP JUMPDEST SWAP4 SWAP3 POP POP POP JUMP JUMPDEST DUP1 MLOAD PUSH1 0xFF DUP2 AND DUP2 EQ PUSH3 0x4B7 JUMPI PUSH1 0x0 DUP1 REVERT JUMPDEST SWAP2 SWAP1 POP JUMP JUMPDEST PUSH1 0x0 DUP1 PUSH1 0x0 DUP1 PUSH1 0x0 DUP1 PUSH1 0x0 DUP1 PUSH2 0x100 DUP10 DUP12 SUB SLT ISZERO PUSH3 0x4DA JUMPI PUSH1 0x0 DUP1 REVERT JUMPDEST DUP9 MLOAD PUSH1 0x1 PUSH1 0x1 PUSH1 0xA0 SHL SUB DUP2 AND DUP2 EQ PUSH3 0x4F2 JUMPI PUSH1 0x0 DUP1 REVERT JUMPDEST SWAP8 POP PUSH3 0x502 PUSH1 0x20 DUP11 ADD PUSH3 0x4A5 JUMP JUMPDEST SWAP7 POP PUSH1 0x40 DUP10 ADD MLOAD SWAP6 POP PUSH3 0x519 PUSH1 0x60 DUP11 ADD PUSH3 0x4A5 JUMP JUMPDEST SWAP5 POP PUSH1 0x80 DUP10 ADD MLOAD SWAP4 POP PUSH1 0xA0 DUP10 ADD MLOAD SWAP3 POP PUSH3 0x537 PUSH1 0xC0 DUP11 ADD PUSH3 0x4A5 JUMP JUMPDEST SWAP2 POP PUSH1 0xE0 DUP10 ADD MLOAD SWAP1 POP SWAP3 SWAP6 SWAP9 POP SWAP3 SWAP6 SWAP9 SWAP1 SWAP4 SWAP7 POP JUMP JUMPDEST PUSH1 0x0 JUMPDEST DUP4 DUP2 LT ISZERO PUSH3 0x56A JUMPI DUP2 DUP2 ADD MLOAD DUP4 DUP3 ADD MSTORE PUSH1 0x20 ADD PUSH3 0x550 JUMP JUMPDEST POP POP PUSH1 0x0 SWAP2 ADD MSTORE JUMP JUMPDEST PUSH32 0x416363657373436F6E74726F6C3A206163636F756E7420000000000000000000 DUP2 MSTORE PUSH1 0x0 DUP4 MLOAD PUSH3 0x5AD DUP2 PUSH1 0x17 DUP6 ADD PUSH1 0x20 DUP9 ADD PUSH3 0x54D JUMP JUMPDEST PUSH17 0x1034B99036B4B9B9B4B733903937B6329 PUSH1 0x7D SHL PUSH1 0x17 SWAP2 DUP5 ADD SWAP2 DUP3 ADD MSTORE DUP4 MLOAD PUSH3 0x5E0 DUP2 PUSH1 0x28 DUP5 ADD PUSH1 0x20 DUP9 ADD PUSH3 0x54D JUMP JUMPDEST ADD PUSH1 0x28 ADD SWAP5 SWAP4 POP POP POP POP JUMP JUMPDEST PUSH1 0x20 DUP2 MSTORE PUSH1 0x0 DUP3 MLOAD DUP1 PUSH1 0x20 DUP5 ADD MSTORE PUSH3 0x60D DUP2 PUSH1 0x40 DUP6 ADD PUSH1 0x20 DUP8 ADD PUSH3 0x54D JUMP JUMPDEST PUSH1 0x1F ADD PUSH1 0x1F NOT AND SWAP2 SWAP1 SWAP2 ADD PUSH1 0x40 ADD SWAP3 SWAP2 POP POP JUMP JUMPDEST PUSH4 0x4E487B71 PUSH1 0xE0 SHL PUSH1 0x0 MSTORE PUSH1 0x11 PUSH1 0x4 MSTORE PUSH1 0x24 PUSH1 0x0 REVERT JUMPDEST DUP1 DUP3 MUL DUP2 ISZERO DUP3 DUP3 DIV DUP5 EQ OR PUSH3 0x250 JUMPI PUSH3 0x250 PUSH3 0x621 JUMP JUMPDEST DUP1 DUP3 ADD DUP1 DUP3 GT ISZERO PUSH3 0x250 JUMPI PUSH3 0x250 PUSH3 0x621 JUMP JUMPDEST PUSH4 0x4E487B71 PUSH1 0xE0 SHL PUSH1 0x0 MSTORE PUSH1 0x41 PUSH1 0x4 MSTORE PUSH1 0x24 PUSH1 0x0 REVERT JUMPDEST PUSH4 0x4E487B71 PUSH1 0xE0 SHL PUSH1 0x0 MSTORE PUSH1 0x32 PUSH1 0x4 MSTORE PUSH1 0x24 PUSH1 0x0 REVERT JUMPDEST PUSH1 0x0 DUP2 PUSH3 0x6A5 JUMPI PUSH3 0x6A5 PUSH3 0x621 JUMP JUMPDEST POP PUSH1 0x0 NOT ADD SWAP1 JUMP JUMPDEST PUSH2 0x31E0 DUP1 PUSH3 0x6BD PUSH1 0x0 CODECOPY PUSH1 0x0 RETURN INVALID PUSH1 0x80 PUSH1 0x40 MSTORE PUSH1 0x4 CALLDATASIZE LT PUSH2 0x28F JUMPI PUSH1 0x0 CALLDATALOAD PUSH1 0xE0 SHR DUP1 PUSH4 0x7C680B85 GT PUSH2 0x156 JUMPI DUP1 PUSH4 0xAB9AF560 GT PUSH2 0xBF JUMPI DUP1 PUSH4 0xCE6F2A7A GT PUSH2 0x79 JUMPI DUP1 PUSH4 0xE3658273 GT PUSH2 0x61 JUMPI DUP1 PUSH4 0xE3658273 EQ PUSH2 0x74F JUMPI DUP1 PUSH4 0xE4D4D2FF EQ PUSH2 0x78A JUMPI DUP1 PUSH4 0xFA41AC6C EQ PUSH2 0x7AA JUMPI STOP JUMPDEST DUP1 PUSH4 0xCE6F2A7A EQ PUSH2 0x71A JUMPI DUP1 PUSH4 0xD547741F EQ PUSH2 0x72F JUMPI STOP JUMPDEST DUP1 PUSH4 0xC0ED4A43 GT PUSH2 0xA7 JUMPI DUP1 PUSH4 0xC0ED4A43 EQ PUSH2 0x6C7 JUMPI DUP1 PUSH4 0xC768CA1E EQ PUSH2 0x6E7 JUMPI DUP1 PUSH4 0xC9C1C4F4 EQ PUSH2 0x705 JUMPI STOP JUMPDEST DUP1 PUSH4 0xAB9AF560 EQ PUSH2 0x692 JUMPI DUP1 PUSH4 0xBC6F1F1B EQ PUSH2 0x6B2 JUMPI STOP JUMPDEST DUP1 PUSH4 0x9C2B062D GT PUSH2 0x110 JUMPI DUP1 PUSH4 0xA217FDDF GT PUSH2 0xF8 JUMPI DUP1 PUSH4 0xA217FDDF EQ PUSH2 0x648 JUMPI DUP1 PUSH4 0xA6F9DAE1 EQ PUSH2 0x65D JUMPI DUP1 PUSH4 0xA7429FD9 EQ PUSH2 0x67D JUMPI STOP JUMPDEST DUP1 PUSH4 0x9C2B062D EQ PUSH2 0x613 JUMPI DUP1 PUSH4 0x9FD9D671 EQ PUSH2 0x628 JUMPI STOP JUMPDEST DUP1 PUSH4 0x8DA5CB5B GT PUSH2 0x13E JUMPI DUP1 PUSH4 0x8DA5CB5B EQ PUSH2 0x582 JUMPI DUP1 PUSH4 0x91D14854 EQ PUSH2 0x5BA JUMPI DUP1 PUSH4 0x977AF228 EQ PUSH2 0x5FE JUMPI STOP JUMPDEST DUP1 PUSH4 0x7C680B85 EQ PUSH2 0x52D JUMPI DUP1 PUSH4 0x7F35FE63 EQ PUSH2 0x562 JUMPI STOP JUMPDEST DUP1 PUSH4 0x43AB265F GT PUSH2 0x1F8 JUMPI DUP1 PUSH4 0x601D0F3B GT PUSH2 0x1B2 JUMPI DUP1 PUSH4 0x666B7686 GT PUSH2 0x19A JUMPI DUP1 PUSH4 0x666B7686 EQ PUSH2 0x4D8 JUMPI DUP1 PUSH4 0x6805D6AD EQ PUSH2 0x4F8 JUMPI DUP1 PUSH4 0x6A0775C5 EQ PUSH2 0x518 JUMPI STOP JUMPDEST DUP1 PUSH4 0x601D0F3B EQ PUSH2 0x4A0 JUMPI DUP1 PUSH4 0x64C4BEC0 EQ PUSH2 0x4C0 JUMPI STOP JUMPDEST DUP1 PUSH4 0x5476BD72 GT PUSH2 0x1E0 JUMPI DUP1 PUSH4 0x5476BD72 EQ PUSH2 0x440 JUMPI DUP1 PUSH4 0x597FDAA1 EQ PUSH2 0x460 JUMPI DUP1 PUSH4 0x5FA7B584 EQ PUSH2 0x480 JUMPI STOP JUMPDEST DUP1 PUSH4 0x43AB265F EQ PUSH2 0x40D JUMPI DUP1 PUSH4 0x4B8A3529 EQ PUSH2 0x42D JUMPI STOP JUMPDEST DUP1 PUSH4 0x20B4F2D9 GT PUSH2 0x249 JUMPI DUP1 PUSH4 0x2F2FF15D GT PUSH2 0x231 JUMPI DUP1 PUSH4 0x2F2FF15D EQ PUSH2 0x3AD JUMPI DUP1 PUSH4 0x36568ABE EQ PUSH2 0x3CD JUMPI DUP1 PUSH4 0x3AF6BBCC EQ PUSH2 0x3ED JUMPI STOP JUMPDEST DUP1 PUSH4 0x20B4F2D9 EQ PUSH2 0x350 JUMPI DUP1 PUSH4 0x248A9CA3 EQ PUSH2 0x37D JUMPI STOP JUMPDEST DUP1 PUSH4 0x413C198 GT PUSH2 0x277 JUMPI DUP1 PUSH4 0x413C198 EQ PUSH2 0x2F0 JUMPI DUP1 PUSH4 0xC63CC7D EQ PUSH2 0x310 JUMPI DUP1 PUSH4 0x1DA649CF EQ PUSH2 0x330 JUMPI STOP JUMPDEST DUP1 PUSH4 0x19DDB8D EQ PUSH2 0x298 JUMPI DUP1 PUSH4 0x1FFC9A7 EQ PUSH2 0x2C0 JUMPI STOP JUMPDEST CALLDATASIZE PUSH2 0x296 JUMPI STOP JUMPDEST STOP JUMPDEST CALLVALUE DUP1 ISZERO PUSH2 0x2A4 JUMPI PUSH1 0x0 DUP1 REVERT JUMPDEST POP PUSH2 0x2AD PUSH2 0x7C2 JUMP JUMPDEST PUSH1 0x40 MLOAD SWAP1 DUP2 MSTORE PUSH1 0x20 ADD JUMPDEST PUSH1 0x40 MLOAD DUP1 SWAP2 SUB SWAP1 RETURN JUMPDEST CALLVALUE DUP1 ISZERO PUSH2 0x2CC JUMPI PUSH1 0x0 DUP1 REVERT JUMPDEST POP PUSH2 0x2E0 PUSH2 0x2DB CALLDATASIZE PUSH1 0x4 PUSH2 0x2D02 JUMP JUMPDEST PUSH2 0x82E JUMP JUMPDEST PUSH1 0x40 MLOAD SWAP1 ISZERO ISZERO DUP2 MSTORE PUSH1 0x20 ADD PUSH2 0x2B7 JUMP JUMPDEST CALLVALUE DUP1 ISZERO PUSH2 0x2FC JUMPI PUSH1 0x0 DUP1 REVERT JUMPDEST POP PUSH2 0x2AD PUSH2 0x30B CALLDATASIZE PUSH1 0x4 PUSH2 0x2D5B JUMP JUMPDEST PUSH2 0x8C7 JUMP JUMPDEST CALLVALUE DUP1 ISZERO PUSH2 0x31C JUMPI PUSH1 0x0 DUP1 REVERT JUMPDEST POP PUSH2 0x2E0 PUSH2 0x32B CALLDATASIZE PUSH1 0x4 PUSH2 0x2D87 JUMP JUMPDEST PUSH2 0xA26 JUMP JUMPDEST CALLVALUE DUP1 ISZERO PUSH2 0x33C JUMPI PUSH1 0x0 DUP1 REVERT JUMPDEST POP PUSH2 0x2E0 PUSH2 0x34B CALLDATASIZE PUSH1 0x4 PUSH2 0x2DA2 JUMP JUMPDEST PUSH2 0xA6C JUMP JUMPDEST CALLVALUE DUP1 ISZERO PUSH2 0x35C JUMPI PUSH1 0x0 DUP1 REVERT JUMPDEST POP PUSH1 0x6 SLOAD PUSH1 0x1 PUSH1 0xA0 SHL SWAP1 DIV PUSH1 0xFF AND JUMPDEST PUSH1 0x40 MLOAD PUSH1 0xFF SWAP1 SWAP2 AND DUP2 MSTORE PUSH1 0x20 ADD PUSH2 0x2B7 JUMP JUMPDEST CALLVALUE DUP1 ISZERO PUSH2 0x389 JUMPI PUSH1 0x0 DUP1 REVERT JUMPDEST POP PUSH2 0x2AD PUSH2 0x398 CALLDATASIZE PUSH1 0x4 PUSH2 0x2DDE JUMP JUMPDEST PUSH1 0x0 SWAP1 DUP2 MSTORE PUSH1 0x20 DUP2 SWAP1 MSTORE PUSH1 0x40 SWAP1 KECCAK256 PUSH1 0x1 ADD SLOAD SWAP1 JUMP JUMPDEST CALLVALUE DUP1 ISZERO PUSH2 0x3B9 JUMPI PUSH1 0x0 DUP1 REVERT JUMPDEST POP PUSH2 0x296 PUSH2 0x3C8 CALLDATASIZE PUSH1 0x4 PUSH2 0x2DF7 JUMP JUMPDEST PUSH2 0xFCE JUMP JUMPDEST CALLVALUE DUP1 ISZERO PUSH2 0x3D9 JUMPI PUSH1 0x0 DUP1 REVERT JUMPDEST POP PUSH2 0x296 PUSH2 0x3E8 CALLDATASIZE PUSH1 0x4 PUSH2 0x2DF7 JUMP JUMPDEST PUSH2 0xFF8 JUMP JUMPDEST CALLVALUE DUP1 ISZERO PUSH2 0x3F9 JUMPI PUSH1 0x0 DUP1 REVERT JUMPDEST POP PUSH2 0x2E0 PUSH2 0x408 CALLDATASIZE PUSH1 0x4 PUSH2 0x2DDE JUMP JUMPDEST PUSH2 0x1084 JUMP JUMPDEST CALLVALUE DUP1 ISZERO PUSH2 0x419 JUMPI PUSH1 0x0 DUP1 REVERT JUMPDEST POP PUSH2 0x2AD PUSH2 0x428 CALLDATASIZE PUSH1 0x4 PUSH2 0x2D5B JUMP JUMPDEST PUSH2 0x11DA JUMP JUMPDEST PUSH2 0x2E0 PUSH2 0x43B CALLDATASIZE PUSH1 0x4 PUSH2 0x2E23 JUMP JUMPDEST PUSH2 0x1345 JUMP JUMPDEST CALLVALUE DUP1 ISZERO PUSH2 0x44C JUMPI PUSH1 0x0 DUP1 REVERT JUMPDEST POP PUSH2 0x2E0 PUSH2 0x45B CALLDATASIZE PUSH1 0x4 PUSH2 0x2E4D JUMP JUMPDEST PUSH2 0x1991 JUMP JUMPDEST CALLVALUE DUP1 ISZERO PUSH2 0x46C JUMPI PUSH1 0x0 DUP1 REVERT JUMPDEST POP PUSH2 0x2E0 PUSH2 0x47B CALLDATASIZE PUSH1 0x4 PUSH2 0x2E77 JUMP JUMPDEST PUSH2 0x1B12 JUMP JUMPDEST CALLVALUE DUP1 ISZERO PUSH2 0x48C JUMPI PUSH1 0x0 DUP1 REVERT JUMPDEST POP PUSH2 0x2E0 PUSH2 0x49B CALLDATASIZE PUSH1 0x4 PUSH2 0x2D5B JUMP JUMPDEST PUSH2 0x1C02 JUMP JUMPDEST CALLVALUE DUP1 ISZERO PUSH2 0x4AC JUMPI PUSH1 0x0 DUP1 REVERT JUMPDEST POP PUSH2 0x296 PUSH2 0x4BB CALLDATASIZE PUSH1 0x4 PUSH2 0x2D5B JUMP JUMPDEST PUSH2 0x1D3A JUMP JUMPDEST CALLVALUE DUP1 ISZERO PUSH2 0x4CC JUMPI PUSH1 0x0 DUP1 REVERT JUMPDEST POP PUSH1 0xB SLOAD PUSH1 0xFF AND PUSH2 0x36B JUMP JUMPDEST CALLVALUE DUP1 ISZERO PUSH2 0x4E4 JUMPI PUSH1 0x0 DUP1 REVERT JUMPDEST POP PUSH2 0x2E0 PUSH2 0x4F3 CALLDATASIZE PUSH1 0x4 PUSH2 0x2D87 JUMP JUMPDEST PUSH2 0x1DF8 JUMP JUMPDEST CALLVALUE DUP1 ISZERO PUSH2 0x504 JUMPI PUSH1 0x0 DUP1 REVERT JUMPDEST POP PUSH2 0x2AD PUSH2 0x513 CALLDATASIZE PUSH1 0x4 PUSH2 0x2E4D JUMP JUMPDEST PUSH2 0x1E3F JUMP JUMPDEST CALLVALUE DUP1 ISZERO PUSH2 0x524 JUMPI PUSH1 0x0 DUP1 REVERT JUMPDEST POP PUSH1 0x2 SLOAD PUSH2 0x2AD JUMP JUMPDEST CALLVALUE DUP1 ISZERO PUSH2 0x539 JUMPI PUSH1 0x0 DUP1 REVERT JUMPDEST POP PUSH2 0x54D PUSH2 0x548 CALLDATASIZE PUSH1 0x4 PUSH2 0x2E23 JUMP JUMPDEST PUSH2 0x1FB7 JUMP JUMPDEST PUSH1 0x40 DUP1 MLOAD SWAP3 DUP4 MSTORE PUSH1 0x20 DUP4 ADD SWAP2 SWAP1 SWAP2 MSTORE ADD PUSH2 0x2B7 JUMP JUMPDEST CALLVALUE DUP1 ISZERO PUSH2 0x56E JUMPI PUSH1 0x0 DUP1 REVERT JUMPDEST POP PUSH2 0x2AD PUSH2 0x57D CALLDATASIZE PUSH1 0x4 PUSH2 0x2DA2 JUMP JUMPDEST PUSH2 0x2016 JUMP JUMPDEST CALLVALUE DUP1 ISZERO PUSH2 0x58E JUMPI PUSH1 0x0 DUP1 REVERT JUMPDEST POP PUSH1 0x1 SLOAD PUSH2 0x5A2 SWAP1 PUSH1 0x1 PUSH1 0x1 PUSH1 0xA0 SHL SUB AND DUP2 JUMP JUMPDEST PUSH1 0x40 MLOAD PUSH1 0x1 PUSH1 0x1 PUSH1 0xA0 SHL SUB SWAP1 SWAP2 AND DUP2 MSTORE PUSH1 0x20 ADD PUSH2 0x2B7 JUMP JUMPDEST CALLVALUE DUP1 ISZERO PUSH2 0x5C6 JUMPI PUSH1 0x0 DUP1 REVERT JUMPDEST POP PUSH2 0x2E0 PUSH2 0x5D5 CALLDATASIZE PUSH1 0x4 PUSH2 0x2DF7 JUMP JUMPDEST PUSH1 0x0 SWAP2 DUP3 MSTORE PUSH1 0x20 DUP3 DUP2 MSTORE PUSH1 0x40 DUP1 DUP5 KECCAK256 PUSH1 0x1 PUSH1 0x1 PUSH1 0xA0 SHL SUB SWAP4 SWAP1 SWAP4 AND DUP5 MSTORE SWAP2 SWAP1 MSTORE SWAP1 KECCAK256 SLOAD PUSH1 0xFF AND SWAP1 JUMP JUMPDEST CALLVALUE DUP1 ISZERO PUSH2 0x60A JUMPI PUSH1 0x0 DUP1 REVERT JUMPDEST POP PUSH1 0x9 SLOAD PUSH2 0x2AD JUMP JUMPDEST CALLVALUE DUP1 ISZERO PUSH2 0x61F JUMPI PUSH1 0x0 DUP1 REVERT JUMPDEST POP PUSH1 0x3 SLOAD PUSH2 0x2AD JUMP JUMPDEST CALLVALUE DUP1 ISZERO PUSH2 0x634 JUMPI PUSH1 0x0 DUP1 REVERT JUMPDEST POP PUSH2 0x2AD PUSH2 0x643 CALLDATASIZE PUSH1 0x4 PUSH2 0x2E4D JUMP JUMPDEST PUSH2 0x21ED JUMP JUMPDEST CALLVALUE DUP1 ISZERO PUSH2 0x654 JUMPI PUSH1 0x0 DUP1 REVERT JUMPDEST POP PUSH2 0x2AD PUSH1 0x0 DUP2 JUMP JUMPDEST CALLVALUE DUP1 ISZERO PUSH2 0x669 JUMPI PUSH1 0x0 DUP1 REVERT JUMPDEST POP PUSH2 0x2E0 PUSH2 0x678 CALLDATASIZE PUSH1 0x4 PUSH2 0x2D5B JUMP JUMPDEST PUSH2 0x22A3 JUMP JUMPDEST CALLVALUE DUP1 ISZERO PUSH2 0x689 JUMPI PUSH1 0x0 DUP1 REVERT JUMPDEST POP PUSH2 0x2AD PUSH2 0x2334 JUMP JUMPDEST CALLVALUE DUP1 ISZERO PUSH2 0x69E JUMPI PUSH1 0x0 DUP1 REVERT JUMPDEST POP PUSH2 0x2AD PUSH2 0x6AD CALLDATASIZE PUSH1 0x4 PUSH2 0x2E4D JUMP JUMPDEST PUSH2 0x2395 JUMP JUMPDEST CALLVALUE DUP1 ISZERO PUSH2 0x6BE JUMPI PUSH1 0x0 DUP1 REVERT JUMPDEST POP PUSH1 0xA SLOAD PUSH2 0x2AD JUMP JUMPDEST CALLVALUE DUP1 ISZERO PUSH2 0x6D3 JUMPI PUSH1 0x0 DUP1 REVERT JUMPDEST POP PUSH2 0x2AD PUSH2 0x6E2 CALLDATASIZE PUSH1 0x4 PUSH2 0x2E4D JUMP JUMPDEST PUSH2 0x244B JUMP JUMPDEST CALLVALUE DUP1 ISZERO PUSH2 0x6F3 JUMPI PUSH1 0x0 DUP1 REVERT JUMPDEST POP PUSH1 0x6 SLOAD PUSH1 0x1 PUSH1 0x1 PUSH1 0xA0 SHL SUB AND PUSH2 0x5A2 JUMP JUMPDEST CALLVALUE DUP1 ISZERO PUSH2 0x711 JUMPI PUSH1 0x0 DUP1 REVERT JUMPDEST POP PUSH1 0x7 SLOAD PUSH2 0x2AD JUMP JUMPDEST CALLVALUE DUP1 ISZERO PUSH2 0x726 JUMPI PUSH1 0x0 DUP1 REVERT JUMPDEST POP PUSH1 0x4 SLOAD PUSH2 0x2AD JUMP JUMPDEST CALLVALUE DUP1 ISZERO PUSH2 0x73B JUMPI PUSH1 0x0 DUP1 REVERT JUMPDEST POP PUSH2 0x296 PUSH2 0x74A CALLDATASIZE PUSH1 0x4 PUSH2 0x2DF7 JUMP JUMPDEST PUSH2 0x24FE JUMP JUMPDEST CALLVALUE DUP1 ISZERO PUSH2 0x75B JUMPI PUSH1 0x0 DUP1 REVERT JUMPDEST POP PUSH2 0x76F PUSH2 0x76A CALLDATASIZE PUSH1 0x4 PUSH2 0x2E23 JUMP JUMPDEST PUSH2 0x2523 JUMP JUMPDEST PUSH1 0x40 DUP1 MLOAD SWAP4 DUP5 MSTORE PUSH1 0x20 DUP5 ADD SWAP3 SWAP1 SWAP3 MSTORE SWAP1 DUP3 ADD MSTORE PUSH1 0x60 ADD PUSH2 0x2B7 JUMP JUMPDEST CALLVALUE DUP1 ISZERO PUSH2 0x796 JUMPI PUSH1 0x0 DUP1 REVERT JUMPDEST POP PUSH2 0x2E0 PUSH2 0x7A5 CALLDATASIZE PUSH1 0x4 PUSH2 0x2D5B JUMP JUMPDEST PUSH2 0x2611 JUMP JUMPDEST CALLVALUE DUP1 ISZERO PUSH2 0x7B6 JUMPI PUSH1 0x0 DUP1 REVERT JUMPDEST POP PUSH1 0x8 SLOAD PUSH1 0xFF AND PUSH2 0x36B JUMP JUMPDEST PUSH1 0x1 SLOAD PUSH1 0x0 SWAP1 CALLER SWAP1 PUSH1 0x1 PUSH1 0x1 PUSH1 0xA0 SHL SUB AND DUP2 EQ PUSH2 0x826 JUMPI PUSH1 0x40 MLOAD PUSH3 0x461BCD PUSH1 0xE5 SHL DUP2 MSTORE PUSH1 0x20 PUSH1 0x4 DUP3 ADD MSTORE PUSH1 0x1F PUSH1 0x24 DUP3 ADD MSTORE PUSH32 0x596F7520617265206E6F74206F776E6572206F6620636F6E7472616374202100 PUSH1 0x44 DUP3 ADD MSTORE PUSH1 0x64 ADD JUMPDEST PUSH1 0x40 MLOAD DUP1 SWAP2 SUB SWAP1 REVERT JUMPDEST POP POP PUSH1 0xC SLOAD SWAP1 JUMP JUMPDEST PUSH1 0x0 PUSH32 0xFFFFFFFF00000000000000000000000000000000000000000000000000000000 DUP3 AND PUSH32 0x7965DB0B00000000000000000000000000000000000000000000000000000000 EQ DUP1 PUSH2 0x8C1 JUMPI POP PUSH32 0x1FFC9A700000000000000000000000000000000000000000000000000000000 PUSH32 0xFFFFFFFF00000000000000000000000000000000000000000000000000000000 DUP4 AND EQ JUMPDEST SWAP3 SWAP2 POP POP JUMP JUMPDEST PUSH1 0x5 SLOAD PUSH1 0x0 SWAP1 PUSH1 0x1 PUSH1 0x1 PUSH1 0xA0 SHL SUB SWAP1 DUP2 AND SWAP1 DUP4 AND SUB PUSH2 0x928 JUMPI PUSH1 0x40 MLOAD PUSH3 0x461BCD PUSH1 0xE5 SHL DUP2 MSTORE PUSH1 0x20 PUSH1 0x4 DUP3 ADD MSTORE PUSH1 0x15 PUSH1 0x24 DUP3 ADD MSTORE PUSH32 0x57726F6E6720746F6B656E206164647265737320210000000000000000000000 PUSH1 0x44 DUP3 ADD MSTORE PUSH1 0x64 ADD PUSH2 0x81D JUMP JUMPDEST ADDRESS PUSH1 0x1 PUSH1 0x1 PUSH1 0xA0 SHL SUB DUP4 AND SUB PUSH2 0x9CB JUMPI PUSH1 0x6 SLOAD PUSH1 0x40 DUP1 MLOAD PUSH4 0x3FABE5A3 PUSH1 0xE2 SHL DUP2 MSTORE SWAP1 MLOAD PUSH1 0x0 SWAP3 PUSH1 0x1 PUSH1 0x1 PUSH1 0xA0 SHL SUB AND SWAP2 PUSH4 0xFEAF968C SWAP2 PUSH1 0x4 DUP1 DUP4 ADD SWAP3 PUSH1 0xA0 SWAP3 SWAP2 SWAP1 DUP3 SWAP1 SUB ADD DUP2 DUP7 GAS STATICCALL ISZERO DUP1 ISZERO PUSH2 0x982 JUMPI RETURNDATASIZE PUSH1 0x0 DUP1 RETURNDATACOPY RETURNDATASIZE PUSH1 0x0 REVERT JUMPDEST POP POP POP POP PUSH1 0x40 MLOAD RETURNDATASIZE PUSH1 0x1F NOT PUSH1 0x1F DUP3 ADD AND DUP3 ADD DUP1 PUSH1 0x40 MSTORE POP DUP2 ADD SWAP1 PUSH2 0x9A6 SWAP2 SWAP1 PUSH2 0x2F0C JUMP JUMPDEST POP POP POP SWAP2 POP POP PUSH2 0x9C4 PUSH5 0x2540BE400 DUP3 PUSH2 0x2942 SWAP1 SWAP2 SWAP1 PUSH4 0xFFFFFFFF AND JUMP JUMPDEST SWAP4 SWAP3 POP POP POP JUMP JUMPDEST PUSH1 0x1 PUSH1 0x1 PUSH1 0xA0 SHL SUB DUP1 DUP4 AND PUSH1 0x0 SWAP1 DUP2 MSTORE PUSH1 0xE PUSH1 0x20 MSTORE PUSH1 0x40 DUP1 DUP3 KECCAK256 PUSH1 0x2 ADD SLOAD DUP2 MLOAD PUSH4 0x3FABE5A3 PUSH1 0xE2 SHL DUP2 MSTORE SWAP2 MLOAD SWAP3 SWAP4 AND SWAP2 PUSH4 0xFEAF968C SWAP2 PUSH1 0x4 DUP1 DUP3 ADD SWAP3 PUSH1 0xA0 SWAP3 SWAP1 SWAP2 SWAP1 DUP3 SWAP1 SUB ADD DUP2 DUP7 GAS STATICCALL ISZERO DUP1 ISZERO PUSH2 0x982 JUMPI RETURNDATASIZE PUSH1 0x0 DUP1 RETURNDATACOPY RETURNDATASIZE PUSH1 0x0 REVERT JUMPDEST PUSH1 0x0 PUSH32 0x69CD0C85288BCFFBE883A45101C678F53F42E27BEBEA35A677CC62DA9FA7F391 PUSH2 0xA52 DUP2 PUSH2 0x294E JUMP JUMPDEST PUSH1 0xB DUP1 SLOAD PUSH1 0xFF NOT AND PUSH1 0xFF DUP6 AND OR SWAP1 SSTORE PUSH1 0x1 SWAP2 POP JUMPDEST POP SWAP2 SWAP1 POP JUMP JUMPDEST PUSH1 0x0 DUP3 PUSH1 0x1 PUSH1 0x1 PUSH1 0xA0 SHL SUB DUP2 AND ADDRESS EQ DUP1 PUSH2 0xAA0 JUMPI POP PUSH1 0x1 PUSH1 0x1 PUSH1 0xA0 SHL SUB DUP1 DUP3 AND PUSH1 0x0 DUP2 DUP2 MSTORE PUSH1 0xE PUSH1 0x20 MSTORE PUSH1 0x40 SWAP1 KECCAK256 SLOAD SWAP1 SWAP2 AND EQ JUMPDEST DUP1 PUSH2 0xAB8 JUMPI POP PUSH1 0x5 SLOAD PUSH1 0x1 PUSH1 0x1 PUSH1 0xA0 SHL SUB DUP3 DUP2 AND SWAP2 AND EQ JUMPDEST PUSH2 0xAF2 JUMPI PUSH1 0x40 MLOAD PUSH3 0x461BCD PUSH1 0xE5 SHL DUP2 MSTORE PUSH1 0x20 PUSH1 0x4 DUP3 ADD MSTORE PUSH1 0x1F PUSH1 0x24 DUP3 ADD MSTORE PUSH1 0x0 DUP1 MLOAD PUSH1 0x20 PUSH2 0x318B DUP4 CODECOPY DUP2 MLOAD SWAP2 MSTORE PUSH1 0x44 DUP3 ADD MSTORE PUSH1 0x64 ADD PUSH2 0x81D JUMP JUMPDEST PUSH1 0x1 PUSH1 0x1 PUSH1 0xA0 SHL SUB DUP1 DUP7 AND PUSH1 0x0 SWAP1 DUP2 MSTORE PUSH1 0xD PUSH1 0x20 SWAP1 DUP2 MSTORE PUSH1 0x40 DUP1 DUP4 KECCAK256 SWAP4 DUP9 AND DUP4 MSTORE SWAP3 SWAP1 MSTORE KECCAK256 PUSH1 0x1 ADD SLOAD DUP4 GT ISZERO PUSH2 0xBB6 JUMPI PUSH1 0x40 MLOAD PUSH3 0x461BCD PUSH1 0xE5 SHL DUP2 MSTORE PUSH1 0x20 PUSH1 0x4 DUP3 ADD MSTORE PUSH1 0x42 PUSH1 0x24 DUP3 ADD MSTORE PUSH32 0x54686520696E70757420616D6F756E742069732067726561746572207468616E PUSH1 0x44 DUP3 ADD MSTORE PUSH32 0x2074686520626F72726F77656420616D6F756E7420666F722074686973206C6F PUSH1 0x64 DUP3 ADD MSTORE PUSH32 0x616E000000000000000000000000000000000000000000000000000000000000 PUSH1 0x84 DUP3 ADD MSTORE PUSH1 0xA4 ADD PUSH2 0x81D JUMP JUMPDEST PUSH1 0x5 SLOAD PUSH1 0x40 MLOAD PUSH4 0x70A08231 PUSH1 0xE0 SHL DUP2 MSTORE CALLER PUSH1 0x4 DUP3 ADD MSTORE PUSH1 0x1 PUSH1 0x1 PUSH1 0xA0 SHL SUB SWAP1 SWAP2 AND SWAP1 PUSH4 0x70A08231 SWAP1 PUSH1 0x24 ADD PUSH1 0x20 PUSH1 0x40 MLOAD DUP1 DUP4 SUB DUP2 DUP7 GAS STATICCALL ISZERO DUP1 ISZERO PUSH2 0xBFE JUMPI RETURNDATASIZE PUSH1 0x0 DUP1 RETURNDATACOPY RETURNDATASIZE PUSH1 0x0 REVERT JUMPDEST POP POP POP POP PUSH1 0x40 MLOAD RETURNDATASIZE PUSH1 0x1F NOT PUSH1 0x1F DUP3 ADD AND DUP3 ADD DUP1 PUSH1 0x40 MSTORE POP DUP2 ADD SWAP1 PUSH2 0xC22 SWAP2 SWAP1 PUSH2 0x2F5C JUMP JUMPDEST DUP4 GT ISZERO PUSH2 0xC71 JUMPI PUSH1 0x40 MLOAD PUSH3 0x461BCD PUSH1 0xE5 SHL DUP2 MSTORE PUSH1 0x20 PUSH1 0x4 DUP3 ADD MSTORE PUSH1 0x16 PUSH1 0x24 DUP3 ADD MSTORE PUSH32 0x496E73756666696369656E742042616C616E6365202100000000000000000000 PUSH1 0x44 DUP3 ADD MSTORE PUSH1 0x64 ADD PUSH2 0x81D JUMP JUMPDEST PUSH1 0x0 PUSH2 0xC7E DUP7 DUP7 DUP7 PUSH2 0x2016 JUMP JUMPDEST SWAP1 POP ADDRESS PUSH1 0x1 PUSH1 0x1 PUSH1 0xA0 SHL SUB DUP7 AND SUB PUSH2 0xD40 JUMPI DUP1 PUSH2 0xC9A ADDRESS PUSH2 0x11DA JUMP JUMPDEST GT PUSH2 0xD0D JUMPI PUSH1 0x40 MLOAD PUSH3 0x461BCD PUSH1 0xE5 SHL DUP2 MSTORE PUSH1 0x20 PUSH1 0x4 DUP3 ADD MSTORE PUSH1 0x26 PUSH1 0x24 DUP3 ADD MSTORE PUSH32 0x496E73756666696369656E7420424E422062616C616E636520696E20636F6E74 PUSH1 0x44 DUP3 ADD MSTORE PUSH32 0x7261637420210000000000000000000000000000000000000000000000000000 PUSH1 0x64 DUP3 ADD MSTORE PUSH1 0x84 ADD PUSH2 0x81D JUMP JUMPDEST PUSH1 0x40 MLOAD CALLER SWAP1 DUP3 ISZERO PUSH2 0x8FC MUL SWAP1 DUP4 SWAP1 PUSH1 0x0 DUP2 DUP2 DUP2 DUP6 DUP9 DUP9 CALL SWAP4 POP POP POP POP ISZERO DUP1 ISZERO PUSH2 0xD3A JUMPI RETURNDATASIZE PUSH1 0x0 DUP1 RETURNDATACOPY RETURNDATASIZE PUSH1 0x0 REVERT JUMPDEST POP PUSH2 0xDC9 JUMP JUMPDEST PUSH1 0x1 PUSH1 0x1 PUSH1 0xA0 SHL SUB DUP6 DUP2 AND PUSH1 0x0 SWAP1 DUP2 MSTORE PUSH1 0xE PUSH1 0x20 MSTORE PUSH1 0x40 SWAP1 DUP2 SWAP1 KECCAK256 PUSH1 0x1 ADD SLOAD SWAP1 MLOAD PUSH4 0xA9059CBB PUSH1 0xE0 SHL DUP2 MSTORE CALLER PUSH1 0x4 DUP3 ADD MSTORE PUSH1 0x24 DUP2 ADD DUP5 SWAP1 MSTORE SWAP2 AND SWAP1 PUSH4 0xA9059CBB SWAP1 PUSH1 0x44 ADD PUSH1 0x20 PUSH1 0x40 MLOAD DUP1 DUP4 SUB DUP2 PUSH1 0x0 DUP8 GAS CALL ISZERO DUP1 ISZERO PUSH2 0xDA3 JUMPI RETURNDATASIZE PUSH1 0x0 DUP1 RETURNDATACOPY RETURNDATASIZE PUSH1 0x0 REVERT JUMPDEST POP POP POP POP PUSH1 0x40 MLOAD RETURNDATASIZE PUSH1 0x1F NOT PUSH1 0x1F DUP3 ADD AND DUP3 ADD DUP1 PUSH1 0x40 MSTORE POP DUP2 ADD SWAP1 PUSH2 0xDC7 SWAP2 SWAP1 PUSH2 0x2F75 JUMP JUMPDEST POP JUMPDEST PUSH1 0x5 SLOAD PUSH1 0x40 MLOAD PUSH4 0x23B872DD PUSH1 0xE0 SHL DUP2 MSTORE CALLER PUSH1 0x4 DUP3 ADD MSTORE ADDRESS PUSH1 0x24 DUP3 ADD MSTORE PUSH1 0x44 DUP2 ADD DUP7 SWAP1 MSTORE PUSH1 0x1 PUSH1 0x1 PUSH1 0xA0 SHL SUB SWAP1 SWAP2 AND SWAP1 PUSH4 0x23B872DD SWAP1 PUSH1 0x64 ADD PUSH1 0x20 PUSH1 0x40 MLOAD DUP1 DUP4 SUB DUP2 PUSH1 0x0 DUP8 GAS CALL ISZERO DUP1 ISZERO PUSH2 0xE20 JUMPI RETURNDATASIZE PUSH1 0x0 DUP1 RETURNDATACOPY RETURNDATASIZE PUSH1 0x0 REVERT JUMPDEST POP POP POP POP PUSH1 0x40 MLOAD RETURNDATASIZE PUSH1 0x1F NOT PUSH1 0x1F DUP3 ADD AND DUP3 ADD DUP1 PUSH1 0x40 MSTORE POP DUP2 ADD SWAP1 PUSH2 0xE44 SWAP2 SWAP1 PUSH2 0x2F75 JUMP JUMPDEST POP CALLER PUSH1 0x0 SWAP1 DUP2 MSTORE PUSH1 0xD PUSH1 0x20 SWAP1 DUP2 MSTORE PUSH1 0x40 DUP1 DUP4 KECCAK256 PUSH1 0x1 PUSH1 0x1 PUSH1 0xA0 SHL SUB DUP10 AND DUP5 MSTORE DUP3 MSTORE SWAP2 DUP3 SWAP1 KECCAK256 DUP3 MLOAD PUSH1 0x60 DUP2 ADD DUP5 MSTORE DUP2 SLOAD DUP2 MSTORE PUSH1 0x1 DUP3 ADD SLOAD SWAP3 DUP2 ADD DUP4 DUP2 MSTORE PUSH1 0x2 SWAP1 SWAP3 ADD SLOAD SWAP4 DUP2 ADD SWAP4 SWAP1 SWAP4 MSTORE DUP7 SWAP2 PUSH2 0xE9A SWAP1 DUP4 SWAP1 PUSH2 0x2FAD JUMP JUMPDEST SWAP1 MSTORE POP DUP1 MLOAD DUP3 SWAP1 DUP3 SWAP1 PUSH2 0xEAE SWAP1 DUP4 SWAP1 PUSH2 0x2FAD JUMP JUMPDEST SWAP1 MSTORE POP PUSH1 0xB SLOAD PUSH2 0xEC2 SWAP1 TIMESTAMP SWAP1 PUSH1 0xFF AND PUSH2 0x295B JUMP JUMPDEST PUSH1 0x40 DUP1 DUP4 ADD SWAP2 DUP3 MSTORE CALLER PUSH1 0x0 SWAP1 DUP2 MSTORE PUSH1 0xD PUSH1 0x20 SWAP1 DUP2 MSTORE DUP3 DUP3 KECCAK256 PUSH1 0x1 PUSH1 0x1 PUSH1 0xA0 SHL SUB DUP12 AND DUP4 MSTORE DUP2 MSTORE SWAP2 SWAP1 KECCAK256 DUP4 MLOAD DUP2 SSTORE SWAP1 DUP4 ADD MLOAD PUSH1 0x1 DUP3 ADD DUP2 SWAP1 SSTORE SWAP2 MLOAD PUSH1 0x2 SWAP1 SWAP2 ADD SSTORE ISZERO DUP1 ISZERO PUSH2 0xF0E JUMPI POP DUP1 MLOAD ISZERO JUMPDEST ISZERO PUSH2 0xF49 JUMPI PUSH1 0x1 PUSH1 0x1 PUSH1 0xA0 SHL SUB DUP1 DUP9 AND PUSH1 0x0 SWAP1 DUP2 MSTORE PUSH1 0xD PUSH1 0x20 SWAP1 DUP2 MSTORE PUSH1 0x40 DUP1 DUP4 KECCAK256 SWAP4 DUP11 AND DUP4 MSTORE SWAP3 SWAP1 MSTORE SWAP1 DUP2 KECCAK256 DUP2 DUP2 SSTORE PUSH1 0x1 DUP2 ADD DUP3 SWAP1 SSTORE PUSH1 0x2 ADD SSTORE JUMPDEST DUP5 PUSH1 0x4 PUSH1 0x0 DUP3 DUP3 SLOAD PUSH2 0xF5B SWAP2 SWAP1 PUSH2 0x2FAD JUMP JUMPDEST SWAP1 SWAP2 SSTORE POP PUSH2 0xF74 SWAP1 POP PUSH2 0xF6D DUP8 PUSH2 0x8C7 JUMP JUMPDEST DUP4 SWAP1 PUSH2 0x2942 JUMP JUMPDEST PUSH1 0x3 PUSH1 0x0 DUP3 DUP3 SLOAD PUSH2 0xF85 SWAP2 SWAP1 PUSH2 0x2FAD JUMP JUMPDEST SWAP1 SWAP2 SSTORE POP POP PUSH1 0x40 MLOAD DUP6 DUP2 MSTORE ADDRESS SWAP1 CALLER SWAP1 PUSH32 0xA3FBBEA70E93F2DAAFA3102F5C9A1B8315E6D7A1E43E4BC020BC1162327470A SWAP1 PUSH1 0x20 ADD PUSH1 0x40 MLOAD DUP1 SWAP2 SUB SWAP1 LOG3 POP PUSH1 0x1 SWAP7 SWAP6 POP POP POP POP POP POP JUMP JUMPDEST PUSH1 0x0 DUP3 DUP2 MSTORE PUSH1 0x20 DUP2 SWAP1 MSTORE PUSH1 0x40 SWAP1 KECCAK256 PUSH1 0x1 ADD SLOAD PUSH2 0xFE9 DUP2 PUSH2 0x294E JUMP JUMPDEST PUSH2 0xFF3 DUP4 DUP4 PUSH2 0x2967 JUMP JUMPDEST POP POP POP JUMP JUMPDEST PUSH1 0x1 PUSH1 0x1 PUSH1 0xA0 SHL SUB DUP2 AND CALLER EQ PUSH2 0x1076 JUMPI PUSH1 0x40 MLOAD PUSH3 0x461BCD PUSH1 0xE5 SHL DUP2 MSTORE PUSH1 0x20 PUSH1 0x4 DUP3 ADD MSTORE PUSH1 0x2F PUSH1 0x24 DUP3 ADD MSTORE PUSH32 0x416363657373436F6E74726F6C3A2063616E206F6E6C792072656E6F756E6365 PUSH1 0x44 DUP3 ADD MSTORE PUSH32 0x20726F6C657320666F722073656C660000000000000000000000000000000000 PUSH1 0x64 DUP3 ADD MSTORE PUSH1 0x84 ADD PUSH2 0x81D JUMP JUMPDEST PUSH2 0x1080 DUP3 DUP3 PUSH2 0x2A05 JUMP JUMPDEST POP POP JUMP JUMPDEST PUSH1 0x1 SLOAD PUSH1 0x0 SWAP1 CALLER SWAP1 PUSH1 0x1 PUSH1 0x1 PUSH1 0xA0 SHL SUB AND DUP2 EQ PUSH2 0x10E3 JUMPI PUSH1 0x40 MLOAD PUSH3 0x461BCD PUSH1 0xE5 SHL DUP2 MSTORE PUSH1 0x20 PUSH1 0x4 DUP3 ADD MSTORE PUSH1 0x1F PUSH1 0x24 DUP3 ADD MSTORE PUSH32 0x596F7520617265206E6F74206F776E6572206F6620636F6E7472616374202100 PUSH1 0x44 DUP3 ADD MSTORE PUSH1 0x64 ADD PUSH2 0x81D JUMP JUMPDEST PUSH1 0xC SLOAD ISZERO DUP1 ISZERO SWAP1 PUSH2 0x10F6 JUMPI POP PUSH1 0xC SLOAD DUP4 GT ISZERO JUMPDEST PUSH2 0x1142 JUMPI PUSH1 0x40 MLOAD PUSH3 0x461BCD PUSH1 0xE5 SHL DUP2 MSTORE PUSH1 0x20 PUSH1 0x4 DUP3 ADD MSTORE PUSH1 0x16 PUSH1 0x24 DUP3 ADD MSTORE PUSH32 0x496E73756666696369656E7420696E76656E746F727900000000000000000000 PUSH1 0x44 DUP3 ADD MSTORE PUSH1 0x64 ADD PUSH2 0x81D JUMP JUMPDEST PUSH1 0x5 SLOAD PUSH1 0x40 MLOAD PUSH4 0xA9059CBB PUSH1 0xE0 SHL DUP2 MSTORE CALLER PUSH1 0x4 DUP3 ADD MSTORE PUSH1 0x24 DUP2 ADD DUP6 SWAP1 MSTORE PUSH1 0x1 PUSH1 0x1 PUSH1 0xA0 SHL SUB SWAP1 SWAP2 AND SWAP1 PUSH4 0xA9059CBB SWAP1 PUSH1 0x44 ADD PUSH1 0x20 PUSH1 0x40 MLOAD DUP1 DUP4 SUB DUP2 PUSH1 0x0 DUP8 GAS CALL ISZERO DUP1 ISZERO PUSH2 0x1193 JUMPI RETURNDATASIZE PUSH1 0x0 DUP1 RETURNDATACOPY RETURNDATASIZE PUSH1 0x0 REVERT JUMPDEST POP POP POP POP PUSH1 0x40 MLOAD RETURNDATASIZE PUSH1 0x1F NOT PUSH1 0x1F DUP3 ADD AND DUP3 ADD DUP1 PUSH1 0x40 MSTORE POP DUP2 ADD SWAP1 PUSH2 0x11B7 SWAP2 SWAP1 PUSH2 0x2F75 JUMP JUMPDEST POP DUP3 PUSH1 0x6 DUP1 ADD PUSH1 0x0 DUP3 DUP3 SLOAD PUSH2 0x11CC SWAP2 SWAP1 PUSH2 0x2FAD JUMP JUMPDEST SWAP1 SWAP2 SSTORE POP PUSH1 0x1 SWAP5 SWAP4 POP POP POP POP JUMP JUMPDEST PUSH1 0x0 DUP2 PUSH1 0x1 PUSH1 0x1 PUSH1 0xA0 SHL SUB DUP2 AND ADDRESS EQ DUP1 PUSH2 0x120E JUMPI POP PUSH1 0x1 PUSH1 0x1 PUSH1 0xA0 SHL SUB DUP1 DUP3 AND PUSH1 0x0 DUP2 DUP2 MSTORE PUSH1 0xE PUSH1 0x20 MSTORE PUSH1 0x40 SWAP1 KECCAK256 SLOAD SWAP1 SWAP2 AND EQ JUMPDEST DUP1 PUSH2 0x1226 JUMPI POP PUSH1 0x5 SLOAD PUSH1 0x1 PUSH1 0x1 PUSH1 0xA0 SHL SUB DUP3 DUP2 AND SWAP2 AND EQ JUMPDEST PUSH2 0x1260 JUMPI PUSH1 0x40 MLOAD PUSH3 0x461BCD PUSH1 0xE5 SHL DUP2 MSTORE PUSH1 0x20 PUSH1 0x4 DUP3 ADD MSTORE PUSH1 0x1F PUSH1 0x24 DUP3 ADD MSTORE PUSH1 0x0 DUP1 MLOAD PUSH1 0x20 PUSH2 0x318B DUP4 CODECOPY DUP2 MLOAD SWAP2 MSTORE PUSH1 0x44 DUP3 ADD MSTORE PUSH1 0x64 ADD PUSH2 0x81D JUMP JUMPDEST ADDRESS PUSH1 0x1 PUSH1 0x1 PUSH1 0xA0 SHL SUB DUP5 AND SUB PUSH2 0x1279 JUMPI ADDRESS BALANCE SWAP2 POP PUSH2 0xA66 JUMP JUMPDEST PUSH1 0x5 SLOAD PUSH1 0x1 PUSH1 0x1 PUSH1 0xA0 SHL SUB SWAP1 DUP2 AND SWAP1 DUP5 AND SUB PUSH2 0x1303 JUMPI PUSH1 0x5 SLOAD PUSH1 0x40 MLOAD PUSH4 0x70A08231 PUSH1 0xE0 SHL DUP2 MSTORE ADDRESS PUSH1 0x4 DUP3 ADD MSTORE PUSH1 0x1 PUSH1 0x1 PUSH1 0xA0 SHL SUB SWAP1 SWAP2 AND SWAP1 PUSH4 0x70A08231 SWAP1 PUSH1 0x24 ADD JUMPDEST PUSH1 0x20 PUSH1 0x40 MLOAD DUP1 DUP4 SUB DUP2 DUP7 GAS STATICCALL ISZERO DUP1 ISZERO PUSH2 0x12D8 JUMPI RETURNDATASIZE PUSH1 0x0 DUP1 RETURNDATACOPY RETURNDATASIZE PUSH1 0x0 REVERT JUMPDEST POP POP POP POP PUSH1 0x40 MLOAD RETURNDATASIZE PUSH1 0x1F NOT PUSH1 0x1F DUP3 ADD AND DUP3 ADD DUP1 PUSH1 0x40 MSTORE POP DUP2 ADD SWAP1 PUSH2 0x12FC SWAP2 SWAP1 PUSH2 0x2F5C JUMP JUMPDEST SWAP2 POP PUSH2 0xA66 JUMP JUMPDEST PUSH1 0x1 PUSH1 0x1 PUSH1 0xA0 SHL SUB DUP4 DUP2 AND PUSH1 0x0 SWAP1 DUP2 MSTORE PUSH1 0xE PUSH1 0x20 MSTORE PUSH1 0x40 SWAP1 DUP2 SWAP1 KECCAK256 PUSH1 0x1 ADD SLOAD SWAP1 MLOAD PUSH4 0x70A08231 PUSH1 0xE0 SHL DUP2 MSTORE ADDRESS PUSH1 0x4 DUP3 ADD MSTORE SWAP2 AND SWAP1 PUSH4 0x70A08231 SWAP1 PUSH1 0x24 ADD PUSH2 0x12BB JUMP JUMPDEST PUSH1 0x0 DUP3 PUSH1 0x1 PUSH1 0x1 PUSH1 0xA0 SHL SUB DUP2 AND ADDRESS EQ DUP1 PUSH2 0x1379 JUMPI POP PUSH1 0x1 PUSH1 0x1 PUSH1 0xA0 SHL SUB DUP1 DUP3 AND PUSH1 0x0 DUP2 DUP2 MSTORE PUSH1 0xE PUSH1 0x20 MSTORE PUSH1 0x40 SWAP1 KECCAK256 SLOAD SWAP1 SWAP2 AND EQ JUMPDEST DUP1 PUSH2 0x1391 JUMPI POP PUSH1 0x5 SLOAD PUSH1 0x1 PUSH1 0x1 PUSH1 0xA0 SHL SUB DUP3 DUP2 AND SWAP2 AND EQ JUMPDEST PUSH2 0x13CB JUMPI PUSH1 0x40 MLOAD PUSH3 0x461BCD PUSH1 0xE5 SHL DUP2 MSTORE PUSH1 0x20 PUSH1 0x4 DUP3 ADD MSTORE PUSH1 0x1F PUSH1 0x24 DUP3 ADD MSTORE PUSH1 0x0 DUP1 MLOAD PUSH1 0x20 PUSH2 0x318B DUP4 CODECOPY DUP2 MLOAD SWAP2 MSTORE PUSH1 0x44 DUP3 ADD MSTORE PUSH1 0x64 ADD PUSH2 0x81D JUMP JUMPDEST PUSH1 0x5 SLOAD PUSH1 0x1 PUSH1 0x1 PUSH1 0xA0 SHL SUB SWAP1 DUP2 AND SWAP1 DUP6 AND SUB PUSH2 0x144F JUMPI PUSH1 0x40 MLOAD PUSH3 0x461BCD PUSH1 0xE5 SHL DUP2 MSTORE PUSH1 0x20 PUSH1 0x4 DUP3 ADD MSTORE PUSH1 0x30 PUSH1 0x24 DUP3 ADD MSTORE PUSH32 0x596F752063616E6E6F74207573696E67207468697320746F6B656E2061732063 PUSH1 0x44 DUP3 ADD MSTORE PUSH32 0x6F6C6C61746572616C20746F6B616E2E00000000000000000000000000000000 PUSH1 0x64 DUP3 ADD MSTORE PUSH1 0x84 ADD PUSH2 0x81D JUMP JUMPDEST PUSH1 0x0 DUP1 PUSH1 0x0 PUSH2 0x145E DUP8 DUP8 PUSH2 0x2523 JUMP JUMPDEST PUSH1 0x1 PUSH1 0x1 PUSH1 0xA0 SHL SUB DUP11 DUP2 AND PUSH1 0x0 SWAP1 DUP2 MSTORE PUSH1 0xE PUSH1 0x20 MSTORE PUSH1 0x40 SWAP1 DUP2 SWAP1 KECCAK256 PUSH1 0x1 ADD SLOAD PUSH1 0x5 SLOAD SWAP2 MLOAD PUSH4 0x70A08231 PUSH1 0xE0 SHL DUP2 MSTORE ADDRESS PUSH1 0x4 DUP3 ADD MSTORE SWAP6 SWAP9 POP SWAP4 SWAP7 POP SWAP2 SWAP5 POP SWAP2 DUP3 AND SWAP3 SWAP2 AND SWAP1 PUSH4 0x70A08231 SWAP1 PUSH1 0x24 ADD PUSH1 0x20 PUSH1 0x40 MLOAD DUP1 DUP4 SUB DUP2 DUP7 GAS STATICCALL ISZERO DUP1 ISZERO PUSH2 0x14C8 JUMPI RETURNDATASIZE PUSH1 0x0 DUP1 RETURNDATACOPY RETURNDATASIZE PUSH1 0x0 REVERT JUMPDEST POP POP POP POP PUSH1 0x40 MLOAD RETURNDATASIZE PUSH1 0x1F NOT PUSH1 0x1F DUP3 ADD AND DUP3 ADD DUP1 PUSH1 0x40 MSTORE POP DUP2 ADD SWAP1 PUSH2 0x14EC SWAP2 SWAP1 PUSH2 0x2F5C JUMP JUMPDEST DUP4 GT ISZERO PUSH2 0x1546 JUMPI PUSH1 0x40 MLOAD PUSH3 0x461BCD PUSH1 0xE5 SHL DUP2 MSTORE PUSH1 0x20 PUSH1 0x4 DUP3 ADD MSTORE PUSH1 0x22 PUSH1 0x24 DUP3 ADD MSTORE PUSH32 0x496E73756666696369656E742062616C616E636520696E20636F6E7472616374 PUSH1 0x44 DUP3 ADD MSTORE PUSH2 0x2021 PUSH1 0xF0 SHL PUSH1 0x64 DUP3 ADD MSTORE PUSH1 0x84 ADD PUSH2 0x81D JUMP JUMPDEST ADDRESS PUSH1 0x1 PUSH1 0x1 PUSH1 0xA0 SHL SUB DUP10 AND SUB PUSH2 0x1675 JUMPI DUP7 CALLVALUE LT ISZERO PUSH2 0x15A6 JUMPI PUSH1 0x40 MLOAD PUSH3 0x461BCD PUSH1 0xE5 SHL DUP2 MSTORE PUSH1 0x20 PUSH1 0x4 DUP3 ADD MSTORE PUSH1 0x17 PUSH1 0x24 DUP3 ADD MSTORE PUSH32 0x496E73756666696369656E7420424E422073656E742021000000000000000000 PUSH1 0x44 DUP3 ADD MSTORE PUSH1 0x64 ADD PUSH2 0x81D JUMP JUMPDEST CALLER BALANCE CALLVALUE GT ISZERO PUSH2 0x15F7 JUMPI PUSH1 0x40 MLOAD PUSH3 0x461BCD PUSH1 0xE5 SHL DUP2 MSTORE PUSH1 0x20 PUSH1 0x4 DUP3 ADD MSTORE PUSH1 0x16 PUSH1 0x24 DUP3 ADD MSTORE PUSH32 0x496E73756666696369656E742042616C616E6365202100000000000000000000 PUSH1 0x44 DUP3 ADD MSTORE PUSH1 0x64 ADD PUSH2 0x81D JUMP JUMPDEST PUSH1 0x5 SLOAD PUSH1 0x40 MLOAD PUSH4 0xA9059CBB PUSH1 0xE0 SHL DUP2 MSTORE CALLER PUSH1 0x4 DUP3 ADD MSTORE PUSH1 0x24 DUP2 ADD DUP6 SWAP1 MSTORE CALLVALUE SWAP9 POP PUSH1 0x1 PUSH1 0x1 PUSH1 0xA0 SHL SUB SWAP1 SWAP2 AND SWAP1 PUSH4 0xA9059CBB SWAP1 PUSH1 0x44 ADD PUSH1 0x20 PUSH1 0x40 MLOAD DUP1 DUP4 SUB DUP2 PUSH1 0x0 DUP8 GAS CALL ISZERO DUP1 ISZERO PUSH2 0x164B JUMPI RETURNDATASIZE PUSH1 0x0 DUP1 RETURNDATACOPY RETURNDATASIZE PUSH1 0x0 REVERT JUMPDEST POP POP POP POP PUSH1 0x40 MLOAD RETURNDATASIZE PUSH1 0x1F NOT PUSH1 0x1F DUP3 ADD AND DUP3 ADD DUP1 PUSH1 0x40 MSTORE POP DUP2 ADD SWAP1 PUSH2 0x166F SWAP2 SWAP1 PUSH2 0x2F75 JUMP JUMPDEST POP PUSH2 0x181B JUMP JUMPDEST PUSH1 0x40 MLOAD PUSH4 0x70A08231 PUSH1 0xE0 SHL DUP2 MSTORE CALLER PUSH1 0x4 DUP3 ADD MSTORE PUSH1 0x1 PUSH1 0x1 PUSH1 0xA0 SHL SUB DUP3 AND SWAP1 PUSH4 0x70A08231 SWAP1 PUSH1 0x24 ADD PUSH1 0x20 PUSH1 0x40 MLOAD DUP1 DUP4 SUB DUP2 DUP7 GAS STATICCALL ISZERO DUP1 ISZERO PUSH2 0x16B9 JUMPI RETURNDATASIZE PUSH1 0x0 DUP1 RETURNDATACOPY RETURNDATASIZE PUSH1 0x0 REVERT JUMPDEST POP POP POP POP PUSH1 0x40 MLOAD RETURNDATASIZE PUSH1 0x1F NOT PUSH1 0x1F DUP3 ADD AND DUP3 ADD DUP1 PUSH1 0x40 MSTORE POP DUP2 ADD SWAP1 PUSH2 0x16DD SWAP2 SWAP1 PUSH2 0x2F5C JUMP JUMPDEST DUP8 GT ISZERO PUSH2 0x172C JUMPI PUSH1 0x40 MLOAD PUSH3 0x461BCD PUSH1 0xE5 SHL DUP2 MSTORE PUSH1 0x20 PUSH1 0x4 DUP3 ADD MSTORE PUSH1 0x16 PUSH1 0x24 DUP3 ADD MSTORE PUSH32 0x496E73756666696369656E742042616C616E6365202100000000000000000000 PUSH1 0x44 DUP3 ADD MSTORE PUSH1 0x64 ADD PUSH2 0x81D JUMP JUMPDEST PUSH1 0x40 MLOAD PUSH4 0x23B872DD PUSH1 0xE0 SHL DUP2 MSTORE CALLER PUSH1 0x4 DUP3 ADD MSTORE ADDRESS PUSH1 0x24 DUP3 ADD MSTORE PUSH1 0x44 DUP2 ADD DUP9 SWAP1 MSTORE PUSH1 0x1 PUSH1 0x1 PUSH1 0xA0 SHL SUB DUP3 AND SWAP1 PUSH4 0x23B872DD SWAP1 PUSH1 0x64 ADD PUSH1 0x20 PUSH1 0x40 MLOAD DUP1 DUP4 SUB DUP2 PUSH1 0x0 DUP8 GAS CALL ISZERO DUP1 ISZERO PUSH2 0x177F JUMPI RETURNDATASIZE PUSH1 0x0 DUP1 RETURNDATACOPY RETURNDATASIZE PUSH1 0x0 REVERT JUMPDEST POP POP POP POP PUSH1 0x40 MLOAD RETURNDATASIZE PUSH1 0x1F NOT PUSH1 0x1F DUP3 ADD AND DUP3 ADD DUP1 PUSH1 0x40 MSTORE POP DUP2 ADD SWAP1 PUSH2 0x17A3 SWAP2 SWAP1 PUSH2 0x2F75 JUMP JUMPDEST POP PUSH1 0x5 SLOAD PUSH1 0x40 MLOAD PUSH4 0xA9059CBB PUSH1 0xE0 SHL DUP2 MSTORE CALLER PUSH1 0x4 DUP3 ADD MSTORE PUSH1 0x24 DUP2 ADD DUP6 SWAP1 MSTORE PUSH1 0x1 PUSH1 0x1 PUSH1 0xA0 SHL SUB SWAP1 SWAP2 AND SWAP1 PUSH4 0xA9059CBB SWAP1 PUSH1 0x44 ADD PUSH1 0x20 PUSH1 0x40 MLOAD DUP1 DUP4 SUB DUP2 PUSH1 0x0 DUP8 GAS CALL ISZERO DUP1 ISZERO PUSH2 0x17F5 JUMPI RETURNDATASIZE PUSH1 0x0 DUP1 RETURNDATACOPY RETURNDATASIZE PUSH1 0x0 REVERT JUMPDEST POP POP POP POP PUSH1 0x40 MLOAD RETURNDATASIZE PUSH1 0x1F NOT PUSH1 0x1F DUP3 ADD AND DUP3 ADD DUP1 PUSH1 0x40 MSTORE POP DUP2 ADD SWAP1 PUSH2 0x1819 SWAP2 SWAP1 PUSH2 0x2F75 JUMP JUMPDEST POP JUMPDEST CALLER PUSH1 0x0 SWAP1 DUP2 MSTORE PUSH1 0xD PUSH1 0x20 SWAP1 DUP2 MSTORE PUSH1 0x40 DUP1 DUP4 KECCAK256 PUSH1 0x1 PUSH1 0x1 PUSH1 0xA0 SHL SUB DUP13 AND DUP5 MSTORE DUP3 MSTORE SWAP2 DUP3 SWAP1 KECCAK256 DUP3 MLOAD PUSH1 0x60 DUP2 ADD DUP5 MSTORE DUP2 SLOAD DUP2 MSTORE PUSH1 0x1 DUP3 ADD SLOAD SWAP3 DUP2 ADD DUP4 DUP2 MSTORE PUSH1 0x2 SWAP1 SWAP3 ADD SLOAD SWAP4 DUP2 ADD SWAP4 SWAP1 SWAP4 MSTORE DUP6 SWAP2 PUSH2 0x1870 SWAP1 DUP4 SWAP1 PUSH2 0x2FC0 JUMP JUMPDEST SWAP1 MSTORE POP DUP1 MLOAD DUP9 SWAP1 DUP3 SWAP1 PUSH2 0x1884 SWAP1 DUP4 SWAP1 PUSH2 0x2FC0 JUMP JUMPDEST SWAP1 MSTORE POP PUSH1 0xB SLOAD PUSH2 0x18AA SWAP1 PUSH2 0x189E SWAP1 PUSH1 0xFF AND PUSH3 0x15180 PUSH2 0x2FD3 JUMP JUMPDEST TIMESTAMP SWAP1 PUSH3 0xFFFFFF AND PUSH2 0x295B JUMP JUMPDEST PUSH1 0x40 DUP3 DUP2 ADD SWAP2 DUP3 MSTORE CALLER PUSH1 0x0 SWAP1 DUP2 MSTORE PUSH1 0xD PUSH1 0x20 SWAP1 DUP2 MSTORE DUP3 DUP3 KECCAK256 PUSH1 0x1 PUSH1 0x1 PUSH1 0xA0 SHL SUB DUP15 AND DUP4 MSTORE DUP2 MSTORE SWAP2 SWAP1 KECCAK256 DUP4 MLOAD DUP2 SSTORE SWAP1 DUP4 ADD MLOAD PUSH1 0x1 DUP3 ADD SSTORE SWAP1 MLOAD PUSH1 0x2 SWAP1 SWAP2 ADD SSTORE PUSH1 0x6 SLOAD PUSH2 0x1900 SWAP1 DUP7 SWAP1 PUSH1 0x1 PUSH1 0xA0 SHL SWAP1 DIV PUSH1 0xFF AND PUSH2 0x2942 JUMP JUMPDEST PUSH1 0xC DUP1 SLOAD PUSH1 0x0 SWAP1 PUSH2 0x1912 SWAP1 DUP5 SWAP1 PUSH2 0x2FC0 JUMP JUMPDEST SWAP3 POP POP DUP2 SWAP1 SSTORE POP DUP4 PUSH1 0x4 PUSH1 0x0 DUP3 DUP3 SLOAD PUSH2 0x192B SWAP2 SWAP1 PUSH2 0x2FC0 JUMP JUMPDEST SWAP3 POP POP DUP2 SWAP1 SSTORE POP DUP3 PUSH1 0x3 PUSH1 0x0 DUP3 DUP3 SLOAD PUSH2 0x1944 SWAP2 SWAP1 PUSH2 0x2FC0 JUMP JUMPDEST SWAP1 SWAP2 SSTORE POP POP PUSH1 0x40 MLOAD DUP5 DUP2 MSTORE CALLER SWAP1 ADDRESS SWAP1 PUSH32 0x3FC499AEB0BB1CB58B6DE8B02B3F86F4E7394E9690BEF0110E32CED8A5631045 SWAP1 PUSH1 0x20 ADD PUSH1 0x40 MLOAD DUP1 SWAP2 SUB SWAP1 LOG3 PUSH1 0x1 SWAP7 POP POP POP POP POP POP JUMPDEST POP SWAP3 SWAP2 POP POP JUMP JUMPDEST PUSH1 0x0 PUSH32 0x2CB697566D4FAE71A9E65E4DAC853BF1E0E88A4957A11BB62814A78D165BB6BB PUSH2 0x19BD DUP2 PUSH2 0x294E JUMP JUMPDEST PUSH1 0x1 PUSH1 0x1 PUSH1 0xA0 SHL SUB DUP1 DUP6 AND PUSH1 0x0 DUP2 DUP2 MSTORE PUSH1 0xE PUSH1 0x20 MSTORE PUSH1 0x40 SWAP1 KECCAK256 SLOAD SWAP1 SWAP2 AND SWAP1 SUB PUSH2 0x1A4E JUMPI PUSH1 0x40 MLOAD PUSH3 0x461BCD PUSH1 0xE5 SHL DUP2 MSTORE PUSH1 0x20 PUSH1 0x4 DUP3 ADD MSTORE PUSH1 0x2C PUSH1 0x24 DUP3 ADD MSTORE PUSH32 0x5468697320746F6B656E20697320616C726561647920616464656420746F2074 PUSH1 0x44 DUP3 ADD MSTORE PUSH32 0x686520636F6E74726163742E0000000000000000000000000000000000000000 PUSH1 0x64 DUP3 ADD MSTORE PUSH1 0x84 ADD PUSH2 0x81D JUMP JUMPDEST PUSH1 0x40 DUP1 MLOAD PUSH1 0x60 DUP2 ADD DUP3 MSTORE PUSH1 0x1 PUSH1 0x1 PUSH1 0xA0 SHL SUB DUP1 DUP8 AND DUP1 DUP4 MSTORE PUSH1 0x20 DUP1 DUP5 ADD DUP3 DUP2 MSTORE DUP9 DUP5 AND DUP6 DUP8 ADD SWAP1 DUP2 MSTORE PUSH1 0x0 SWAP4 DUP5 MSTORE PUSH1 0xE SWAP1 SWAP3 MSTORE SWAP5 SWAP1 SWAP2 KECCAK256 SWAP3 MLOAD DUP4 SLOAD SWAP1 DUP4 AND PUSH20 0xFFFFFFFFFFFFFFFFFFFFFFFFFFFFFFFFFFFFFFFF NOT SWAP2 DUP3 AND OR DUP5 SSTORE SWAP4 MLOAD PUSH1 0x1 DUP1 DUP6 ADD DUP1 SLOAD SWAP3 DUP6 AND SWAP3 DUP8 AND SWAP3 SWAP1 SWAP3 OR SWAP1 SWAP2 SSTORE SWAP1 MLOAD PUSH1 0x2 SWAP1 SWAP4 ADD DUP1 SLOAD SWAP4 SWAP1 SWAP3 AND SWAP3 SWAP1 SWAP4 AND SWAP2 SWAP1 SWAP2 OR SWAP1 SSTORE DUP1 SLOAD PUSH1 0xFF PUSH1 0x1 PUSH1 0xA0 SHL SWAP1 SWAP2 DIV AND SWAP1 PUSH1 0x14 PUSH2 0x1AEE DUP4 PUSH2 0x2FFA JUMP JUMPDEST SWAP2 SWAP1 PUSH2 0x100 EXP DUP2 SLOAD DUP2 PUSH1 0xFF MUL NOT AND SWAP1 DUP4 PUSH1 0xFF AND MUL OR SWAP1 SSTORE POP POP PUSH1 0x1 SWAP2 POP POP SWAP3 SWAP2 POP POP JUMP JUMPDEST PUSH1 0x0 PUSH32 0x2CB697566D4FAE71A9E65E4DAC853BF1E0E88A4957A11BB62814A78D165BB6BB PUSH2 0x1B3E DUP2 PUSH2 0x294E JUMP JUMPDEST POP POP PUSH1 0x40 DUP1 MLOAD PUSH2 0x100 DUP2 ADD DUP3 MSTORE PUSH1 0x1 PUSH1 0x1 PUSH1 0xA0 SHL SUB SWAP10 SWAP1 SWAP10 AND DUP1 DUP11 MSTORE PUSH1 0xFF SWAP9 DUP10 AND PUSH1 0x20 DUP12 ADD DUP2 SWAP1 MSTORE SWAP2 DUP11 ADD DUP9 SWAP1 MSTORE SWAP6 DUP9 AND PUSH1 0x60 DUP11 ADD DUP2 SWAP1 MSTORE PUSH1 0x80 DUP11 ADD DUP7 SWAP1 MSTORE PUSH1 0xA0 DUP11 ADD DUP6 SWAP1 MSTORE SWAP3 SWAP1 SWAP8 AND PUSH1 0xC0 DUP10 ADD DUP2 SWAP1 MSTORE PUSH1 0xE0 SWAP1 SWAP9 ADD DUP2 SWAP1 MSTORE PUSH1 0x6 DUP1 SLOAD PUSH32 0xFFFFFFFFFFFFFFFFFFFFFF000000000000000000000000000000000000000000 AND SWAP1 SWAP6 OR PUSH1 0x1 PUSH1 0xA0 SHL SWAP1 SWAP8 MUL SWAP7 SWAP1 SWAP7 OR SWAP1 SWAP4 SSTORE PUSH1 0x7 SWAP4 SWAP1 SWAP4 SSTORE PUSH1 0x8 DUP1 SLOAD PUSH1 0xFF NOT SWAP1 DUP2 AND SWAP1 SWAP4 OR SWAP1 SSTORE PUSH1 0x9 SSTORE PUSH1 0xA SWAP2 SWAP1 SWAP2 SSTORE PUSH1 0xB DUP1 SLOAD SWAP1 SWAP2 AND SWAP1 SWAP3 OR SWAP1 SWAP2 SSTORE PUSH1 0xC SSTORE PUSH1 0x1 SWAP1 JUMP JUMPDEST PUSH1 0x0 PUSH32 0x2CB697566D4FAE71A9E65E4DAC853BF1E0E88A4957A11BB62814A78D165BB6BB PUSH2 0x1C2E DUP2 PUSH2 0x294E JUMP JUMPDEST DUP3 PUSH1 0x1 PUSH1 0x1 PUSH1 0xA0 SHL SUB DUP2 AND ADDRESS EQ DUP1 PUSH2 0x1C60 JUMPI POP PUSH1 0x1 PUSH1 0x1 PUSH1 0xA0 SHL SUB DUP1 DUP3 AND PUSH1 0x0 DUP2 DUP2 MSTORE PUSH1 0xE PUSH1 0x20 MSTORE PUSH1 0x40 SWAP1 KECCAK256 SLOAD SWAP1 SWAP2 AND EQ JUMPDEST DUP1 PUSH2 0x1C78 JUMPI POP PUSH1 0x5 SLOAD PUSH1 0x1 PUSH1 0x1 PUSH1 0xA0 SHL SUB DUP3 DUP2 AND SWAP2 AND EQ JUMPDEST PUSH2 0x1CB2 JUMPI PUSH1 0x40 MLOAD PUSH3 0x461BCD PUSH1 0xE5 SHL DUP2 MSTORE PUSH1 0x20 PUSH1 0x4 DUP3 ADD MSTORE PUSH1 0x1F PUSH1 0x24 DUP3 ADD MSTORE PUSH1 0x0 DUP1 MLOAD PUSH1 0x20 PUSH2 0x318B DUP4 CODECOPY DUP2 MLOAD SWAP2 MSTORE PUSH1 0x44 DUP3 ADD MSTORE PUSH1 0x64 ADD PUSH2 0x81D JUMP JUMPDEST PUSH1 0x1 PUSH1 0x1 PUSH1 0xA0 SHL SUB DUP5 AND PUSH1 0x0 SWAP1 DUP2 MSTORE PUSH1 0xE PUSH1 0x20 MSTORE PUSH1 0x40 SWAP1 KECCAK256 DUP1 SLOAD PUSH20 0xFFFFFFFFFFFFFFFFFFFFFFFFFFFFFFFFFFFFFFFF NOT SWAP1 DUP2 AND DUP3 SSTORE PUSH1 0x1 DUP1 DUP4 ADD DUP1 SLOAD DUP4 AND SWAP1 SSTORE PUSH1 0x2 SWAP1 SWAP3 ADD DUP1 SLOAD SWAP1 SWAP2 AND SWAP1 SSTORE DUP1 SLOAD PUSH1 0x1 PUSH1 0xA0 SHL SWAP1 DIV PUSH1 0xFF AND SWAP1 PUSH1 0x14 PUSH2 0x1D16 DUP4 PUSH2 0x3019 JUMP JUMPDEST SWAP2 SWAP1 PUSH2 0x100 EXP DUP2 SLOAD DUP2 PUSH1 0xFF MUL NOT AND SWAP1 DUP4 PUSH1 0xFF AND MUL OR SWAP1 SSTORE POP POP PUSH1 0x1 SWAP3 POP POP POP SWAP2 SWAP1 POP JUMP JUMPDEST PUSH32 0x2CB697566D4FAE71A9E65E4DAC853BF1E0E88A4957A11BB62814A78D165BB6BB PUSH2 0x1D64 DUP2 PUSH2 0x294E JUMP JUMPDEST PUSH1 0x5 SLOAD PUSH1 0x1 PUSH1 0x1 PUSH1 0xA0 SHL SUB AND ISZERO PUSH2 0x1DC8 JUMPI PUSH1 0x40 MLOAD PUSH3 0x461BCD PUSH1 0xE5 SHL DUP2 MSTORE PUSH1 0x20 PUSH1 0x4 DUP3 ADD MSTORE PUSH1 0x22 PUSH1 0x24 DUP3 ADD MSTORE PUSH32 0x546865206E617469766520746F6B656E2063757272656E746C79206164646564 PUSH1 0x44 DUP3 ADD MSTORE PUSH2 0x2021 PUSH1 0xF0 SHL PUSH1 0x64 DUP3 ADD MSTORE PUSH1 0x84 ADD PUSH2 0x81D JUMP JUMPDEST POP PUSH1 0x5 DUP1 SLOAD PUSH20 0xFFFFFFFFFFFFFFFFFFFFFFFFFFFFFFFFFFFFFFFF NOT AND PUSH1 0x1 PUSH1 0x1 PUSH1 0xA0 SHL SUB SWAP3 SWAP1 SWAP3 AND SWAP2 SWAP1 SWAP2 OR SWAP1 SSTORE JUMP JUMPDEST PUSH1 0x0 PUSH32 0x69CD0C85288BCFFBE883A45101C678F53F42E27BEBEA35A677CC62DA9FA7F391 PUSH2 0x1E24 DUP2 PUSH2 0x294E JUMP JUMPDEST PUSH1 0x8 DUP1 SLOAD PUSH1 0xFF DUP6 AND PUSH1 0xFF NOT SWAP1 SWAP2 AND OR SWAP1 SSTORE PUSH1 0x1 SWAP2 POP POP SWAP2 SWAP1 POP JUMP JUMPDEST PUSH1 0x0 DUP3 PUSH1 0x1 PUSH1 0x1 PUSH1 0xA0 SHL SUB DUP2 AND ADDRESS EQ DUP1 PUSH2 0x1E73 JUMPI POP PUSH1 0x1 PUSH1 0x1 PUSH1 0xA0 SHL SUB DUP1 DUP3 AND PUSH1 0x0 DUP2 DUP2 MSTORE PUSH1 0xE PUSH1 0x20 MSTORE PUSH1 0x40 SWAP1 KECCAK256 SLOAD SWAP1 SWAP2 AND EQ JUMPDEST DUP1 PUSH2 0x1E8B JUMPI POP PUSH1 0x5 SLOAD PUSH1 0x1 PUSH1 0x1 PUSH1 0xA0 SHL SUB DUP3 DUP2 AND SWAP2 AND EQ JUMPDEST PUSH2 0x1EC5 JUMPI PUSH1 0x40 MLOAD PUSH3 0x461BCD PUSH1 0xE5 SHL DUP2 MSTORE PUSH1 0x20 PUSH1 0x4 DUP3 ADD MSTORE PUSH1 0x1F PUSH1 0x24 DUP3 ADD MSTORE PUSH1 0x0 DUP1 MLOAD PUSH1 0x20 PUSH2 0x318B DUP4 CODECOPY DUP2 MLOAD SWAP2 MSTORE PUSH1 0x44 DUP3 ADD MSTORE PUSH1 0x64 ADD PUSH2 0x81D JUMP JUMPDEST ADDRESS PUSH1 0x1 PUSH1 0x1 PUSH1 0xA0 SHL SUB DUP6 AND SUB PUSH2 0x1EE7 JUMPI DUP3 PUSH1 0x1 PUSH1 0x1 PUSH1 0xA0 SHL SUB AND BALANCE SWAP2 POP PUSH2 0x198A JUMP JUMPDEST PUSH1 0x5 SLOAD PUSH1 0x1 PUSH1 0x1 PUSH1 0xA0 SHL SUB SWAP1 DUP2 AND SWAP1 DUP6 AND SUB PUSH2 0x1F73 JUMPI PUSH1 0x5 SLOAD PUSH1 0x40 MLOAD PUSH4 0x70A08231 PUSH1 0xE0 SHL DUP2 MSTORE PUSH1 0x1 PUSH1 0x1 PUSH1 0xA0 SHL SUB DUP6 DUP2 AND PUSH1 0x4 DUP4 ADD MSTORE SWAP1 SWAP2 AND SWAP1 PUSH4 0x70A08231 SWAP1 PUSH1 0x24 ADD JUMPDEST PUSH1 0x20 PUSH1 0x40 MLOAD DUP1 DUP4 SUB DUP2 DUP7 GAS STATICCALL ISZERO DUP1 ISZERO PUSH2 0x1F48 JUMPI RETURNDATASIZE PUSH1 0x0 DUP1 RETURNDATACOPY RETURNDATASIZE PUSH1 0x0 REVERT JUMPDEST POP POP POP POP PUSH1 0x40 MLOAD RETURNDATASIZE PUSH1 0x1F NOT PUSH1 0x1F DUP3 ADD AND DUP3 ADD DUP1 PUSH1 0x40 MSTORE POP DUP2 ADD SWAP1 PUSH2 0x1F6C SWAP2 SWAP1 PUSH2 0x2F5C JUMP JUMPDEST SWAP2 POP PUSH2 0x198A JUMP JUMPDEST PUSH1 0x1 PUSH1 0x1 PUSH1 0xA0 SHL SUB DUP5 DUP2 AND PUSH1 0x0 SWAP1 DUP2 MSTORE PUSH1 0xE PUSH1 0x20 MSTORE PUSH1 0x40 SWAP1 DUP2 SWAP1 KECCAK256 PUSH1 0x1 ADD SLOAD SWAP1 MLOAD PUSH4 0x70A08231 PUSH1 0xE0 SHL DUP2 MSTORE DUP6 DUP4 AND PUSH1 0x4 DUP3 ADD MSTORE SWAP2 AND SWAP1 PUSH4 0x70A08231 SWAP1 PUSH1 0x24 ADD PUSH2 0x1F2B JUMP JUMPDEST PUSH1 0x0 DUP1 PUSH1 0x0 PUSH2 0x1FCF PUSH2 0x1FC8 DUP7 PUSH2 0x8C7 JUMP JUMPDEST DUP6 SWAP1 PUSH2 0x2942 JUMP JUMPDEST PUSH1 0x8 SLOAD SWAP1 SWAP2 POP PUSH1 0x0 SWAP1 PUSH2 0x1FF3 SWAP1 PUSH1 0x64 SWAP1 PUSH2 0x1FED SWAP1 DUP6 SWAP1 PUSH1 0xFF AND PUSH2 0x2942 JUMP JUMPDEST SWAP1 PUSH2 0x2A84 JUMP JUMPDEST SWAP1 POP PUSH1 0x0 PUSH2 0x2009 PUSH2 0x2002 PUSH2 0x2334 JUMP JUMPDEST DUP4 SWAP1 PUSH2 0x2A84 JUMP JUMPDEST SWAP8 SWAP3 SWAP7 POP SWAP2 SWAP5 POP POP POP POP POP JUMP JUMPDEST PUSH1 0x0 DUP3 PUSH1 0x1 PUSH1 0x1 PUSH1 0xA0 SHL SUB DUP2 AND ADDRESS EQ DUP1 PUSH2 0x204A JUMPI POP PUSH1 0x1 PUSH1 0x1 PUSH1 0xA0 SHL SUB DUP1 DUP3 AND PUSH1 0x0 DUP2 DUP2 MSTORE PUSH1 0xE PUSH1 0x20 MSTORE PUSH1 0x40 SWAP1 KECCAK256 SLOAD SWAP1 SWAP2 AND EQ JUMPDEST DUP1 PUSH2 0x2062 JUMPI POP PUSH1 0x5 SLOAD PUSH1 0x1 PUSH1 0x1 PUSH1 0xA0 SHL SUB DUP3 DUP2 AND SWAP2 AND EQ JUMPDEST PUSH2 0x209C JUMPI PUSH1 0x40 MLOAD PUSH3 0x461BCD PUSH1 0xE5 SHL DUP2 MSTORE PUSH1 0x20 PUSH1 0x4 DUP3 ADD MSTORE PUSH1 0x1F PUSH1 0x24 DUP3 ADD MSTORE PUSH1 0x0 DUP1 MLOAD PUSH1 0x20 PUSH2 0x318B DUP4 CODECOPY DUP2 MLOAD SWAP2 MSTORE PUSH1 0x44 DUP3 ADD MSTORE PUSH1 0x64 ADD PUSH2 0x81D JUMP JUMPDEST PUSH1 0x1 PUSH1 0x1 PUSH1 0xA0 SHL SUB DUP1 DUP7 AND PUSH1 0x0 SWAP1 DUP2 MSTORE PUSH1 0xD PUSH1 0x20 SWAP1 DUP2 MSTORE PUSH1 0x40 DUP1 DUP4 KECCAK256 SWAP4 DUP9 AND DUP4 MSTORE SWAP3 DUP2 MSTORE SWAP1 DUP3 SWAP1 KECCAK256 DUP3 MLOAD PUSH1 0x60 DUP2 ADD DUP5 MSTORE DUP2 SLOAD DUP2 MSTORE PUSH1 0x1 DUP3 ADD SLOAD SWAP3 DUP2 ADD DUP4 SWAP1 MSTORE PUSH1 0x2 SWAP1 SWAP2 ADD SLOAD SWAP3 DUP2 ADD SWAP3 SWAP1 SWAP3 MSTORE DUP7 SWAP2 DUP7 SWAP2 ISZERO ISZERO DUP1 PUSH2 0x20F9 JUMPI POP DUP1 MLOAD ISZERO ISZERO JUMPDEST PUSH2 0x2145 JUMPI PUSH1 0x40 MLOAD PUSH3 0x461BCD PUSH1 0xE5 SHL DUP2 MSTORE PUSH1 0x20 PUSH1 0x4 DUP3 ADD MSTORE PUSH1 0x1A PUSH1 0x24 DUP3 ADD MSTORE PUSH32 0x54686973206C6F616E20646F6573206E6F742065786973742021000000000000 PUSH1 0x44 DUP3 ADD MSTORE PUSH1 0x64 ADD PUSH2 0x81D JUMP JUMPDEST PUSH1 0x0 PUSH2 0x2150 DUP9 PUSH2 0x8C7 JUMP JUMPDEST PUSH1 0x1 PUSH1 0x1 PUSH1 0xA0 SHL SUB DUP1 DUP12 AND PUSH1 0x0 SWAP1 DUP2 MSTORE PUSH1 0xD PUSH1 0x20 SWAP1 DUP2 MSTORE PUSH1 0x40 DUP1 DUP4 KECCAK256 SWAP4 DUP14 AND DUP4 MSTORE SWAP3 SWAP1 MSTORE SWAP1 DUP2 KECCAK256 SLOAD SWAP2 SWAP3 POP SWAP1 PUSH2 0x2186 SWAP1 DUP4 PUSH2 0x2942 JUMP JUMPDEST PUSH1 0x1 PUSH1 0x1 PUSH1 0xA0 SHL SUB DUP1 DUP13 AND PUSH1 0x0 SWAP1 DUP2 MSTORE PUSH1 0xD PUSH1 0x20 SWAP1 DUP2 MSTORE PUSH1 0x40 DUP1 DUP4 KECCAK256 SWAP4 DUP15 AND DUP4 MSTORE SWAP3 SWAP1 MSTORE SWAP1 DUP2 KECCAK256 PUSH1 0x1 ADD SLOAD SWAP2 SWAP3 POP SWAP1 PUSH2 0x21C0 SWAP1 DUP4 SWAP1 PUSH2 0x2A84 JUMP JUMPDEST SWAP1 POP PUSH1 0x0 PUSH2 0x21CE DUP3 DUP12 PUSH2 0x2942 JUMP JUMPDEST SWAP1 POP PUSH1 0x0 PUSH2 0x21DC DUP3 DUP7 PUSH2 0x2A84 JUMP JUMPDEST SWAP14 SWAP13 POP POP POP POP POP POP POP POP POP POP POP POP POP JUMP JUMPDEST PUSH1 0x0 DUP2 PUSH1 0x1 PUSH1 0x1 PUSH1 0xA0 SHL SUB DUP2 AND ADDRESS EQ DUP1 PUSH2 0x2221 JUMPI POP PUSH1 0x1 PUSH1 0x1 PUSH1 0xA0 SHL SUB DUP1 DUP3 AND PUSH1 0x0 DUP2 DUP2 MSTORE PUSH1 0xE PUSH1 0x20 MSTORE PUSH1 0x40 SWAP1 KECCAK256 SLOAD SWAP1 SWAP2 AND EQ JUMPDEST DUP1 PUSH2 0x2239 JUMPI POP PUSH1 0x5 SLOAD PUSH1 0x1 PUSH1 0x1 PUSH1 0xA0 SHL SUB DUP3 DUP2 AND SWAP2 AND EQ JUMPDEST PUSH2 0x2273 JUMPI PUSH1 0x40 MLOAD PUSH3 0x461BCD PUSH1 0xE5 SHL DUP2 MSTORE PUSH1 0x20 PUSH1 0x4 DUP3 ADD MSTORE PUSH1 0x1F PUSH1 0x24 DUP3 ADD MSTORE PUSH1 0x0 DUP1 MLOAD PUSH1 0x20 PUSH2 0x318B DUP4 CODECOPY DUP2 MLOAD SWAP2 MSTORE PUSH1 0x44 DUP3 ADD MSTORE PUSH1 0x64 ADD PUSH2 0x81D JUMP JUMPDEST POP POP PUSH1 0x1 PUSH1 0x1 PUSH1 0xA0 SHL SUB SWAP2 DUP3 AND PUSH1 0x0 SWAP1 DUP2 MSTORE PUSH1 0xD PUSH1 0x20 SWAP1 DUP2 MSTORE PUSH1 0x40 DUP1 DUP4 KECCAK256 SWAP4 SWAP1 SWAP5 AND DUP3 MSTORE SWAP2 SWAP1 SWAP2 MSTORE KECCAK256 PUSH1 0x1 ADD SLOAD SWAP1 JUMP JUMPDEST PUSH1 0x1 SLOAD PUSH1 0x0 SWAP1 CALLER SWAP1 PUSH1 0x1 PUSH1 0x1 PUSH1 0xA0 SHL SUB AND DUP2 EQ PUSH2 0x2302 JUMPI PUSH1 0x40 MLOAD PUSH3 0x461BCD PUSH1 0xE5 SHL DUP2 MSTORE PUSH1 0x20 PUSH1 0x4 DUP3 ADD MSTORE PUSH1 0x1F PUSH1 0x24 DUP3 ADD MSTORE PUSH32 0x596F7520617265206E6F74206F776E6572206F6620636F6E7472616374202100 PUSH1 0x44 DUP3 ADD MSTORE PUSH1 0x64 ADD PUSH2 0x81D JUMP JUMPDEST PUSH1 0x1 DUP1 SLOAD PUSH1 0x1 PUSH1 0x1 PUSH1 0xA0 SHL SUB DUP6 AND PUSH20 0xFFFFFFFFFFFFFFFFFFFFFFFFFFFFFFFFFFFFFFFF NOT SWAP1 SWAP2 AND OR DUP2 SSTORE SWAP2 POP POP SWAP2 SWAP1 POP JUMP JUMPDEST PUSH1 0x0 PUSH2 0x233F PUSH1 0x4 SLOAD SWAP1 JUMP JUMPDEST PUSH1 0x0 SUB PUSH2 0x2353 JUMPI POP PUSH8 0x16345785D8A0000 SWAP1 JUMP JUMPDEST PUSH1 0x0 PUSH2 0x2369 PUSH2 0x2361 PUSH1 0x4 SLOAD SWAP1 JUMP JUMPDEST PUSH1 0x3 SLOAD PUSH2 0x1FED JUMP JUMPDEST PUSH1 0x9 SLOAD SWAP1 SWAP2 POP DUP2 LT ISZERO PUSH2 0x237E JUMPI POP POP PUSH1 0x9 SLOAD SWAP1 JUMP JUMPDEST PUSH1 0xA SLOAD DUP2 GT ISZERO PUSH2 0x2390 JUMPI POP POP PUSH1 0xA SLOAD SWAP1 JUMP JUMPDEST SWAP2 SWAP1 POP JUMP JUMPDEST PUSH1 0x0 DUP2 PUSH1 0x1 PUSH1 0x1 PUSH1 0xA0 SHL SUB DUP2 AND ADDRESS EQ DUP1 PUSH2 0x23C9 JUMPI POP PUSH1 0x1 PUSH1 0x1 PUSH1 0xA0 SHL SUB DUP1 DUP3 AND PUSH1 0x0 DUP2 DUP2 MSTORE PUSH1 0xE PUSH1 0x20 MSTORE PUSH1 0x40 SWAP1 KECCAK256 SLOAD SWAP1 SWAP2 AND EQ JUMPDEST DUP1 PUSH2 0x23E1 JUMPI POP PUSH1 0x5 SLOAD PUSH1 0x1 PUSH1 0x1 PUSH1 0xA0 SHL SUB DUP3 DUP2 AND SWAP2 AND EQ JUMPDEST PUSH2 0x241B JUMPI PUSH1 0x40 MLOAD PUSH3 0x461BCD PUSH1 0xE5 SHL DUP2 MSTORE PUSH1 0x20 PUSH1 0x4 DUP3 ADD MSTORE PUSH1 0x1F PUSH1 0x24 DUP3 ADD MSTORE PUSH1 0x0 DUP1 MLOAD PUSH1 0x20 PUSH2 0x318B DUP4 CODECOPY DUP2 MLOAD SWAP2 MSTORE PUSH1 0x44 DUP3 ADD MSTORE PUSH1 0x64 ADD PUSH2 0x81D JUMP JUMPDEST POP POP PUSH1 0x1 PUSH1 0x1 PUSH1 0xA0 SHL SUB SWAP2 DUP3 AND PUSH1 0x0 SWAP1 DUP2 MSTORE PUSH1 0xD PUSH1 0x20 SWAP1 DUP2 MSTORE PUSH1 0x40 DUP1 DUP4 KECCAK256 SWAP4 SWAP1 SWAP5 AND DUP3 MSTORE SWAP2 SWAP1 SWAP2 MSTORE KECCAK256 PUSH1 0x2 ADD SLOAD SWAP1 JUMP JUMPDEST PUSH1 0x0 DUP2 PUSH1 0x1 PUSH1 0x1 PUSH1 0xA0 SHL SUB DUP2 AND ADDRESS EQ DUP1 PUSH2 0x247F JUMPI POP PUSH1 0x1 PUSH1 0x1 PUSH1 0xA0 SHL SUB DUP1 DUP3 AND PUSH1 0x0 DUP2 DUP2 MSTORE PUSH1 0xE PUSH1 0x20 MSTORE PUSH1 0x40 SWAP1 KECCAK256 SLOAD SWAP1 SWAP2 AND EQ JUMPDEST DUP1 PUSH2 0x2497 JUMPI POP PUSH1 0x5 SLOAD PUSH1 0x1 PUSH1 0x1 PUSH1 0xA0 SHL SUB DUP3 DUP2 AND SWAP2 AND EQ JUMPDEST PUSH2 0x24D1 JUMPI PUSH1 0x40 MLOAD PUSH3 0x461BCD PUSH1 0xE5 SHL DUP2 MSTORE PUSH1 0x20 PUSH1 0x4 DUP3 ADD MSTORE PUSH1 0x1F PUSH1 0x24 DUP3 ADD MSTORE PUSH1 0x0 DUP1 MLOAD PUSH1 0x20 PUSH2 0x318B DUP4 CODECOPY DUP2 MLOAD SWAP2 MSTORE PUSH1 0x44 DUP3 ADD MSTORE PUSH1 0x64 ADD PUSH2 0x81D JUMP JUMPDEST POP POP PUSH1 0x1 PUSH1 0x1 PUSH1 0xA0 SHL SUB SWAP2 DUP3 AND PUSH1 0x0 SWAP1 DUP2 MSTORE PUSH1 0xD PUSH1 0x20 SWAP1 DUP2 MSTORE PUSH1 0x40 DUP1 DUP4 KECCAK256 SWAP4 SWAP1 SWAP5 AND DUP3 MSTORE SWAP2 SWAP1 SWAP2 MSTORE KECCAK256 SLOAD SWAP1 JUMP JUMPDEST PUSH1 0x0 DUP3 DUP2 MSTORE PUSH1 0x20 DUP2 SWAP1 MSTORE PUSH1 0x40 SWAP1 KECCAK256 PUSH1 0x1 ADD SLOAD PUSH2 0x2519 DUP2 PUSH2 0x294E JUMP JUMPDEST PUSH2 0xFF3 DUP4 DUP4 PUSH2 0x2A05 JUMP JUMPDEST PUSH1 0x0 DUP1 DUP1 DUP5 PUSH1 0x1 PUSH1 0x1 PUSH1 0xA0 SHL SUB DUP2 AND ADDRESS EQ DUP1 PUSH2 0x2559 JUMPI POP PUSH1 0x1 PUSH1 0x1 PUSH1 0xA0 SHL SUB DUP1 DUP3 AND PUSH1 0x0 DUP2 DUP2 MSTORE PUSH1 0xE PUSH1 0x20 MSTORE PUSH1 0x40 SWAP1 KECCAK256 SLOAD SWAP1 SWAP2 AND EQ JUMPDEST DUP1 PUSH2 0x2571 JUMPI POP PUSH1 0x5 SLOAD PUSH1 0x1 PUSH1 0x1 PUSH1 0xA0 SHL SUB DUP3 DUP2 AND SWAP2 AND EQ JUMPDEST PUSH2 0x25AB JUMPI PUSH1 0x40 MLOAD PUSH3 0x461BCD PUSH1 0xE5 SHL DUP2 MSTORE PUSH1 0x20 PUSH1 0x4 DUP3 ADD MSTORE PUSH1 0x1F PUSH1 0x24 DUP3 ADD MSTORE PUSH1 0x0 DUP1 MLOAD PUSH1 0x20 PUSH2 0x318B DUP4 CODECOPY DUP2 MLOAD SWAP2 MSTORE PUSH1 0x44 DUP3 ADD MSTORE PUSH1 0x64 ADD PUSH2 0x81D JUMP JUMPDEST PUSH1 0x0 DUP1 PUSH2 0x25B8 DUP9 DUP9 PUSH2 0x1FB7 JUMP JUMPDEST SWAP1 SWAP3 POP SWAP1 POP PUSH1 0x0 PUSH2 0x25CB DUP4 PUSH2 0x2710 PUSH2 0x2A84 JUMP JUMPDEST PUSH1 0x6 SLOAD SWAP1 SWAP2 POP PUSH1 0x0 SWAP1 PUSH2 0x25F0 SWAP1 PUSH1 0x64 SWAP1 PUSH2 0x1FED SWAP1 DUP8 SWAP1 PUSH1 0x1 PUSH1 0xA0 SHL SWAP1 DIV PUSH1 0xFF AND PUSH2 0x2942 JUMP JUMPDEST SWAP1 POP PUSH1 0x0 PUSH2 0x25FE DUP6 DUP4 PUSH2 0x2A90 JUMP JUMPDEST SWAP3 SWAP12 SWAP3 SWAP11 POP SWAP3 SWAP9 POP SWAP1 SWAP7 POP POP POP POP POP POP POP JUMP JUMPDEST PUSH1 0x0 DUP2 PUSH1 0x1 PUSH1 0x1 PUSH1 0xA0 SHL SUB DUP2 AND ADDRESS EQ DUP1 PUSH2 0x2645 JUMPI POP PUSH1 0x1 PUSH1 0x1 PUSH1 0xA0 SHL SUB DUP1 DUP3 AND PUSH1 0x0 DUP2 DUP2 MSTORE PUSH1 0xE PUSH1 0x20 MSTORE PUSH1 0x40 SWAP1 KECCAK256 SLOAD SWAP1 SWAP2 AND EQ JUMPDEST DUP1 PUSH2 0x265D JUMPI POP PUSH1 0x5 SLOAD PUSH1 0x1 PUSH1 0x1 PUSH1 0xA0 SHL SUB DUP3 DUP2 AND SWAP2 AND EQ JUMPDEST PUSH2 0x2697 JUMPI PUSH1 0x40 MLOAD PUSH3 0x461BCD PUSH1 0xE5 SHL DUP2 MSTORE PUSH1 0x20 PUSH1 0x4 DUP3 ADD MSTORE PUSH1 0x1F PUSH1 0x24 DUP3 ADD MSTORE PUSH1 0x0 DUP1 MLOAD PUSH1 0x20 PUSH2 0x318B DUP4 CODECOPY DUP2 MLOAD SWAP2 MSTORE PUSH1 0x44 DUP3 ADD MSTORE PUSH1 0x64 ADD PUSH2 0x81D JUMP JUMPDEST CALLER PUSH1 0x0 DUP2 DUP2 MSTORE PUSH1 0xD PUSH1 0x20 SWAP1 DUP2 MSTORE PUSH1 0x40 DUP1 DUP4 KECCAK256 PUSH1 0x1 PUSH1 0x1 PUSH1 0xA0 SHL SUB DUP9 AND DUP5 MSTORE DUP3 MSTORE SWAP2 DUP3 SWAP1 KECCAK256 DUP3 MLOAD PUSH1 0x60 DUP2 ADD DUP5 MSTORE DUP2 SLOAD DUP2 MSTORE PUSH1 0x1 DUP3 ADD SLOAD SWAP3 DUP2 ADD DUP4 SWAP1 MSTORE PUSH1 0x2 SWAP1 SWAP2 ADD SLOAD SWAP3 DUP2 ADD SWAP3 SWAP1 SWAP3 MSTORE DUP6 SWAP2 SWAP1 ISZERO ISZERO DUP1 PUSH2 0x26EF JUMPI POP DUP1 MLOAD ISZERO ISZERO JUMPDEST PUSH2 0x273B JUMPI PUSH1 0x40 MLOAD PUSH3 0x461BCD PUSH1 0xE5 SHL DUP2 MSTORE PUSH1 0x20 PUSH1 0x4 DUP3 ADD MSTORE PUSH1 0x1A PUSH1 0x24 DUP3 ADD MSTORE PUSH32 0x54686973206C6F616E20646F6573206E6F742065786973742021000000000000 PUSH1 0x44 DUP3 ADD MSTORE PUSH1 0x64 ADD PUSH2 0x81D JUMP JUMPDEST CALLER PUSH1 0x0 SWAP1 DUP2 MSTORE PUSH1 0xD PUSH1 0x20 SWAP1 DUP2 MSTORE PUSH1 0x40 DUP1 DUP4 KECCAK256 PUSH1 0x1 PUSH1 0x1 PUSH1 0xA0 SHL SUB DUP11 AND DUP5 MSTORE DUP3 MSTORE SWAP2 DUP3 SWAP1 KECCAK256 DUP3 MLOAD PUSH1 0x60 DUP2 ADD DUP5 MSTORE DUP2 SLOAD DUP2 MSTORE PUSH1 0x1 DUP3 ADD SLOAD SWAP3 DUP2 ADD DUP4 SWAP1 MSTORE PUSH1 0x2 SWAP1 SWAP2 ADD SLOAD SWAP3 DUP2 ADD SWAP3 SWAP1 SWAP3 MSTORE ISZERO DUP1 ISZERO PUSH2 0x27A3 JUMPI POP DUP1 MLOAD ISZERO DUP1 ISZERO SWAP1 PUSH2 0x27A3 JUMPI POP DUP1 MLOAD PUSH8 0xDE0B6B3A7640000 GT JUMPDEST PUSH2 0x2815 JUMPI PUSH1 0x40 MLOAD PUSH3 0x461BCD PUSH1 0xE5 SHL DUP2 MSTORE PUSH1 0x20 PUSH1 0x4 DUP3 ADD MSTORE PUSH1 0x25 PUSH1 0x24 DUP3 ADD MSTORE PUSH32 0x596F752063616E6E6F7420657865637574652074686973207472616E73616374 PUSH1 0x44 DUP3 ADD MSTORE PUSH32 0x696F6E2021000000000000000000000000000000000000000000000000000000 PUSH1 0x64 DUP3 ADD MSTORE PUSH1 0x84 ADD PUSH2 0x81D JUMP JUMPDEST ADDRESS PUSH1 0x1 PUSH1 0x1 PUSH1 0xA0 SHL SUB DUP9 AND SUB PUSH2 0x285C JUMPI DUP1 MLOAD PUSH1 0x40 MLOAD CALLER SWAP2 DUP1 ISZERO PUSH2 0x8FC MUL SWAP2 PUSH1 0x0 DUP2 DUP2 DUP2 DUP6 DUP9 DUP9 CALL SWAP4 POP POP POP POP ISZERO DUP1 ISZERO PUSH2 0x2852 JUMPI RETURNDATASIZE PUSH1 0x0 DUP1 RETURNDATACOPY RETURNDATASIZE PUSH1 0x0 REVERT JUMPDEST POP PUSH1 0x0 DUP2 MSTORE PUSH2 0x28ED JUMP JUMPDEST PUSH1 0x1 PUSH1 0x1 PUSH1 0xA0 SHL SUB DUP8 DUP2 AND PUSH1 0x0 SWAP1 DUP2 MSTORE PUSH1 0xE PUSH1 0x20 MSTORE PUSH1 0x40 SWAP1 DUP2 SWAP1 KECCAK256 PUSH1 0x1 ADD SLOAD DUP4 MLOAD SWAP2 MLOAD PUSH4 0xA9059CBB PUSH1 0xE0 SHL DUP2 MSTORE CALLER PUSH1 0x4 DUP3 ADD MSTORE PUSH1 0x24 DUP2 ADD SWAP3 SWAP1 SWAP3 MSTORE SWAP1 SWAP2 AND SWAP1 PUSH4 0xA9059CBB SWAP1 PUSH1 0x44 ADD PUSH1 0x20 PUSH1 0x40 MLOAD DUP1 DUP4 SUB DUP2 PUSH1 0x0 DUP8 GAS CALL ISZERO DUP1 ISZERO PUSH2 0x28C3 JUMPI RETURNDATASIZE PUSH1 0x0 DUP1 RETURNDATACOPY RETURNDATASIZE PUSH1 0x0 REVERT JUMPDEST POP POP POP POP PUSH1 0x40 MLOAD RETURNDATASIZE PUSH1 0x1F NOT PUSH1 0x1F DUP3 ADD AND DUP3 ADD DUP1 PUSH1 0x40 MSTORE POP DUP2 ADD SWAP1 PUSH2 0x28E7 SWAP2 SWAP1 PUSH2 0x2F75 JUMP JUMPDEST POP PUSH1 0x0 DUP2 MSTORE JUMPDEST PUSH1 0x20 DUP2 ADD MLOAD ISZERO DUP1 ISZERO PUSH2 0x28FE JUMPI POP DUP1 MLOAD ISZERO JUMPDEST ISZERO PUSH2 0x2935 JUMPI CALLER PUSH1 0x0 SWAP1 DUP2 MSTORE PUSH1 0xD PUSH1 0x20 SWAP1 DUP2 MSTORE PUSH1 0x40 DUP1 DUP4 KECCAK256 PUSH1 0x1 PUSH1 0x1 PUSH1 0xA0 SHL SUB DUP12 AND DUP5 MSTORE SWAP1 SWAP2 MSTORE DUP2 KECCAK256 DUP2 DUP2 SSTORE PUSH1 0x1 DUP2 ADD DUP3 SWAP1 SSTORE PUSH1 0x2 ADD SSTORE JUMPDEST POP PUSH1 0x1 SWAP7 SWAP6 POP POP POP POP POP POP JUMP JUMPDEST PUSH1 0x0 PUSH2 0x9C4 DUP3 DUP5 PUSH2 0x3036 JUMP JUMPDEST PUSH2 0x2958 DUP2 CALLER PUSH2 0x2A9C JUMP JUMPDEST POP JUMP JUMPDEST PUSH1 0x0 PUSH2 0x9C4 DUP3 DUP5 PUSH2 0x2FC0 JUMP JUMPDEST PUSH1 0x0 DUP3 DUP2 MSTORE PUSH1 0x20 DUP2 DUP2 MSTORE PUSH1 0x40 DUP1 DUP4 KECCAK256 PUSH1 0x1 PUSH1 0x1 PUSH1 0xA0 SHL SUB DUP6 AND DUP5 MSTORE SWAP1 SWAP2 MSTORE SWAP1 KECCAK256 SLOAD PUSH1 0xFF AND PUSH2 0x1080 JUMPI PUSH1 0x0 DUP3 DUP2 MSTORE PUSH1 0x20 DUP2 DUP2 MSTORE PUSH1 0x40 DUP1 DUP4 KECCAK256 PUSH1 0x1 PUSH1 0x1 PUSH1 0xA0 SHL SUB DUP6 AND DUP5 MSTORE SWAP1 SWAP2 MSTORE SWAP1 KECCAK256 DUP1 SLOAD PUSH1 0xFF NOT AND PUSH1 0x1 OR SWAP1 SSTORE PUSH2 0x29C1 CALLER SWAP1 JUMP JUMPDEST PUSH1 0x1 PUSH1 0x1 PUSH1 0xA0 SHL SUB AND DUP2 PUSH1 0x1 PUSH1 0x1 PUSH1 0xA0 SHL SUB AND DUP4 PUSH32 0x2F8788117E7EFF1D82E926EC794901D17C78024A50270940304540A733656F0D PUSH1 0x40 MLOAD PUSH1 0x40 MLOAD DUP1 SWAP2 SUB SWAP1 LOG4 POP POP JUMP JUMPDEST PUSH1 0x0 DUP3 DUP2 MSTORE PUSH1 0x20 DUP2 DUP2 MSTORE PUSH1 0x40 DUP1 DUP4 KECCAK256 PUSH1 0x1 PUSH1 0x1 PUSH1 0xA0 SHL SUB DUP6 AND DUP5 MSTORE SWAP1 SWAP2 MSTORE SWAP1 KECCAK256 SLOAD PUSH1 0xFF AND ISZERO PUSH2 0x1080 JUMPI PUSH1 0x0 DUP3 DUP2 MSTORE PUSH1 0x20 DUP2 DUP2 MSTORE PUSH1 0x40 DUP1 DUP4 KECCAK256 PUSH1 0x1 PUSH1 0x1 PUSH1 0xA0 SHL SUB DUP6 AND DUP1 DUP6 MSTORE SWAP3 MSTORE DUP1 DUP4 KECCAK256 DUP1 SLOAD PUSH1 0xFF NOT AND SWAP1 SSTORE MLOAD CALLER SWAP3 DUP6 SWAP2 PUSH32 0xF6391F5C32D9C69D2A47EA670B442974B53935D1EDC7FD64EB21E047A839171B SWAP2 SWAP1 LOG4 POP POP JUMP JUMPDEST PUSH1 0x0 PUSH2 0x9C4 DUP3 DUP5 PUSH2 0x304D JUMP JUMPDEST PUSH1 0x0 PUSH2 0x9C4 DUP3 DUP5 PUSH2 0x2FAD JUMP JUMPDEST PUSH1 0x0 DUP3 DUP2 MSTORE PUSH1 0x20 DUP2 DUP2 MSTORE PUSH1 0x40 DUP1 DUP4 KECCAK256 PUSH1 0x1 PUSH1 0x1 PUSH1 0xA0 SHL SUB DUP6 AND DUP5 MSTORE SWAP1 SWAP2 MSTORE SWAP1 KECCAK256 SLOAD PUSH1 0xFF AND PUSH2 0x1080 JUMPI PUSH2 0x2ACD DUP2 PUSH2 0x2B0F JUMP JUMPDEST PUSH2 0x2AD8 DUP4 PUSH1 0x20 PUSH2 0x2B21 JUMP JUMPDEST PUSH1 0x40 MLOAD PUSH1 0x20 ADD PUSH2 0x2AE9 SWAP3 SWAP2 SWAP1 PUSH2 0x3093 JUMP JUMPDEST PUSH1 0x40 DUP1 MLOAD PUSH1 0x1F NOT DUP2 DUP5 SUB ADD DUP2 MSTORE SWAP1 DUP3 SWAP1 MSTORE PUSH3 0x461BCD PUSH1 0xE5 SHL DUP3 MSTORE PUSH2 0x81D SWAP2 PUSH1 0x4 ADD PUSH2 0x3114 JUMP JUMPDEST PUSH1 0x60 PUSH2 0x8C1 PUSH1 0x1 PUSH1 0x1 PUSH1 0xA0 SHL SUB DUP4 AND PUSH1 0x14 JUMPDEST PUSH1 0x60 PUSH1 0x0 PUSH2 0x2B30 DUP4 PUSH1 0x2 PUSH2 0x3036 JUMP JUMPDEST PUSH2 0x2B3B SWAP1 PUSH1 0x2 PUSH2 0x2FC0 JUMP JUMPDEST PUSH8 0xFFFFFFFFFFFFFFFF DUP2 GT ISZERO PUSH2 0x2B53 JUMPI PUSH2 0x2B53 PUSH2 0x3147 JUMP JUMPDEST PUSH1 0x40 MLOAD SWAP1 DUP1 DUP3 MSTORE DUP1 PUSH1 0x1F ADD PUSH1 0x1F NOT AND PUSH1 0x20 ADD DUP3 ADD PUSH1 0x40 MSTORE DUP1 ISZERO PUSH2 0x2B7D JUMPI PUSH1 0x20 DUP3 ADD DUP2 DUP1 CALLDATASIZE DUP4 CALLDATACOPY ADD SWAP1 POP JUMPDEST POP SWAP1 POP PUSH32 0x3000000000000000000000000000000000000000000000000000000000000000 DUP2 PUSH1 0x0 DUP2 MLOAD DUP2 LT PUSH2 0x2BB4 JUMPI PUSH2 0x2BB4 PUSH2 0x315D JUMP JUMPDEST PUSH1 0x20 ADD ADD SWAP1 PUSH1 0x1 PUSH1 0x1 PUSH1 0xF8 SHL SUB NOT AND SWAP1 DUP2 PUSH1 0x0 BYTE SWAP1 MSTORE8 POP PUSH32 0x7800000000000000000000000000000000000000000000000000000000000000 DUP2 PUSH1 0x1 DUP2 MLOAD DUP2 LT PUSH2 0x2BFF JUMPI PUSH2 0x2BFF PUSH2 0x315D JUMP JUMPDEST PUSH1 0x20 ADD ADD SWAP1 PUSH1 0x1 PUSH1 0x1 PUSH1 0xF8 SHL SUB NOT AND SWAP1 DUP2 PUSH1 0x0 BYTE SWAP1 MSTORE8 POP PUSH1 0x0 PUSH2 0x2C23 DUP5 PUSH1 0x2 PUSH2 0x3036 JUMP JUMPDEST PUSH2 0x2C2E SWAP1 PUSH1 0x1 PUSH2 0x2FC0 JUMP JUMPDEST SWAP1 POP JUMPDEST PUSH1 0x1 DUP2 GT ISZERO PUSH2 0x2CB3 JUMPI PUSH32 0x3031323334353637383961626364656600000000000000000000000000000000 DUP6 PUSH1 0xF AND PUSH1 0x10 DUP2 LT PUSH2 0x2C6F JUMPI PUSH2 0x2C6F PUSH2 0x315D JUMP JUMPDEST BYTE PUSH1 0xF8 SHL DUP3 DUP3 DUP2 MLOAD DUP2 LT PUSH2 0x2C85 JUMPI PUSH2 0x2C85 PUSH2 0x315D JUMP JUMPDEST PUSH1 0x20 ADD ADD SWAP1 PUSH1 0x1 PUSH1 0x1 PUSH1 0xF8 SHL SUB NOT AND SWAP1 DUP2 PUSH1 0x0 BYTE SWAP1 MSTORE8 POP PUSH1 0x4 SWAP5 SWAP1 SWAP5 SHR SWAP4 PUSH2 0x2CAC DUP2 PUSH2 0x3173 JUMP JUMPDEST SWAP1 POP PUSH2 0x2C31 JUMP JUMPDEST POP DUP4 ISZERO PUSH2 0x9C4 JUMPI PUSH1 0x40 MLOAD PUSH3 0x461BCD PUSH1 0xE5 SHL DUP2 MSTORE PUSH1 0x20 PUSH1 0x4 DUP3 ADD DUP2 SWAP1 MSTORE PUSH1 0x24 DUP3 ADD MSTORE PUSH32 0x537472696E67733A20686578206C656E67746820696E73756666696369656E74 PUSH1 0x44 DUP3 ADD MSTORE PUSH1 0x64 ADD PUSH2 0x81D JUMP JUMPDEST PUSH1 0x0 PUSH1 0x20 DUP3 DUP5 SUB SLT ISZERO PUSH2 0x2D14 JUMPI PUSH1 0x0 DUP1 REVERT JUMPDEST DUP2 CALLDATALOAD PUSH32 0xFFFFFFFF00000000000000000000000000000000000000000000000000000000 DUP2 AND DUP2 EQ PUSH2 0x9C4 JUMPI PUSH1 0x0 DUP1 REVERT JUMPDEST DUP1 CALLDATALOAD PUSH1 0x1 PUSH1 0x1 PUSH1 0xA0 SHL SUB DUP2 AND DUP2 EQ PUSH2 0x2390 JUMPI PUSH1 0x0 DUP1 REVERT JUMPDEST PUSH1 0x0 PUSH1 0x20 DUP3 DUP5 SUB SLT ISZERO PUSH2 0x2D6D JUMPI PUSH1 0x0 DUP1 REVERT JUMPDEST PUSH2 0x9C4 DUP3 PUSH2 0x2D44 JUMP JUMPDEST DUP1 CALLDATALOAD PUSH1 0xFF DUP2 AND DUP2 EQ PUSH2 0x2390 JUMPI PUSH1 0x0 DUP1 REVERT JUMPDEST PUSH1 0x0 PUSH1 0x20 DUP3 DUP5 SUB SLT ISZERO PUSH2 0x2D99 JUMPI PUSH1 0x0 DUP1 REVERT JUMPDEST PUSH2 0x9C4 DUP3 PUSH2 0x2D76 JUMP JUMPDEST PUSH1 0x0 DUP1 PUSH1 0x0 PUSH1 0x60 DUP5 DUP7 SUB SLT ISZERO PUSH2 0x2DB7 JUMPI PUSH1 0x0 DUP1 REVERT JUMPDEST PUSH2 0x2DC0 DUP5 PUSH2 0x2D44 JUMP JUMPDEST SWAP3 POP PUSH2 0x2DCE PUSH1 0x20 DUP6 ADD PUSH2 0x2D44 JUMP JUMPDEST SWAP2 POP PUSH1 0x40 DUP5 ADD CALLDATALOAD SWAP1 POP SWAP3 POP SWAP3 POP SWAP3 JUMP JUMPDEST PUSH1 0x0 PUSH1 0x20 DUP3 DUP5 SUB SLT ISZERO PUSH2 0x2DF0 JUMPI PUSH1 0x0 DUP1 REVERT JUMPDEST POP CALLDATALOAD SWAP2 SWAP1 POP JUMP JUMPDEST PUSH1 0x0 DUP1 PUSH1 0x40 DUP4 DUP6 SUB SLT ISZERO PUSH2 0x2E0A JUMPI PUSH1 0x0 DUP1 REVERT JUMPDEST DUP3 CALLDATALOAD SWAP2 POP PUSH2 0x2E1A PUSH1 0x20 DUP5 ADD PUSH2 0x2D44 JUMP JUMPDEST SWAP1 POP SWAP3 POP SWAP3 SWAP1 POP JUMP JUMPDEST PUSH1 0x0 DUP1 PUSH1 0x40 DUP4 DUP6 SUB SLT ISZERO PUSH2 0x2E36 JUMPI PUSH1 0x0 DUP1 REVERT JUMPDEST PUSH2 0x2E3F DUP4 PUSH2 0x2D44 JUMP JUMPDEST SWAP5 PUSH1 0x20 SWAP4 SWAP1 SWAP4 ADD CALLDATALOAD SWAP4 POP POP POP JUMP JUMPDEST PUSH1 0x0 DUP1 PUSH1 0x40 DUP4 DUP6 SUB SLT ISZERO PUSH2 0x2E60 JUMPI PUSH1 0x0 DUP1 REVERT JUMPDEST PUSH2 0x2E69 DUP4 PUSH2 0x2D44 JUMP JUMPDEST SWAP2 POP PUSH2 0x2E1A PUSH1 0x20 DUP5 ADD PUSH2 0x2D44 JUMP JUMPDEST PUSH1 0x0 DUP1 PUSH1 0x0 DUP1 PUSH1 0x0 DUP1 PUSH1 0x0 DUP1 PUSH2 0x100 DUP10 DUP12 SUB SLT ISZERO PUSH2 0x2E94 JUMPI PUSH1 0x0 DUP1 REVERT JUMPDEST PUSH2 0x2E9D DUP10 PUSH2 0x2D44 JUMP JUMPDEST SWAP8 POP PUSH2 0x2EAB PUSH1 0x20 DUP11 ADD PUSH2 0x2D76 JUMP JUMPDEST SWAP7 POP PUSH1 0x40 DUP10 ADD CALLDATALOAD SWAP6 POP PUSH2 0x2EC0 PUSH1 0x60 DUP11 ADD PUSH2 0x2D76 JUMP JUMPDEST SWAP5 POP PUSH1 0x80 DUP10 ADD CALLDATALOAD SWAP4 POP PUSH1 0xA0 DUP10 ADD CALLDATALOAD SWAP3 POP PUSH2 0x2EDC PUSH1 0xC0 DUP11 ADD PUSH2 0x2D76 JUMP JUMPDEST SWAP2 POP PUSH1 0xE0 DUP10 ADD CALLDATALOAD SWAP1 POP SWAP3 SWAP6 SWAP9 POP SWAP3 SWAP6 SWAP9 SWAP1 SWAP4 SWAP7 POP JUMP JUMPDEST DUP1 MLOAD PUSH10 0xFFFFFFFFFFFFFFFFFFFF DUP2 AND DUP2 EQ PUSH2 0x2390 JUMPI PUSH1 0x0 DUP1 REVERT JUMPDEST PUSH1 0x0 DUP1 PUSH1 0x0 DUP1 PUSH1 0x0 PUSH1 0xA0 DUP7 DUP9 SUB SLT ISZERO PUSH2 0x2F24 JUMPI PUSH1 0x0 DUP1 REVERT JUMPDEST PUSH2 0x2F2D DUP7 PUSH2 0x2EF2 JUMP JUMPDEST SWAP5 POP PUSH1 0x20 DUP7 ADD MLOAD SWAP4 POP PUSH1 0x40 DUP7 ADD MLOAD SWAP3 POP PUSH1 0x60 DUP7 ADD MLOAD SWAP2 POP PUSH2 0x2F50 PUSH1 0x80 DUP8 ADD PUSH2 0x2EF2 JUMP JUMPDEST SWAP1 POP SWAP3 SWAP6 POP SWAP3 SWAP6 SWAP1 SWAP4 POP JUMP JUMPDEST PUSH1 0x0 PUSH1 0x20 DUP3 DUP5 SUB SLT ISZERO PUSH2 0x2F6E JUMPI PUSH1 0x0 DUP1 REVERT JUMPDEST POP MLOAD SWAP2 SWAP1 POP JUMP JUMPDEST PUSH1 0x0 PUSH1 0x20 DUP3 DUP5 SUB SLT ISZERO PUSH2 0x2F87 JUMPI PUSH1 0x0 DUP1 REVERT JUMPDEST DUP2 MLOAD DUP1 ISZERO ISZERO DUP2 EQ PUSH2 0x9C4 JUMPI PUSH1 0x0 DUP1 REVERT JUMPDEST PUSH4 0x4E487B71 PUSH1 0xE0 SHL PUSH1 0x0 MSTORE PUSH1 0x11 PUSH1 0x4 MSTORE PUSH1 0x24 PUSH1 0x0 REVERT JUMPDEST DUP2 DUP2 SUB DUP2 DUP2 GT ISZERO PUSH2 0x8C1 JUMPI PUSH2 0x8C1 PUSH2 0x2F97 JUMP JUMPDEST DUP1 DUP3 ADD DUP1 DUP3 GT ISZERO PUSH2 0x8C1 JUMPI PUSH2 0x8C1 PUSH2 0x2F97 JUMP JUMPDEST PUSH3 0xFFFFFF DUP2 DUP2 AND DUP4 DUP3 AND MUL DUP1 DUP3 AND SWAP2 SWAP1 DUP3 DUP2 EQ PUSH2 0x2FF2 JUMPI PUSH2 0x2FF2 PUSH2 0x2F97 JUMP JUMPDEST POP POP SWAP3 SWAP2 POP POP JUMP JUMPDEST PUSH1 0x0 PUSH1 0xFF DUP3 AND PUSH1 0xFF DUP2 SUB PUSH2 0x3010 JUMPI PUSH2 0x3010 PUSH2 0x2F97 JUMP JUMPDEST PUSH1 0x1 ADD SWAP3 SWAP2 POP POP JUMP JUMPDEST PUSH1 0x0 PUSH1 0xFF DUP3 AND DUP1 PUSH2 0x302C JUMPI PUSH2 0x302C PUSH2 0x2F97 JUMP JUMPDEST PUSH1 0x0 NOT ADD SWAP3 SWAP2 POP POP JUMP JUMPDEST DUP1 DUP3 MUL DUP2 ISZERO DUP3 DUP3 DIV DUP5 EQ OR PUSH2 0x8C1 JUMPI PUSH2 0x8C1 PUSH2 0x2F97 JUMP JUMPDEST PUSH1 0x0 DUP3 PUSH2 0x306A JUMPI PUSH4 0x4E487B71 PUSH1 0xE0 SHL PUSH1 0x0 MSTORE PUSH1 0x12 PUSH1 0x4 MSTORE PUSH1 0x24 PUSH1 0x0 REVERT JUMPDEST POP DIV SWAP1 JUMP JUMPDEST PUSH1 0x0 JUMPDEST DUP4 DUP2 LT ISZERO PUSH2 0x308A JUMPI DUP2 DUP2 ADD MLOAD DUP4 DUP3 ADD MSTORE PUSH1 0x20 ADD PUSH2 0x3072 JUMP JUMPDEST POP POP PUSH1 0x0 SWAP2 ADD MSTORE JUMP JUMPDEST PUSH32 0x416363657373436F6E74726F6C3A206163636F756E7420000000000000000000 DUP2 MSTORE PUSH1 0x0 DUP4 MLOAD PUSH2 0x30CB DUP2 PUSH1 0x17 DUP6 ADD PUSH1 0x20 DUP9 ADD PUSH2 0x306F JUMP JUMPDEST PUSH32 0x206973206D697373696E6720726F6C6520000000000000000000000000000000 PUSH1 0x17 SWAP2 DUP5 ADD SWAP2 DUP3 ADD MSTORE DUP4 MLOAD PUSH2 0x3108 DUP2 PUSH1 0x28 DUP5 ADD PUSH1 0x20 DUP9 ADD PUSH2 0x306F JUMP JUMPDEST ADD PUSH1 0x28 ADD SWAP5 SWAP4 POP POP POP POP JUMP JUMPDEST PUSH1 0x20 DUP2 MSTORE PUSH1 0x0 DUP3 MLOAD DUP1 PUSH1 0x20 DUP5 ADD MSTORE PUSH2 0x3133 DUP2 PUSH1 0x40 DUP6 ADD PUSH1 0x20 DUP8 ADD PUSH2 0x306F JUMP JUMPDEST PUSH1 0x1F ADD PUSH1 0x1F NOT AND SWAP2 SWAP1 SWAP2 ADD PUSH1 0x40 ADD SWAP3 SWAP2 POP POP JUMP JUMPDEST PUSH4 0x4E487B71 PUSH1 0xE0 SHL PUSH1 0x0 MSTORE PUSH1 0x41 PUSH1 0x4 MSTORE PUSH1 0x24 PUSH1 0x0 REVERT JUMPDEST PUSH4 0x4E487B71 PUSH1 0xE0 SHL PUSH1 0x0 MSTORE PUSH1 0x32 PUSH1 0x4 MSTORE PUSH1 0x24 PUSH1 0x0 REVERT JUMPDEST PUSH1 0x0 DUP2 PUSH2 0x3182 JUMPI PUSH2 0x3182 PUSH2 0x2F97 JUMP JUMPDEST POP PUSH1 0x0 NOT ADD SWAP1 JUMP INVALID SLOAD PUSH9 0x697320746F6B656E20 PUSH5 0x6F6573206E PUSH16 0x7420737570706F72746564202100A264 PUSH10 0x7066735822122008C199 0xEA 0xCD JUMP 0xBC 0xC0 PREVRANDAO PUSH23 0xB4135DF08846E389690FE513FDCC4A0584ADE7189AFB64 PUSH20 0x6F6C634300081800332CB697566D4FAE71A9E65E 0x4D 0xAC DUP6 EXTCODESIZE CALL 0xE0 0xE8 DUP11 BLOBHASH JUMPI LOG1 SHL 0xB6 0x28 EQ 0xA7 DUP14 AND JUMPDEST 0xB6 0xBB "},"methodIdentifiers":{"DEFAULT_ADMIN_ROLE()":"a217fddf","addToken(address,address)":"5476bd72","borrow(address,uint256)":"4b8a3529","calculateBorrowAmount(address,uint256)":"7c680b85","calculateRepaymentAmount(address,address,uint256)":"7f35fe63","changeOwner(address)":"a6f9dae1","estimateBigBangPrice()":"a7429fd9","getAssetsTotalValue()":"9c2b062d","getBorrowAmounts(address,uint256)":"e3658273","getBorrowerBorrowedAmount(address,address)":"9fd9d671","getBorrowerCollateralBalance(address,address)":"c0ed4a43","getContractBalance(address)":"43ab265f","getHighestPrice()":"bc6f1f1b","getLendingLimitation()":"fa41ac6c","getLoanExpirationDate(address,address)":"ab9af560","getLowestPrice()":"977af228","getNetworkCoinPriceFeed()":"c768ca1e","getOwnerFeePercent()":"20b4f2d9","getOwnerShare()":"019ddb8d","getRepaymentPeriod()":"64c4bec0","getRoleAdmin(bytes32)":"248a9ca3","getTokenLatestPrice(address)":"0413c198","getTotalUsedBigBangs()":"ce6f2a7a","getUserBalance(address,address)":"6805d6ad","getUsersTotalCount()":"6a0775c5","getVoteFee()":"c9c1c4f4","grantRole(bytes32,address)":"2f2ff15d","hasRole(bytes32,address)":"91d14854","owner()":"8da5cb5b","removeToken(address)":"5fa7b584","renounceRole(bytes32,address)":"36568abe","repay(address,address,uint256)":"1da649cf","revokeRole(bytes32,address)":"d547741f","setBusinessLogicDatas(address,uint8,uint256,uint8,uint256,uint256,uint8,uint256)":"597fdaa1","setLendingLimitation(uint8)":"666b7686","setNativeTokenProvider(address)":"601d0f3b","setRepaymentPeriod(uint8)":"0c63cc7d","supportsInterface(bytes4)":"01ffc9a7","withdrawOwnerShare(uint256)":"3af6bbcc","withdrawSmallAmounts(address)":"e4d4d2ff"}}}}}