{"contracts/BigBang_LendingService.sol":{"BigBang_LendingService":{"abi":[{"inputs":[{"internalType":"uint8","name":"_ownerFeePercent","type":"uint8"},{"internalType":"uint8","name":"_voteFee","type":"uint8"},{"internalType":"uint8","name":"_lendingLimitationPercent","type":"uint8"},{"internalType":"uint16","name":"_lowestPrice","type":"uint16"},{"internalType":"uint256","name":"_highestPrice","type":"uint256"},{"internalType":"uint8","name":"_repaymentPeriod","type":"uint8"},{"internalType":"uint256","name":"_ownerShare","type":"uint256"}],"stateMutability":"nonpayable","type":"constructor"},{"anonymous":false,"inputs":[{"indexed":true,"internalType":"address","name":"from","type":"address"},{"indexed":true,"internalType":"address","name":"to","type":"address"},{"indexed":false,"internalType":"uint256","name":"tokens","type":"uint256"}],"name":"Borrowed","type":"event"},{"anonymous":false,"inputs":[{"indexed":true,"internalType":"address","name":"_from","type":"address"},{"indexed":true,"internalType":"address","name":"_to","type":"address"},{"indexed":false,"internalType":"uint256","name":"tokens","type":"uint256"}],"name":"Repaid","type":"event"},{"anonymous":false,"inputs":[{"indexed":true,"internalType":"bytes32","name":"role","type":"bytes32"},{"indexed":true,"internalType":"bytes32","name":"previousAdminRole","type":"bytes32"},{"indexed":true,"internalType":"bytes32","name":"newAdminRole","type":"bytes32"}],"name":"RoleAdminChanged","type":"event"},{"anonymous":false,"inputs":[{"indexed":true,"internalType":"bytes32","name":"role","type":"bytes32"},{"indexed":true,"internalType":"address","name":"account","type":"address"},{"indexed":true,"internalType":"address","name":"sender","type":"address"}],"name":"RoleGranted","type":"event"},{"anonymous":false,"inputs":[{"indexed":true,"internalType":"bytes32","name":"role","type":"bytes32"},{"indexed":true,"internalType":"address","name":"account","type":"address"},{"indexed":true,"internalType":"address","name":"sender","type":"address"}],"name":"RoleRevoked","type":"event"},{"stateMutability":"payable","type":"fallback"},{"inputs":[],"name":"DEFAULT_ADMIN_ROLE","outputs":[{"internalType":"bytes32","name":"","type":"bytes32"}],"stateMutability":"view","type":"function"},{"inputs":[{"internalType":"address","name":"_tokenAddr","type":"address"},{"internalType":"address","name":"_priceFeedContractAddr","type":"address"}],"name":"addToken","outputs":[{"internalType":"bool","name":"","type":"bool"}],"stateMutability":"nonpayable","type":"function"},{"inputs":[{"internalType":"address","name":"_tokenAddr","type":"address"},{"internalType":"uint256","name":"_collateralAmount","type":"uint256"}],"name":"borrow","outputs":[{"internalType":"bool","name":"","type":"bool"}],"stateMutability":"payable","type":"function"},{"inputs":[{"internalType":"address","name":"_tokenAddr","type":"address"},{"internalType":"uint256","name":"_collateralAmount","type":"uint256"}],"name":"calculateBorrowAmount","outputs":[{"internalType":"uint256","name":"","type":"uint256"},{"internalType":"uint256","name":"","type":"uint256"}],"stateMutability":"view","type":"function"},{"inputs":[{"internalType":"address","name":"_borrowerAddr","type":"address"},{"internalType":"address","name":"_tokenAddr","type":"address"},{"internalType":"uint256","name":"_borrowAmount","type":"uint256"}],"name":"calculateRepaymentAmount","outputs":[{"internalType":"uint256","name":"","type":"uint256"}],"stateMutability":"view","type":"function"},{"inputs":[{"internalType":"address","name":"_newOwnerAddr","type":"address"}],"name":"changeOwner","outputs":[{"internalType":"bool","name":"","type":"bool"}],"stateMutability":"nonpayable","type":"function"},{"inputs":[{"internalType":"address","name":"_userAddr","type":"address"}],"name":"checkUserRegistration","outputs":[],"stateMutability":"nonpayable","type":"function"},{"inputs":[{"internalType":"uint256","name":"_ethAmount","type":"uint256"}],"name":"convertEthToWei","outputs":[{"internalType":"uint256","name":"","type":"uint256"}],"stateMutability":"pure","type":"function"},{"inputs":[],"name":"estimateBigBangPrice","outputs":[{"internalType":"uint256","name":"","type":"uint256"}],"stateMutability":"view","type":"function"},{"inputs":[],"name":"getAssetsTotalValue","outputs":[{"internalType":"uint256","name":"","type":"uint256"}],"stateMutability":"view","type":"function"},{"inputs":[{"internalType":"address","name":"_tokenAddr","type":"address"},{"internalType":"uint256","name":"_collateralAmount","type":"uint256"}],"name":"getBorrowAmounts","outputs":[{"internalType":"uint256","name":"","type":"uint256"},{"internalType":"uint256","name":"","type":"uint256"},{"internalType":"uint256","name":"","type":"uint256"}],"stateMutability":"view","type":"function"},{"inputs":[{"internalType":"address","name":"_userAddr","type":"address"},{"internalType":"address","name":"_tokenAddr","type":"address"}],"name":"getBorrowerBorrowedAmount","outputs":[{"internalType":"uint256","name":"","type":"uint256"}],"stateMutability":"view","type":"function"},{"inputs":[{"internalType":"address","name":"_userAddr","type":"address"},{"internalType":"address","name":"_tokenAddr","type":"address"}],"name":"getBorrowerCollateralBalance","outputs":[{"internalType":"uint256","name":"","type":"uint256"}],"stateMutability":"view","type":"function"},{"inputs":[{"internalType":"address","name":"_tokenAddr","type":"address"}],"name":"getContractBalance","outputs":[{"internalType":"uint256","name":"","type":"uint256"}],"stateMutability":"view","type":"function"},{"inputs":[],"name":"getLendingLimitation","outputs":[{"internalType":"uint8","name":"","type":"uint8"}],"stateMutability":"view","type":"function"},{"inputs":[{"internalType":"address","name":"_borrowerAddr","type":"address"},{"internalType":"address","name":"_tokenAddr","type":"address"}],"name":"getLoanExpirationDate","outputs":[{"internalType":"uint256","name":"","type":"uint256"}],"stateMutability":"view","type":"function"},{"inputs":[],"name":"getOwnerShare","outputs":[{"internalType":"uint256","name":"","type":"uint256"}],"stateMutability":"view","type":"function"},{"inputs":[],"name":"getRepaymentPeriod","outputs":[{"internalType":"uint8","name":"","type":"uint8"}],"stateMutability":"view","type":"function"},{"inputs":[{"internalType":"bytes32","name":"role","type":"bytes32"}],"name":"getRoleAdmin","outputs":[{"internalType":"bytes32","name":"","type":"bytes32"}],"stateMutability":"view","type":"function"},{"inputs":[{"internalType":"address","name":"_tokenAddr","type":"address"}],"name":"getTokenLatestPrice","outputs":[{"internalType":"uint256","name":"","type":"uint256"}],"stateMutability":"view","type":"function"},{"inputs":[],"name":"getTotalUsedBigBangs","outputs":[{"internalType":"uint256","name":"","type":"uint256"}],"stateMutability":"view","type":"function"},{"inputs":[{"internalType":"address","name":"_tokenAddr","type":"address"},{"internalType":"address","name":"_userAddr","type":"address"}],"name":"getUserBalance","outputs":[{"internalType":"uint256","name":"","type":"uint256"}],"stateMutability":"view","type":"function"},{"inputs":[],"name":"getUsersTotalCout","outputs":[{"internalType":"uint256","name":"","type":"uint256"}],"stateMutability":"view","type":"function"},{"inputs":[],"name":"getVoteFee","outputs":[{"internalType":"uint256","name":"","type":"uint256"}],"stateMutability":"view","type":"function"},{"inputs":[{"internalType":"bytes32","name":"role","type":"bytes32"},{"internalType":"address","name":"account","type":"address"}],"name":"grantRole","outputs":[],"stateMutability":"nonpayable","type":"function"},{"inputs":[{"internalType":"string","name":"_role","type":"string"},{"internalType":"address","name":"_account","type":"address"}],"name":"grantRole","outputs":[],"stateMutability":"nonpayable","type":"function"},{"inputs":[{"internalType":"bytes32","name":"role","type":"bytes32"},{"internalType":"address","name":"account","type":"address"}],"name":"hasRole","outputs":[{"internalType":"bool","name":"","type":"bool"}],"stateMutability":"view","type":"function"},{"inputs":[],"name":"owner","outputs":[{"internalType":"address","name":"","type":"address"}],"stateMutability":"view","type":"function"},{"inputs":[{"internalType":"address","name":"_tokenAddr","type":"address"}],"name":"removeToken","outputs":[{"internalType":"bool","name":"","type":"bool"}],"stateMutability":"nonpayable","type":"function"},{"inputs":[{"internalType":"bytes32","name":"role","type":"bytes32"},{"internalType":"address","name":"account","type":"address"}],"name":"renounceRole","outputs":[],"stateMutability":"nonpayable","type":"function"},{"inputs":[{"internalType":"address","name":"_borrowerAddr","type":"address"},{"internalType":"address","name":"_tokenAddr","type":"address"},{"internalType":"uint256","name":"_borrowAmount","type":"uint256"}],"name":"repay","outputs":[{"internalType":"bool","name":"","type":"bool"}],"stateMutability":"nonpayable","type":"function"},{"inputs":[{"internalType":"string","name":"_role","type":"string"},{"internalType":"address","name":"_account","type":"address"}],"name":"revokeRole","outputs":[],"stateMutability":"nonpayable","type":"function"},{"inputs":[{"internalType":"bytes32","name":"role","type":"bytes32"},{"internalType":"address","name":"account","type":"address"}],"name":"revokeRole","outputs":[],"stateMutability":"nonpayable","type":"function"},{"inputs":[{"internalType":"uint8","name":"_ownerFeePercent","type":"uint8"},{"internalType":"uint8","name":"_voteFee","type":"uint8"},{"internalType":"uint8","name":"_lendingLimitationPercent","type":"uint8"},{"internalType":"uint16","name":"_lowestPrice","type":"uint16"},{"internalType":"uint256","name":"_highestPrice","type":"uint256"},{"internalType":"uint8","name":"_repaymentPeriod","type":"uint8"},{"internalType":"uint256","name":"_ownerShare","type":"uint256"}],"name":"setBusinessLogicDatas","outputs":[{"internalType":"bool","name":"","type":"bool"}],"stateMutability":"nonpayable","type":"function"},{"inputs":[{"internalType":"uint8","name":"_newLendingLimitationPercent","type":"uint8"}],"name":"setLendingLimitation","outputs":[{"internalType":"bool","name":"","type":"bool"}],"stateMutability":"nonpayable","type":"function"},{"inputs":[{"internalType":"address","name":"_nativeTokenAddr","type":"address"}],"name":"setNativeTokenProvider","outputs":[],"stateMutability":"nonpayable","type":"function"},{"inputs":[{"internalType":"uint8","name":"_newRepaymentPeriod","type":"uint8"}],"name":"setRepaymentPeriod","outputs":[{"internalType":"bool","name":"","type":"bool"}],"stateMutability":"nonpayable","type":"function"},{"inputs":[{"internalType":"bytes4","name":"interfaceId","type":"bytes4"}],"name":"supportsInterface","outputs":[{"internalType":"bool","name":"","type":"bool"}],"stateMutability":"view","type":"function"},{"inputs":[{"internalType":"uint256","name":"_shareAmount","type":"uint256"}],"name":"withdrawOwnerShare","outputs":[{"internalType":"bool","name":"","type":"bool"}],"stateMutability":"nonpayable","type":"function"},{"inputs":[{"internalType":"address","name":"_tokenAddr","type":"address"}],"name":"withdrawSmallAmounts","outputs":[{"internalType":"bool","name":"","type":"bool"}],"stateMutability":"nonpayable","type":"function"},{"stateMutability":"payable","type":"receive"}],"evm":{"bytecode":{"linkReferences":{},"object":"60806040523480156200001157600080fd5b5060405162003fd338038062003fd383398101604081905262000034916200050d565b600180546001600160a01b031916339081179091556200005790600090620000d7565b60015462000090907f46f3eccdd88dd62792ae8eed1be7b9b658477566c49fd85b0d08cf44261c9208906001600160a01b0316620000d7565b600154620000b89060008051602062003fb3833981519152906001600160a01b0316620000d7565b620000c98787878787878762000160565b5050505050505050620006f9565b620000e3828262000258565b6200015c576000828152602081815260408083206001600160a01b03851684529091529020805460ff191660011790556200011b3390565b6001600160a01b0316816001600160a01b0316837f2f8788117e7eff1d82e926ec794901d17c78024a50270940304540a733656f0d60405160405180910390a45b5050565b600060008051602062003fb38339815191526200017d8162000283565b6040518060e001604052808a60ff168152602001620001a58a60ff166200029260201b60201c565b815260ff89166020820152604001620001c261ffff891662000292565b8152602001620001d28762000292565b815260ff86166020820152604001620001eb8562000292565b905280516006805460ff92831660ff1991821617909155602083015160075560408301516008805491841691831691909117905560608301516009556080830151600a5560a0830151600b805491909316911617905560c00151600c556001915050979650505050505050565b6000828152602081815260408083206001600160a01b038516845290915290205460ff165b92915050565b6200028f8133620002a8565b50565b60006200027d82670de0b6b3a764000062000315565b620002b4828262000258565b6200015c57620002c4816200032a565b620002d18360206200033d565b604051602001620002e4929190620005bf565b60408051601f198184030181529082905262461bcd60e51b82526200030c9160040162000638565b60405180910390fd5b600062000323828462000683565b9392505050565b60606200027d6001600160a01b03831660145b606060006200034e83600262000683565b6200035b9060026200069d565b6001600160401b03811115620003755762000375620006b3565b6040519080825280601f01601f191660200182016040528015620003a0576020820181803683370190505b509050600360fc1b81600081518110620003be57620003be620006c9565b60200101906001600160f81b031916908160001a905350600f60fb1b81600181518110620003f057620003f0620006c9565b60200101906001600160f81b031916908160001a90535060006200041684600262000683565b620004239060016200069d565b90505b6001811115620004a5576f181899199a1a9b1b9c1cb0b131b232b360811b85600f16601081106200045b576200045b620006c9565b1a60f81b828281518110620004745762000474620006c9565b60200101906001600160f81b031916908160001a90535060049490941c936200049d81620006df565b905062000426565b508315620003235760405162461bcd60e51b815260206004820181905260248201527f537472696e67733a20686578206c656e67746820696e73756666696369656e7460448201526064016200030c565b805160ff811681146200050857600080fd5b919050565b600080600080600080600060e0888a0312156200052957600080fd5b6200053488620004f6565b96506200054460208901620004f6565b95506200055460408901620004f6565b9450606088015161ffff811681146200056c57600080fd5b608089015190945092506200058460a08901620004f6565b915060c0880151905092959891949750929550565b60005b83811015620005b65781810151838201526020016200059c565b50506000910152565b7f416363657373436f6e74726f6c3a206163636f756e7420000000000000000000815260008351620005f981601785016020880162000599565b7001034b99036b4b9b9b4b733903937b6329607d1b60179184019182015283516200062c81602884016020880162000599565b01602801949350505050565b60208152600082518060208401526200065981604085016020870162000599565b601f01601f19169190910160400192915050565b634e487b7160e01b600052601160045260246000fd5b80820281158282048414176200027d576200027d6200066d565b808201808211156200027d576200027d6200066d565b634e487b7160e01b600052604160045260246000fd5b634e487b7160e01b600052603260045260246000fd5b600081620006f157620006f16200066d565b506000190190565b6138aa80620007096000396000f3fe60806040526004361061028f5760003560e01c80637c680b8511610156578063ab9af560116100bf578063ce6f2a7a11610079578063e365827311610061578063e365827314610768578063e4d4d2ff146107a3578063fa41ac6c146107c357005b8063ce6f2a7a14610733578063d547741f1461074857005b8063c0ed4a43116100a7578063c0ed4a43146106de578063c19ae2ed146106fe578063c9c1c4f41461071e57005b8063ab9af560146106a9578063bef95b10146106c957005b80639fd9d67111610110578063a6f9dae1116100f8578063a6f9dae114610654578063a7429fd914610674578063a900bf431461068957005b80639fd9d6711461061f578063a217fddf1461063f57005b80638da5cb5b1161013e5780638da5cb5b1461058e57806391d14854146105c65780639c2b062d1461060a57005b80637c680b85146105395780637f35fe631461056e57005b806343ab265f116101f8578063601d0f3b116101b2578063666b76861161019a578063666b7686146104d95780636805d6ad146104f9578063731f21a01461051957005b8063601d0f3b1461049357806364c4bec0146104b357005b80634b8a3529116101e05780634b8a3529146104405780635476bd72146104535780635fa7b5841461047357005b806343ab265f1461040057806346233f441461042057005b8063248a9ca3116102495780632f2ff15d116102315780632f2ff15d146103a057806336568abe146103c05780633af6bbcc146103e057005b8063248a9ca3146103505780632a730bef1461038057005b80630413c198116102775780630413c198146102f05780630c63cc7d146103105780631da649cf1461033057005b8063019ddb8d1461029857806301ffc9a7146102c057005b3661029657005b005b3480156102a457600080fd5b506102ad6107db565b6040519081526020015b60405180910390f35b3480156102cc57600080fd5b506102e06102db3660046132fc565b610847565b60405190151581526020016102b7565b3480156102fc57600080fd5b506102ad61030b366004613355565b6108e0565b34801561031c57600080fd5b506102e061032b366004613381565b610a1f565b34801561033c57600080fd5b506102e061034b36600461339c565b610a65565b34801561035c57600080fd5b506102ad61036b3660046133d8565b60009081526020819052604090206001015490565b34801561038c57600080fd5b506102e061039b3660046133f1565b611084565b3480156103ac57600080fd5b506102966103bb366004613472565b61117d565b3480156103cc57600080fd5b506102966103db366004613472565b6111a7565b3480156103ec57600080fd5b506102e06103fb3660046133d8565b611233565b34801561040c57600080fd5b506102ad61041b366004613355565b611389565b34801561042c57600080fd5b506102ad61043b3660046133d8565b6114f4565b6102e061044e36600461349e565b611508565b34801561045f57600080fd5b506102e061046e3660046134c8565b611b54565b34801561047f57600080fd5b506102e061048e366004613355565b611cd5565b34801561049f57600080fd5b506102966104ae366004613355565b611e0d565b3480156104bf57600080fd5b50600b5460ff165b60405160ff90911681526020016102b7565b3480156104e557600080fd5b506102e06104f4366004613381565b611ecb565b34801561050557600080fd5b506102ad6105143660046134c8565b611f12565b34801561052557600080fd5b50610296610534366004613508565b612129565b34801561054557600080fd5b5061055961055436600461349e565b6121ef565b604080519283526020830191909152016102b7565b34801561057a57600080fd5b506102ad61058936600461339c565b612250565b34801561059a57600080fd5b506001546105ae906001600160a01b031681565b6040516001600160a01b0390911681526020016102b7565b3480156105d257600080fd5b506102e06105e1366004613472565b6000918252602082815260408084206001600160a01b0393909316845291905290205460ff1690565b34801561061657600080fd5b506003546102ad565b34801561062b57600080fd5b506102ad61063a3660046134c8565b612427565b34801561064b57600080fd5b506102ad600081565b34801561066057600080fd5b506102e061066f366004613355565b612575565b34801561068057600080fd5b506102ad612606565b34801561069557600080fd5b506102966106a4366004613355565b612667565b3480156106b557600080fd5b506102ad6106c43660046134c8565b6126e9565b3480156106d557600080fd5b506002546102ad565b3480156106ea57600080fd5b506102ad6106f93660046134c8565b612837565b34801561070a57600080fd5b50610296610719366004613508565b612982565b34801561072a57600080fd5b506007546102ad565b34801561073f57600080fd5b506004546102ad565b34801561075457600080fd5b50610296610763366004613472565b612a5e565b34801561077457600080fd5b5061078861078336600461349e565b612a83565b604080519384526020840192909252908201526060016102b7565b3480156107af57600080fd5b506102e06107be366004613355565b612b6a565b3480156107cf57600080fd5b5060085460ff166104c7565b60015460009033906001600160a01b0316811461083f5760405162461bcd60e51b815260206004820152601f60248201527f596f7520617265206e6f74206f776e6572206f6620636f6e747261637420210060448201526064015b60405180910390fd5b5050600c5490565b60007fffffffff0000000000000000000000000000000000000000000000000000000082167f7965db0b0000000000000000000000000000000000000000000000000000000014806108da57507f01ffc9a7000000000000000000000000000000000000000000000000000000007fffffffff000000000000000000000000000000000000000000000000000000008316145b92915050565b6005546000906001600160a01b03908116908316036108fe57600080fd5b306001600160a01b038316036109ab57600073d0d5e3db44de05e9f294bb0a3beeaf030de24ada6001600160a01b031663feaf968c6040518163ffffffff1660e01b815260040160a060405180830381865afa158015610962573d6000803e3d6000fd5b505050506040513d601f19601f8201168201806040525081019061098691906135db565b5050509150506109a46402540be40082612f2b90919063ffffffff16565b9392505050565b6001600160a01b038083166000908152600e60205260408082206002015481517ffeaf968c00000000000000000000000000000000000000000000000000000000815291519293169163feaf968c9160048082019260a0929091908290030181865afa158015610962573d6000803e3d6000fd5b60007f69cd0c85288bcffbe883a45101c678f53f42e27bebea35a677cc62da9fa7f391610a4b81612f37565b600b805460ff191660ff8516179055600191505b50919050565b6000826001600160a01b038116301480610a9957506001600160a01b038082166000818152600e6020526040902054909116145b80610ab157506005546001600160a01b038281169116145b610aeb5760405162461bcd60e51b815260206004820152601f60248201526000805160206138558339815191526044820152606401610836565b6001600160a01b038086166000908152600d6020908152604080832093881683529281529082902082516060810184528154815260018201549281018390526002909101549281019290925286918691151580610b485750805115155b610b945760405162461bcd60e51b815260206004820152601a60248201527f54686973206c6f616e20646f6573206e6f7420657869737420210000000000006044820152606401610836565b610b9d33612667565b6001600160a01b038089166000908152600d60209081526040808320938b1683529290522060010154861115610c615760405162461bcd60e51b815260206004820152604260248201527f54686520696e70757420616d6f756e742069732067726561746572207468616e60448201527f2074686520626f72726f77656420616d6f756e7420666f722074686973206c6f60648201527f616e000000000000000000000000000000000000000000000000000000000000608482015260a401610836565b6005546040516370a0823160e01b81523360048201526001600160a01b03909116906370a0823190602401602060405180830381865afa158015610ca9573d6000803e3d6000fd5b505050506040513d601f19601f82011682018060405250810190610ccd919061362b565b861115610d1c5760405162461bcd60e51b815260206004820152601660248201527f496e73756666696369656e742042616c616e63652021000000000000000000006044820152606401610836565b6000610d29898989612250565b9050306001600160a01b03891603610deb5780610d4530611389565b11610db85760405162461bcd60e51b815260206004820152602660248201527f496e73756666696369656e7420424e422062616c616e636520696e20636f6e7460448201527f72616374202100000000000000000000000000000000000000000000000000006064820152608401610836565b604051339082156108fc029083906000818181858888f19350505050158015610de5573d6000803e3d6000fd5b50610e74565b6001600160a01b038881166000908152600e60205260409081902060010154905163a9059cbb60e01b81523360048201526024810184905291169063a9059cbb906044016020604051808303816000875af1158015610e4e573d6000803e3d6000fd5b505050506040513d601f19601f82011682018060405250810190610e729190613644565b505b6005546040516323b872dd60e01b8152336004820152306024820152604481018990526001600160a01b03909116906323b872dd906064016020604051808303816000875af1158015610ecb573d6000803e3d6000fd5b505050506040513d601f19601f82011682018060405250810190610eef9190613644565b50336000908152600d602090815260408083206001600160a01b038c1684528252918290208251606081018452815481526001820154928101838152600290920154938101939093528991610f4590839061367c565b905250805182908290610f5990839061367c565b905250600b54610f6d90429060ff16612f41565b6040808301918252336000908152600d60209081528282206001600160a01b038e16835281529190208351815590830151600182018190559151600290910155158015610fb957508051155b15610ff4576001600160a01b03808b166000908152600d60209081526040808320938d16835292905290812081815560018101829055600201555b8760046000828254611006919061367c565b9091555061102790506110188a6108e0565b61102184612f4d565b90612f2b565b60036000828254611038919061367c565b9091555050604051888152309033907f0a3fbbea70e93f2daafa3102f5c9a1b8315e6d7a1e43e4bc020bc1162327470a9060200160405180910390a35060019998505050505050505050565b60007f2cb697566d4fae71a9e65e4dac853bf1e0e88a4957a11bb62814a78d165bb6bb6110b081612f37565b6040518060e001604052808a60ff1681526020016110d08a60ff166114f4565b81526020018860ff1681526020016110eb8861ffff166114f4565b81526020016110f9876114f4565b81526020018560ff168152602001611110856114f4565b905280516006805460ff92831660ff1991821617909155602083015160075560408301516008805491841691831691909117905560608301516009556080830151600a5560a0830151600b805491909316911617905560c00151600c556001915050979650505050505050565b60008281526020819052604090206001015461119881612f37565b6111a28383612f61565b505050565b6001600160a01b03811633146112255760405162461bcd60e51b815260206004820152602f60248201527f416363657373436f6e74726f6c3a2063616e206f6e6c792072656e6f756e636560448201527f20726f6c657320666f722073656c6600000000000000000000000000000000006064820152608401610836565b61122f8282612fff565b5050565b60015460009033906001600160a01b031681146112925760405162461bcd60e51b815260206004820152601f60248201527f596f7520617265206e6f74206f776e6572206f6620636f6e74726163742021006044820152606401610836565b600c54158015906112a55750600c548311155b6112f15760405162461bcd60e51b815260206004820152601660248201527f496e73756666696369656e7420696e76656e746f7279000000000000000000006044820152606401610836565b60055460405163a9059cbb60e01b8152336004820152602481018590526001600160a01b039091169063a9059cbb906044016020604051808303816000875af1158015611342573d6000803e3d6000fd5b505050506040513d601f19601f820116820180604052508101906113669190613644565b508260068001600082825461137b919061367c565b909155506001949350505050565b6000816001600160a01b0381163014806113bd57506001600160a01b038082166000818152600e6020526040902054909116145b806113d557506005546001600160a01b038281169116145b61140f5760405162461bcd60e51b815260206004820152601f60248201526000805160206138558339815191526044820152606401610836565b306001600160a01b038416036114285730319150610a5f565b6005546001600160a01b03908116908416036114b2576005546040516370a0823160e01b81523060048201526001600160a01b03909116906370a08231906024015b602060405180830381865afa158015611487573d6000803e3d6000fd5b505050506040513d601f19601f820116820180604052508101906114ab919061362b565b9150610a5f565b6001600160a01b038381166000908152600e6020526040908190206001015490516370a0823160e01b81523060048201529116906370a082319060240161146a565b60006108da82670de0b6b3a7640000612f2b565b6000826001600160a01b03811630148061153c57506001600160a01b038082166000818152600e6020526040902054909116145b8061155457506005546001600160a01b038281169116145b61158e5760405162461bcd60e51b815260206004820152601f60248201526000805160206138558339815191526044820152606401610836565b6005546001600160a01b03908116908516036116125760405162461bcd60e51b815260206004820152603060248201527f596f752063616e6e6f74207573696e67207468697320746f6b656e206173206360448201527f6f6c6c61746572616c20746f6b616e2e000000000000000000000000000000006064820152608401610836565b61161b33612667565b600080600061162a8787612a83565b6001600160a01b038a81166000908152600e6020526040908190206001015460055491516370a0823160e01b8152306004820152959850939650919450918216929116906370a0823190602401602060405180830381865afa158015611694573d6000803e3d6000fd5b505050506040513d601f19601f820116820180604052508101906116b8919061362b565b8311156117125760405162461bcd60e51b815260206004820152602260248201527f496e73756666696369656e742062616c616e636520696e20636f6e7472616374604482015261202160f01b6064820152608401610836565b306001600160a01b0389160361184157863410156117725760405162461bcd60e51b815260206004820152601760248201527f496e73756666696369656e7420424e422073656e7420210000000000000000006044820152606401610836565b33313411156117c35760405162461bcd60e51b815260206004820152601660248201527f496e73756666696369656e742042616c616e63652021000000000000000000006044820152606401610836565b60055460405163a9059cbb60e01b8152336004820152602481018590523498506001600160a01b039091169063a9059cbb906044016020604051808303816000875af1158015611817573d6000803e3d6000fd5b505050506040513d601f19601f8201168201806040525081019061183b9190613644565b506119e7565b6040516370a0823160e01b81523360048201526001600160a01b038216906370a0823190602401602060405180830381865afa158015611885573d6000803e3d6000fd5b505050506040513d601f19601f820116820180604052508101906118a9919061362b565b8711156118f85760405162461bcd60e51b815260206004820152601660248201527f496e73756666696369656e742042616c616e63652021000000000000000000006044820152606401610836565b6040516323b872dd60e01b8152336004820152306024820152604481018890526001600160a01b038216906323b872dd906064016020604051808303816000875af115801561194b573d6000803e3d6000fd5b505050506040513d601f19601f8201168201806040525081019061196f9190613644565b5060055460405163a9059cbb60e01b8152336004820152602481018590526001600160a01b039091169063a9059cbb906044016020604051808303816000875af11580156119c1573d6000803e3d6000fd5b505050506040513d601f19601f820116820180604052508101906119e59190613644565b505b336000908152600d602090815260408083206001600160a01b038c1684528252918290208251606081018452815481526001820154928101838152600290920154938101939093528591611a3c90839061368f565b905250805188908290611a5090839061368f565b905250600b54611a7690611a6a9060ff16620151806136a2565b429062ffffff16612f41565b6040808301918252336000908152600d60209081528282206001600160a01b038e1683528152919020835181559083015160018201559051600290910155600654611ac590869060ff16612f2b565b600c8054600090611ad790849061368f565b925050819055508360046000828254611af0919061368f565b925050819055508260036000828254611b09919061368f565b9091555050604051848152339030907f3fc499aeb0bb1cb58b6de8b02b3f86f4e7394e9690bef0110e32ced8a56310459060200160405180910390a350600198975050505050505050565b60007f2cb697566d4fae71a9e65e4dac853bf1e0e88a4957a11bb62814a78d165bb6bb611b8081612f37565b6001600160a01b038085166000818152600e60205260409020549091169003611c115760405162461bcd60e51b815260206004820152602c60248201527f5468697320746f6b656e20697320616c726561647920616464656420746f207460448201527f686520636f6e74726163742e00000000000000000000000000000000000000006064820152608401610836565b604080516060810182526001600160a01b0380871680835260208084018281528884168587019081526000938452600e909252949091209251835490831673ffffffffffffffffffffffffffffffffffffffff19918216178455935160018085018054928516928716929092179091559051600290930180549390921692909316919091179055805460ff600160a01b90910416906014611cb1836136c1565b91906101000a81548160ff021916908360ff16021790555050600191505092915050565b60007f2cb697566d4fae71a9e65e4dac853bf1e0e88a4957a11bb62814a78d165bb6bb611d0181612f37565b826001600160a01b038116301480611d3357506001600160a01b038082166000818152600e6020526040902054909116145b80611d4b57506005546001600160a01b038281169116145b611d855760405162461bcd60e51b815260206004820152601f60248201526000805160206138558339815191526044820152606401610836565b6001600160a01b0384166000908152600e60205260409020805473ffffffffffffffffffffffffffffffffffffffff19908116825560018083018054831690556002909201805490911690558054600160a01b900460ff16906014611de9836136e0565b91906101000a81548160ff021916908360ff16021790555050600192505050919050565b7f2cb697566d4fae71a9e65e4dac853bf1e0e88a4957a11bb62814a78d165bb6bb611e3781612f37565b6005546001600160a01b031615611e9b5760405162461bcd60e51b815260206004820152602260248201527f546865206e617469766520746f6b656e2063757272656e746c79206164646564604482015261202160f01b6064820152608401610836565b506005805473ffffffffffffffffffffffffffffffffffffffff19166001600160a01b0392909216919091179055565b60007f69cd0c85288bcffbe883a45101c678f53f42e27bebea35a677cc62da9fa7f391611ef781612f37565b6008805460ff851660ff199091161790556001915050919050565b6001600160a01b03811660009081527f4a9bc5a4557ff57d341ab708b60833ab8120d5c3a894429179bd856b4e4843376020526040812054829060ff16611fab5760405162461bcd60e51b815260206004820152602760248201527f546869732061646472657373206973206e6f74206120726567697374657265646044820152662075736572202160c81b6064820152608401610836565b836001600160a01b038116301480611fdd57506001600160a01b038082166000818152600e6020526040902054909116145b80611ff557506005546001600160a01b038281169116145b61202f5760405162461bcd60e51b815260206004820152601f60248201526000805160206138558339815191526044820152606401610836565b306001600160a01b0386160361205157836001600160a01b0316319250612121565b6005546001600160a01b03908116908616036120dd576005546040516370a0823160e01b81526001600160a01b038681166004830152909116906370a08231906024015b602060405180830381865afa1580156120b2573d6000803e3d6000fd5b505050506040513d601f19601f820116820180604052508101906120d6919061362b565b9250612121565b6001600160a01b038581166000908152600e6020526040908190206001015490516370a0823160e01b815286831660048201529116906370a0823190602401612095565b505092915050565b7f46f3eccdd88dd62792ae8eed1be7b9b658477566c49fd85b0d08cf44261c920861215381612f37565b8251602084012061218881846000918252602082815260408084206001600160a01b0393909316845291905290205460ff1690565b6121df5760405162461bcd60e51b815260206004820152602260248201527f526f6c65206e6f742061737369676e656420746f20746865206163636f756e74604482015261202160f01b6064820152608401610836565b6121e98184612fff565b50505050565b6000806000612209612200866108e0565b61102186612f4d565b60085490915060009061222d9060649061222790859060ff16612f2b565b9061307e565b9050600061224361223c612606565b839061307e565b9792965091945050505050565b6000826001600160a01b03811630148061228457506001600160a01b038082166000818152600e6020526040902054909116145b8061229c57506005546001600160a01b038281169116145b6122d65760405162461bcd60e51b815260206004820152601f60248201526000805160206138558339815191526044820152606401610836565b6001600160a01b038086166000908152600d60209081526040808320938816835292815290829020825160608101845281548152600182015492810183905260029091015492810192909252869186911515806123335750805115155b61237f5760405162461bcd60e51b815260206004820152601a60248201527f54686973206c6f616e20646f6573206e6f7420657869737420210000000000006044820152606401610836565b600061238a886108e0565b6001600160a01b03808b166000908152600d60209081526040808320938d16835292905290812054919250906123c09083612f2b565b6001600160a01b03808c166000908152600d60209081526040808320938e16835292905290812060010154919250906123fa90839061307e565b90506000612408828b612f2b565b90506000612416828661307e565b9d9c50505050505050505050505050565b6001600160a01b03821660009081527f4a9bc5a4557ff57d341ab708b60833ab8120d5c3a894429179bd856b4e4843376020526040812054839060ff166124c05760405162461bcd60e51b815260206004820152602760248201527f546869732061646472657373206973206e6f74206120726567697374657265646044820152662075736572202160c81b6064820152608401610836565b826001600160a01b0381163014806124f257506001600160a01b038082166000818152600e6020526040902054909116145b8061250a57506005546001600160a01b038281169116145b6125445760405162461bcd60e51b815260206004820152601f60248201526000805160206138558339815191526044820152606401610836565b5050506001600160a01b039182166000908152600d6020908152604080832093909416825291909152206001015490565b60015460009033906001600160a01b031681146125d45760405162461bcd60e51b815260206004820152601f60248201527f596f7520617265206e6f74206f776e6572206f6620636f6e74726163742021006044820152606401610836565b600180546001600160a01b03851673ffffffffffffffffffffffffffffffffffffffff19909116178155915050919050565b600061261160045490565b600003612625575067016345785d8a000090565b600061263b61263360045490565b600354612227565b60095490915081101561265057505060095490565b600a54811115612662575050600a5490565b919050565b6001600160a01b03811660009081527f64c1f520f44c7bd21582423011f312561b1794cc4c2f15511ff3c55442448f9d602052604090205460ff166126e6576126d07fb021ce726e0715ed246707c90adb0c0b4bd8dbf0f73335491384d0b4ea1e84658261117d565b600280549060006126e0836136fd565b91905055505b50565b6001600160a01b03821660009081527f4a9bc5a4557ff57d341ab708b60833ab8120d5c3a894429179bd856b4e4843376020526040812054839060ff166127825760405162461bcd60e51b815260206004820152602760248201527f546869732061646472657373206973206e6f74206120726567697374657265646044820152662075736572202160c81b6064820152608401610836565b826001600160a01b0381163014806127b457506001600160a01b038082166000818152600e6020526040902054909116145b806127cc57506005546001600160a01b038281169116145b6128065760405162461bcd60e51b815260206004820152601f60248201526000805160206138558339815191526044820152606401610836565b5050506001600160a01b039182166000908152600d6020908152604080832093909416825291909152206002015490565b6001600160a01b03821660009081527f4a9bc5a4557ff57d341ab708b60833ab8120d5c3a894429179bd856b4e4843376020526040812054839060ff166128d05760405162461bcd60e51b815260206004820152602760248201527f546869732061646472657373206973206e6f74206120726567697374657265646044820152662075736572202160c81b6064820152608401610836565b826001600160a01b03811630148061290257506001600160a01b038082166000818152600e6020526040902054909116145b8061291a57506005546001600160a01b038281169116145b6129545760405162461bcd60e51b815260206004820152601f60248201526000805160206138558339815191526044820152606401610836565b5050506001600160a01b039182166000908152600d6020908152604080832093909416825291909152205490565b7f46f3eccdd88dd62792ae8eed1be7b9b658477566c49fd85b0d08cf44261c92086129ac81612f37565b825160208401206129e181846000918252602082815260408084206001600160a01b0393909316845291905290205460ff1690565b15612a545760405162461bcd60e51b815260206004820152602660248201527f526f6c6520616c72656164792061737369676e656420746f207468652061636360448201527f6f756e74202100000000000000000000000000000000000000000000000000006064820152608401610836565b6121e98184612f61565b600082815260208190526040902060010154612a7981612f37565b6111a28383612fff565b60008080846001600160a01b038116301480612ab957506001600160a01b038082166000818152600e6020526040902054909116145b80612ad157506005546001600160a01b038281169116145b612b0b5760405162461bcd60e51b815260206004820152601f60248201526000805160206138558339815191526044820152606401610836565b600080612b1888886121ef565b90925090506000612b2b8361271061307e565b600654909150600090612b499060649061222790879060ff16612f2b565b90506000612b57858361308a565b929b929a50929850909650505050505050565b3360008181527f4a9bc5a4557ff57d341ab708b60833ab8120d5c3a894429179bd856b4e484337602052604081205490919060ff16612bfb5760405162461bcd60e51b815260206004820152602760248201527f546869732061646472657373206973206e6f74206120726567697374657265646044820152662075736572202160c81b6064820152608401610836565b826001600160a01b038116301480612c2d57506001600160a01b038082166000818152600e6020526040902054909116145b80612c4557506005546001600160a01b038281169116145b612c7f5760405162461bcd60e51b815260206004820152601f60248201526000805160206138558339815191526044820152606401610836565b336000818152600d602090815260408083206001600160a01b0389168452825291829020825160608101845281548152600182015492810183905260029091015492810192909252869190151580612cd75750805115155b612d235760405162461bcd60e51b815260206004820152601a60248201527f54686973206c6f616e20646f6573206e6f7420657869737420210000000000006044820152606401610836565b336000908152600d602090815260408083206001600160a01b038b168452825291829020825160608101845281548152600182015492810183905260029091015492810192909252158015612d8b5750805115801590612d8b57508051670de0b6b3a7640000115b612dfd5760405162461bcd60e51b815260206004820152602560248201527f596f752063616e6e6f7420657865637574652074686973207472616e7361637460448201527f696f6e20210000000000000000000000000000000000000000000000000000006064820152608401610836565b306001600160a01b03891603612e44578051604051339180156108fc02916000818181858888f19350505050158015612e3a573d6000803e3d6000fd5b5060008152612ed5565b6001600160a01b038881166000908152600e602052604090819020600101548351915163a9059cbb60e01b815233600482015260248101929092529091169063a9059cbb906044016020604051808303816000875af1158015612eab573d6000803e3d6000fd5b505050506040513d601f19601f82011682018060405250810190612ecf9190613644565b50600081525b6020810151158015612ee657508051155b15612f1d57336000908152600d602090815260408083206001600160a01b038c168452909152812081815560018101829055600201555b506001979650505050505050565b60006109a48284613716565b6126e68133613096565b60006109a4828461368f565b60006108da82670de0b6b3a764000061307e565b6000828152602081815260408083206001600160a01b038516845290915290205460ff1661122f576000828152602081815260408083206001600160a01b03851684529091529020805460ff19166001179055612fbb3390565b6001600160a01b0316816001600160a01b0316837f2f8788117e7eff1d82e926ec794901d17c78024a50270940304540a733656f0d60405160405180910390a45050565b6000828152602081815260408083206001600160a01b038516845290915290205460ff161561122f576000828152602081815260408083206001600160a01b0385168085529252808320805460ff1916905551339285917ff6391f5c32d9c69d2a47ea670b442974b53935d1edc7fd64eb21e047a839171b9190a45050565b60006109a4828461372d565b60006109a4828461367c565b6000828152602081815260408083206001600160a01b038516845290915290205460ff1661122f576130c781613109565b6130d283602061311b565b6040516020016130e3929190613773565b60408051601f198184030181529082905262461bcd60e51b8252610836916004016137f4565b60606108da6001600160a01b03831660145b6060600061312a836002613716565b61313590600261368f565b67ffffffffffffffff81111561314d5761314d6134f2565b6040519080825280601f01601f191660200182016040528015613177576020820181803683370190505b5090507f3000000000000000000000000000000000000000000000000000000000000000816000815181106131ae576131ae613827565b60200101906001600160f81b031916908160001a9053507f7800000000000000000000000000000000000000000000000000000000000000816001815181106131f9576131f9613827565b60200101906001600160f81b031916908160001a905350600061321d846002613716565b61322890600161368f565b90505b60018111156132ad577f303132333435363738396162636465660000000000000000000000000000000085600f166010811061326957613269613827565b1a60f81b82828151811061327f5761327f613827565b60200101906001600160f81b031916908160001a90535060049490941c936132a68161383d565b905061322b565b5083156109a45760405162461bcd60e51b815260206004820181905260248201527f537472696e67733a20686578206c656e67746820696e73756666696369656e746044820152606401610836565b60006020828403121561330e57600080fd5b81357fffffffff00000000000000000000000000000000000000000000000000000000811681146109a457600080fd5b80356001600160a01b038116811461266257600080fd5b60006020828403121561336757600080fd5b6109a48261333e565b803560ff8116811461266257600080fd5b60006020828403121561339357600080fd5b6109a482613370565b6000806000606084860312156133b157600080fd5b6133ba8461333e565b92506133c86020850161333e565b9150604084013590509250925092565b6000602082840312156133ea57600080fd5b5035919050565b600080600080600080600060e0888a03121561340c57600080fd5b61341588613370565b965061342360208901613370565b955061343160408901613370565b9450606088013561ffff8116811461344857600080fd5b93506080880135925061345d60a08901613370565b915060c0880135905092959891949750929550565b6000806040838503121561348557600080fd5b823591506134956020840161333e565b90509250929050565b600080604083850312156134b157600080fd5b6134ba8361333e565b946020939093013593505050565b600080604083850312156134db57600080fd5b6134e48361333e565b91506134956020840161333e565b634e487b7160e01b600052604160045260246000fd5b6000806040838503121561351b57600080fd5b823567ffffffffffffffff8082111561353357600080fd5b818501915085601f83011261354757600080fd5b813581811115613559576135596134f2565b604051601f8201601f19908116603f01168101908382118183101715613581576135816134f2565b8160405282815288602084870101111561359a57600080fd5b8260208601602083013760006020848301015280965050505050506134956020840161333e565b805169ffffffffffffffffffff8116811461266257600080fd5b600080600080600060a086880312156135f357600080fd5b6135fc866135c1565b945060208601519350604086015192506060860151915061361f608087016135c1565b90509295509295909350565b60006020828403121561363d57600080fd5b5051919050565b60006020828403121561365657600080fd5b815180151581146109a457600080fd5b634e487b7160e01b600052601160045260246000fd5b818103818111156108da576108da613666565b808201808211156108da576108da613666565b62ffffff81811683821602808216919082811461212157612121613666565b600060ff821660ff81036136d7576136d7613666565b60010192915050565b600060ff8216806136f3576136f3613666565b6000190192915050565b60006001820161370f5761370f613666565b5060010190565b80820281158282048414176108da576108da613666565b60008261374a57634e487b7160e01b600052601260045260246000fd5b500490565b60005b8381101561376a578181015183820152602001613752565b50506000910152565b7f416363657373436f6e74726f6c3a206163636f756e74200000000000000000008152600083516137ab81601785016020880161374f565b7f206973206d697373696e6720726f6c652000000000000000000000000000000060179184019182015283516137e881602884016020880161374f565b01602801949350505050565b602081526000825180602084015261381381604085016020870161374f565b601f01601f19169190910160400192915050565b634e487b7160e01b600052603260045260246000fd5b60008161384c5761384c613666565b50600019019056fe5468697320746f6b656e20646f6573206e6f7420737570706f72746564202100a2646970667358221220eddb07f25c0f1c7452134d0fe9ac4c407ae1da1a5c9060826c4ae3898e0c73b664736f6c634300081800332cb697566d4fae71a9e65e4dac853bf1e0e88a4957a11bb62814a78d165bb6bb","opcodes":"PUSH1 0x80 PUSH1 0x40 MSTORE CALLVALUE DUP1 ISZERO PUSH3 0x11 JUMPI PUSH1 0x0 DUP1 REVERT JUMPDEST POP PUSH1 0x40 MLOAD PUSH3 0x3FD3 CODESIZE SUB DUP1 PUSH3 0x3FD3 DUP4 CODECOPY DUP2 ADD PUSH1 0x40 DUP2 SWAP1 MSTORE PUSH3 0x34 SWAP2 PUSH3 0x50D JUMP JUMPDEST PUSH1 0x1 DUP1 SLOAD PUSH1 0x1 PUSH1 0x1 PUSH1 0xA0 SHL SUB NOT AND CALLER SWAP1 DUP2 OR SWAP1 SWAP2 SSTORE PUSH3 0x57 SWAP1 PUSH1 0x0 SWAP1 PUSH3 0xD7 JUMP JUMPDEST PUSH1 0x1 SLOAD PUSH3 0x90 SWAP1 PUSH32 0x46F3ECCDD88DD62792AE8EED1BE7B9B658477566C49FD85B0D08CF44261C9208 SWAP1 PUSH1 0x1 PUSH1 0x1 PUSH1 0xA0 SHL SUB AND PUSH3 0xD7 JUMP JUMPDEST PUSH1 0x1 SLOAD PUSH3 0xB8 SWAP1 PUSH1 0x0 DUP1 MLOAD PUSH1 0x20 PUSH3 0x3FB3 DUP4 CODECOPY DUP2 MLOAD SWAP2 MSTORE SWAP1 PUSH1 0x1 PUSH1 0x1 PUSH1 0xA0 SHL SUB AND PUSH3 0xD7 JUMP JUMPDEST PUSH3 0xC9 DUP8 DUP8 DUP8 DUP8 DUP8 DUP8 DUP8 PUSH3 0x160 JUMP JUMPDEST POP POP POP POP POP POP POP POP PUSH3 0x6F9 JUMP JUMPDEST PUSH3 0xE3 DUP3 DUP3 PUSH3 0x258 JUMP JUMPDEST PUSH3 0x15C JUMPI PUSH1 0x0 DUP3 DUP2 MSTORE PUSH1 0x20 DUP2 DUP2 MSTORE PUSH1 0x40 DUP1 DUP4 KECCAK256 PUSH1 0x1 PUSH1 0x1 PUSH1 0xA0 SHL SUB DUP6 AND DUP5 MSTORE SWAP1 SWAP2 MSTORE SWAP1 KECCAK256 DUP1 SLOAD PUSH1 0xFF NOT AND PUSH1 0x1 OR SWAP1 SSTORE PUSH3 0x11B CALLER SWAP1 JUMP JUMPDEST PUSH1 0x1 PUSH1 0x1 PUSH1 0xA0 SHL SUB AND DUP2 PUSH1 0x1 PUSH1 0x1 PUSH1 0xA0 SHL SUB AND DUP4 PUSH32 0x2F8788117E7EFF1D82E926EC794901D17C78024A50270940304540A733656F0D PUSH1 0x40 MLOAD PUSH1 0x40 MLOAD DUP1 SWAP2 SUB SWAP1 LOG4 JUMPDEST POP POP JUMP JUMPDEST PUSH1 0x0 PUSH1 0x0 DUP1 MLOAD PUSH1 0x20 PUSH3 0x3FB3 DUP4 CODECOPY DUP2 MLOAD SWAP2 MSTORE PUSH3 0x17D DUP2 PUSH3 0x283 JUMP JUMPDEST PUSH1 0x40 MLOAD DUP1 PUSH1 0xE0 ADD PUSH1 0x40 MSTORE DUP1 DUP11 PUSH1 0xFF AND DUP2 MSTORE PUSH1 0x20 ADD PUSH3 0x1A5 DUP11 PUSH1 0xFF AND PUSH3 0x292 PUSH1 0x20 SHL PUSH1 0x20 SHR JUMP JUMPDEST DUP2 MSTORE PUSH1 0xFF DUP10 AND PUSH1 0x20 DUP3 ADD MSTORE PUSH1 0x40 ADD PUSH3 0x1C2 PUSH2 0xFFFF DUP10 AND PUSH3 0x292 JUMP JUMPDEST DUP2 MSTORE PUSH1 0x20 ADD PUSH3 0x1D2 DUP8 PUSH3 0x292 JUMP JUMPDEST DUP2 MSTORE PUSH1 0xFF DUP7 AND PUSH1 0x20 DUP3 ADD MSTORE PUSH1 0x40 ADD PUSH3 0x1EB DUP6 PUSH3 0x292 JUMP JUMPDEST SWAP1 MSTORE DUP1 MLOAD PUSH1 0x6 DUP1 SLOAD PUSH1 0xFF SWAP3 DUP4 AND PUSH1 0xFF NOT SWAP2 DUP3 AND OR SWAP1 SWAP2 SSTORE PUSH1 0x20 DUP4 ADD MLOAD PUSH1 0x7 SSTORE PUSH1 0x40 DUP4 ADD MLOAD PUSH1 0x8 DUP1 SLOAD SWAP2 DUP5 AND SWAP2 DUP4 AND SWAP2 SWAP1 SWAP2 OR SWAP1 SSTORE PUSH1 0x60 DUP4 ADD MLOAD PUSH1 0x9 SSTORE PUSH1 0x80 DUP4 ADD MLOAD PUSH1 0xA SSTORE PUSH1 0xA0 DUP4 ADD MLOAD PUSH1 0xB DUP1 SLOAD SWAP2 SWAP1 SWAP4 AND SWAP2 AND OR SWAP1 SSTORE PUSH1 0xC0 ADD MLOAD PUSH1 0xC SSTORE PUSH1 0x1 SWAP2 POP POP SWAP8 SWAP7 POP POP POP POP POP POP POP JUMP JUMPDEST PUSH1 0x0 DUP3 DUP2 MSTORE PUSH1 0x20 DUP2 DUP2 MSTORE PUSH1 0x40 DUP1 DUP4 KECCAK256 PUSH1 0x1 PUSH1 0x1 PUSH1 0xA0 SHL SUB DUP6 AND DUP5 MSTORE SWAP1 SWAP2 MSTORE SWAP1 KECCAK256 SLOAD PUSH1 0xFF AND JUMPDEST SWAP3 SWAP2 POP POP JUMP JUMPDEST PUSH3 0x28F DUP2 CALLER PUSH3 0x2A8 JUMP JUMPDEST POP JUMP JUMPDEST PUSH1 0x0 PUSH3 0x27D DUP3 PUSH8 0xDE0B6B3A7640000 PUSH3 0x315 JUMP JUMPDEST PUSH3 0x2B4 DUP3 DUP3 PUSH3 0x258 JUMP JUMPDEST PUSH3 0x15C JUMPI PUSH3 0x2C4 DUP2 PUSH3 0x32A JUMP JUMPDEST PUSH3 0x2D1 DUP4 PUSH1 0x20 PUSH3 0x33D JUMP JUMPDEST PUSH1 0x40 MLOAD PUSH1 0x20 ADD PUSH3 0x2E4 SWAP3 SWAP2 SWAP1 PUSH3 0x5BF JUMP JUMPDEST PUSH1 0x40 DUP1 MLOAD PUSH1 0x1F NOT DUP2 DUP5 SUB ADD DUP2 MSTORE SWAP1 DUP3 SWAP1 MSTORE PUSH3 0x461BCD PUSH1 0xE5 SHL DUP3 MSTORE PUSH3 0x30C SWAP2 PUSH1 0x4 ADD PUSH3 0x638 JUMP JUMPDEST PUSH1 0x40 MLOAD DUP1 SWAP2 SUB SWAP1 REVERT JUMPDEST PUSH1 0x0 PUSH3 0x323 DUP3 DUP5 PUSH3 0x683 JUMP JUMPDEST SWAP4 SWAP3 POP POP POP JUMP JUMPDEST PUSH1 0x60 PUSH3 0x27D PUSH1 0x1 PUSH1 0x1 PUSH1 0xA0 SHL SUB DUP4 AND PUSH1 0x14 JUMPDEST PUSH1 0x60 PUSH1 0x0 PUSH3 0x34E DUP4 PUSH1 0x2 PUSH3 0x683 JUMP JUMPDEST PUSH3 0x35B SWAP1 PUSH1 0x2 PUSH3 0x69D JUMP JUMPDEST PUSH1 0x1 PUSH1 0x1 PUSH1 0x40 SHL SUB DUP2 GT ISZERO PUSH3 0x375 JUMPI PUSH3 0x375 PUSH3 0x6B3 JUMP JUMPDEST PUSH1 0x40 MLOAD SWAP1 DUP1 DUP3 MSTORE DUP1 PUSH1 0x1F ADD PUSH1 0x1F NOT AND PUSH1 0x20 ADD DUP3 ADD PUSH1 0x40 MSTORE DUP1 ISZERO PUSH3 0x3A0 JUMPI PUSH1 0x20 DUP3 ADD DUP2 DUP1 CALLDATASIZE DUP4 CALLDATACOPY ADD SWAP1 POP JUMPDEST POP SWAP1 POP PUSH1 0x3 PUSH1 0xFC SHL DUP2 PUSH1 0x0 DUP2 MLOAD DUP2 LT PUSH3 0x3BE JUMPI PUSH3 0x3BE PUSH3 0x6C9 JUMP JUMPDEST PUSH1 0x20 ADD ADD SWAP1 PUSH1 0x1 PUSH1 0x1 PUSH1 0xF8 SHL SUB NOT AND SWAP1 DUP2 PUSH1 0x0 BYTE SWAP1 MSTORE8 POP PUSH1 0xF PUSH1 0xFB SHL DUP2 PUSH1 0x1 DUP2 MLOAD DUP2 LT PUSH3 0x3F0 JUMPI PUSH3 0x3F0 PUSH3 0x6C9 JUMP JUMPDEST PUSH1 0x20 ADD ADD SWAP1 PUSH1 0x1 PUSH1 0x1 PUSH1 0xF8 SHL SUB NOT AND SWAP1 DUP2 PUSH1 0x0 BYTE SWAP1 MSTORE8 POP PUSH1 0x0 PUSH3 0x416 DUP5 PUSH1 0x2 PUSH3 0x683 JUMP JUMPDEST PUSH3 0x423 SWAP1 PUSH1 0x1 PUSH3 0x69D JUMP JUMPDEST SWAP1 POP JUMPDEST PUSH1 0x1 DUP2 GT ISZERO PUSH3 0x4A5 JUMPI PUSH16 0x181899199A1A9B1B9C1CB0B131B232B3 PUSH1 0x81 SHL DUP6 PUSH1 0xF AND PUSH1 0x10 DUP2 LT PUSH3 0x45B JUMPI PUSH3 0x45B PUSH3 0x6C9 JUMP JUMPDEST BYTE PUSH1 0xF8 SHL DUP3 DUP3 DUP2 MLOAD DUP2 LT PUSH3 0x474 JUMPI PUSH3 0x474 PUSH3 0x6C9 JUMP JUMPDEST PUSH1 0x20 ADD ADD SWAP1 PUSH1 0x1 PUSH1 0x1 PUSH1 0xF8 SHL SUB NOT AND SWAP1 DUP2 PUSH1 0x0 BYTE SWAP1 MSTORE8 POP PUSH1 0x4 SWAP5 SWAP1 SWAP5 SHR SWAP4 PUSH3 0x49D DUP2 PUSH3 0x6DF JUMP JUMPDEST SWAP1 POP PUSH3 0x426 JUMP JUMPDEST POP DUP4 ISZERO PUSH3 0x323 JUMPI PUSH1 0x40 MLOAD PUSH3 0x461BCD PUSH1 0xE5 SHL DUP2 MSTORE PUSH1 0x20 PUSH1 0x4 DUP3 ADD DUP2 SWAP1 MSTORE PUSH1 0x24 DUP3 ADD MSTORE PUSH32 0x537472696E67733A20686578206C656E67746820696E73756666696369656E74 PUSH1 0x44 DUP3 ADD MSTORE PUSH1 0x64 ADD PUSH3 0x30C JUMP JUMPDEST DUP1 MLOAD PUSH1 0xFF DUP2 AND DUP2 EQ PUSH3 0x508 JUMPI PUSH1 0x0 DUP1 REVERT JUMPDEST SWAP2 SWAP1 POP JUMP JUMPDEST PUSH1 0x0 DUP1 PUSH1 0x0 DUP1 PUSH1 0x0 DUP1 PUSH1 0x0 PUSH1 0xE0 DUP9 DUP11 SUB SLT ISZERO PUSH3 0x529 JUMPI PUSH1 0x0 DUP1 REVERT JUMPDEST PUSH3 0x534 DUP9 PUSH3 0x4F6 JUMP JUMPDEST SWAP7 POP PUSH3 0x544 PUSH1 0x20 DUP10 ADD PUSH3 0x4F6 JUMP JUMPDEST SWAP6 POP PUSH3 0x554 PUSH1 0x40 DUP10 ADD PUSH3 0x4F6 JUMP JUMPDEST SWAP5 POP PUSH1 0x60 DUP9 ADD MLOAD PUSH2 0xFFFF DUP2 AND DUP2 EQ PUSH3 0x56C JUMPI PUSH1 0x0 DUP1 REVERT JUMPDEST PUSH1 0x80 DUP10 ADD MLOAD SWAP1 SWAP5 POP SWAP3 POP PUSH3 0x584 PUSH1 0xA0 DUP10 ADD PUSH3 0x4F6 JUMP JUMPDEST SWAP2 POP PUSH1 0xC0 DUP9 ADD MLOAD SWAP1 POP SWAP3 SWAP6 SWAP9 SWAP2 SWAP5 SWAP8 POP SWAP3 SWAP6 POP JUMP JUMPDEST PUSH1 0x0 JUMPDEST DUP4 DUP2 LT ISZERO PUSH3 0x5B6 JUMPI DUP2 DUP2 ADD MLOAD DUP4 DUP3 ADD MSTORE PUSH1 0x20 ADD PUSH3 0x59C JUMP JUMPDEST POP POP PUSH1 0x0 SWAP2 ADD MSTORE JUMP JUMPDEST PUSH32 0x416363657373436F6E74726F6C3A206163636F756E7420000000000000000000 DUP2 MSTORE PUSH1 0x0 DUP4 MLOAD PUSH3 0x5F9 DUP2 PUSH1 0x17 DUP6 ADD PUSH1 0x20 DUP9 ADD PUSH3 0x599 JUMP JUMPDEST PUSH17 0x1034B99036B4B9B9B4B733903937B6329 PUSH1 0x7D SHL PUSH1 0x17 SWAP2 DUP5 ADD SWAP2 DUP3 ADD MSTORE DUP4 MLOAD PUSH3 0x62C DUP2 PUSH1 0x28 DUP5 ADD PUSH1 0x20 DUP9 ADD PUSH3 0x599 JUMP JUMPDEST ADD PUSH1 0x28 ADD SWAP5 SWAP4 POP POP POP POP JUMP JUMPDEST PUSH1 0x20 DUP2 MSTORE PUSH1 0x0 DUP3 MLOAD DUP1 PUSH1 0x20 DUP5 ADD MSTORE PUSH3 0x659 DUP2 PUSH1 0x40 DUP6 ADD PUSH1 0x20 DUP8 ADD PUSH3 0x599 JUMP JUMPDEST PUSH1 0x1F ADD PUSH1 0x1F NOT AND SWAP2 SWAP1 SWAP2 ADD PUSH1 0x40 ADD SWAP3 SWAP2 POP POP JUMP JUMPDEST PUSH4 0x4E487B71 PUSH1 0xE0 SHL PUSH1 0x0 MSTORE PUSH1 0x11 PUSH1 0x4 MSTORE PUSH1 0x24 PUSH1 0x0 REVERT JUMPDEST DUP1 DUP3 MUL DUP2 ISZERO DUP3 DUP3 DIV DUP5 EQ OR PUSH3 0x27D JUMPI PUSH3 0x27D PUSH3 0x66D JUMP JUMPDEST DUP1 DUP3 ADD DUP1 DUP3 GT ISZERO PUSH3 0x27D JUMPI PUSH3 0x27D PUSH3 0x66D JUMP JUMPDEST PUSH4 0x4E487B71 PUSH1 0xE0 SHL PUSH1 0x0 MSTORE PUSH1 0x41 PUSH1 0x4 MSTORE PUSH1 0x24 PUSH1 0x0 REVERT JUMPDEST PUSH4 0x4E487B71 PUSH1 0xE0 SHL PUSH1 0x0 MSTORE PUSH1 0x32 PUSH1 0x4 MSTORE PUSH1 0x24 PUSH1 0x0 REVERT JUMPDEST PUSH1 0x0 DUP2 PUSH3 0x6F1 JUMPI PUSH3 0x6F1 PUSH3 0x66D JUMP JUMPDEST POP PUSH1 0x0 NOT ADD SWAP1 JUMP JUMPDEST PUSH2 0x38AA DUP1 PUSH3 0x709 PUSH1 0x0 CODECOPY PUSH1 0x0 RETURN INVALID PUSH1 0x80 PUSH1 0x40 MSTORE PUSH1 0x4 CALLDATASIZE LT PUSH2 0x28F JUMPI PUSH1 0x0 CALLDATALOAD PUSH1 0xE0 SHR DUP1 PUSH4 0x7C680B85 GT PUSH2 0x156 JUMPI DUP1 PUSH4 0xAB9AF560 GT PUSH2 0xBF JUMPI DUP1 PUSH4 0xCE6F2A7A GT PUSH2 0x79 JUMPI DUP1 PUSH4 0xE3658273 GT PUSH2 0x61 JUMPI DUP1 PUSH4 0xE3658273 EQ PUSH2 0x768 JUMPI DUP1 PUSH4 0xE4D4D2FF EQ PUSH2 0x7A3 JUMPI DUP1 PUSH4 0xFA41AC6C EQ PUSH2 0x7C3 JUMPI STOP JUMPDEST DUP1 PUSH4 0xCE6F2A7A EQ PUSH2 0x733 JUMPI DUP1 PUSH4 0xD547741F EQ PUSH2 0x748 JUMPI STOP JUMPDEST DUP1 PUSH4 0xC0ED4A43 GT PUSH2 0xA7 JUMPI DUP1 PUSH4 0xC0ED4A43 EQ PUSH2 0x6DE JUMPI DUP1 PUSH4 0xC19AE2ED EQ PUSH2 0x6FE JUMPI DUP1 PUSH4 0xC9C1C4F4 EQ PUSH2 0x71E JUMPI STOP JUMPDEST DUP1 PUSH4 0xAB9AF560 EQ PUSH2 0x6A9 JUMPI DUP1 PUSH4 0xBEF95B10 EQ PUSH2 0x6C9 JUMPI STOP JUMPDEST DUP1 PUSH4 0x9FD9D671 GT PUSH2 0x110 JUMPI DUP1 PUSH4 0xA6F9DAE1 GT PUSH2 0xF8 JUMPI DUP1 PUSH4 0xA6F9DAE1 EQ PUSH2 0x654 JUMPI DUP1 PUSH4 0xA7429FD9 EQ PUSH2 0x674 JUMPI DUP1 PUSH4 0xA900BF43 EQ PUSH2 0x689 JUMPI STOP JUMPDEST DUP1 PUSH4 0x9FD9D671 EQ PUSH2 0x61F JUMPI DUP1 PUSH4 0xA217FDDF EQ PUSH2 0x63F JUMPI STOP JUMPDEST DUP1 PUSH4 0x8DA5CB5B GT PUSH2 0x13E JUMPI DUP1 PUSH4 0x8DA5CB5B EQ PUSH2 0x58E JUMPI DUP1 PUSH4 0x91D14854 EQ PUSH2 0x5C6 JUMPI DUP1 PUSH4 0x9C2B062D EQ PUSH2 0x60A JUMPI STOP JUMPDEST DUP1 PUSH4 0x7C680B85 EQ PUSH2 0x539 JUMPI DUP1 PUSH4 0x7F35FE63 EQ PUSH2 0x56E JUMPI STOP JUMPDEST DUP1 PUSH4 0x43AB265F GT PUSH2 0x1F8 JUMPI DUP1 PUSH4 0x601D0F3B GT PUSH2 0x1B2 JUMPI DUP1 PUSH4 0x666B7686 GT PUSH2 0x19A JUMPI DUP1 PUSH4 0x666B7686 EQ PUSH2 0x4D9 JUMPI DUP1 PUSH4 0x6805D6AD EQ PUSH2 0x4F9 JUMPI DUP1 PUSH4 0x731F21A0 EQ PUSH2 0x519 JUMPI STOP JUMPDEST DUP1 PUSH4 0x601D0F3B EQ PUSH2 0x493 JUMPI DUP1 PUSH4 0x64C4BEC0 EQ PUSH2 0x4B3 JUMPI STOP JUMPDEST DUP1 PUSH4 0x4B8A3529 GT PUSH2 0x1E0 JUMPI DUP1 PUSH4 0x4B8A3529 EQ PUSH2 0x440 JUMPI DUP1 PUSH4 0x5476BD72 EQ PUSH2 0x453 JUMPI DUP1 PUSH4 0x5FA7B584 EQ PUSH2 0x473 JUMPI STOP JUMPDEST DUP1 PUSH4 0x43AB265F EQ PUSH2 0x400 JUMPI DUP1 PUSH4 0x46233F44 EQ PUSH2 0x420 JUMPI STOP JUMPDEST DUP1 PUSH4 0x248A9CA3 GT PUSH2 0x249 JUMPI DUP1 PUSH4 0x2F2FF15D GT PUSH2 0x231 JUMPI DUP1 PUSH4 0x2F2FF15D EQ PUSH2 0x3A0 JUMPI DUP1 PUSH4 0x36568ABE EQ PUSH2 0x3C0 JUMPI DUP1 PUSH4 0x3AF6BBCC EQ PUSH2 0x3E0 JUMPI STOP JUMPDEST DUP1 PUSH4 0x248A9CA3 EQ PUSH2 0x350 JUMPI DUP1 PUSH4 0x2A730BEF EQ PUSH2 0x380 JUMPI STOP JUMPDEST DUP1 PUSH4 0x413C198 GT PUSH2 0x277 JUMPI DUP1 PUSH4 0x413C198 EQ PUSH2 0x2F0 JUMPI DUP1 PUSH4 0xC63CC7D EQ PUSH2 0x310 JUMPI DUP1 PUSH4 0x1DA649CF EQ PUSH2 0x330 JUMPI STOP JUMPDEST DUP1 PUSH4 0x19DDB8D EQ PUSH2 0x298 JUMPI DUP1 PUSH4 0x1FFC9A7 EQ PUSH2 0x2C0 JUMPI STOP JUMPDEST CALLDATASIZE PUSH2 0x296 JUMPI STOP JUMPDEST STOP JUMPDEST CALLVALUE DUP1 ISZERO PUSH2 0x2A4 JUMPI PUSH1 0x0 DUP1 REVERT JUMPDEST POP PUSH2 0x2AD PUSH2 0x7DB JUMP JUMPDEST PUSH1 0x40 MLOAD SWAP1 DUP2 MSTORE PUSH1 0x20 ADD JUMPDEST PUSH1 0x40 MLOAD DUP1 SWAP2 SUB SWAP1 RETURN JUMPDEST CALLVALUE DUP1 ISZERO PUSH2 0x2CC JUMPI PUSH1 0x0 DUP1 REVERT JUMPDEST POP PUSH2 0x2E0 PUSH2 0x2DB CALLDATASIZE PUSH1 0x4 PUSH2 0x32FC JUMP JUMPDEST PUSH2 0x847 JUMP JUMPDEST PUSH1 0x40 MLOAD SWAP1 ISZERO ISZERO DUP2 MSTORE PUSH1 0x20 ADD PUSH2 0x2B7 JUMP JUMPDEST CALLVALUE DUP1 ISZERO PUSH2 0x2FC JUMPI PUSH1 0x0 DUP1 REVERT JUMPDEST POP PUSH2 0x2AD PUSH2 0x30B CALLDATASIZE PUSH1 0x4 PUSH2 0x3355 JUMP JUMPDEST PUSH2 0x8E0 JUMP JUMPDEST CALLVALUE DUP1 ISZERO PUSH2 0x31C JUMPI PUSH1 0x0 DUP1 REVERT JUMPDEST POP PUSH2 0x2E0 PUSH2 0x32B CALLDATASIZE PUSH1 0x4 PUSH2 0x3381 JUMP JUMPDEST PUSH2 0xA1F JUMP JUMPDEST CALLVALUE DUP1 ISZERO PUSH2 0x33C JUMPI PUSH1 0x0 DUP1 REVERT JUMPDEST POP PUSH2 0x2E0 PUSH2 0x34B CALLDATASIZE PUSH1 0x4 PUSH2 0x339C JUMP JUMPDEST PUSH2 0xA65 JUMP JUMPDEST CALLVALUE DUP1 ISZERO PUSH2 0x35C JUMPI PUSH1 0x0 DUP1 REVERT JUMPDEST POP PUSH2 0x2AD PUSH2 0x36B CALLDATASIZE PUSH1 0x4 PUSH2 0x33D8 JUMP JUMPDEST PUSH1 0x0 SWAP1 DUP2 MSTORE PUSH1 0x20 DUP2 SWAP1 MSTORE PUSH1 0x40 SWAP1 KECCAK256 PUSH1 0x1 ADD SLOAD SWAP1 JUMP JUMPDEST CALLVALUE DUP1 ISZERO PUSH2 0x38C JUMPI PUSH1 0x0 DUP1 REVERT JUMPDEST POP PUSH2 0x2E0 PUSH2 0x39B CALLDATASIZE PUSH1 0x4 PUSH2 0x33F1 JUMP JUMPDEST PUSH2 0x1084 JUMP JUMPDEST CALLVALUE DUP1 ISZERO PUSH2 0x3AC JUMPI PUSH1 0x0 DUP1 REVERT JUMPDEST POP PUSH2 0x296 PUSH2 0x3BB CALLDATASIZE PUSH1 0x4 PUSH2 0x3472 JUMP JUMPDEST PUSH2 0x117D JUMP JUMPDEST CALLVALUE DUP1 ISZERO PUSH2 0x3CC JUMPI PUSH1 0x0 DUP1 REVERT JUMPDEST POP PUSH2 0x296 PUSH2 0x3DB CALLDATASIZE PUSH1 0x4 PUSH2 0x3472 JUMP JUMPDEST PUSH2 0x11A7 JUMP JUMPDEST CALLVALUE DUP1 ISZERO PUSH2 0x3EC JUMPI PUSH1 0x0 DUP1 REVERT JUMPDEST POP PUSH2 0x2E0 PUSH2 0x3FB CALLDATASIZE PUSH1 0x4 PUSH2 0x33D8 JUMP JUMPDEST PUSH2 0x1233 JUMP JUMPDEST CALLVALUE DUP1 ISZERO PUSH2 0x40C JUMPI PUSH1 0x0 DUP1 REVERT JUMPDEST POP PUSH2 0x2AD PUSH2 0x41B CALLDATASIZE PUSH1 0x4 PUSH2 0x3355 JUMP JUMPDEST PUSH2 0x1389 JUMP JUMPDEST CALLVALUE DUP1 ISZERO PUSH2 0x42C JUMPI PUSH1 0x0 DUP1 REVERT JUMPDEST POP PUSH2 0x2AD PUSH2 0x43B CALLDATASIZE PUSH1 0x4 PUSH2 0x33D8 JUMP JUMPDEST PUSH2 0x14F4 JUMP JUMPDEST PUSH2 0x2E0 PUSH2 0x44E CALLDATASIZE PUSH1 0x4 PUSH2 0x349E JUMP JUMPDEST PUSH2 0x1508 JUMP JUMPDEST CALLVALUE DUP1 ISZERO PUSH2 0x45F JUMPI PUSH1 0x0 DUP1 REVERT JUMPDEST POP PUSH2 0x2E0 PUSH2 0x46E CALLDATASIZE PUSH1 0x4 PUSH2 0x34C8 JUMP JUMPDEST PUSH2 0x1B54 JUMP JUMPDEST CALLVALUE DUP1 ISZERO PUSH2 0x47F JUMPI PUSH1 0x0 DUP1 REVERT JUMPDEST POP PUSH2 0x2E0 PUSH2 0x48E CALLDATASIZE PUSH1 0x4 PUSH2 0x3355 JUMP JUMPDEST PUSH2 0x1CD5 JUMP JUMPDEST CALLVALUE DUP1 ISZERO PUSH2 0x49F JUMPI PUSH1 0x0 DUP1 REVERT JUMPDEST POP PUSH2 0x296 PUSH2 0x4AE CALLDATASIZE PUSH1 0x4 PUSH2 0x3355 JUMP JUMPDEST PUSH2 0x1E0D JUMP JUMPDEST CALLVALUE DUP1 ISZERO PUSH2 0x4BF JUMPI PUSH1 0x0 DUP1 REVERT JUMPDEST POP PUSH1 0xB SLOAD PUSH1 0xFF AND JUMPDEST PUSH1 0x40 MLOAD PUSH1 0xFF SWAP1 SWAP2 AND DUP2 MSTORE PUSH1 0x20 ADD PUSH2 0x2B7 JUMP JUMPDEST CALLVALUE DUP1 ISZERO PUSH2 0x4E5 JUMPI PUSH1 0x0 DUP1 REVERT JUMPDEST POP PUSH2 0x2E0 PUSH2 0x4F4 CALLDATASIZE PUSH1 0x4 PUSH2 0x3381 JUMP JUMPDEST PUSH2 0x1ECB JUMP JUMPDEST CALLVALUE DUP1 ISZERO PUSH2 0x505 JUMPI PUSH1 0x0 DUP1 REVERT JUMPDEST POP PUSH2 0x2AD PUSH2 0x514 CALLDATASIZE PUSH1 0x4 PUSH2 0x34C8 JUMP JUMPDEST PUSH2 0x1F12 JUMP JUMPDEST CALLVALUE DUP1 ISZERO PUSH2 0x525 JUMPI PUSH1 0x0 DUP1 REVERT JUMPDEST POP PUSH2 0x296 PUSH2 0x534 CALLDATASIZE PUSH1 0x4 PUSH2 0x3508 JUMP JUMPDEST PUSH2 0x2129 JUMP JUMPDEST CALLVALUE DUP1 ISZERO PUSH2 0x545 JUMPI PUSH1 0x0 DUP1 REVERT JUMPDEST POP PUSH2 0x559 PUSH2 0x554 CALLDATASIZE PUSH1 0x4 PUSH2 0x349E JUMP JUMPDEST PUSH2 0x21EF JUMP JUMPDEST PUSH1 0x40 DUP1 MLOAD SWAP3 DUP4 MSTORE PUSH1 0x20 DUP4 ADD SWAP2 SWAP1 SWAP2 MSTORE ADD PUSH2 0x2B7 JUMP JUMPDEST CALLVALUE DUP1 ISZERO PUSH2 0x57A JUMPI PUSH1 0x0 DUP1 REVERT JUMPDEST POP PUSH2 0x2AD PUSH2 0x589 CALLDATASIZE PUSH1 0x4 PUSH2 0x339C JUMP JUMPDEST PUSH2 0x2250 JUMP JUMPDEST CALLVALUE DUP1 ISZERO PUSH2 0x59A JUMPI PUSH1 0x0 DUP1 REVERT JUMPDEST POP PUSH1 0x1 SLOAD PUSH2 0x5AE SWAP1 PUSH1 0x1 PUSH1 0x1 PUSH1 0xA0 SHL SUB AND DUP2 JUMP JUMPDEST PUSH1 0x40 MLOAD PUSH1 0x1 PUSH1 0x1 PUSH1 0xA0 SHL SUB SWAP1 SWAP2 AND DUP2 MSTORE PUSH1 0x20 ADD PUSH2 0x2B7 JUMP JUMPDEST CALLVALUE DUP1 ISZERO PUSH2 0x5D2 JUMPI PUSH1 0x0 DUP1 REVERT JUMPDEST POP PUSH2 0x2E0 PUSH2 0x5E1 CALLDATASIZE PUSH1 0x4 PUSH2 0x3472 JUMP JUMPDEST PUSH1 0x0 SWAP2 DUP3 MSTORE PUSH1 0x20 DUP3 DUP2 MSTORE PUSH1 0x40 DUP1 DUP5 KECCAK256 PUSH1 0x1 PUSH1 0x1 PUSH1 0xA0 SHL SUB SWAP4 SWAP1 SWAP4 AND DUP5 MSTORE SWAP2 SWAP1 MSTORE SWAP1 KECCAK256 SLOAD PUSH1 0xFF AND SWAP1 JUMP JUMPDEST CALLVALUE DUP1 ISZERO PUSH2 0x616 JUMPI PUSH1 0x0 DUP1 REVERT JUMPDEST POP PUSH1 0x3 SLOAD PUSH2 0x2AD JUMP JUMPDEST CALLVALUE DUP1 ISZERO PUSH2 0x62B JUMPI PUSH1 0x0 DUP1 REVERT JUMPDEST POP PUSH2 0x2AD PUSH2 0x63A CALLDATASIZE PUSH1 0x4 PUSH2 0x34C8 JUMP JUMPDEST PUSH2 0x2427 JUMP JUMPDEST CALLVALUE DUP1 ISZERO PUSH2 0x64B JUMPI PUSH1 0x0 DUP1 REVERT JUMPDEST POP PUSH2 0x2AD PUSH1 0x0 DUP2 JUMP JUMPDEST CALLVALUE DUP1 ISZERO PUSH2 0x660 JUMPI PUSH1 0x0 DUP1 REVERT JUMPDEST POP PUSH2 0x2E0 PUSH2 0x66F CALLDATASIZE PUSH1 0x4 PUSH2 0x3355 JUMP JUMPDEST PUSH2 0x2575 JUMP JUMPDEST CALLVALUE DUP1 ISZERO PUSH2 0x680 JUMPI PUSH1 0x0 DUP1 REVERT JUMPDEST POP PUSH2 0x2AD PUSH2 0x2606 JUMP JUMPDEST CALLVALUE DUP1 ISZERO PUSH2 0x695 JUMPI PUSH1 0x0 DUP1 REVERT JUMPDEST POP PUSH2 0x296 PUSH2 0x6A4 CALLDATASIZE PUSH1 0x4 PUSH2 0x3355 JUMP JUMPDEST PUSH2 0x2667 JUMP JUMPDEST CALLVALUE DUP1 ISZERO PUSH2 0x6B5 JUMPI PUSH1 0x0 DUP1 REVERT JUMPDEST POP PUSH2 0x2AD PUSH2 0x6C4 CALLDATASIZE PUSH1 0x4 PUSH2 0x34C8 JUMP JUMPDEST PUSH2 0x26E9 JUMP JUMPDEST CALLVALUE DUP1 ISZERO PUSH2 0x6D5 JUMPI PUSH1 0x0 DUP1 REVERT JUMPDEST POP PUSH1 0x2 SLOAD PUSH2 0x2AD JUMP JUMPDEST CALLVALUE DUP1 ISZERO PUSH2 0x6EA JUMPI PUSH1 0x0 DUP1 REVERT JUMPDEST POP PUSH2 0x2AD PUSH2 0x6F9 CALLDATASIZE PUSH1 0x4 PUSH2 0x34C8 JUMP JUMPDEST PUSH2 0x2837 JUMP JUMPDEST CALLVALUE DUP1 ISZERO PUSH2 0x70A JUMPI PUSH1 0x0 DUP1 REVERT JUMPDEST POP PUSH2 0x296 PUSH2 0x719 CALLDATASIZE PUSH1 0x4 PUSH2 0x3508 JUMP JUMPDEST PUSH2 0x2982 JUMP JUMPDEST CALLVALUE DUP1 ISZERO PUSH2 0x72A JUMPI PUSH1 0x0 DUP1 REVERT JUMPDEST POP PUSH1 0x7 SLOAD PUSH2 0x2AD JUMP JUMPDEST CALLVALUE DUP1 ISZERO PUSH2 0x73F JUMPI PUSH1 0x0 DUP1 REVERT JUMPDEST POP PUSH1 0x4 SLOAD PUSH2 0x2AD JUMP JUMPDEST CALLVALUE DUP1 ISZERO PUSH2 0x754 JUMPI PUSH1 0x0 DUP1 REVERT JUMPDEST POP PUSH2 0x296 PUSH2 0x763 CALLDATASIZE PUSH1 0x4 PUSH2 0x3472 JUMP JUMPDEST PUSH2 0x2A5E JUMP JUMPDEST CALLVALUE DUP1 ISZERO PUSH2 0x774 JUMPI PUSH1 0x0 DUP1 REVERT JUMPDEST POP PUSH2 0x788 PUSH2 0x783 CALLDATASIZE PUSH1 0x4 PUSH2 0x349E JUMP JUMPDEST PUSH2 0x2A83 JUMP JUMPDEST PUSH1 0x40 DUP1 MLOAD SWAP4 DUP5 MSTORE PUSH1 0x20 DUP5 ADD SWAP3 SWAP1 SWAP3 MSTORE SWAP1 DUP3 ADD MSTORE PUSH1 0x60 ADD PUSH2 0x2B7 JUMP JUMPDEST CALLVALUE DUP1 ISZERO PUSH2 0x7AF JUMPI PUSH1 0x0 DUP1 REVERT JUMPDEST POP PUSH2 0x2E0 PUSH2 0x7BE CALLDATASIZE PUSH1 0x4 PUSH2 0x3355 JUMP JUMPDEST PUSH2 0x2B6A JUMP JUMPDEST CALLVALUE DUP1 ISZERO PUSH2 0x7CF JUMPI PUSH1 0x0 DUP1 REVERT JUMPDEST POP PUSH1 0x8 SLOAD PUSH1 0xFF AND PUSH2 0x4C7 JUMP JUMPDEST PUSH1 0x1 SLOAD PUSH1 0x0 SWAP1 CALLER SWAP1 PUSH1 0x1 PUSH1 0x1 PUSH1 0xA0 SHL SUB AND DUP2 EQ PUSH2 0x83F JUMPI PUSH1 0x40 MLOAD PUSH3 0x461BCD PUSH1 0xE5 SHL DUP2 MSTORE PUSH1 0x20 PUSH1 0x4 DUP3 ADD MSTORE PUSH1 0x1F PUSH1 0x24 DUP3 ADD MSTORE PUSH32 0x596F7520617265206E6F74206F776E6572206F6620636F6E7472616374202100 PUSH1 0x44 DUP3 ADD MSTORE PUSH1 0x64 ADD JUMPDEST PUSH1 0x40 MLOAD DUP1 SWAP2 SUB SWAP1 REVERT JUMPDEST POP POP PUSH1 0xC SLOAD SWAP1 JUMP JUMPDEST PUSH1 0x0 PUSH32 0xFFFFFFFF00000000000000000000000000000000000000000000000000000000 DUP3 AND PUSH32 0x7965DB0B00000000000000000000000000000000000000000000000000000000 EQ DUP1 PUSH2 0x8DA JUMPI POP PUSH32 0x1FFC9A700000000000000000000000000000000000000000000000000000000 PUSH32 0xFFFFFFFF00000000000000000000000000000000000000000000000000000000 DUP4 AND EQ JUMPDEST SWAP3 SWAP2 POP POP JUMP JUMPDEST PUSH1 0x5 SLOAD PUSH1 0x0 SWAP1 PUSH1 0x1 PUSH1 0x1 PUSH1 0xA0 SHL SUB SWAP1 DUP2 AND SWAP1 DUP4 AND SUB PUSH2 0x8FE JUMPI PUSH1 0x0 DUP1 REVERT JUMPDEST ADDRESS PUSH1 0x1 PUSH1 0x1 PUSH1 0xA0 SHL SUB DUP4 AND SUB PUSH2 0x9AB JUMPI PUSH1 0x0 PUSH20 0xD0D5E3DB44DE05E9F294BB0A3BEEAF030DE24ADA PUSH1 0x1 PUSH1 0x1 PUSH1 0xA0 SHL SUB AND PUSH4 0xFEAF968C PUSH1 0x40 MLOAD DUP2 PUSH4 0xFFFFFFFF AND PUSH1 0xE0 SHL DUP2 MSTORE PUSH1 0x4 ADD PUSH1 0xA0 PUSH1 0x40 MLOAD DUP1 DUP4 SUB DUP2 DUP7 GAS STATICCALL ISZERO DUP1 ISZERO PUSH2 0x962 JUMPI RETURNDATASIZE PUSH1 0x0 DUP1 RETURNDATACOPY RETURNDATASIZE PUSH1 0x0 REVERT JUMPDEST POP POP POP POP PUSH1 0x40 MLOAD RETURNDATASIZE PUSH1 0x1F NOT PUSH1 0x1F DUP3 ADD AND DUP3 ADD DUP1 PUSH1 0x40 MSTORE POP DUP2 ADD SWAP1 PUSH2 0x986 SWAP2 SWAP1 PUSH2 0x35DB JUMP JUMPDEST POP POP POP SWAP2 POP POP PUSH2 0x9A4 PUSH5 0x2540BE400 DUP3 PUSH2 0x2F2B SWAP1 SWAP2 SWAP1 PUSH4 0xFFFFFFFF AND JUMP JUMPDEST SWAP4 SWAP3 POP POP POP JUMP JUMPDEST PUSH1 0x1 PUSH1 0x1 PUSH1 0xA0 SHL SUB DUP1 DUP4 AND PUSH1 0x0 SWAP1 DUP2 MSTORE PUSH1 0xE PUSH1 0x20 MSTORE PUSH1 0x40 DUP1 DUP3 KECCAK256 PUSH1 0x2 ADD SLOAD DUP2 MLOAD PUSH32 0xFEAF968C00000000000000000000000000000000000000000000000000000000 DUP2 MSTORE SWAP2 MLOAD SWAP3 SWAP4 AND SWAP2 PUSH4 0xFEAF968C SWAP2 PUSH1 0x4 DUP1 DUP3 ADD SWAP3 PUSH1 0xA0 SWAP3 SWAP1 SWAP2 SWAP1 DUP3 SWAP1 SUB ADD DUP2 DUP7 GAS STATICCALL ISZERO DUP1 ISZERO PUSH2 0x962 JUMPI RETURNDATASIZE PUSH1 0x0 DUP1 RETURNDATACOPY RETURNDATASIZE PUSH1 0x0 REVERT JUMPDEST PUSH1 0x0 PUSH32 0x69CD0C85288BCFFBE883A45101C678F53F42E27BEBEA35A677CC62DA9FA7F391 PUSH2 0xA4B DUP2 PUSH2 0x2F37 JUMP JUMPDEST PUSH1 0xB DUP1 SLOAD PUSH1 0xFF NOT AND PUSH1 0xFF DUP6 AND OR SWAP1 SSTORE PUSH1 0x1 SWAP2 POP JUMPDEST POP SWAP2 SWAP1 POP JUMP JUMPDEST PUSH1 0x0 DUP3 PUSH1 0x1 PUSH1 0x1 PUSH1 0xA0 SHL SUB DUP2 AND ADDRESS EQ DUP1 PUSH2 0xA99 JUMPI POP PUSH1 0x1 PUSH1 0x1 PUSH1 0xA0 SHL SUB DUP1 DUP3 AND PUSH1 0x0 DUP2 DUP2 MSTORE PUSH1 0xE PUSH1 0x20 MSTORE PUSH1 0x40 SWAP1 KECCAK256 SLOAD SWAP1 SWAP2 AND EQ JUMPDEST DUP1 PUSH2 0xAB1 JUMPI POP PUSH1 0x5 SLOAD PUSH1 0x1 PUSH1 0x1 PUSH1 0xA0 SHL SUB DUP3 DUP2 AND SWAP2 AND EQ JUMPDEST PUSH2 0xAEB JUMPI PUSH1 0x40 MLOAD PUSH3 0x461BCD PUSH1 0xE5 SHL DUP2 MSTORE PUSH1 0x20 PUSH1 0x4 DUP3 ADD MSTORE PUSH1 0x1F PUSH1 0x24 DUP3 ADD MSTORE PUSH1 0x0 DUP1 MLOAD PUSH1 0x20 PUSH2 0x3855 DUP4 CODECOPY DUP2 MLOAD SWAP2 MSTORE PUSH1 0x44 DUP3 ADD MSTORE PUSH1 0x64 ADD PUSH2 0x836 JUMP JUMPDEST PUSH1 0x1 PUSH1 0x1 PUSH1 0xA0 SHL SUB DUP1 DUP7 AND PUSH1 0x0 SWAP1 DUP2 MSTORE PUSH1 0xD PUSH1 0x20 SWAP1 DUP2 MSTORE PUSH1 0x40 DUP1 DUP4 KECCAK256 SWAP4 DUP9 AND DUP4 MSTORE SWAP3 DUP2 MSTORE SWAP1 DUP3 SWAP1 KECCAK256 DUP3 MLOAD PUSH1 0x60 DUP2 ADD DUP5 MSTORE DUP2 SLOAD DUP2 MSTORE PUSH1 0x1 DUP3 ADD SLOAD SWAP3 DUP2 ADD DUP4 SWAP1 MSTORE PUSH1 0x2 SWAP1 SWAP2 ADD SLOAD SWAP3 DUP2 ADD SWAP3 SWAP1 SWAP3 MSTORE DUP7 SWAP2 DUP7 SWAP2 ISZERO ISZERO DUP1 PUSH2 0xB48 JUMPI POP DUP1 MLOAD ISZERO ISZERO JUMPDEST PUSH2 0xB94 JUMPI PUSH1 0x40 MLOAD PUSH3 0x461BCD PUSH1 0xE5 SHL DUP2 MSTORE PUSH1 0x20 PUSH1 0x4 DUP3 ADD MSTORE PUSH1 0x1A PUSH1 0x24 DUP3 ADD MSTORE PUSH32 0x54686973206C6F616E20646F6573206E6F742065786973742021000000000000 PUSH1 0x44 DUP3 ADD MSTORE PUSH1 0x64 ADD PUSH2 0x836 JUMP JUMPDEST PUSH2 0xB9D CALLER PUSH2 0x2667 JUMP JUMPDEST PUSH1 0x1 PUSH1 0x1 PUSH1 0xA0 SHL SUB DUP1 DUP10 AND PUSH1 0x0 SWAP1 DUP2 MSTORE PUSH1 0xD PUSH1 0x20 SWAP1 DUP2 MSTORE PUSH1 0x40 DUP1 DUP4 KECCAK256 SWAP4 DUP12 AND DUP4 MSTORE SWAP3 SWAP1 MSTORE KECCAK256 PUSH1 0x1 ADD SLOAD DUP7 GT ISZERO PUSH2 0xC61 JUMPI PUSH1 0x40 MLOAD PUSH3 0x461BCD PUSH1 0xE5 SHL DUP2 MSTORE PUSH1 0x20 PUSH1 0x4 DUP3 ADD MSTORE PUSH1 0x42 PUSH1 0x24 DUP3 ADD MSTORE PUSH32 0x54686520696E70757420616D6F756E742069732067726561746572207468616E PUSH1 0x44 DUP3 ADD MSTORE PUSH32 0x2074686520626F72726F77656420616D6F756E7420666F722074686973206C6F PUSH1 0x64 DUP3 ADD MSTORE PUSH32 0x616E000000000000000000000000000000000000000000000000000000000000 PUSH1 0x84 DUP3 ADD MSTORE PUSH1 0xA4 ADD PUSH2 0x836 JUMP JUMPDEST PUSH1 0x5 SLOAD PUSH1 0x40 MLOAD PUSH4 0x70A08231 PUSH1 0xE0 SHL DUP2 MSTORE CALLER PUSH1 0x4 DUP3 ADD MSTORE PUSH1 0x1 PUSH1 0x1 PUSH1 0xA0 SHL SUB SWAP1 SWAP2 AND SWAP1 PUSH4 0x70A08231 SWAP1 PUSH1 0x24 ADD PUSH1 0x20 PUSH1 0x40 MLOAD DUP1 DUP4 SUB DUP2 DUP7 GAS STATICCALL ISZERO DUP1 ISZERO PUSH2 0xCA9 JUMPI RETURNDATASIZE PUSH1 0x0 DUP1 RETURNDATACOPY RETURNDATASIZE PUSH1 0x0 REVERT JUMPDEST POP POP POP POP PUSH1 0x40 MLOAD RETURNDATASIZE PUSH1 0x1F NOT PUSH1 0x1F DUP3 ADD AND DUP3 ADD DUP1 PUSH1 0x40 MSTORE POP DUP2 ADD SWAP1 PUSH2 0xCCD SWAP2 SWAP1 PUSH2 0x362B JUMP JUMPDEST DUP7 GT ISZERO PUSH2 0xD1C JUMPI PUSH1 0x40 MLOAD PUSH3 0x461BCD PUSH1 0xE5 SHL DUP2 MSTORE PUSH1 0x20 PUSH1 0x4 DUP3 ADD MSTORE PUSH1 0x16 PUSH1 0x24 DUP3 ADD MSTORE PUSH32 0x496E73756666696369656E742042616C616E6365202100000000000000000000 PUSH1 0x44 DUP3 ADD MSTORE PUSH1 0x64 ADD PUSH2 0x836 JUMP JUMPDEST PUSH1 0x0 PUSH2 0xD29 DUP10 DUP10 DUP10 PUSH2 0x2250 JUMP JUMPDEST SWAP1 POP ADDRESS PUSH1 0x1 PUSH1 0x1 PUSH1 0xA0 SHL SUB DUP10 AND SUB PUSH2 0xDEB JUMPI DUP1 PUSH2 0xD45 ADDRESS PUSH2 0x1389 JUMP JUMPDEST GT PUSH2 0xDB8 JUMPI PUSH1 0x40 MLOAD PUSH3 0x461BCD PUSH1 0xE5 SHL DUP2 MSTORE PUSH1 0x20 PUSH1 0x4 DUP3 ADD MSTORE PUSH1 0x26 PUSH1 0x24 DUP3 ADD MSTORE PUSH32 0x496E73756666696369656E7420424E422062616C616E636520696E20636F6E74 PUSH1 0x44 DUP3 ADD MSTORE PUSH32 0x7261637420210000000000000000000000000000000000000000000000000000 PUSH1 0x64 DUP3 ADD MSTORE PUSH1 0x84 ADD PUSH2 0x836 JUMP JUMPDEST PUSH1 0x40 MLOAD CALLER SWAP1 DUP3 ISZERO PUSH2 0x8FC MUL SWAP1 DUP4 SWAP1 PUSH1 0x0 DUP2 DUP2 DUP2 DUP6 DUP9 DUP9 CALL SWAP4 POP POP POP POP ISZERO DUP1 ISZERO PUSH2 0xDE5 JUMPI RETURNDATASIZE PUSH1 0x0 DUP1 RETURNDATACOPY RETURNDATASIZE PUSH1 0x0 REVERT JUMPDEST POP PUSH2 0xE74 JUMP JUMPDEST PUSH1 0x1 PUSH1 0x1 PUSH1 0xA0 SHL SUB DUP9 DUP2 AND PUSH1 0x0 SWAP1 DUP2 MSTORE PUSH1 0xE PUSH1 0x20 MSTORE PUSH1 0x40 SWAP1 DUP2 SWAP1 KECCAK256 PUSH1 0x1 ADD SLOAD SWAP1 MLOAD PUSH4 0xA9059CBB PUSH1 0xE0 SHL DUP2 MSTORE CALLER PUSH1 0x4 DUP3 ADD MSTORE PUSH1 0x24 DUP2 ADD DUP5 SWAP1 MSTORE SWAP2 AND SWAP1 PUSH4 0xA9059CBB SWAP1 PUSH1 0x44 ADD PUSH1 0x20 PUSH1 0x40 MLOAD DUP1 DUP4 SUB DUP2 PUSH1 0x0 DUP8 GAS CALL ISZERO DUP1 ISZERO PUSH2 0xE4E JUMPI RETURNDATASIZE PUSH1 0x0 DUP1 RETURNDATACOPY RETURNDATASIZE PUSH1 0x0 REVERT JUMPDEST POP POP POP POP PUSH1 0x40 MLOAD RETURNDATASIZE PUSH1 0x1F NOT PUSH1 0x1F DUP3 ADD AND DUP3 ADD DUP1 PUSH1 0x40 MSTORE POP DUP2 ADD SWAP1 PUSH2 0xE72 SWAP2 SWAP1 PUSH2 0x3644 JUMP JUMPDEST POP JUMPDEST PUSH1 0x5 SLOAD PUSH1 0x40 MLOAD PUSH4 0x23B872DD PUSH1 0xE0 SHL DUP2 MSTORE CALLER PUSH1 0x4 DUP3 ADD MSTORE ADDRESS PUSH1 0x24 DUP3 ADD MSTORE PUSH1 0x44 DUP2 ADD DUP10 SWAP1 MSTORE PUSH1 0x1 PUSH1 0x1 PUSH1 0xA0 SHL SUB SWAP1 SWAP2 AND SWAP1 PUSH4 0x23B872DD SWAP1 PUSH1 0x64 ADD PUSH1 0x20 PUSH1 0x40 MLOAD DUP1 DUP4 SUB DUP2 PUSH1 0x0 DUP8 GAS CALL ISZERO DUP1 ISZERO PUSH2 0xECB JUMPI RETURNDATASIZE PUSH1 0x0 DUP1 RETURNDATACOPY RETURNDATASIZE PUSH1 0x0 REVERT JUMPDEST POP POP POP POP PUSH1 0x40 MLOAD RETURNDATASIZE PUSH1 0x1F NOT PUSH1 0x1F DUP3 ADD AND DUP3 ADD DUP1 PUSH1 0x40 MSTORE POP DUP2 ADD SWAP1 PUSH2 0xEEF SWAP2 SWAP1 PUSH2 0x3644 JUMP JUMPDEST POP CALLER PUSH1 0x0 SWAP1 DUP2 MSTORE PUSH1 0xD PUSH1 0x20 SWAP1 DUP2 MSTORE PUSH1 0x40 DUP1 DUP4 KECCAK256 PUSH1 0x1 PUSH1 0x1 PUSH1 0xA0 SHL SUB DUP13 AND DUP5 MSTORE DUP3 MSTORE SWAP2 DUP3 SWAP1 KECCAK256 DUP3 MLOAD PUSH1 0x60 DUP2 ADD DUP5 MSTORE DUP2 SLOAD DUP2 MSTORE PUSH1 0x1 DUP3 ADD SLOAD SWAP3 DUP2 ADD DUP4 DUP2 MSTORE PUSH1 0x2 SWAP1 SWAP3 ADD SLOAD SWAP4 DUP2 ADD SWAP4 SWAP1 SWAP4 MSTORE DUP10 SWAP2 PUSH2 0xF45 SWAP1 DUP4 SWAP1 PUSH2 0x367C JUMP JUMPDEST SWAP1 MSTORE POP DUP1 MLOAD DUP3 SWAP1 DUP3 SWAP1 PUSH2 0xF59 SWAP1 DUP4 SWAP1 PUSH2 0x367C JUMP JUMPDEST SWAP1 MSTORE POP PUSH1 0xB SLOAD PUSH2 0xF6D SWAP1 TIMESTAMP SWAP1 PUSH1 0xFF AND PUSH2 0x2F41 JUMP JUMPDEST PUSH1 0x40 DUP1 DUP4 ADD SWAP2 DUP3 MSTORE CALLER PUSH1 0x0 SWAP1 DUP2 MSTORE PUSH1 0xD PUSH1 0x20 SWAP1 DUP2 MSTORE DUP3 DUP3 KECCAK256 PUSH1 0x1 PUSH1 0x1 PUSH1 0xA0 SHL SUB DUP15 AND DUP4 MSTORE DUP2 MSTORE SWAP2 SWAP1 KECCAK256 DUP4 MLOAD DUP2 SSTORE SWAP1 DUP4 ADD MLOAD PUSH1 0x1 DUP3 ADD DUP2 SWAP1 SSTORE SWAP2 MLOAD PUSH1 0x2 SWAP1 SWAP2 ADD SSTORE ISZERO DUP1 ISZERO PUSH2 0xFB9 JUMPI POP DUP1 MLOAD ISZERO JUMPDEST ISZERO PUSH2 0xFF4 JUMPI PUSH1 0x1 PUSH1 0x1 PUSH1 0xA0 SHL SUB DUP1 DUP12 AND PUSH1 0x0 SWAP1 DUP2 MSTORE PUSH1 0xD PUSH1 0x20 SWAP1 DUP2 MSTORE PUSH1 0x40 DUP1 DUP4 KECCAK256 SWAP4 DUP14 AND DUP4 MSTORE SWAP3 SWAP1 MSTORE SWAP1 DUP2 KECCAK256 DUP2 DUP2 SSTORE PUSH1 0x1 DUP2 ADD DUP3 SWAP1 SSTORE PUSH1 0x2 ADD SSTORE JUMPDEST DUP8 PUSH1 0x4 PUSH1 0x0 DUP3 DUP3 SLOAD PUSH2 0x1006 SWAP2 SWAP1 PUSH2 0x367C JUMP JUMPDEST SWAP1 SWAP2 SSTORE POP PUSH2 0x1027 SWAP1 POP PUSH2 0x1018 DUP11 PUSH2 0x8E0 JUMP JUMPDEST PUSH2 0x1021 DUP5 PUSH2 0x2F4D JUMP JUMPDEST SWAP1 PUSH2 0x2F2B JUMP JUMPDEST PUSH1 0x3 PUSH1 0x0 DUP3 DUP3 SLOAD PUSH2 0x1038 SWAP2 SWAP1 PUSH2 0x367C JUMP JUMPDEST SWAP1 SWAP2 SSTORE POP POP PUSH1 0x40 MLOAD DUP9 DUP2 MSTORE ADDRESS SWAP1 CALLER SWAP1 PUSH32 0xA3FBBEA70E93F2DAAFA3102F5C9A1B8315E6D7A1E43E4BC020BC1162327470A SWAP1 PUSH1 0x20 ADD PUSH1 0x40 MLOAD DUP1 SWAP2 SUB SWAP1 LOG3 POP PUSH1 0x1 SWAP10 SWAP9 POP POP POP POP POP POP POP POP POP JUMP JUMPDEST PUSH1 0x0 PUSH32 0x2CB697566D4FAE71A9E65E4DAC853BF1E0E88A4957A11BB62814A78D165BB6BB PUSH2 0x10B0 DUP2 PUSH2 0x2F37 JUMP JUMPDEST PUSH1 0x40 MLOAD DUP1 PUSH1 0xE0 ADD PUSH1 0x40 MSTORE DUP1 DUP11 PUSH1 0xFF AND DUP2 MSTORE PUSH1 0x20 ADD PUSH2 0x10D0 DUP11 PUSH1 0xFF AND PUSH2 0x14F4 JUMP JUMPDEST DUP2 MSTORE PUSH1 0x20 ADD DUP9 PUSH1 0xFF AND DUP2 MSTORE PUSH1 0x20 ADD PUSH2 0x10EB DUP9 PUSH2 0xFFFF AND PUSH2 0x14F4 JUMP JUMPDEST DUP2 MSTORE PUSH1 0x20 ADD PUSH2 0x10F9 DUP8 PUSH2 0x14F4 JUMP JUMPDEST DUP2 MSTORE PUSH1 0x20 ADD DUP6 PUSH1 0xFF AND DUP2 MSTORE PUSH1 0x20 ADD PUSH2 0x1110 DUP6 PUSH2 0x14F4 JUMP JUMPDEST SWAP1 MSTORE DUP1 MLOAD PUSH1 0x6 DUP1 SLOAD PUSH1 0xFF SWAP3 DUP4 AND PUSH1 0xFF NOT SWAP2 DUP3 AND OR SWAP1 SWAP2 SSTORE PUSH1 0x20 DUP4 ADD MLOAD PUSH1 0x7 SSTORE PUSH1 0x40 DUP4 ADD MLOAD PUSH1 0x8 DUP1 SLOAD SWAP2 DUP5 AND SWAP2 DUP4 AND SWAP2 SWAP1 SWAP2 OR SWAP1 SSTORE PUSH1 0x60 DUP4 ADD MLOAD PUSH1 0x9 SSTORE PUSH1 0x80 DUP4 ADD MLOAD PUSH1 0xA SSTORE PUSH1 0xA0 DUP4 ADD MLOAD PUSH1 0xB DUP1 SLOAD SWAP2 SWAP1 SWAP4 AND SWAP2 AND OR SWAP1 SSTORE PUSH1 0xC0 ADD MLOAD PUSH1 0xC SSTORE PUSH1 0x1 SWAP2 POP POP SWAP8 SWAP7 POP POP POP POP POP POP POP JUMP JUMPDEST PUSH1 0x0 DUP3 DUP2 MSTORE PUSH1 0x20 DUP2 SWAP1 MSTORE PUSH1 0x40 SWAP1 KECCAK256 PUSH1 0x1 ADD SLOAD PUSH2 0x1198 DUP2 PUSH2 0x2F37 JUMP JUMPDEST PUSH2 0x11A2 DUP4 DUP4 PUSH2 0x2F61 JUMP JUMPDEST POP POP POP JUMP JUMPDEST PUSH1 0x1 PUSH1 0x1 PUSH1 0xA0 SHL SUB DUP2 AND CALLER EQ PUSH2 0x1225 JUMPI PUSH1 0x40 MLOAD PUSH3 0x461BCD PUSH1 0xE5 SHL DUP2 MSTORE PUSH1 0x20 PUSH1 0x4 DUP3 ADD MSTORE PUSH1 0x2F PUSH1 0x24 DUP3 ADD MSTORE PUSH32 0x416363657373436F6E74726F6C3A2063616E206F6E6C792072656E6F756E6365 PUSH1 0x44 DUP3 ADD MSTORE PUSH32 0x20726F6C657320666F722073656C660000000000000000000000000000000000 PUSH1 0x64 DUP3 ADD MSTORE PUSH1 0x84 ADD PUSH2 0x836 JUMP JUMPDEST PUSH2 0x122F DUP3 DUP3 PUSH2 0x2FFF JUMP JUMPDEST POP POP JUMP JUMPDEST PUSH1 0x1 SLOAD PUSH1 0x0 SWAP1 CALLER SWAP1 PUSH1 0x1 PUSH1 0x1 PUSH1 0xA0 SHL SUB AND DUP2 EQ PUSH2 0x1292 JUMPI PUSH1 0x40 MLOAD PUSH3 0x461BCD PUSH1 0xE5 SHL DUP2 MSTORE PUSH1 0x20 PUSH1 0x4 DUP3 ADD MSTORE PUSH1 0x1F PUSH1 0x24 DUP3 ADD MSTORE PUSH32 0x596F7520617265206E6F74206F776E6572206F6620636F6E7472616374202100 PUSH1 0x44 DUP3 ADD MSTORE PUSH1 0x64 ADD PUSH2 0x836 JUMP JUMPDEST PUSH1 0xC SLOAD ISZERO DUP1 ISZERO SWAP1 PUSH2 0x12A5 JUMPI POP PUSH1 0xC SLOAD DUP4 GT ISZERO JUMPDEST PUSH2 0x12F1 JUMPI PUSH1 0x40 MLOAD PUSH3 0x461BCD PUSH1 0xE5 SHL DUP2 MSTORE PUSH1 0x20 PUSH1 0x4 DUP3 ADD MSTORE PUSH1 0x16 PUSH1 0x24 DUP3 ADD MSTORE PUSH32 0x496E73756666696369656E7420696E76656E746F727900000000000000000000 PUSH1 0x44 DUP3 ADD MSTORE PUSH1 0x64 ADD PUSH2 0x836 JUMP JUMPDEST PUSH1 0x5 SLOAD PUSH1 0x40 MLOAD PUSH4 0xA9059CBB PUSH1 0xE0 SHL DUP2 MSTORE CALLER PUSH1 0x4 DUP3 ADD MSTORE PUSH1 0x24 DUP2 ADD DUP6 SWAP1 MSTORE PUSH1 0x1 PUSH1 0x1 PUSH1 0xA0 SHL SUB SWAP1 SWAP2 AND SWAP1 PUSH4 0xA9059CBB SWAP1 PUSH1 0x44 ADD PUSH1 0x20 PUSH1 0x40 MLOAD DUP1 DUP4 SUB DUP2 PUSH1 0x0 DUP8 GAS CALL ISZERO DUP1 ISZERO PUSH2 0x1342 JUMPI RETURNDATASIZE PUSH1 0x0 DUP1 RETURNDATACOPY RETURNDATASIZE PUSH1 0x0 REVERT JUMPDEST POP POP POP POP PUSH1 0x40 MLOAD RETURNDATASIZE PUSH1 0x1F NOT PUSH1 0x1F DUP3 ADD AND DUP3 ADD DUP1 PUSH1 0x40 MSTORE POP DUP2 ADD SWAP1 PUSH2 0x1366 SWAP2 SWAP1 PUSH2 0x3644 JUMP JUMPDEST POP DUP3 PUSH1 0x6 DUP1 ADD PUSH1 0x0 DUP3 DUP3 SLOAD PUSH2 0x137B SWAP2 SWAP1 PUSH2 0x367C JUMP JUMPDEST SWAP1 SWAP2 SSTORE POP PUSH1 0x1 SWAP5 SWAP4 POP POP POP POP JUMP JUMPDEST PUSH1 0x0 DUP2 PUSH1 0x1 PUSH1 0x1 PUSH1 0xA0 SHL SUB DUP2 AND ADDRESS EQ DUP1 PUSH2 0x13BD JUMPI POP PUSH1 0x1 PUSH1 0x1 PUSH1 0xA0 SHL SUB DUP1 DUP3 AND PUSH1 0x0 DUP2 DUP2 MSTORE PUSH1 0xE PUSH1 0x20 MSTORE PUSH1 0x40 SWAP1 KECCAK256 SLOAD SWAP1 SWAP2 AND EQ JUMPDEST DUP1 PUSH2 0x13D5 JUMPI POP PUSH1 0x5 SLOAD PUSH1 0x1 PUSH1 0x1 PUSH1 0xA0 SHL SUB DUP3 DUP2 AND SWAP2 AND EQ JUMPDEST PUSH2 0x140F JUMPI PUSH1 0x40 MLOAD PUSH3 0x461BCD PUSH1 0xE5 SHL DUP2 MSTORE PUSH1 0x20 PUSH1 0x4 DUP3 ADD MSTORE PUSH1 0x1F PUSH1 0x24 DUP3 ADD MSTORE PUSH1 0x0 DUP1 MLOAD PUSH1 0x20 PUSH2 0x3855 DUP4 CODECOPY DUP2 MLOAD SWAP2 MSTORE PUSH1 0x44 DUP3 ADD MSTORE PUSH1 0x64 ADD PUSH2 0x836 JUMP JUMPDEST ADDRESS PUSH1 0x1 PUSH1 0x1 PUSH1 0xA0 SHL SUB DUP5 AND SUB PUSH2 0x1428 JUMPI ADDRESS BALANCE SWAP2 POP PUSH2 0xA5F JUMP JUMPDEST PUSH1 0x5 SLOAD PUSH1 0x1 PUSH1 0x1 PUSH1 0xA0 SHL SUB SWAP1 DUP2 AND SWAP1 DUP5 AND SUB PUSH2 0x14B2 JUMPI PUSH1 0x5 SLOAD PUSH1 0x40 MLOAD PUSH4 0x70A08231 PUSH1 0xE0 SHL DUP2 MSTORE ADDRESS PUSH1 0x4 DUP3 ADD MSTORE PUSH1 0x1 PUSH1 0x1 PUSH1 0xA0 SHL SUB SWAP1 SWAP2 AND SWAP1 PUSH4 0x70A08231 SWAP1 PUSH1 0x24 ADD JUMPDEST PUSH1 0x20 PUSH1 0x40 MLOAD DUP1 DUP4 SUB DUP2 DUP7 GAS STATICCALL ISZERO DUP1 ISZERO PUSH2 0x1487 JUMPI RETURNDATASIZE PUSH1 0x0 DUP1 RETURNDATACOPY RETURNDATASIZE PUSH1 0x0 REVERT JUMPDEST POP POP POP POP PUSH1 0x40 MLOAD RETURNDATASIZE PUSH1 0x1F NOT PUSH1 0x1F DUP3 ADD AND DUP3 ADD DUP1 PUSH1 0x40 MSTORE POP DUP2 ADD SWAP1 PUSH2 0x14AB SWAP2 SWAP1 PUSH2 0x362B JUMP JUMPDEST SWAP2 POP PUSH2 0xA5F JUMP JUMPDEST PUSH1 0x1 PUSH1 0x1 PUSH1 0xA0 SHL SUB DUP4 DUP2 AND PUSH1 0x0 SWAP1 DUP2 MSTORE PUSH1 0xE PUSH1 0x20 MSTORE PUSH1 0x40 SWAP1 DUP2 SWAP1 KECCAK256 PUSH1 0x1 ADD SLOAD SWAP1 MLOAD PUSH4 0x70A08231 PUSH1 0xE0 SHL DUP2 MSTORE ADDRESS PUSH1 0x4 DUP3 ADD MSTORE SWAP2 AND SWAP1 PUSH4 0x70A08231 SWAP1 PUSH1 0x24 ADD PUSH2 0x146A JUMP JUMPDEST PUSH1 0x0 PUSH2 0x8DA DUP3 PUSH8 0xDE0B6B3A7640000 PUSH2 0x2F2B JUMP JUMPDEST PUSH1 0x0 DUP3 PUSH1 0x1 PUSH1 0x1 PUSH1 0xA0 SHL SUB DUP2 AND ADDRESS EQ DUP1 PUSH2 0x153C JUMPI POP PUSH1 0x1 PUSH1 0x1 PUSH1 0xA0 SHL SUB DUP1 DUP3 AND PUSH1 0x0 DUP2 DUP2 MSTORE PUSH1 0xE PUSH1 0x20 MSTORE PUSH1 0x40 SWAP1 KECCAK256 SLOAD SWAP1 SWAP2 AND EQ JUMPDEST DUP1 PUSH2 0x1554 JUMPI POP PUSH1 0x5 SLOAD PUSH1 0x1 PUSH1 0x1 PUSH1 0xA0 SHL SUB DUP3 DUP2 AND SWAP2 AND EQ JUMPDEST PUSH2 0x158E JUMPI PUSH1 0x40 MLOAD PUSH3 0x461BCD PUSH1 0xE5 SHL DUP2 MSTORE PUSH1 0x20 PUSH1 0x4 DUP3 ADD MSTORE PUSH1 0x1F PUSH1 0x24 DUP3 ADD MSTORE PUSH1 0x0 DUP1 MLOAD PUSH1 0x20 PUSH2 0x3855 DUP4 CODECOPY DUP2 MLOAD SWAP2 MSTORE PUSH1 0x44 DUP3 ADD MSTORE PUSH1 0x64 ADD PUSH2 0x836 JUMP JUMPDEST PUSH1 0x5 SLOAD PUSH1 0x1 PUSH1 0x1 PUSH1 0xA0 SHL SUB SWAP1 DUP2 AND SWAP1 DUP6 AND SUB PUSH2 0x1612 JUMPI PUSH1 0x40 MLOAD PUSH3 0x461BCD PUSH1 0xE5 SHL DUP2 MSTORE PUSH1 0x20 PUSH1 0x4 DUP3 ADD MSTORE PUSH1 0x30 PUSH1 0x24 DUP3 ADD MSTORE PUSH32 0x596F752063616E6E6F74207573696E67207468697320746F6B656E2061732063 PUSH1 0x44 DUP3 ADD MSTORE PUSH32 0x6F6C6C61746572616C20746F6B616E2E00000000000000000000000000000000 PUSH1 0x64 DUP3 ADD MSTORE PUSH1 0x84 ADD PUSH2 0x836 JUMP JUMPDEST PUSH2 0x161B CALLER PUSH2 0x2667 JUMP JUMPDEST PUSH1 0x0 DUP1 PUSH1 0x0 PUSH2 0x162A DUP8 DUP8 PUSH2 0x2A83 JUMP JUMPDEST PUSH1 0x1 PUSH1 0x1 PUSH1 0xA0 SHL SUB DUP11 DUP2 AND PUSH1 0x0 SWAP1 DUP2 MSTORE PUSH1 0xE PUSH1 0x20 MSTORE PUSH1 0x40 SWAP1 DUP2 SWAP1 KECCAK256 PUSH1 0x1 ADD SLOAD PUSH1 0x5 SLOAD SWAP2 MLOAD PUSH4 0x70A08231 PUSH1 0xE0 SHL DUP2 MSTORE ADDRESS PUSH1 0x4 DUP3 ADD MSTORE SWAP6 SWAP9 POP SWAP4 SWAP7 POP SWAP2 SWAP5 POP SWAP2 DUP3 AND SWAP3 SWAP2 AND SWAP1 PUSH4 0x70A08231 SWAP1 PUSH1 0x24 ADD PUSH1 0x20 PUSH1 0x40 MLOAD DUP1 DUP4 SUB DUP2 DUP7 GAS STATICCALL ISZERO DUP1 ISZERO PUSH2 0x1694 JUMPI RETURNDATASIZE PUSH1 0x0 DUP1 RETURNDATACOPY RETURNDATASIZE PUSH1 0x0 REVERT JUMPDEST POP POP POP POP PUSH1 0x40 MLOAD RETURNDATASIZE PUSH1 0x1F NOT PUSH1 0x1F DUP3 ADD AND DUP3 ADD DUP1 PUSH1 0x40 MSTORE POP DUP2 ADD SWAP1 PUSH2 0x16B8 SWAP2 SWAP1 PUSH2 0x362B JUMP JUMPDEST DUP4 GT ISZERO PUSH2 0x1712 JUMPI PUSH1 0x40 MLOAD PUSH3 0x461BCD PUSH1 0xE5 SHL DUP2 MSTORE PUSH1 0x20 PUSH1 0x4 DUP3 ADD MSTORE PUSH1 0x22 PUSH1 0x24 DUP3 ADD MSTORE PUSH32 0x496E73756666696369656E742062616C616E636520696E20636F6E7472616374 PUSH1 0x44 DUP3 ADD MSTORE PUSH2 0x2021 PUSH1 0xF0 SHL PUSH1 0x64 DUP3 ADD MSTORE PUSH1 0x84 ADD PUSH2 0x836 JUMP JUMPDEST ADDRESS PUSH1 0x1 PUSH1 0x1 PUSH1 0xA0 SHL SUB DUP10 AND SUB PUSH2 0x1841 JUMPI DUP7 CALLVALUE LT ISZERO PUSH2 0x1772 JUMPI PUSH1 0x40 MLOAD PUSH3 0x461BCD PUSH1 0xE5 SHL DUP2 MSTORE PUSH1 0x20 PUSH1 0x4 DUP3 ADD MSTORE PUSH1 0x17 PUSH1 0x24 DUP3 ADD MSTORE PUSH32 0x496E73756666696369656E7420424E422073656E742021000000000000000000 PUSH1 0x44 DUP3 ADD MSTORE PUSH1 0x64 ADD PUSH2 0x836 JUMP JUMPDEST CALLER BALANCE CALLVALUE GT ISZERO PUSH2 0x17C3 JUMPI PUSH1 0x40 MLOAD PUSH3 0x461BCD PUSH1 0xE5 SHL DUP2 MSTORE PUSH1 0x20 PUSH1 0x4 DUP3 ADD MSTORE PUSH1 0x16 PUSH1 0x24 DUP3 ADD MSTORE PUSH32 0x496E73756666696369656E742042616C616E6365202100000000000000000000 PUSH1 0x44 DUP3 ADD MSTORE PUSH1 0x64 ADD PUSH2 0x836 JUMP JUMPDEST PUSH1 0x5 SLOAD PUSH1 0x40 MLOAD PUSH4 0xA9059CBB PUSH1 0xE0 SHL DUP2 MSTORE CALLER PUSH1 0x4 DUP3 ADD MSTORE PUSH1 0x24 DUP2 ADD DUP6 SWAP1 MSTORE CALLVALUE SWAP9 POP PUSH1 0x1 PUSH1 0x1 PUSH1 0xA0 SHL SUB SWAP1 SWAP2 AND SWAP1 PUSH4 0xA9059CBB SWAP1 PUSH1 0x44 ADD PUSH1 0x20 PUSH1 0x40 MLOAD DUP1 DUP4 SUB DUP2 PUSH1 0x0 DUP8 GAS CALL ISZERO DUP1 ISZERO PUSH2 0x1817 JUMPI RETURNDATASIZE PUSH1 0x0 DUP1 RETURNDATACOPY RETURNDATASIZE PUSH1 0x0 REVERT JUMPDEST POP POP POP POP PUSH1 0x40 MLOAD RETURNDATASIZE PUSH1 0x1F NOT PUSH1 0x1F DUP3 ADD AND DUP3 ADD DUP1 PUSH1 0x40 MSTORE POP DUP2 ADD SWAP1 PUSH2 0x183B SWAP2 SWAP1 PUSH2 0x3644 JUMP JUMPDEST POP PUSH2 0x19E7 JUMP JUMPDEST PUSH1 0x40 MLOAD PUSH4 0x70A08231 PUSH1 0xE0 SHL DUP2 MSTORE CALLER PUSH1 0x4 DUP3 ADD MSTORE PUSH1 0x1 PUSH1 0x1 PUSH1 0xA0 SHL SUB DUP3 AND SWAP1 PUSH4 0x70A08231 SWAP1 PUSH1 0x24 ADD PUSH1 0x20 PUSH1 0x40 MLOAD DUP1 DUP4 SUB DUP2 DUP7 GAS STATICCALL ISZERO DUP1 ISZERO PUSH2 0x1885 JUMPI RETURNDATASIZE PUSH1 0x0 DUP1 RETURNDATACOPY RETURNDATASIZE PUSH1 0x0 REVERT JUMPDEST POP POP POP POP PUSH1 0x40 MLOAD RETURNDATASIZE PUSH1 0x1F NOT PUSH1 0x1F DUP3 ADD AND DUP3 ADD DUP1 PUSH1 0x40 MSTORE POP DUP2 ADD SWAP1 PUSH2 0x18A9 SWAP2 SWAP1 PUSH2 0x362B JUMP JUMPDEST DUP8 GT ISZERO PUSH2 0x18F8 JUMPI PUSH1 0x40 MLOAD PUSH3 0x461BCD PUSH1 0xE5 SHL DUP2 MSTORE PUSH1 0x20 PUSH1 0x4 DUP3 ADD MSTORE PUSH1 0x16 PUSH1 0x24 DUP3 ADD MSTORE PUSH32 0x496E73756666696369656E742042616C616E6365202100000000000000000000 PUSH1 0x44 DUP3 ADD MSTORE PUSH1 0x64 ADD PUSH2 0x836 JUMP JUMPDEST PUSH1 0x40 MLOAD PUSH4 0x23B872DD PUSH1 0xE0 SHL DUP2 MSTORE CALLER PUSH1 0x4 DUP3 ADD MSTORE ADDRESS PUSH1 0x24 DUP3 ADD MSTORE PUSH1 0x44 DUP2 ADD DUP9 SWAP1 MSTORE PUSH1 0x1 PUSH1 0x1 PUSH1 0xA0 SHL SUB DUP3 AND SWAP1 PUSH4 0x23B872DD SWAP1 PUSH1 0x64 ADD PUSH1 0x20 PUSH1 0x40 MLOAD DUP1 DUP4 SUB DUP2 PUSH1 0x0 DUP8 GAS CALL ISZERO DUP1 ISZERO PUSH2 0x194B JUMPI RETURNDATASIZE PUSH1 0x0 DUP1 RETURNDATACOPY RETURNDATASIZE PUSH1 0x0 REVERT JUMPDEST POP POP POP POP PUSH1 0x40 MLOAD RETURNDATASIZE PUSH1 0x1F NOT PUSH1 0x1F DUP3 ADD AND DUP3 ADD DUP1 PUSH1 0x40 MSTORE POP DUP2 ADD SWAP1 PUSH2 0x196F SWAP2 SWAP1 PUSH2 0x3644 JUMP JUMPDEST POP PUSH1 0x5 SLOAD PUSH1 0x40 MLOAD PUSH4 0xA9059CBB PUSH1 0xE0 SHL DUP2 MSTORE CALLER PUSH1 0x4 DUP3 ADD MSTORE PUSH1 0x24 DUP2 ADD DUP6 SWAP1 MSTORE PUSH1 0x1 PUSH1 0x1 PUSH1 0xA0 SHL SUB SWAP1 SWAP2 AND SWAP1 PUSH4 0xA9059CBB SWAP1 PUSH1 0x44 ADD PUSH1 0x20 PUSH1 0x40 MLOAD DUP1 DUP4 SUB DUP2 PUSH1 0x0 DUP8 GAS CALL ISZERO DUP1 ISZERO PUSH2 0x19C1 JUMPI RETURNDATASIZE PUSH1 0x0 DUP1 RETURNDATACOPY RETURNDATASIZE PUSH1 0x0 REVERT JUMPDEST POP POP POP POP PUSH1 0x40 MLOAD RETURNDATASIZE PUSH1 0x1F NOT PUSH1 0x1F DUP3 ADD AND DUP3 ADD DUP1 PUSH1 0x40 MSTORE POP DUP2 ADD SWAP1 PUSH2 0x19E5 SWAP2 SWAP1 PUSH2 0x3644 JUMP JUMPDEST POP JUMPDEST CALLER PUSH1 0x0 SWAP1 DUP2 MSTORE PUSH1 0xD PUSH1 0x20 SWAP1 DUP2 MSTORE PUSH1 0x40 DUP1 DUP4 KECCAK256 PUSH1 0x1 PUSH1 0x1 PUSH1 0xA0 SHL SUB DUP13 AND DUP5 MSTORE DUP3 MSTORE SWAP2 DUP3 SWAP1 KECCAK256 DUP3 MLOAD PUSH1 0x60 DUP2 ADD DUP5 MSTORE DUP2 SLOAD DUP2 MSTORE PUSH1 0x1 DUP3 ADD SLOAD SWAP3 DUP2 ADD DUP4 DUP2 MSTORE PUSH1 0x2 SWAP1 SWAP3 ADD SLOAD SWAP4 DUP2 ADD SWAP4 SWAP1 SWAP4 MSTORE DUP6 SWAP2 PUSH2 0x1A3C SWAP1 DUP4 SWAP1 PUSH2 0x368F JUMP JUMPDEST SWAP1 MSTORE POP DUP1 MLOAD DUP9 SWAP1 DUP3 SWAP1 PUSH2 0x1A50 SWAP1 DUP4 SWAP1 PUSH2 0x368F JUMP JUMPDEST SWAP1 MSTORE POP PUSH1 0xB SLOAD PUSH2 0x1A76 SWAP1 PUSH2 0x1A6A SWAP1 PUSH1 0xFF AND PUSH3 0x15180 PUSH2 0x36A2 JUMP JUMPDEST TIMESTAMP SWAP1 PUSH3 0xFFFFFF AND PUSH2 0x2F41 JUMP JUMPDEST PUSH1 0x40 DUP1 DUP4 ADD SWAP2 DUP3 MSTORE CALLER PUSH1 0x0 SWAP1 DUP2 MSTORE PUSH1 0xD PUSH1 0x20 SWAP1 DUP2 MSTORE DUP3 DUP3 KECCAK256 PUSH1 0x1 PUSH1 0x1 PUSH1 0xA0 SHL SUB DUP15 AND DUP4 MSTORE DUP2 MSTORE SWAP2 SWAP1 KECCAK256 DUP4 MLOAD DUP2 SSTORE SWAP1 DUP4 ADD MLOAD PUSH1 0x1 DUP3 ADD SSTORE SWAP1 MLOAD PUSH1 0x2 SWAP1 SWAP2 ADD SSTORE PUSH1 0x6 SLOAD PUSH2 0x1AC5 SWAP1 DUP7 SWAP1 PUSH1 0xFF AND PUSH2 0x2F2B JUMP JUMPDEST PUSH1 0xC DUP1 SLOAD PUSH1 0x0 SWAP1 PUSH2 0x1AD7 SWAP1 DUP5 SWAP1 PUSH2 0x368F JUMP JUMPDEST SWAP3 POP POP DUP2 SWAP1 SSTORE POP DUP4 PUSH1 0x4 PUSH1 0x0 DUP3 DUP3 SLOAD PUSH2 0x1AF0 SWAP2 SWAP1 PUSH2 0x368F JUMP JUMPDEST SWAP3 POP POP DUP2 SWAP1 SSTORE POP DUP3 PUSH1 0x3 PUSH1 0x0 DUP3 DUP3 SLOAD PUSH2 0x1B09 SWAP2 SWAP1 PUSH2 0x368F JUMP JUMPDEST SWAP1 SWAP2 SSTORE POP POP PUSH1 0x40 MLOAD DUP5 DUP2 MSTORE CALLER SWAP1 ADDRESS SWAP1 PUSH32 0x3FC499AEB0BB1CB58B6DE8B02B3F86F4E7394E9690BEF0110E32CED8A5631045 SWAP1 PUSH1 0x20 ADD PUSH1 0x40 MLOAD DUP1 SWAP2 SUB SWAP1 LOG3 POP PUSH1 0x1 SWAP9 SWAP8 POP POP POP POP POP POP POP POP JUMP JUMPDEST PUSH1 0x0 PUSH32 0x2CB697566D4FAE71A9E65E4DAC853BF1E0E88A4957A11BB62814A78D165BB6BB PUSH2 0x1B80 DUP2 PUSH2 0x2F37 JUMP JUMPDEST PUSH1 0x1 PUSH1 0x1 PUSH1 0xA0 SHL SUB DUP1 DUP6 AND PUSH1 0x0 DUP2 DUP2 MSTORE PUSH1 0xE PUSH1 0x20 MSTORE PUSH1 0x40 SWAP1 KECCAK256 SLOAD SWAP1 SWAP2 AND SWAP1 SUB PUSH2 0x1C11 JUMPI PUSH1 0x40 MLOAD PUSH3 0x461BCD PUSH1 0xE5 SHL DUP2 MSTORE PUSH1 0x20 PUSH1 0x4 DUP3 ADD MSTORE PUSH1 0x2C PUSH1 0x24 DUP3 ADD MSTORE PUSH32 0x5468697320746F6B656E20697320616C726561647920616464656420746F2074 PUSH1 0x44 DUP3 ADD MSTORE PUSH32 0x686520636F6E74726163742E0000000000000000000000000000000000000000 PUSH1 0x64 DUP3 ADD MSTORE PUSH1 0x84 ADD PUSH2 0x836 JUMP JUMPDEST PUSH1 0x40 DUP1 MLOAD PUSH1 0x60 DUP2 ADD DUP3 MSTORE PUSH1 0x1 PUSH1 0x1 PUSH1 0xA0 SHL SUB DUP1 DUP8 AND DUP1 DUP4 MSTORE PUSH1 0x20 DUP1 DUP5 ADD DUP3 DUP2 MSTORE DUP9 DUP5 AND DUP6 DUP8 ADD SWAP1 DUP2 MSTORE PUSH1 0x0 SWAP4 DUP5 MSTORE PUSH1 0xE SWAP1 SWAP3 MSTORE SWAP5 SWAP1 SWAP2 KECCAK256 SWAP3 MLOAD DUP4 SLOAD SWAP1 DUP4 AND PUSH20 0xFFFFFFFFFFFFFFFFFFFFFFFFFFFFFFFFFFFFFFFF NOT SWAP2 DUP3 AND OR DUP5 SSTORE SWAP4 MLOAD PUSH1 0x1 DUP1 DUP6 ADD DUP1 SLOAD SWAP3 DUP6 AND SWAP3 DUP8 AND SWAP3 SWAP1 SWAP3 OR SWAP1 SWAP2 SSTORE SWAP1 MLOAD PUSH1 0x2 SWAP1 SWAP4 ADD DUP1 SLOAD SWAP4 SWAP1 SWAP3 AND SWAP3 SWAP1 SWAP4 AND SWAP2 SWAP1 SWAP2 OR SWAP1 SSTORE DUP1 SLOAD PUSH1 0xFF PUSH1 0x1 PUSH1 0xA0 SHL SWAP1 SWAP2 DIV AND SWAP1 PUSH1 0x14 PUSH2 0x1CB1 DUP4 PUSH2 0x36C1 JUMP JUMPDEST SWAP2 SWAP1 PUSH2 0x100 EXP DUP2 SLOAD DUP2 PUSH1 0xFF MUL NOT AND SWAP1 DUP4 PUSH1 0xFF AND MUL OR SWAP1 SSTORE POP POP PUSH1 0x1 SWAP2 POP POP SWAP3 SWAP2 POP POP JUMP JUMPDEST PUSH1 0x0 PUSH32 0x2CB697566D4FAE71A9E65E4DAC853BF1E0E88A4957A11BB62814A78D165BB6BB PUSH2 0x1D01 DUP2 PUSH2 0x2F37 JUMP JUMPDEST DUP3 PUSH1 0x1 PUSH1 0x1 PUSH1 0xA0 SHL SUB DUP2 AND ADDRESS EQ DUP1 PUSH2 0x1D33 JUMPI POP PUSH1 0x1 PUSH1 0x1 PUSH1 0xA0 SHL SUB DUP1 DUP3 AND PUSH1 0x0 DUP2 DUP2 MSTORE PUSH1 0xE PUSH1 0x20 MSTORE PUSH1 0x40 SWAP1 KECCAK256 SLOAD SWAP1 SWAP2 AND EQ JUMPDEST DUP1 PUSH2 0x1D4B JUMPI POP PUSH1 0x5 SLOAD PUSH1 0x1 PUSH1 0x1 PUSH1 0xA0 SHL SUB DUP3 DUP2 AND SWAP2 AND EQ JUMPDEST PUSH2 0x1D85 JUMPI PUSH1 0x40 MLOAD PUSH3 0x461BCD PUSH1 0xE5 SHL DUP2 MSTORE PUSH1 0x20 PUSH1 0x4 DUP3 ADD MSTORE PUSH1 0x1F PUSH1 0x24 DUP3 ADD MSTORE PUSH1 0x0 DUP1 MLOAD PUSH1 0x20 PUSH2 0x3855 DUP4 CODECOPY DUP2 MLOAD SWAP2 MSTORE PUSH1 0x44 DUP3 ADD MSTORE PUSH1 0x64 ADD PUSH2 0x836 JUMP JUMPDEST PUSH1 0x1 PUSH1 0x1 PUSH1 0xA0 SHL SUB DUP5 AND PUSH1 0x0 SWAP1 DUP2 MSTORE PUSH1 0xE PUSH1 0x20 MSTORE PUSH1 0x40 SWAP1 KECCAK256 DUP1 SLOAD PUSH20 0xFFFFFFFFFFFFFFFFFFFFFFFFFFFFFFFFFFFFFFFF NOT SWAP1 DUP2 AND DUP3 SSTORE PUSH1 0x1 DUP1 DUP4 ADD DUP1 SLOAD DUP4 AND SWAP1 SSTORE PUSH1 0x2 SWAP1 SWAP3 ADD DUP1 SLOAD SWAP1 SWAP2 AND SWAP1 SSTORE DUP1 SLOAD PUSH1 0x1 PUSH1 0xA0 SHL SWAP1 DIV PUSH1 0xFF AND SWAP1 PUSH1 0x14 PUSH2 0x1DE9 DUP4 PUSH2 0x36E0 JUMP JUMPDEST SWAP2 SWAP1 PUSH2 0x100 EXP DUP2 SLOAD DUP2 PUSH1 0xFF MUL NOT AND SWAP1 DUP4 PUSH1 0xFF AND MUL OR SWAP1 SSTORE POP POP PUSH1 0x1 SWAP3 POP POP POP SWAP2 SWAP1 POP JUMP JUMPDEST PUSH32 0x2CB697566D4FAE71A9E65E4DAC853BF1E0E88A4957A11BB62814A78D165BB6BB PUSH2 0x1E37 DUP2 PUSH2 0x2F37 JUMP JUMPDEST PUSH1 0x5 SLOAD PUSH1 0x1 PUSH1 0x1 PUSH1 0xA0 SHL SUB AND ISZERO PUSH2 0x1E9B JUMPI PUSH1 0x40 MLOAD PUSH3 0x461BCD PUSH1 0xE5 SHL DUP2 MSTORE PUSH1 0x20 PUSH1 0x4 DUP3 ADD MSTORE PUSH1 0x22 PUSH1 0x24 DUP3 ADD MSTORE PUSH32 0x546865206E617469766520746F6B656E2063757272656E746C79206164646564 PUSH1 0x44 DUP3 ADD MSTORE PUSH2 0x2021 PUSH1 0xF0 SHL PUSH1 0x64 DUP3 ADD MSTORE PUSH1 0x84 ADD PUSH2 0x836 JUMP JUMPDEST POP PUSH1 0x5 DUP1 SLOAD PUSH20 0xFFFFFFFFFFFFFFFFFFFFFFFFFFFFFFFFFFFFFFFF NOT AND PUSH1 0x1 PUSH1 0x1 PUSH1 0xA0 SHL SUB SWAP3 SWAP1 SWAP3 AND SWAP2 SWAP1 SWAP2 OR SWAP1 SSTORE JUMP JUMPDEST PUSH1 0x0 PUSH32 0x69CD0C85288BCFFBE883A45101C678F53F42E27BEBEA35A677CC62DA9FA7F391 PUSH2 0x1EF7 DUP2 PUSH2 0x2F37 JUMP JUMPDEST PUSH1 0x8 DUP1 SLOAD PUSH1 0xFF DUP6 AND PUSH1 0xFF NOT SWAP1 SWAP2 AND OR SWAP1 SSTORE PUSH1 0x1 SWAP2 POP POP SWAP2 SWAP1 POP JUMP JUMPDEST PUSH1 0x1 PUSH1 0x1 PUSH1 0xA0 SHL SUB DUP2 AND PUSH1 0x0 SWAP1 DUP2 MSTORE PUSH32 0x4A9BC5A4557FF57D341AB708B60833AB8120D5C3A894429179BD856B4E484337 PUSH1 0x20 MSTORE PUSH1 0x40 DUP2 KECCAK256 SLOAD DUP3 SWAP1 PUSH1 0xFF AND PUSH2 0x1FAB JUMPI PUSH1 0x40 MLOAD PUSH3 0x461BCD PUSH1 0xE5 SHL DUP2 MSTORE PUSH1 0x20 PUSH1 0x4 DUP3 ADD MSTORE PUSH1 0x27 PUSH1 0x24 DUP3 ADD MSTORE PUSH32 0x546869732061646472657373206973206E6F7420612072656769737465726564 PUSH1 0x44 DUP3 ADD MSTORE PUSH7 0x20757365722021 PUSH1 0xC8 SHL PUSH1 0x64 DUP3 ADD MSTORE PUSH1 0x84 ADD PUSH2 0x836 JUMP JUMPDEST DUP4 PUSH1 0x1 PUSH1 0x1 PUSH1 0xA0 SHL SUB DUP2 AND ADDRESS EQ DUP1 PUSH2 0x1FDD JUMPI POP PUSH1 0x1 PUSH1 0x1 PUSH1 0xA0 SHL SUB DUP1 DUP3 AND PUSH1 0x0 DUP2 DUP2 MSTORE PUSH1 0xE PUSH1 0x20 MSTORE PUSH1 0x40 SWAP1 KECCAK256 SLOAD SWAP1 SWAP2 AND EQ JUMPDEST DUP1 PUSH2 0x1FF5 JUMPI POP PUSH1 0x5 SLOAD PUSH1 0x1 PUSH1 0x1 PUSH1 0xA0 SHL SUB DUP3 DUP2 AND SWAP2 AND EQ JUMPDEST PUSH2 0x202F JUMPI PUSH1 0x40 MLOAD PUSH3 0x461BCD PUSH1 0xE5 SHL DUP2 MSTORE PUSH1 0x20 PUSH1 0x4 DUP3 ADD MSTORE PUSH1 0x1F PUSH1 0x24 DUP3 ADD MSTORE PUSH1 0x0 DUP1 MLOAD PUSH1 0x20 PUSH2 0x3855 DUP4 CODECOPY DUP2 MLOAD SWAP2 MSTORE PUSH1 0x44 DUP3 ADD MSTORE PUSH1 0x64 ADD PUSH2 0x836 JUMP JUMPDEST ADDRESS PUSH1 0x1 PUSH1 0x1 PUSH1 0xA0 SHL SUB DUP7 AND SUB PUSH2 0x2051 JUMPI DUP4 PUSH1 0x1 PUSH1 0x1 PUSH1 0xA0 SHL SUB AND BALANCE SWAP3 POP PUSH2 0x2121 JUMP JUMPDEST PUSH1 0x5 SLOAD PUSH1 0x1 PUSH1 0x1 PUSH1 0xA0 SHL SUB SWAP1 DUP2 AND SWAP1 DUP7 AND SUB PUSH2 0x20DD JUMPI PUSH1 0x5 SLOAD PUSH1 0x40 MLOAD PUSH4 0x70A08231 PUSH1 0xE0 SHL DUP2 MSTORE PUSH1 0x1 PUSH1 0x1 PUSH1 0xA0 SHL SUB DUP7 DUP2 AND PUSH1 0x4 DUP4 ADD MSTORE SWAP1 SWAP2 AND SWAP1 PUSH4 0x70A08231 SWAP1 PUSH1 0x24 ADD JUMPDEST PUSH1 0x20 PUSH1 0x40 MLOAD DUP1 DUP4 SUB DUP2 DUP7 GAS STATICCALL ISZERO DUP1 ISZERO PUSH2 0x20B2 JUMPI RETURNDATASIZE PUSH1 0x0 DUP1 RETURNDATACOPY RETURNDATASIZE PUSH1 0x0 REVERT JUMPDEST POP POP POP POP PUSH1 0x40 MLOAD RETURNDATASIZE PUSH1 0x1F NOT PUSH1 0x1F DUP3 ADD AND DUP3 ADD DUP1 PUSH1 0x40 MSTORE POP DUP2 ADD SWAP1 PUSH2 0x20D6 SWAP2 SWAP1 PUSH2 0x362B JUMP JUMPDEST SWAP3 POP PUSH2 0x2121 JUMP JUMPDEST PUSH1 0x1 PUSH1 0x1 PUSH1 0xA0 SHL SUB DUP6 DUP2 AND PUSH1 0x0 SWAP1 DUP2 MSTORE PUSH1 0xE PUSH1 0x20 MSTORE PUSH1 0x40 SWAP1 DUP2 SWAP1 KECCAK256 PUSH1 0x1 ADD SLOAD SWAP1 MLOAD PUSH4 0x70A08231 PUSH1 0xE0 SHL DUP2 MSTORE DUP7 DUP4 AND PUSH1 0x4 DUP3 ADD MSTORE SWAP2 AND SWAP1 PUSH4 0x70A08231 SWAP1 PUSH1 0x24 ADD PUSH2 0x2095 JUMP JUMPDEST POP POP SWAP3 SWAP2 POP POP JUMP JUMPDEST PUSH32 0x46F3ECCDD88DD62792AE8EED1BE7B9B658477566C49FD85B0D08CF44261C9208 PUSH2 0x2153 DUP2 PUSH2 0x2F37 JUMP JUMPDEST DUP3 MLOAD PUSH1 0x20 DUP5 ADD KECCAK256 PUSH2 0x2188 DUP2 DUP5 PUSH1 0x0 SWAP2 DUP3 MSTORE PUSH1 0x20 DUP3 DUP2 MSTORE PUSH1 0x40 DUP1 DUP5 KECCAK256 PUSH1 0x1 PUSH1 0x1 PUSH1 0xA0 SHL SUB SWAP4 SWAP1 SWAP4 AND DUP5 MSTORE SWAP2 SWAP1 MSTORE SWAP1 KECCAK256 SLOAD PUSH1 0xFF AND SWAP1 JUMP JUMPDEST PUSH2 0x21DF JUMPI PUSH1 0x40 MLOAD PUSH3 0x461BCD PUSH1 0xE5 SHL DUP2 MSTORE PUSH1 0x20 PUSH1 0x4 DUP3 ADD MSTORE PUSH1 0x22 PUSH1 0x24 DUP3 ADD MSTORE PUSH32 0x526F6C65206E6F742061737369676E656420746F20746865206163636F756E74 PUSH1 0x44 DUP3 ADD MSTORE PUSH2 0x2021 PUSH1 0xF0 SHL PUSH1 0x64 DUP3 ADD MSTORE PUSH1 0x84 ADD PUSH2 0x836 JUMP JUMPDEST PUSH2 0x21E9 DUP2 DUP5 PUSH2 0x2FFF JUMP JUMPDEST POP POP POP POP JUMP JUMPDEST PUSH1 0x0 DUP1 PUSH1 0x0 PUSH2 0x2209 PUSH2 0x2200 DUP7 PUSH2 0x8E0 JUMP JUMPDEST PUSH2 0x1021 DUP7 PUSH2 0x2F4D JUMP JUMPDEST PUSH1 0x8 SLOAD SWAP1 SWAP2 POP PUSH1 0x0 SWAP1 PUSH2 0x222D SWAP1 PUSH1 0x64 SWAP1 PUSH2 0x2227 SWAP1 DUP6 SWAP1 PUSH1 0xFF AND PUSH2 0x2F2B JUMP JUMPDEST SWAP1 PUSH2 0x307E JUMP JUMPDEST SWAP1 POP PUSH1 0x0 PUSH2 0x2243 PUSH2 0x223C PUSH2 0x2606 JUMP JUMPDEST DUP4 SWAP1 PUSH2 0x307E JUMP JUMPDEST SWAP8 SWAP3 SWAP7 POP SWAP2 SWAP5 POP POP POP POP POP JUMP JUMPDEST PUSH1 0x0 DUP3 PUSH1 0x1 PUSH1 0x1 PUSH1 0xA0 SHL SUB DUP2 AND ADDRESS EQ DUP1 PUSH2 0x2284 JUMPI POP PUSH1 0x1 PUSH1 0x1 PUSH1 0xA0 SHL SUB DUP1 DUP3 AND PUSH1 0x0 DUP2 DUP2 MSTORE PUSH1 0xE PUSH1 0x20 MSTORE PUSH1 0x40 SWAP1 KECCAK256 SLOAD SWAP1 SWAP2 AND EQ JUMPDEST DUP1 PUSH2 0x229C JUMPI POP PUSH1 0x5 SLOAD PUSH1 0x1 PUSH1 0x1 PUSH1 0xA0 SHL SUB DUP3 DUP2 AND SWAP2 AND EQ JUMPDEST PUSH2 0x22D6 JUMPI PUSH1 0x40 MLOAD PUSH3 0x461BCD PUSH1 0xE5 SHL DUP2 MSTORE PUSH1 0x20 PUSH1 0x4 DUP3 ADD MSTORE PUSH1 0x1F PUSH1 0x24 DUP3 ADD MSTORE PUSH1 0x0 DUP1 MLOAD PUSH1 0x20 PUSH2 0x3855 DUP4 CODECOPY DUP2 MLOAD SWAP2 MSTORE PUSH1 0x44 DUP3 ADD MSTORE PUSH1 0x64 ADD PUSH2 0x836 JUMP JUMPDEST PUSH1 0x1 PUSH1 0x1 PUSH1 0xA0 SHL SUB DUP1 DUP7 AND PUSH1 0x0 SWAP1 DUP2 MSTORE PUSH1 0xD PUSH1 0x20 SWAP1 DUP2 MSTORE PUSH1 0x40 DUP1 DUP4 KECCAK256 SWAP4 DUP9 AND DUP4 MSTORE SWAP3 DUP2 MSTORE SWAP1 DUP3 SWAP1 KECCAK256 DUP3 MLOAD PUSH1 0x60 DUP2 ADD DUP5 MSTORE DUP2 SLOAD DUP2 MSTORE PUSH1 0x1 DUP3 ADD SLOAD SWAP3 DUP2 ADD DUP4 SWAP1 MSTORE PUSH1 0x2 SWAP1 SWAP2 ADD SLOAD SWAP3 DUP2 ADD SWAP3 SWAP1 SWAP3 MSTORE DUP7 SWAP2 DUP7 SWAP2 ISZERO ISZERO DUP1 PUSH2 0x2333 JUMPI POP DUP1 MLOAD ISZERO ISZERO JUMPDEST PUSH2 0x237F JUMPI PUSH1 0x40 MLOAD PUSH3 0x461BCD PUSH1 0xE5 SHL DUP2 MSTORE PUSH1 0x20 PUSH1 0x4 DUP3 ADD MSTORE PUSH1 0x1A PUSH1 0x24 DUP3 ADD MSTORE PUSH32 0x54686973206C6F616E20646F6573206E6F742065786973742021000000000000 PUSH1 0x44 DUP3 ADD MSTORE PUSH1 0x64 ADD PUSH2 0x836 JUMP JUMPDEST PUSH1 0x0 PUSH2 0x238A DUP9 PUSH2 0x8E0 JUMP JUMPDEST PUSH1 0x1 PUSH1 0x1 PUSH1 0xA0 SHL SUB DUP1 DUP12 AND PUSH1 0x0 SWAP1 DUP2 MSTORE PUSH1 0xD PUSH1 0x20 SWAP1 DUP2 MSTORE PUSH1 0x40 DUP1 DUP4 KECCAK256 SWAP4 DUP14 AND DUP4 MSTORE SWAP3 SWAP1 MSTORE SWAP1 DUP2 KECCAK256 SLOAD SWAP2 SWAP3 POP SWAP1 PUSH2 0x23C0 SWAP1 DUP4 PUSH2 0x2F2B JUMP JUMPDEST PUSH1 0x1 PUSH1 0x1 PUSH1 0xA0 SHL SUB DUP1 DUP13 AND PUSH1 0x0 SWAP1 DUP2 MSTORE PUSH1 0xD PUSH1 0x20 SWAP1 DUP2 MSTORE PUSH1 0x40 DUP1 DUP4 KECCAK256 SWAP4 DUP15 AND DUP4 MSTORE SWAP3 SWAP1 MSTORE SWAP1 DUP2 KECCAK256 PUSH1 0x1 ADD SLOAD SWAP2 SWAP3 POP SWAP1 PUSH2 0x23FA SWAP1 DUP4 SWAP1 PUSH2 0x307E JUMP JUMPDEST SWAP1 POP PUSH1 0x0 PUSH2 0x2408 DUP3 DUP12 PUSH2 0x2F2B JUMP JUMPDEST SWAP1 POP PUSH1 0x0 PUSH2 0x2416 DUP3 DUP7 PUSH2 0x307E JUMP JUMPDEST SWAP14 SWAP13 POP POP POP POP POP POP POP POP POP POP POP POP POP JUMP JUMPDEST PUSH1 0x1 PUSH1 0x1 PUSH1 0xA0 SHL SUB DUP3 AND PUSH1 0x0 SWAP1 DUP2 MSTORE PUSH32 0x4A9BC5A4557FF57D341AB708B60833AB8120D5C3A894429179BD856B4E484337 PUSH1 0x20 MSTORE PUSH1 0x40 DUP2 KECCAK256 SLOAD DUP4 SWAP1 PUSH1 0xFF AND PUSH2 0x24C0 JUMPI PUSH1 0x40 MLOAD PUSH3 0x461BCD PUSH1 0xE5 SHL DUP2 MSTORE PUSH1 0x20 PUSH1 0x4 DUP3 ADD MSTORE PUSH1 0x27 PUSH1 0x24 DUP3 ADD MSTORE PUSH32 0x546869732061646472657373206973206E6F7420612072656769737465726564 PUSH1 0x44 DUP3 ADD MSTORE PUSH7 0x20757365722021 PUSH1 0xC8 SHL PUSH1 0x64 DUP3 ADD MSTORE PUSH1 0x84 ADD PUSH2 0x836 JUMP JUMPDEST DUP3 PUSH1 0x1 PUSH1 0x1 PUSH1 0xA0 SHL SUB DUP2 AND ADDRESS EQ DUP1 PUSH2 0x24F2 JUMPI POP PUSH1 0x1 PUSH1 0x1 PUSH1 0xA0 SHL SUB DUP1 DUP3 AND PUSH1 0x0 DUP2 DUP2 MSTORE PUSH1 0xE PUSH1 0x20 MSTORE PUSH1 0x40 SWAP1 KECCAK256 SLOAD SWAP1 SWAP2 AND EQ JUMPDEST DUP1 PUSH2 0x250A JUMPI POP PUSH1 0x5 SLOAD PUSH1 0x1 PUSH1 0x1 PUSH1 0xA0 SHL SUB DUP3 DUP2 AND SWAP2 AND EQ JUMPDEST PUSH2 0x2544 JUMPI PUSH1 0x40 MLOAD PUSH3 0x461BCD PUSH1 0xE5 SHL DUP2 MSTORE PUSH1 0x20 PUSH1 0x4 DUP3 ADD MSTORE PUSH1 0x1F PUSH1 0x24 DUP3 ADD MSTORE PUSH1 0x0 DUP1 MLOAD PUSH1 0x20 PUSH2 0x3855 DUP4 CODECOPY DUP2 MLOAD SWAP2 MSTORE PUSH1 0x44 DUP3 ADD MSTORE PUSH1 0x64 ADD PUSH2 0x836 JUMP JUMPDEST POP POP POP PUSH1 0x1 PUSH1 0x1 PUSH1 0xA0 SHL SUB SWAP2 DUP3 AND PUSH1 0x0 SWAP1 DUP2 MSTORE PUSH1 0xD PUSH1 0x20 SWAP1 DUP2 MSTORE PUSH1 0x40 DUP1 DUP4 KECCAK256 SWAP4 SWAP1 SWAP5 AND DUP3 MSTORE SWAP2 SWAP1 SWAP2 MSTORE KECCAK256 PUSH1 0x1 ADD SLOAD SWAP1 JUMP JUMPDEST PUSH1 0x1 SLOAD PUSH1 0x0 SWAP1 CALLER SWAP1 PUSH1 0x1 PUSH1 0x1 PUSH1 0xA0 SHL SUB AND DUP2 EQ PUSH2 0x25D4 JUMPI PUSH1 0x40 MLOAD PUSH3 0x461BCD PUSH1 0xE5 SHL DUP2 MSTORE PUSH1 0x20 PUSH1 0x4 DUP3 ADD MSTORE PUSH1 0x1F PUSH1 0x24 DUP3 ADD MSTORE PUSH32 0x596F7520617265206E6F74206F776E6572206F6620636F6E7472616374202100 PUSH1 0x44 DUP3 ADD MSTORE PUSH1 0x64 ADD PUSH2 0x836 JUMP JUMPDEST PUSH1 0x1 DUP1 SLOAD PUSH1 0x1 PUSH1 0x1 PUSH1 0xA0 SHL SUB DUP6 AND PUSH20 0xFFFFFFFFFFFFFFFFFFFFFFFFFFFFFFFFFFFFFFFF NOT SWAP1 SWAP2 AND OR DUP2 SSTORE SWAP2 POP POP SWAP2 SWAP1 POP JUMP JUMPDEST PUSH1 0x0 PUSH2 0x2611 PUSH1 0x4 SLOAD SWAP1 JUMP JUMPDEST PUSH1 0x0 SUB PUSH2 0x2625 JUMPI POP PUSH8 0x16345785D8A0000 SWAP1 JUMP JUMPDEST PUSH1 0x0 PUSH2 0x263B PUSH2 0x2633 PUSH1 0x4 SLOAD SWAP1 JUMP JUMPDEST PUSH1 0x3 SLOAD PUSH2 0x2227 JUMP JUMPDEST PUSH1 0x9 SLOAD SWAP1 SWAP2 POP DUP2 LT ISZERO PUSH2 0x2650 JUMPI POP POP PUSH1 0x9 SLOAD SWAP1 JUMP JUMPDEST PUSH1 0xA SLOAD DUP2 GT ISZERO PUSH2 0x2662 JUMPI POP POP PUSH1 0xA SLOAD SWAP1 JUMP JUMPDEST SWAP2 SWAP1 POP JUMP JUMPDEST PUSH1 0x1 PUSH1 0x1 PUSH1 0xA0 SHL SUB DUP2 AND PUSH1 0x0 SWAP1 DUP2 MSTORE PUSH32 0x64C1F520F44C7BD21582423011F312561B1794CC4C2F15511FF3C55442448F9D PUSH1 0x20 MSTORE PUSH1 0x40 SWAP1 KECCAK256 SLOAD PUSH1 0xFF AND PUSH2 0x26E6 JUMPI PUSH2 0x26D0 PUSH32 0xB021CE726E0715ED246707C90ADB0C0B4BD8DBF0F73335491384D0B4EA1E8465 DUP3 PUSH2 0x117D JUMP JUMPDEST PUSH1 0x2 DUP1 SLOAD SWAP1 PUSH1 0x0 PUSH2 0x26E0 DUP4 PUSH2 0x36FD JUMP JUMPDEST SWAP2 SWAP1 POP SSTORE POP JUMPDEST POP JUMP JUMPDEST PUSH1 0x1 PUSH1 0x1 PUSH1 0xA0 SHL SUB DUP3 AND PUSH1 0x0 SWAP1 DUP2 MSTORE PUSH32 0x4A9BC5A4557FF57D341AB708B60833AB8120D5C3A894429179BD856B4E484337 PUSH1 0x20 MSTORE PUSH1 0x40 DUP2 KECCAK256 SLOAD DUP4 SWAP1 PUSH1 0xFF AND PUSH2 0x2782 JUMPI PUSH1 0x40 MLOAD PUSH3 0x461BCD PUSH1 0xE5 SHL DUP2 MSTORE PUSH1 0x20 PUSH1 0x4 DUP3 ADD MSTORE PUSH1 0x27 PUSH1 0x24 DUP3 ADD MSTORE PUSH32 0x546869732061646472657373206973206E6F7420612072656769737465726564 PUSH1 0x44 DUP3 ADD MSTORE PUSH7 0x20757365722021 PUSH1 0xC8 SHL PUSH1 0x64 DUP3 ADD MSTORE PUSH1 0x84 ADD PUSH2 0x836 JUMP JUMPDEST DUP3 PUSH1 0x1 PUSH1 0x1 PUSH1 0xA0 SHL SUB DUP2 AND ADDRESS EQ DUP1 PUSH2 0x27B4 JUMPI POP PUSH1 0x1 PUSH1 0x1 PUSH1 0xA0 SHL SUB DUP1 DUP3 AND PUSH1 0x0 DUP2 DUP2 MSTORE PUSH1 0xE PUSH1 0x20 MSTORE PUSH1 0x40 SWAP1 KECCAK256 SLOAD SWAP1 SWAP2 AND EQ JUMPDEST DUP1 PUSH2 0x27CC JUMPI POP PUSH1 0x5 SLOAD PUSH1 0x1 PUSH1 0x1 PUSH1 0xA0 SHL SUB DUP3 DUP2 AND SWAP2 AND EQ JUMPDEST PUSH2 0x2806 JUMPI PUSH1 0x40 MLOAD PUSH3 0x461BCD PUSH1 0xE5 SHL DUP2 MSTORE PUSH1 0x20 PUSH1 0x4 DUP3 ADD MSTORE PUSH1 0x1F PUSH1 0x24 DUP3 ADD MSTORE PUSH1 0x0 DUP1 MLOAD PUSH1 0x20 PUSH2 0x3855 DUP4 CODECOPY DUP2 MLOAD SWAP2 MSTORE PUSH1 0x44 DUP3 ADD MSTORE PUSH1 0x64 ADD PUSH2 0x836 JUMP JUMPDEST POP POP POP PUSH1 0x1 PUSH1 0x1 PUSH1 0xA0 SHL SUB SWAP2 DUP3 AND PUSH1 0x0 SWAP1 DUP2 MSTORE PUSH1 0xD PUSH1 0x20 SWAP1 DUP2 MSTORE PUSH1 0x40 DUP1 DUP4 KECCAK256 SWAP4 SWAP1 SWAP5 AND DUP3 MSTORE SWAP2 SWAP1 SWAP2 MSTORE KECCAK256 PUSH1 0x2 ADD SLOAD SWAP1 JUMP JUMPDEST PUSH1 0x1 PUSH1 0x1 PUSH1 0xA0 SHL SUB DUP3 AND PUSH1 0x0 SWAP1 DUP2 MSTORE PUSH32 0x4A9BC5A4557FF57D341AB708B60833AB8120D5C3A894429179BD856B4E484337 PUSH1 0x20 MSTORE PUSH1 0x40 DUP2 KECCAK256 SLOAD DUP4 SWAP1 PUSH1 0xFF AND PUSH2 0x28D0 JUMPI PUSH1 0x40 MLOAD PUSH3 0x461BCD PUSH1 0xE5 SHL DUP2 MSTORE PUSH1 0x20 PUSH1 0x4 DUP3 ADD MSTORE PUSH1 0x27 PUSH1 0x24 DUP3 ADD MSTORE PUSH32 0x546869732061646472657373206973206E6F7420612072656769737465726564 PUSH1 0x44 DUP3 ADD MSTORE PUSH7 0x20757365722021 PUSH1 0xC8 SHL PUSH1 0x64 DUP3 ADD MSTORE PUSH1 0x84 ADD PUSH2 0x836 JUMP JUMPDEST DUP3 PUSH1 0x1 PUSH1 0x1 PUSH1 0xA0 SHL SUB DUP2 AND ADDRESS EQ DUP1 PUSH2 0x2902 JUMPI POP PUSH1 0x1 PUSH1 0x1 PUSH1 0xA0 SHL SUB DUP1 DUP3 AND PUSH1 0x0 DUP2 DUP2 MSTORE PUSH1 0xE PUSH1 0x20 MSTORE PUSH1 0x40 SWAP1 KECCAK256 SLOAD SWAP1 SWAP2 AND EQ JUMPDEST DUP1 PUSH2 0x291A JUMPI POP PUSH1 0x5 SLOAD PUSH1 0x1 PUSH1 0x1 PUSH1 0xA0 SHL SUB DUP3 DUP2 AND SWAP2 AND EQ JUMPDEST PUSH2 0x2954 JUMPI PUSH1 0x40 MLOAD PUSH3 0x461BCD PUSH1 0xE5 SHL DUP2 MSTORE PUSH1 0x20 PUSH1 0x4 DUP3 ADD MSTORE PUSH1 0x1F PUSH1 0x24 DUP3 ADD MSTORE PUSH1 0x0 DUP1 MLOAD PUSH1 0x20 PUSH2 0x3855 DUP4 CODECOPY DUP2 MLOAD SWAP2 MSTORE PUSH1 0x44 DUP3 ADD MSTORE PUSH1 0x64 ADD PUSH2 0x836 JUMP JUMPDEST POP POP POP PUSH1 0x1 PUSH1 0x1 PUSH1 0xA0 SHL SUB SWAP2 DUP3 AND PUSH1 0x0 SWAP1 DUP2 MSTORE PUSH1 0xD PUSH1 0x20 SWAP1 DUP2 MSTORE PUSH1 0x40 DUP1 DUP4 KECCAK256 SWAP4 SWAP1 SWAP5 AND DUP3 MSTORE SWAP2 SWAP1 SWAP2 MSTORE KECCAK256 SLOAD SWAP1 JUMP JUMPDEST PUSH32 0x46F3ECCDD88DD62792AE8EED1BE7B9B658477566C49FD85B0D08CF44261C9208 PUSH2 0x29AC DUP2 PUSH2 0x2F37 JUMP JUMPDEST DUP3 MLOAD PUSH1 0x20 DUP5 ADD KECCAK256 PUSH2 0x29E1 DUP2 DUP5 PUSH1 0x0 SWAP2 DUP3 MSTORE PUSH1 0x20 DUP3 DUP2 MSTORE PUSH1 0x40 DUP1 DUP5 KECCAK256 PUSH1 0x1 PUSH1 0x1 PUSH1 0xA0 SHL SUB SWAP4 SWAP1 SWAP4 AND DUP5 MSTORE SWAP2 SWAP1 MSTORE SWAP1 KECCAK256 SLOAD PUSH1 0xFF AND SWAP1 JUMP JUMPDEST ISZERO PUSH2 0x2A54 JUMPI PUSH1 0x40 MLOAD PUSH3 0x461BCD PUSH1 0xE5 SHL DUP2 MSTORE PUSH1 0x20 PUSH1 0x4 DUP3 ADD MSTORE PUSH1 0x26 PUSH1 0x24 DUP3 ADD MSTORE PUSH32 0x526F6C6520616C72656164792061737369676E656420746F2074686520616363 PUSH1 0x44 DUP3 ADD MSTORE PUSH32 0x6F756E7420210000000000000000000000000000000000000000000000000000 PUSH1 0x64 DUP3 ADD MSTORE PUSH1 0x84 ADD PUSH2 0x836 JUMP JUMPDEST PUSH2 0x21E9 DUP2 DUP5 PUSH2 0x2F61 JUMP JUMPDEST PUSH1 0x0 DUP3 DUP2 MSTORE PUSH1 0x20 DUP2 SWAP1 MSTORE PUSH1 0x40 SWAP1 KECCAK256 PUSH1 0x1 ADD SLOAD PUSH2 0x2A79 DUP2 PUSH2 0x2F37 JUMP JUMPDEST PUSH2 0x11A2 DUP4 DUP4 PUSH2 0x2FFF JUMP JUMPDEST PUSH1 0x0 DUP1 DUP1 DUP5 PUSH1 0x1 PUSH1 0x1 PUSH1 0xA0 SHL SUB DUP2 AND ADDRESS EQ DUP1 PUSH2 0x2AB9 JUMPI POP PUSH1 0x1 PUSH1 0x1 PUSH1 0xA0 SHL SUB DUP1 DUP3 AND PUSH1 0x0 DUP2 DUP2 MSTORE PUSH1 0xE PUSH1 0x20 MSTORE PUSH1 0x40 SWAP1 KECCAK256 SLOAD SWAP1 SWAP2 AND EQ JUMPDEST DUP1 PUSH2 0x2AD1 JUMPI POP PUSH1 0x5 SLOAD PUSH1 0x1 PUSH1 0x1 PUSH1 0xA0 SHL SUB DUP3 DUP2 AND SWAP2 AND EQ JUMPDEST PUSH2 0x2B0B JUMPI PUSH1 0x40 MLOAD PUSH3 0x461BCD PUSH1 0xE5 SHL DUP2 MSTORE PUSH1 0x20 PUSH1 0x4 DUP3 ADD MSTORE PUSH1 0x1F PUSH1 0x24 DUP3 ADD MSTORE PUSH1 0x0 DUP1 MLOAD PUSH1 0x20 PUSH2 0x3855 DUP4 CODECOPY DUP2 MLOAD SWAP2 MSTORE PUSH1 0x44 DUP3 ADD MSTORE PUSH1 0x64 ADD PUSH2 0x836 JUMP JUMPDEST PUSH1 0x0 DUP1 PUSH2 0x2B18 DUP9 DUP9 PUSH2 0x21EF JUMP JUMPDEST SWAP1 SWAP3 POP SWAP1 POP PUSH1 0x0 PUSH2 0x2B2B DUP4 PUSH2 0x2710 PUSH2 0x307E JUMP JUMPDEST PUSH1 0x6 SLOAD SWAP1 SWAP2 POP PUSH1 0x0 SWAP1 PUSH2 0x2B49 SWAP1 PUSH1 0x64 SWAP1 PUSH2 0x2227 SWAP1 DUP8 SWAP1 PUSH1 0xFF AND PUSH2 0x2F2B JUMP JUMPDEST SWAP1 POP PUSH1 0x0 PUSH2 0x2B57 DUP6 DUP4 PUSH2 0x308A JUMP JUMPDEST SWAP3 SWAP12 SWAP3 SWAP11 POP SWAP3 SWAP9 POP SWAP1 SWAP7 POP POP POP POP POP POP POP JUMP JUMPDEST CALLER PUSH1 0x0 DUP2 DUP2 MSTORE PUSH32 0x4A9BC5A4557FF57D341AB708B60833AB8120D5C3A894429179BD856B4E484337 PUSH1 0x20 MSTORE PUSH1 0x40 DUP2 KECCAK256 SLOAD SWAP1 SWAP2 SWAP1 PUSH1 0xFF AND PUSH2 0x2BFB JUMPI PUSH1 0x40 MLOAD PUSH3 0x461BCD PUSH1 0xE5 SHL DUP2 MSTORE PUSH1 0x20 PUSH1 0x4 DUP3 ADD MSTORE PUSH1 0x27 PUSH1 0x24 DUP3 ADD MSTORE PUSH32 0x546869732061646472657373206973206E6F7420612072656769737465726564 PUSH1 0x44 DUP3 ADD MSTORE PUSH7 0x20757365722021 PUSH1 0xC8 SHL PUSH1 0x64 DUP3 ADD MSTORE PUSH1 0x84 ADD PUSH2 0x836 JUMP JUMPDEST DUP3 PUSH1 0x1 PUSH1 0x1 PUSH1 0xA0 SHL SUB DUP2 AND ADDRESS EQ DUP1 PUSH2 0x2C2D JUMPI POP PUSH1 0x1 PUSH1 0x1 PUSH1 0xA0 SHL SUB DUP1 DUP3 AND PUSH1 0x0 DUP2 DUP2 MSTORE PUSH1 0xE PUSH1 0x20 MSTORE PUSH1 0x40 SWAP1 KECCAK256 SLOAD SWAP1 SWAP2 AND EQ JUMPDEST DUP1 PUSH2 0x2C45 JUMPI POP PUSH1 0x5 SLOAD PUSH1 0x1 PUSH1 0x1 PUSH1 0xA0 SHL SUB DUP3 DUP2 AND SWAP2 AND EQ JUMPDEST PUSH2 0x2C7F JUMPI PUSH1 0x40 MLOAD PUSH3 0x461BCD PUSH1 0xE5 SHL DUP2 MSTORE PUSH1 0x20 PUSH1 0x4 DUP3 ADD MSTORE PUSH1 0x1F PUSH1 0x24 DUP3 ADD MSTORE PUSH1 0x0 DUP1 MLOAD PUSH1 0x20 PUSH2 0x3855 DUP4 CODECOPY DUP2 MLOAD SWAP2 MSTORE PUSH1 0x44 DUP3 ADD MSTORE PUSH1 0x64 ADD PUSH2 0x836 JUMP JUMPDEST CALLER PUSH1 0x0 DUP2 DUP2 MSTORE PUSH1 0xD PUSH1 0x20 SWAP1 DUP2 MSTORE PUSH1 0x40 DUP1 DUP4 KECCAK256 PUSH1 0x1 PUSH1 0x1 PUSH1 0xA0 SHL SUB DUP10 AND DUP5 MSTORE DUP3 MSTORE SWAP2 DUP3 SWAP1 KECCAK256 DUP3 MLOAD PUSH1 0x60 DUP2 ADD DUP5 MSTORE DUP2 SLOAD DUP2 MSTORE PUSH1 0x1 DUP3 ADD SLOAD SWAP3 DUP2 ADD DUP4 SWAP1 MSTORE PUSH1 0x2 SWAP1 SWAP2 ADD SLOAD SWAP3 DUP2 ADD SWAP3 SWAP1 SWAP3 MSTORE DUP7 SWAP2 SWAP1 ISZERO ISZERO DUP1 PUSH2 0x2CD7 JUMPI POP DUP1 MLOAD ISZERO ISZERO JUMPDEST PUSH2 0x2D23 JUMPI PUSH1 0x40 MLOAD PUSH3 0x461BCD PUSH1 0xE5 SHL DUP2 MSTORE PUSH1 0x20 PUSH1 0x4 DUP3 ADD MSTORE PUSH1 0x1A PUSH1 0x24 DUP3 ADD MSTORE PUSH32 0x54686973206C6F616E20646F6573206E6F742065786973742021000000000000 PUSH1 0x44 DUP3 ADD MSTORE PUSH1 0x64 ADD PUSH2 0x836 JUMP JUMPDEST CALLER PUSH1 0x0 SWAP1 DUP2 MSTORE PUSH1 0xD PUSH1 0x20 SWAP1 DUP2 MSTORE PUSH1 0x40 DUP1 DUP4 KECCAK256 PUSH1 0x1 PUSH1 0x1 PUSH1 0xA0 SHL SUB DUP12 AND DUP5 MSTORE DUP3 MSTORE SWAP2 DUP3 SWAP1 KECCAK256 DUP3 MLOAD PUSH1 0x60 DUP2 ADD DUP5 MSTORE DUP2 SLOAD DUP2 MSTORE PUSH1 0x1 DUP3 ADD SLOAD SWAP3 DUP2 ADD DUP4 SWAP1 MSTORE PUSH1 0x2 SWAP1 SWAP2 ADD SLOAD SWAP3 DUP2 ADD SWAP3 SWAP1 SWAP3 MSTORE ISZERO DUP1 ISZERO PUSH2 0x2D8B JUMPI POP DUP1 MLOAD ISZERO DUP1 ISZERO SWAP1 PUSH2 0x2D8B JUMPI POP DUP1 MLOAD PUSH8 0xDE0B6B3A7640000 GT JUMPDEST PUSH2 0x2DFD JUMPI PUSH1 0x40 MLOAD PUSH3 0x461BCD PUSH1 0xE5 SHL DUP2 MSTORE PUSH1 0x20 PUSH1 0x4 DUP3 ADD MSTORE PUSH1 0x25 PUSH1 0x24 DUP3 ADD MSTORE PUSH32 0x596F752063616E6E6F7420657865637574652074686973207472616E73616374 PUSH1 0x44 DUP3 ADD MSTORE PUSH32 0x696F6E2021000000000000000000000000000000000000000000000000000000 PUSH1 0x64 DUP3 ADD MSTORE PUSH1 0x84 ADD PUSH2 0x836 JUMP JUMPDEST ADDRESS PUSH1 0x1 PUSH1 0x1 PUSH1 0xA0 SHL SUB DUP10 AND SUB PUSH2 0x2E44 JUMPI DUP1 MLOAD PUSH1 0x40 MLOAD CALLER SWAP2 DUP1 ISZERO PUSH2 0x8FC MUL SWAP2 PUSH1 0x0 DUP2 DUP2 DUP2 DUP6 DUP9 DUP9 CALL SWAP4 POP POP POP POP ISZERO DUP1 ISZERO PUSH2 0x2E3A JUMPI RETURNDATASIZE PUSH1 0x0 DUP1 RETURNDATACOPY RETURNDATASIZE PUSH1 0x0 REVERT JUMPDEST POP PUSH1 0x0 DUP2 MSTORE PUSH2 0x2ED5 JUMP JUMPDEST PUSH1 0x1 PUSH1 0x1 PUSH1 0xA0 SHL SUB DUP9 DUP2 AND PUSH1 0x0 SWAP1 DUP2 MSTORE PUSH1 0xE PUSH1 0x20 MSTORE PUSH1 0x40 SWAP1 DUP2 SWAP1 KECCAK256 PUSH1 0x1 ADD SLOAD DUP4 MLOAD SWAP2 MLOAD PUSH4 0xA9059CBB PUSH1 0xE0 SHL DUP2 MSTORE CALLER PUSH1 0x4 DUP3 ADD MSTORE PUSH1 0x24 DUP2 ADD SWAP3 SWAP1 SWAP3 MSTORE SWAP1 SWAP2 AND SWAP1 PUSH4 0xA9059CBB SWAP1 PUSH1 0x44 ADD PUSH1 0x20 PUSH1 0x40 MLOAD DUP1 DUP4 SUB DUP2 PUSH1 0x0 DUP8 GAS CALL ISZERO DUP1 ISZERO PUSH2 0x2EAB JUMPI RETURNDATASIZE PUSH1 0x0 DUP1 RETURNDATACOPY RETURNDATASIZE PUSH1 0x0 REVERT JUMPDEST POP POP POP POP PUSH1 0x40 MLOAD RETURNDATASIZE PUSH1 0x1F NOT PUSH1 0x1F DUP3 ADD AND DUP3 ADD DUP1 PUSH1 0x40 MSTORE POP DUP2 ADD SWAP1 PUSH2 0x2ECF SWAP2 SWAP1 PUSH2 0x3644 JUMP JUMPDEST POP PUSH1 0x0 DUP2 MSTORE JUMPDEST PUSH1 0x20 DUP2 ADD MLOAD ISZERO DUP1 ISZERO PUSH2 0x2EE6 JUMPI POP DUP1 MLOAD ISZERO JUMPDEST ISZERO PUSH2 0x2F1D JUMPI CALLER PUSH1 0x0 SWAP1 DUP2 MSTORE PUSH1 0xD PUSH1 0x20 SWAP1 DUP2 MSTORE PUSH1 0x40 DUP1 DUP4 KECCAK256 PUSH1 0x1 PUSH1 0x1 PUSH1 0xA0 SHL SUB DUP13 AND DUP5 MSTORE SWAP1 SWAP2 MSTORE DUP2 KECCAK256 DUP2 DUP2 SSTORE PUSH1 0x1 DUP2 ADD DUP3 SWAP1 SSTORE PUSH1 0x2 ADD SSTORE JUMPDEST POP PUSH1 0x1 SWAP8 SWAP7 POP POP POP POP POP POP POP JUMP JUMPDEST PUSH1 0x0 PUSH2 0x9A4 DUP3 DUP5 PUSH2 0x3716 JUMP JUMPDEST PUSH2 0x26E6 DUP2 CALLER PUSH2 0x3096 JUMP JUMPDEST PUSH1 0x0 PUSH2 0x9A4 DUP3 DUP5 PUSH2 0x368F JUMP JUMPDEST PUSH1 0x0 PUSH2 0x8DA DUP3 PUSH8 0xDE0B6B3A7640000 PUSH2 0x307E JUMP JUMPDEST PUSH1 0x0 DUP3 DUP2 MSTORE PUSH1 0x20 DUP2 DUP2 MSTORE PUSH1 0x40 DUP1 DUP4 KECCAK256 PUSH1 0x1 PUSH1 0x1 PUSH1 0xA0 SHL SUB DUP6 AND DUP5 MSTORE SWAP1 SWAP2 MSTORE SWAP1 KECCAK256 SLOAD PUSH1 0xFF AND PUSH2 0x122F JUMPI PUSH1 0x0 DUP3 DUP2 MSTORE PUSH1 0x20 DUP2 DUP2 MSTORE PUSH1 0x40 DUP1 DUP4 KECCAK256 PUSH1 0x1 PUSH1 0x1 PUSH1 0xA0 SHL SUB DUP6 AND DUP5 MSTORE SWAP1 SWAP2 MSTORE SWAP1 KECCAK256 DUP1 SLOAD PUSH1 0xFF NOT AND PUSH1 0x1 OR SWAP1 SSTORE PUSH2 0x2FBB CALLER SWAP1 JUMP JUMPDEST PUSH1 0x1 PUSH1 0x1 PUSH1 0xA0 SHL SUB AND DUP2 PUSH1 0x1 PUSH1 0x1 PUSH1 0xA0 SHL SUB AND DUP4 PUSH32 0x2F8788117E7EFF1D82E926EC794901D17C78024A50270940304540A733656F0D PUSH1 0x40 MLOAD PUSH1 0x40 MLOAD DUP1 SWAP2 SUB SWAP1 LOG4 POP POP JUMP JUMPDEST PUSH1 0x0 DUP3 DUP2 MSTORE PUSH1 0x20 DUP2 DUP2 MSTORE PUSH1 0x40 DUP1 DUP4 KECCAK256 PUSH1 0x1 PUSH1 0x1 PUSH1 0xA0 SHL SUB DUP6 AND DUP5 MSTORE SWAP1 SWAP2 MSTORE SWAP1 KECCAK256 SLOAD PUSH1 0xFF AND ISZERO PUSH2 0x122F JUMPI PUSH1 0x0 DUP3 DUP2 MSTORE PUSH1 0x20 DUP2 DUP2 MSTORE PUSH1 0x40 DUP1 DUP4 KECCAK256 PUSH1 0x1 PUSH1 0x1 PUSH1 0xA0 SHL SUB DUP6 AND DUP1 DUP6 MSTORE SWAP3 MSTORE DUP1 DUP4 KECCAK256 DUP1 SLOAD PUSH1 0xFF NOT AND SWAP1 SSTORE MLOAD CALLER SWAP3 DUP6 SWAP2 PUSH32 0xF6391F5C32D9C69D2A47EA670B442974B53935D1EDC7FD64EB21E047A839171B SWAP2 SWAP1 LOG4 POP POP JUMP JUMPDEST PUSH1 0x0 PUSH2 0x9A4 DUP3 DUP5 PUSH2 0x372D JUMP JUMPDEST PUSH1 0x0 PUSH2 0x9A4 DUP3 DUP5 PUSH2 0x367C JUMP JUMPDEST PUSH1 0x0 DUP3 DUP2 MSTORE PUSH1 0x20 DUP2 DUP2 MSTORE PUSH1 0x40 DUP1 DUP4 KECCAK256 PUSH1 0x1 PUSH1 0x1 PUSH1 0xA0 SHL SUB DUP6 AND DUP5 MSTORE SWAP1 SWAP2 MSTORE SWAP1 KECCAK256 SLOAD PUSH1 0xFF AND PUSH2 0x122F JUMPI PUSH2 0x30C7 DUP2 PUSH2 0x3109 JUMP JUMPDEST PUSH2 0x30D2 DUP4 PUSH1 0x20 PUSH2 0x311B JUMP JUMPDEST PUSH1 0x40 MLOAD PUSH1 0x20 ADD PUSH2 0x30E3 SWAP3 SWAP2 SWAP1 PUSH2 0x3773 JUMP JUMPDEST PUSH1 0x40 DUP1 MLOAD PUSH1 0x1F NOT DUP2 DUP5 SUB ADD DUP2 MSTORE SWAP1 DUP3 SWAP1 MSTORE PUSH3 0x461BCD PUSH1 0xE5 SHL DUP3 MSTORE PUSH2 0x836 SWAP2 PUSH1 0x4 ADD PUSH2 0x37F4 JUMP JUMPDEST PUSH1 0x60 PUSH2 0x8DA PUSH1 0x1 PUSH1 0x1 PUSH1 0xA0 SHL SUB DUP4 AND PUSH1 0x14 JUMPDEST PUSH1 0x60 PUSH1 0x0 PUSH2 0x312A DUP4 PUSH1 0x2 PUSH2 0x3716 JUMP JUMPDEST PUSH2 0x3135 SWAP1 PUSH1 0x2 PUSH2 0x368F JUMP JUMPDEST PUSH8 0xFFFFFFFFFFFFFFFF DUP2 GT ISZERO PUSH2 0x314D JUMPI PUSH2 0x314D PUSH2 0x34F2 JUMP JUMPDEST PUSH1 0x40 MLOAD SWAP1 DUP1 DUP3 MSTORE DUP1 PUSH1 0x1F ADD PUSH1 0x1F NOT AND PUSH1 0x20 ADD DUP3 ADD PUSH1 0x40 MSTORE DUP1 ISZERO PUSH2 0x3177 JUMPI PUSH1 0x20 DUP3 ADD DUP2 DUP1 CALLDATASIZE DUP4 CALLDATACOPY ADD SWAP1 POP JUMPDEST POP SWAP1 POP PUSH32 0x3000000000000000000000000000000000000000000000000000000000000000 DUP2 PUSH1 0x0 DUP2 MLOAD DUP2 LT PUSH2 0x31AE JUMPI PUSH2 0x31AE PUSH2 0x3827 JUMP JUMPDEST PUSH1 0x20 ADD ADD SWAP1 PUSH1 0x1 PUSH1 0x1 PUSH1 0xF8 SHL SUB NOT AND SWAP1 DUP2 PUSH1 0x0 BYTE SWAP1 MSTORE8 POP PUSH32 0x7800000000000000000000000000000000000000000000000000000000000000 DUP2 PUSH1 0x1 DUP2 MLOAD DUP2 LT PUSH2 0x31F9 JUMPI PUSH2 0x31F9 PUSH2 0x3827 JUMP JUMPDEST PUSH1 0x20 ADD ADD SWAP1 PUSH1 0x1 PUSH1 0x1 PUSH1 0xF8 SHL SUB NOT AND SWAP1 DUP2 PUSH1 0x0 BYTE SWAP1 MSTORE8 POP PUSH1 0x0 PUSH2 0x321D DUP5 PUSH1 0x2 PUSH2 0x3716 JUMP JUMPDEST PUSH2 0x3228 SWAP1 PUSH1 0x1 PUSH2 0x368F JUMP JUMPDEST SWAP1 POP JUMPDEST PUSH1 0x1 DUP2 GT ISZERO PUSH2 0x32AD JUMPI PUSH32 0x3031323334353637383961626364656600000000000000000000000000000000 DUP6 PUSH1 0xF AND PUSH1 0x10 DUP2 LT PUSH2 0x3269 JUMPI PUSH2 0x3269 PUSH2 0x3827 JUMP JUMPDEST BYTE PUSH1 0xF8 SHL DUP3 DUP3 DUP2 MLOAD DUP2 LT PUSH2 0x327F JUMPI PUSH2 0x327F PUSH2 0x3827 JUMP JUMPDEST PUSH1 0x20 ADD ADD SWAP1 PUSH1 0x1 PUSH1 0x1 PUSH1 0xF8 SHL SUB NOT AND SWAP1 DUP2 PUSH1 0x0 BYTE SWAP1 MSTORE8 POP PUSH1 0x4 SWAP5 SWAP1 SWAP5 SHR SWAP4 PUSH2 0x32A6 DUP2 PUSH2 0x383D JUMP JUMPDEST SWAP1 POP PUSH2 0x322B JUMP JUMPDEST POP DUP4 ISZERO PUSH2 0x9A4 JUMPI PUSH1 0x40 MLOAD PUSH3 0x461BCD PUSH1 0xE5 SHL DUP2 MSTORE PUSH1 0x20 PUSH1 0x4 DUP3 ADD DUP2 SWAP1 MSTORE PUSH1 0x24 DUP3 ADD MSTORE PUSH32 0x537472696E67733A20686578206C656E67746820696E73756666696369656E74 PUSH1 0x44 DUP3 ADD MSTORE PUSH1 0x64 ADD PUSH2 0x836 JUMP JUMPDEST PUSH1 0x0 PUSH1 0x20 DUP3 DUP5 SUB SLT ISZERO PUSH2 0x330E JUMPI PUSH1 0x0 DUP1 REVERT JUMPDEST DUP2 CALLDATALOAD PUSH32 0xFFFFFFFF00000000000000000000000000000000000000000000000000000000 DUP2 AND DUP2 EQ PUSH2 0x9A4 JUMPI PUSH1 0x0 DUP1 REVERT JUMPDEST DUP1 CALLDATALOAD PUSH1 0x1 PUSH1 0x1 PUSH1 0xA0 SHL SUB DUP2 AND DUP2 EQ PUSH2 0x2662 JUMPI PUSH1 0x0 DUP1 REVERT JUMPDEST PUSH1 0x0 PUSH1 0x20 DUP3 DUP5 SUB SLT ISZERO PUSH2 0x3367 JUMPI PUSH1 0x0 DUP1 REVERT JUMPDEST PUSH2 0x9A4 DUP3 PUSH2 0x333E JUMP JUMPDEST DUP1 CALLDATALOAD PUSH1 0xFF DUP2 AND DUP2 EQ PUSH2 0x2662 JUMPI PUSH1 0x0 DUP1 REVERT JUMPDEST PUSH1 0x0 PUSH1 0x20 DUP3 DUP5 SUB SLT ISZERO PUSH2 0x3393 JUMPI PUSH1 0x0 DUP1 REVERT JUMPDEST PUSH2 0x9A4 DUP3 PUSH2 0x3370 JUMP JUMPDEST PUSH1 0x0 DUP1 PUSH1 0x0 PUSH1 0x60 DUP5 DUP7 SUB SLT ISZERO PUSH2 0x33B1 JUMPI PUSH1 0x0 DUP1 REVERT JUMPDEST PUSH2 0x33BA DUP5 PUSH2 0x333E JUMP JUMPDEST SWAP3 POP PUSH2 0x33C8 PUSH1 0x20 DUP6 ADD PUSH2 0x333E JUMP JUMPDEST SWAP2 POP PUSH1 0x40 DUP5 ADD CALLDATALOAD SWAP1 POP SWAP3 POP SWAP3 POP SWAP3 JUMP JUMPDEST PUSH1 0x0 PUSH1 0x20 DUP3 DUP5 SUB SLT ISZERO PUSH2 0x33EA JUMPI PUSH1 0x0 DUP1 REVERT JUMPDEST POP CALLDATALOAD SWAP2 SWAP1 POP JUMP JUMPDEST PUSH1 0x0 DUP1 PUSH1 0x0 DUP1 PUSH1 0x0 DUP1 PUSH1 0x0 PUSH1 0xE0 DUP9 DUP11 SUB SLT ISZERO PUSH2 0x340C JUMPI PUSH1 0x0 DUP1 REVERT JUMPDEST PUSH2 0x3415 DUP9 PUSH2 0x3370 JUMP JUMPDEST SWAP7 POP PUSH2 0x3423 PUSH1 0x20 DUP10 ADD PUSH2 0x3370 JUMP JUMPDEST SWAP6 POP PUSH2 0x3431 PUSH1 0x40 DUP10 ADD PUSH2 0x3370 JUMP JUMPDEST SWAP5 POP PUSH1 0x60 DUP9 ADD CALLDATALOAD PUSH2 0xFFFF DUP2 AND DUP2 EQ PUSH2 0x3448 JUMPI PUSH1 0x0 DUP1 REVERT JUMPDEST SWAP4 POP PUSH1 0x80 DUP9 ADD CALLDATALOAD SWAP3 POP PUSH2 0x345D PUSH1 0xA0 DUP10 ADD PUSH2 0x3370 JUMP JUMPDEST SWAP2 POP PUSH1 0xC0 DUP9 ADD CALLDATALOAD SWAP1 POP SWAP3 SWAP6 SWAP9 SWAP2 SWAP5 SWAP8 POP SWAP3 SWAP6 POP JUMP JUMPDEST PUSH1 0x0 DUP1 PUSH1 0x40 DUP4 DUP6 SUB SLT ISZERO PUSH2 0x3485 JUMPI PUSH1 0x0 DUP1 REVERT JUMPDEST DUP3 CALLDATALOAD SWAP2 POP PUSH2 0x3495 PUSH1 0x20 DUP5 ADD PUSH2 0x333E JUMP JUMPDEST SWAP1 POP SWAP3 POP SWAP3 SWAP1 POP JUMP JUMPDEST PUSH1 0x0 DUP1 PUSH1 0x40 DUP4 DUP6 SUB SLT ISZERO PUSH2 0x34B1 JUMPI PUSH1 0x0 DUP1 REVERT JUMPDEST PUSH2 0x34BA DUP4 PUSH2 0x333E JUMP JUMPDEST SWAP5 PUSH1 0x20 SWAP4 SWAP1 SWAP4 ADD CALLDATALOAD SWAP4 POP POP POP JUMP JUMPDEST PUSH1 0x0 DUP1 PUSH1 0x40 DUP4 DUP6 SUB SLT ISZERO PUSH2 0x34DB JUMPI PUSH1 0x0 DUP1 REVERT JUMPDEST PUSH2 0x34E4 DUP4 PUSH2 0x333E JUMP JUMPDEST SWAP2 POP PUSH2 0x3495 PUSH1 0x20 DUP5 ADD PUSH2 0x333E JUMP JUMPDEST PUSH4 0x4E487B71 PUSH1 0xE0 SHL PUSH1 0x0 MSTORE PUSH1 0x41 PUSH1 0x4 MSTORE PUSH1 0x24 PUSH1 0x0 REVERT JUMPDEST PUSH1 0x0 DUP1 PUSH1 0x40 DUP4 DUP6 SUB SLT ISZERO PUSH2 0x351B JUMPI PUSH1 0x0 DUP1 REVERT JUMPDEST DUP3 CALLDATALOAD PUSH8 0xFFFFFFFFFFFFFFFF DUP1 DUP3 GT ISZERO PUSH2 0x3533 JUMPI PUSH1 0x0 DUP1 REVERT JUMPDEST DUP2 DUP6 ADD SWAP2 POP DUP6 PUSH1 0x1F DUP4 ADD SLT PUSH2 0x3547 JUMPI PUSH1 0x0 DUP1 REVERT JUMPDEST DUP2 CALLDATALOAD DUP2 DUP2 GT ISZERO PUSH2 0x3559 JUMPI PUSH2 0x3559 PUSH2 0x34F2 JUMP JUMPDEST PUSH1 0x40 MLOAD PUSH1 0x1F DUP3 ADD PUSH1 0x1F NOT SWAP1 DUP2 AND PUSH1 0x3F ADD AND DUP2 ADD SWAP1 DUP4 DUP3 GT DUP2 DUP4 LT OR ISZERO PUSH2 0x3581 JUMPI PUSH2 0x3581 PUSH2 0x34F2 JUMP JUMPDEST DUP2 PUSH1 0x40 MSTORE DUP3 DUP2 MSTORE DUP9 PUSH1 0x20 DUP5 DUP8 ADD ADD GT ISZERO PUSH2 0x359A JUMPI PUSH1 0x0 DUP1 REVERT JUMPDEST DUP3 PUSH1 0x20 DUP7 ADD PUSH1 0x20 DUP4 ADD CALLDATACOPY PUSH1 0x0 PUSH1 0x20 DUP5 DUP4 ADD ADD MSTORE DUP1 SWAP7 POP POP POP POP POP POP PUSH2 0x3495 PUSH1 0x20 DUP5 ADD PUSH2 0x333E JUMP JUMPDEST DUP1 MLOAD PUSH10 0xFFFFFFFFFFFFFFFFFFFF DUP2 AND DUP2 EQ PUSH2 0x2662 JUMPI PUSH1 0x0 DUP1 REVERT JUMPDEST PUSH1 0x0 DUP1 PUSH1 0x0 DUP1 PUSH1 0x0 PUSH1 0xA0 DUP7 DUP9 SUB SLT ISZERO PUSH2 0x35F3 JUMPI PUSH1 0x0 DUP1 REVERT JUMPDEST PUSH2 0x35FC DUP7 PUSH2 0x35C1 JUMP JUMPDEST SWAP5 POP PUSH1 0x20 DUP7 ADD MLOAD SWAP4 POP PUSH1 0x40 DUP7 ADD MLOAD SWAP3 POP PUSH1 0x60 DUP7 ADD MLOAD SWAP2 POP PUSH2 0x361F PUSH1 0x80 DUP8 ADD PUSH2 0x35C1 JUMP JUMPDEST SWAP1 POP SWAP3 SWAP6 POP SWAP3 SWAP6 SWAP1 SWAP4 POP JUMP JUMPDEST PUSH1 0x0 PUSH1 0x20 DUP3 DUP5 SUB SLT ISZERO PUSH2 0x363D JUMPI PUSH1 0x0 DUP1 REVERT JUMPDEST POP MLOAD SWAP2 SWAP1 POP JUMP JUMPDEST PUSH1 0x0 PUSH1 0x20 DUP3 DUP5 SUB SLT ISZERO PUSH2 0x3656 JUMPI PUSH1 0x0 DUP1 REVERT JUMPDEST DUP2 MLOAD DUP1 ISZERO ISZERO DUP2 EQ PUSH2 0x9A4 JUMPI PUSH1 0x0 DUP1 REVERT JUMPDEST PUSH4 0x4E487B71 PUSH1 0xE0 SHL PUSH1 0x0 MSTORE PUSH1 0x11 PUSH1 0x4 MSTORE PUSH1 0x24 PUSH1 0x0 REVERT JUMPDEST DUP2 DUP2 SUB DUP2 DUP2 GT ISZERO PUSH2 0x8DA JUMPI PUSH2 0x8DA PUSH2 0x3666 JUMP JUMPDEST DUP1 DUP3 ADD DUP1 DUP3 GT ISZERO PUSH2 0x8DA JUMPI PUSH2 0x8DA PUSH2 0x3666 JUMP JUMPDEST PUSH3 0xFFFFFF DUP2 DUP2 AND DUP4 DUP3 AND MUL DUP1 DUP3 AND SWAP2 SWAP1 DUP3 DUP2 EQ PUSH2 0x2121 JUMPI PUSH2 0x2121 PUSH2 0x3666 JUMP JUMPDEST PUSH1 0x0 PUSH1 0xFF DUP3 AND PUSH1 0xFF DUP2 SUB PUSH2 0x36D7 JUMPI PUSH2 0x36D7 PUSH2 0x3666 JUMP JUMPDEST PUSH1 0x1 ADD SWAP3 SWAP2 POP POP JUMP JUMPDEST PUSH1 0x0 PUSH1 0xFF DUP3 AND DUP1 PUSH2 0x36F3 JUMPI PUSH2 0x36F3 PUSH2 0x3666 JUMP JUMPDEST PUSH1 0x0 NOT ADD SWAP3 SWAP2 POP POP JUMP JUMPDEST PUSH1 0x0 PUSH1 0x1 DUP3 ADD PUSH2 0x370F JUMPI PUSH2 0x370F PUSH2 0x3666 JUMP JUMPDEST POP PUSH1 0x1 ADD SWAP1 JUMP JUMPDEST DUP1 DUP3 MUL DUP2 ISZERO DUP3 DUP3 DIV DUP5 EQ OR PUSH2 0x8DA JUMPI PUSH2 0x8DA PUSH2 0x3666 JUMP JUMPDEST PUSH1 0x0 DUP3 PUSH2 0x374A JUMPI PUSH4 0x4E487B71 PUSH1 0xE0 SHL PUSH1 0x0 MSTORE PUSH1 0x12 PUSH1 0x4 MSTORE PUSH1 0x24 PUSH1 0x0 REVERT JUMPDEST POP DIV SWAP1 JUMP JUMPDEST PUSH1 0x0 JUMPDEST DUP4 DUP2 LT ISZERO PUSH2 0x376A JUMPI DUP2 DUP2 ADD MLOAD DUP4 DUP3 ADD MSTORE PUSH1 0x20 ADD PUSH2 0x3752 JUMP JUMPDEST POP POP PUSH1 0x0 SWAP2 ADD MSTORE JUMP JUMPDEST PUSH32 0x416363657373436F6E74726F6C3A206163636F756E7420000000000000000000 DUP2 MSTORE PUSH1 0x0 DUP4 MLOAD PUSH2 0x37AB DUP2 PUSH1 0x17 DUP6 ADD PUSH1 0x20 DUP9 ADD PUSH2 0x374F JUMP JUMPDEST PUSH32 0x206973206D697373696E6720726F6C6520000000000000000000000000000000 PUSH1 0x17 SWAP2 DUP5 ADD SWAP2 DUP3 ADD MSTORE DUP4 MLOAD PUSH2 0x37E8 DUP2 PUSH1 0x28 DUP5 ADD PUSH1 0x20 DUP9 ADD PUSH2 0x374F JUMP JUMPDEST ADD PUSH1 0x28 ADD SWAP5 SWAP4 POP POP POP POP JUMP JUMPDEST PUSH1 0x20 DUP2 MSTORE PUSH1 0x0 DUP3 MLOAD DUP1 PUSH1 0x20 DUP5 ADD MSTORE PUSH2 0x3813 DUP2 PUSH1 0x40 DUP6 ADD PUSH1 0x20 DUP8 ADD PUSH2 0x374F JUMP JUMPDEST PUSH1 0x1F ADD PUSH1 0x1F NOT AND SWAP2 SWAP1 SWAP2 ADD PUSH1 0x40 ADD SWAP3 SWAP2 POP POP JUMP JUMPDEST PUSH4 0x4E487B71 PUSH1 0xE0 SHL PUSH1 0x0 MSTORE PUSH1 0x32 PUSH1 0x4 MSTORE PUSH1 0x24 PUSH1 0x0 REVERT JUMPDEST PUSH1 0x0 DUP2 PUSH2 0x384C JUMPI PUSH2 0x384C PUSH2 0x3666 JUMP JUMPDEST POP PUSH1 0x0 NOT ADD SWAP1 JUMP INVALID SLOAD PUSH9 0x697320746F6B656E20 PUSH5 0x6F6573206E PUSH16 0x7420737570706F72746564202100A264 PUSH10 0x70667358221220EDDB07 CALLCODE TLOAD 0xF SHR PUSH21 0x52134D0FE9AC4C407AE1DA1A5C9060826C4AE3898E 0xC PUSH20 0xB664736F6C634300081800332CB697566D4FAE71 0xA9 0xE6 MCOPY 0x4D 0xAC DUP6 EXTCODESIZE CALL 0xE0 0xE8 DUP11 BLOBHASH JUMPI LOG1 SHL 0xB6 0x28 EQ 0xA7 DUP14 AND JUMPDEST 0xB6 0xBB "},"methodIdentifiers":{"DEFAULT_ADMIN_ROLE()":"a217fddf","addToken(address,address)":"5476bd72","borrow(address,uint256)":"4b8a3529","calculateBorrowAmount(address,uint256)":"7c680b85","calculateRepaymentAmount(address,address,uint256)":"7f35fe63","changeOwner(address)":"a6f9dae1","checkUserRegistration(address)":"a900bf43","convertEthToWei(uint256)":"46233f44","estimateBigBangPrice()":"a7429fd9","getAssetsTotalValue()":"9c2b062d","getBorrowAmounts(address,uint256)":"e3658273","getBorrowerBorrowedAmount(address,address)":"9fd9d671","getBorrowerCollateralBalance(address,address)":"c0ed4a43","getContractBalance(address)":"43ab265f","getLendingLimitation()":"fa41ac6c","getLoanExpirationDate(address,address)":"ab9af560","getOwnerShare()":"019ddb8d","getRepaymentPeriod()":"64c4bec0","getRoleAdmin(bytes32)":"248a9ca3","getTokenLatestPrice(address)":"0413c198","getTotalUsedBigBangs()":"ce6f2a7a","getUserBalance(address,address)":"6805d6ad","getUsersTotalCout()":"bef95b10","getVoteFee()":"c9c1c4f4","grantRole(bytes32,address)":"2f2ff15d","grantRole(string,address)":"c19ae2ed","hasRole(bytes32,address)":"91d14854","owner()":"8da5cb5b","removeToken(address)":"5fa7b584","renounceRole(bytes32,address)":"36568abe","repay(address,address,uint256)":"1da649cf","revokeRole(bytes32,address)":"d547741f","revokeRole(string,address)":"731f21a0","setBusinessLogicDatas(uint8,uint8,uint8,uint16,uint256,uint8,uint256)":"2a730bef","setLendingLimitation(uint8)":"666b7686","setNativeTokenProvider(address)":"601d0f3b","setRepaymentPeriod(uint8)":"0c63cc7d","supportsInterface(bytes4)":"01ffc9a7","withdrawOwnerShare(uint256)":"3af6bbcc","withdrawSmallAmounts(address)":"e4d4d2ff"}}}}}