{
  "_format": "hh-sol-artifact-1",
  "contractName": "BigBang_VotingService",
  "sourceName": "contracts/BigBang_VotingService.sol",
  "abi": [
    {
      "inputs": [
        {
          "internalType": "address",
          "name": "_nativeTokenAddr",
          "type": "address"
        },
        {
          "internalType": "address",
          "name": "_lendingServiceContractAddr",
          "type": "address"
        }
      ],
      "stateMutability": "nonpayable",
      "type": "constructor"
    },
    {
      "anonymous": false,
      "inputs": [
        {
          "indexed": true,
          "internalType": "bytes32",
          "name": "role",
          "type": "bytes32"
        },
        {
          "indexed": true,
          "internalType": "bytes32",
          "name": "previousAdminRole",
          "type": "bytes32"
        },
        {
          "indexed": true,
          "internalType": "bytes32",
          "name": "newAdminRole",
          "type": "bytes32"
        }
      ],
      "name": "RoleAdminChanged",
      "type": "event"
    },
    {
      "anonymous": false,
      "inputs": [
        {
          "indexed": true,
          "internalType": "bytes32",
          "name": "role",
          "type": "bytes32"
        },
        {
          "indexed": true,
          "internalType": "address",
          "name": "account",
          "type": "address"
        },
        {
          "indexed": true,
          "internalType": "address",
          "name": "sender",
          "type": "address"
        }
      ],
      "name": "RoleGranted",
      "type": "event"
    },
    {
      "anonymous": false,
      "inputs": [
        {
          "indexed": true,
          "internalType": "bytes32",
          "name": "role",
          "type": "bytes32"
        },
        {
          "indexed": true,
          "internalType": "address",
          "name": "account",
          "type": "address"
        },
        {
          "indexed": true,
          "internalType": "address",
          "name": "sender",
          "type": "address"
        }
      ],
      "name": "RoleRevoked",
      "type": "event"
    },
    {
      "inputs": [],
      "name": "DEFAULT_ADMIN_ROLE",
      "outputs": [
        {
          "internalType": "bytes32",
          "name": "",
          "type": "bytes32"
        }
      ],
      "stateMutability": "view",
      "type": "function"
    },
    {
      "inputs": [
        {
          "internalType": "bytes32",
          "name": "role",
          "type": "bytes32"
        }
      ],
      "name": "getRoleAdmin",
      "outputs": [
        {
          "internalType": "bytes32",
          "name": "",
          "type": "bytes32"
        }
      ],
      "stateMutability": "view",
      "type": "function"
    },
    {
      "inputs": [
        {
          "internalType": "bytes32",
          "name": "role",
          "type": "bytes32"
        },
        {
          "internalType": "address",
          "name": "account",
          "type": "address"
        }
      ],
      "name": "grantRole",
      "outputs": [],
      "stateMutability": "nonpayable",
      "type": "function"
    },
    {
      "inputs": [
        {
          "internalType": "string",
          "name": "_role",
          "type": "string"
        },
        {
          "internalType": "address",
          "name": "_account",
          "type": "address"
        }
      ],
      "name": "grantRole",
      "outputs": [],
      "stateMutability": "nonpayable",
      "type": "function"
    },
    {
      "inputs": [
        {
          "internalType": "bytes32",
          "name": "role",
          "type": "bytes32"
        },
        {
          "internalType": "address",
          "name": "account",
          "type": "address"
        }
      ],
      "name": "hasRole",
      "outputs": [
        {
          "internalType": "bool",
          "name": "",
          "type": "bool"
        }
      ],
      "stateMutability": "view",
      "type": "function"
    },
    {
      "inputs": [
        {
          "internalType": "bool",
          "name": "isPositive",
          "type": "bool"
        },
        {
          "internalType": "uint256",
          "name": "_voteNumber",
          "type": "uint256"
        }
      ],
      "name": "lendingLimitationVoting",
      "outputs": [
        {
          "internalType": "bool",
          "name": "",
          "type": "bool"
        }
      ],
      "stateMutability": "nonpayable",
      "type": "function"
    },
    {
      "inputs": [
        {
          "internalType": "bytes32",
          "name": "role",
          "type": "bytes32"
        },
        {
          "internalType": "address",
          "name": "account",
          "type": "address"
        }
      ],
      "name": "renounceRole",
      "outputs": [],
      "stateMutability": "nonpayable",
      "type": "function"
    },
    {
      "inputs": [
        {
          "internalType": "bool",
          "name": "isPositive",
          "type": "bool"
        },
        {
          "internalType": "uint256",
          "name": "_voteNumber",
          "type": "uint256"
        }
      ],
      "name": "repaymentPeriodVoting",
      "outputs": [
        {
          "internalType": "bool",
          "name": "",
          "type": "bool"
        }
      ],
      "stateMutability": "nonpayable",
      "type": "function"
    },
    {
      "inputs": [
        {
          "internalType": "string",
          "name": "_role",
          "type": "string"
        },
        {
          "internalType": "address",
          "name": "_account",
          "type": "address"
        }
      ],
      "name": "revokeRole",
      "outputs": [],
      "stateMutability": "nonpayable",
      "type": "function"
    },
    {
      "inputs": [
        {
          "internalType": "bytes32",
          "name": "role",
          "type": "bytes32"
        },
        {
          "internalType": "address",
          "name": "account",
          "type": "address"
        }
      ],
      "name": "revokeRole",
      "outputs": [],
      "stateMutability": "nonpayable",
      "type": "function"
    },
    {
      "inputs": [
        {
          "internalType": "bytes4",
          "name": "interfaceId",
          "type": "bytes4"
        }
      ],
      "name": "supportsInterface",
      "outputs": [
        {
          "internalType": "bool",
          "name": "",
          "type": "bool"
        }
      ],
      "stateMutability": "view",
      "type": "function"
    }
  ],
  "bytecode": "0x60a06040523480156200001157600080fd5b5060405162001668380380620016688339810160408190526200003491620001aa565b60018055336080819052600680546001600160a01b038581166001600160a01b03199283161790925560078054928516929091169190911790556200007c90600090620000ec565b620000b07f46f3eccdd88dd62792ae8eed1be7b9b658477566c49fd85b0d08cf44261c9208608051620000ec60201b60201c565b620000e47f2cb697566d4fae71a9e65e4dac853bf1e0e88a4957a11bb62814a78d165bb6bb608051620000ec60201b60201c565b5050620001e2565b6000828152602081815260408083206001600160a01b038516845290915290205460ff1662000189576000828152602081815260408083206001600160a01b03851684529091529020805460ff19166001179055620001483390565b6001600160a01b0316816001600160a01b0316837f2f8788117e7eff1d82e926ec794901d17c78024a50270940304540a733656f0d60405160405180910390a45b5050565b80516001600160a01b0381168114620001a557600080fd5b919050565b60008060408385031215620001be57600080fd5b620001c9836200018d565b9150620001d9602084016200018d565b90509250929050565b60805161146d620001fb6000396000505061146d6000f3fe608060405234801561001057600080fd5b50600436106100c95760003560e01c806391d1485411610081578063c19ae2ed1161005b578063c19ae2ed146101b4578063cd87d743146101c7578063d547741f146101da57600080fd5b806391d1485414610162578063a066085414610199578063a217fddf146101ac57600080fd5b80632f2ff15d116100b25780632f2ff15d1461012757806336568abe1461013c578063731f21a01461014f57600080fd5b806301ffc9a7146100ce578063248a9ca3146100f6575b600080fd5b6100e16100dc366004611052565b6101ed565b60405190151581526020015b60405180910390f35b61011961010436600461107c565b60009081526020819052604090206001015490565b6040519081526020016100ed565b61013a6101353660046110ba565b610256565b005b61013a61014a3660046110ba565b610280565b61013a61015d366004611100565b610311565b6100e16101703660046110ba565b6000918252602082815260408084206001600160a01b0393909316845291905290205460ff1690565b6100e16101a73660046111d0565b6103f2565b610119600081565b61013a6101c2366004611100565b6107d6565b6100e16101d53660046111d0565b6108b2565b61013a6101e83660046110ba565b610bb5565b60006001600160e01b031982167f7965db0b00000000000000000000000000000000000000000000000000000000148061025057507f01ffc9a7000000000000000000000000000000000000000000000000000000006001600160e01b03198316145b92915050565b60008281526020819052604090206001015461027181610bda565b61027b8383610be7565b505050565b6001600160a01b03811633146103035760405162461bcd60e51b815260206004820152602f60248201527f416363657373436f6e74726f6c3a2063616e206f6e6c792072656e6f756e636560448201527f20726f6c657320666f722073656c66000000000000000000000000000000000060648201526084015b60405180910390fd5b61030d8282610c85565b5050565b7f46f3eccdd88dd62792ae8eed1be7b9b658477566c49fd85b0d08cf44261c920861033b81610bda565b8251602084012061037081846000918252602082815260408084206001600160a01b0393909316845291905290205460ff1690565b6103e25760405162461bcd60e51b815260206004820152602260248201527f526f6c65206e6f742061737369676e656420746f20746865206163636f756e7460448201527f202100000000000000000000000000000000000000000000000000000000000060648201526084016102fa565b6103ec8184610c85565b50505050565b60006103fc610d04565b600082116104625760405162461bcd60e51b815260206004820152602d60248201527f54686520766f7465206e756d6265722073686f756c642062652067726561746560448201526c72207468616e207a65726f202160981b60648201526084016102fa565b600080600760009054906101000a90046001600160a01b03166001600160a01b031663b6e1c62e6040518163ffffffff1660e01b815260040161010060405180830381865afa1580156104b9573d6000803e3d6000fd5b505050506040513d601f19601f820116820180604052508101906104dd919061120d565b5096505050509350505060006104fc8386610d5d90919063ffffffff16565b6006546040516370a0823160e01b81523360048201529192506001600160a01b0316906370a0823190602401602060405180830381865afa158015610545573d6000803e3d6000fd5b505050506040513d601f19601f82011682018060405250810190610569919061128a565b8111156105b85760405162461bcd60e51b815260206004820152601660248201527f496e73756666696369656e742042616c616e636520210000000000000000000060448201526064016102fa565b6006546007546040516323b872dd60e01b81523360048201526001600160a01b039182166024820152604481018490529116906323b872dd906064016020604051808303816000875af1158015610613573d6000803e3d6000fd5b505050506040513d601f19601f8201168201806040525081019061063791906112a3565b50851561065b57846004600082825461065091906112d6565b909155506106739050565b846005600082825461066d91906112d6565b90915550505b67696e63726561736560c01b610687610d70565b0361071f57601f8260ff16101561071a576007546001600160a01b0316630c63cc7d6106b48460016112e9565b6040516001600160e01b031960e084901b16815260ff90911660048201526024016020604051808303816000875af11580156106f4573d6000803e3d6000fd5b505050506040513d601f19601f8201168201806040525081019061071891906112a3565b505b6107c6565b67646563726561736560c01b610733610d70565b036107c65760018260ff1611156107c6576007546001600160a01b0316630c63cc7d610760600185611302565b6040516001600160e01b031960e084901b16815260ff90911660048201526024016020604051808303816000875af11580156107a0573d6000803e3d6000fd5b505050506040513d601f19601f820116820180604052508101906107c491906112a3565b505b6001935050505061025060018055565b7f46f3eccdd88dd62792ae8eed1be7b9b658477566c49fd85b0d08cf44261c920861080081610bda565b8251602084012061083581846000918252602082815260408084206001600160a01b0393909316845291905290205460ff1690565b156108a85760405162461bcd60e51b815260206004820152602660248201527f526f6c6520616c72656164792061737369676e656420746f207468652061636360448201527f6f756e742021000000000000000000000000000000000000000000000000000060648201526084016102fa565b6103ec8184610be7565b60006108bc610d04565b600082116109225760405162461bcd60e51b815260206004820152602d60248201527f54686520766f7465206e756d6265722073686f756c642062652067726561746560448201526c72207468616e207a65726f202160981b60648201526084016102fa565b600080600760009054906101000a90046001600160a01b03166001600160a01b031663b6e1c62e6040518163ffffffff1660e01b815260040161010060405180830381865afa158015610979573d6000803e3d6000fd5b505050506040513d601f19601f8201168201806040525081019061099d919061120d565b5050505093509350505060006109bc8386610d5d90919063ffffffff16565b6006546040516370a0823160e01b81523360048201529192506001600160a01b0316906370a0823190602401602060405180830381865afa158015610a05573d6000803e3d6000fd5b505050506040513d601f19601f82011682018060405250810190610a29919061128a565b811115610a785760405162461bcd60e51b815260206004820152601660248201527f496e73756666696369656e742042616c616e636520210000000000000000000060448201526064016102fa565b6006546007546040516323b872dd60e01b81523360048201526001600160a01b039182166024820152604481018490529116906323b872dd906064016020604051808303816000875af1158015610ad3573d6000803e3d6000fd5b505050506040513d601f19601f82011682018060405250810190610af791906112a3565b508515610b1b578460026000828254610b1091906112d6565b90915550610b339050565b8460036000828254610b2d91906112d6565b90915550505b67696e63726561736560c01b610b47610db6565b03610b745760608260ff16101561071a576007546001600160a01b031663666b76866106b48460016112e9565b67646563726561736560c01b610b88610db6565b036107c65760148260ff1611156107c6576007546001600160a01b031663666b7686610760600185611302565b600082815260208190526040902060010154610bd081610bda565b61027b8383610c85565b610be48133610dec565b50565b6000828152602081815260408083206001600160a01b038516845290915290205460ff1661030d576000828152602081815260408083206001600160a01b03851684529091529020805460ff19166001179055610c413390565b6001600160a01b0316816001600160a01b0316837f2f8788117e7eff1d82e926ec794901d17c78024a50270940304540a733656f0d60405160405180910390a45050565b6000828152602081815260408083206001600160a01b038516845290915290205460ff161561030d576000828152602081815260408083206001600160a01b0385168085529252808320805460ff1916905551339285917ff6391f5c32d9c69d2a47ea670b442974b53935d1edc7fd64eb21e047a839171b9190a45050565b600260015403610d565760405162461bcd60e51b815260206004820152601f60248201527f5265656e7472616e637947756172643a207265656e7472616e742063616c6c0060448201526064016102fa565b6002600155565b6000610d69828461131b565b9392505050565b60006005546004541115610d8e575067696e63726561736560c01b90565b60055460045403610da6575064195c5d585b60da1b90565b5067646563726561736560c01b90565b60006003546002541115610dd4575067696e63726561736560c01b90565b60035460025403610da6575064195c5d585b60da1b90565b6000828152602081815260408083206001600160a01b038516845290915290205460ff1661030d57610e1d81610e5f565b610e28836020610e71565b604051602001610e39929190611356565b60408051601f198184030181529082905262461bcd60e51b82526102fa916004016113d7565b60606102506001600160a01b03831660145b60606000610e8083600261131b565b610e8b9060026112d6565b67ffffffffffffffff811115610ea357610ea36110ea565b6040519080825280601f01601f191660200182016040528015610ecd576020820181803683370190505b5090507f300000000000000000000000000000000000000000000000000000000000000081600081518110610f0457610f0461140a565b60200101906001600160f81b031916908160001a9053507f780000000000000000000000000000000000000000000000000000000000000081600181518110610f4f57610f4f61140a565b60200101906001600160f81b031916908160001a9053506000610f7384600261131b565b610f7e9060016112d6565b90505b6001811115611003577f303132333435363738396162636465660000000000000000000000000000000085600f1660108110610fbf57610fbf61140a565b1a60f81b828281518110610fd557610fd561140a565b60200101906001600160f81b031916908160001a90535060049490941c93610ffc81611420565b9050610f81565b508315610d695760405162461bcd60e51b815260206004820181905260248201527f537472696e67733a20686578206c656e67746820696e73756666696369656e7460448201526064016102fa565b60006020828403121561106457600080fd5b81356001600160e01b031981168114610d6957600080fd5b60006020828403121561108e57600080fd5b5035919050565b6001600160a01b0381168114610be457600080fd5b80356110b581611095565b919050565b600080604083850312156110cd57600080fd5b8235915060208301356110df81611095565b809150509250929050565b634e487b7160e01b600052604160045260246000fd5b6000806040838503121561111357600080fd5b823567ffffffffffffffff8082111561112b57600080fd5b818501915085601f83011261113f57600080fd5b813581811115611151576111516110ea565b604051601f8201601f19908116603f01168101908382118183101715611179576111796110ea565b8160405282815288602084870101111561119257600080fd5b8260208601602083013760006020848301015280965050505050506111b9602084016110aa565b90509250929050565b8015158114610be457600080fd5b600080604083850312156111e357600080fd5b82356111ee816111c2565b946020939093013593505050565b805160ff811681146110b557600080fd5b600080600080600080600080610100898b03121561122a57600080fd5b885161123581611095565b975061124360208a016111fc565b96506040890151955061125860608a016111fc565b94506080890151935060a0890151925061127460c08a016111fc565b915060e089015190509295985092959890939650565b60006020828403121561129c57600080fd5b5051919050565b6000602082840312156112b557600080fd5b8151610d69816111c2565b634e487b7160e01b600052601160045260246000fd5b80820180821115610250576102506112c0565b60ff8181168382160190811115610250576102506112c0565b60ff8281168282160390811115610250576102506112c0565b8082028115828204841417610250576102506112c0565b60005b8381101561134d578181015183820152602001611335565b50506000910152565b7f416363657373436f6e74726f6c3a206163636f756e742000000000000000000081526000835161138e816017850160208801611332565b7f206973206d697373696e6720726f6c652000000000000000000000000000000060179184019182015283516113cb816028840160208801611332565b01602801949350505050565b60208152600082518060208401526113f6816040850160208701611332565b601f01601f19169190910160400192915050565b634e487b7160e01b600052603260045260246000fd5b60008161142f5761142f6112c0565b50600019019056fea264697066735822122082678e7e2afa1c559e41c9ee8a9f5585b16cc7af4ea89d701ec50c2ed34cbe5464736f6c63430008180033",
  "linkReferences": {},
  "deployedLinkReferences": {}
}